:020000040800F2
:1000000080DB01209D010008C92D0008112B00088C
:10001000C52D0008350B0008F95A00080000000043
:1000200000000000000000000000000079540008FB
:10003000390B000800000000370200087D5400085A
:10004000B7010008B7010008B7010008B7010008B0
:10005000B7010008B7010008B7010008B7010008A0
:10006000B7010008B7010008B7010008B701000890
:10007000B7010008B7010008B7010008B701000880
:10008000B7010008B7010008B7010008B701000870
:10009000B7010008B7010008B7010008B701000860
:1000A000B7010008B7010008B7010008B701000850
:1000B000B7010008B7010008B7010008B701000840
:1000C000B7010008B7010008B7010008B701000830
:1000D000B7010008E95A0008B7010008B701000895
:1000E000B7010008B7010008B7010008B701000810
:1000F000B7010008B7010008B7010008B701000800
:10010000B7010008B7010008B7010008B7010008EF
:10011000B7010008B7010008B7010008B7010008DF
:10012000B7010008B7010008B7010008B7010008CF
:10013000B70100083D0B0008B7010008B70100082F
:10014000B7010008B7010008B7010008B7010008AF
:10015000B7010008B7010008B7010008B70100089F
:10016000B7010008B7010008B7010008B70100088F
:10017000B7010008B7010008B7010008000000003F
:10018000B7010008B7010008DFF80CD000F010FC40
:10019000004800475D21010880DB012006488047B8
:1001A00006480047FEE7FEE7FEE7FEE7FEE7FEE75C
:1001B000FEE7FEE7FEE7FEE781550008890100083B
:1001C000EFF3098141B1F1EE101A40F8041D20ED62
:1001D000200A29490A6810607047B0EC200A02C85A
:1001E000E1EE101A25490A6810607047EFF310809D
:1001F00072B6704780F31088704721484FF6FF7140
:100200000170002080F309881E48016881F3088886
:100210001D48012101701D484FF08051016062B6F8
:10022000FEE71A484FF080510160704717484FF0C1
:1002300080510160704772B6EFF3098028B1203811
:1002400080E8F00F0C490968086000B51048804745
:100250005DF804EB0F4810490A7802700648074918
:100260000A680260106890E8F00F203080F3098877
:100270004EF0F40E62B6704798000020A0000020F7
:1002800022ED00E0640000209200002004ED00E078
:100290004943000887000020880000202DE9F05F16
:1002A0000546002092469B468846064681464024E5
:1002B0001BE0284641464746224600F061F9534676
:1002C0005A46C01A914110D311461846224600F0F2
:1002D00048F92D1A67EB01084F46224601200021FC
:1002E00000F03FF917EB00094E41201EA4F1010474
:1002F000DFDC484631462A464346BDE8F09F000011
:100300000048704760110308A0F16101192900D865
:1003100020387047A0F14101192900D820307047DA
:1003200010B5431A934209D28318881803E010F8D5
:10033000011D03F8011D521EF9D210BD40EA010350
:100340009B0703D009E008C9121F08C0042AFAD28B
:1003500003E011F8013B00F8013B521EF9D210BD39
:10036000D2B201E000F8012B491EFBD270470022F7
:10037000F6E710B513460A4604461946FFF7F0FFA4
:10038000204610BD10B5044604E00B7800F8013B90
:1003900003B1491C521EF8D2204610BDCAB2401EFD
:1003A00010F8011F8A4202D00029F9D100207047BD
:1003B000421C10F8011B0029FBD1801A704710B5B0
:1003C000002200E0521C835C8C5CA34201D1002B14
:1003D000F8D1D8B2E1B2401A10BD30B504460020C1
:1003E000034600E05B1C934203D2E05CCD5C401B03
:1003F000F8D030BD034611F8012B00F8012B002A7C
:10040000F9D11846704730B505460020034600E094
:100410005B1C934205D2EC5CC85C201A01D1002C15
:10042000F6D130BD70B500B91068002512E00B465A
:1004300002E0A64203D05B1C1C78002CF9D1E3B289
:100440002B4305D02CB125B1002100F8011B04E09D
:100450000546401C0678002EE9D11060284670BD84
:10046000004ADFE73C0200202DE9F0410E46054638
:10047000002400E0641C285DFFF74CFF0746305D58
:10048000FFF748FF381A02D1295D0029F2D1BDE8F3
:10049000F0812DE9F0410546002090460E460446C5
:1004A00000E0641C44450BD2285DFFF733FF07468C
:1004B000305DFFF72FFF381A02D1295D0029F0D1F6
:1004C000BDE8F0812DE9F05F93460F468046044673
:1004D000002605F00DFCD0F80090824614F8015B70
:1004E0002DB1FFF70DFF0068405DC007F6D12B2D41
:1004F00002D02D2D1AD0641E0021CAF800105A46D1
:100500003946204600F04CF8014627B13868A04231
:1005100001D1C7F80080DAF80000022809D0CAF833
:100520000090700505D54842BDE8F09F46F480660E
:10053000E2E70846F8E730B50B46014600202022E6
:10054000012409E021FA02F59D4205D303FA02F5E0
:10055000491B04FA02F52844151EA2F10102F1DC40
:1005600030BD202A04DB203A00FA02F10020704757
:100570009140C2F1200320FA03F3194390407047E1
:10058000202A04DB203A21FA02F00021704721FAE8
:1005900002F3D040C2F1200291400843194670474F
:1005A0002DE9F05F82460078002715468B460AF158
:1005B0000104B946302801D09DB113E014F8010BB5
:1005C0000127782803D0582801D045B10AE00DB1A1
:1005D000102D07D10027102514F8010B02E0082583
:1005E00000E00A250026B0460EE005FB080005FBEA
:1005F00006F1012701EB10461FFA80F8B6F5803F9F
:1006000000D3B94614F8010B294600F0F5F900288B
:10061000EBDABBF1000F05D00FB1641E00E05446C9
:10062000CBF80040B9F1000F06D005F061FB0221C4
:100630000160C81EBDE8F09F48EA0640FAE72DE9D0
:10064000FE4F804681EA0300C00F0C46009021F067
:10065000004123F00045B8EB0200A94105D2404615
:10066000214690461C460B46024623F000401043AC
:1006700047D0270DC7F30A00C3F30A510290401A6E
:10068000019040286BDAC3F3130040F4801B0098FC
:10069000924620B10023D2EB030A63EB0B0B0198C7
:1006A0005946C0F140025046FFF75BFF06460D4633
:1006B00050465946019A00F08DF910EB080061414F
:1006C000002487EA115284EAE7731A4340D0009A63
:1006D00062B3019A012A4FEA075215DC001B61EB55
:1006E00002014FF0004202EA0752CDE90042001C2D
:1006F00041F5801132462B4600F09BF903B0BDE86E
:10070000F08F40462146F9E7001B61EB0201001C17
:1007100041F5801300185B412018A2F5001747EB44
:10072000030140EAD570B6196D4111E06D084FEA3A
:10073000360645EAC0754FEA0752001B61EB02011D
:10074000001C41F5801149084FEA30000019514161
:1007500032462B4603B0BDE8F04F00F05BB900987D
:10076000012240000023D0EB020263EBE07300980B
:1007700021464FEAE074B8EB000061EB0401E9E7C1
:1007800083F000435BE781F0004158E72DE9FE4F1D
:1007900081EA030404F0004421F0004100944FF08A
:1007A000000B23F0004350EA01045ED052EA030438
:1007B0005BD0C3F30A54C1F30A552C44A4F2F334BA
:1007C0000194A0FB0254C1F3130141F48011C3F35F
:1007D000130343F4801301FB024400FB034E840A1D
:1007E000970A44EA815447EA8357A4FB07680295B5
:1007F0008D0A05FB07854FEA932C04FB0C54270553
:10080000029D4FEA065847EA1637B5EB08056EEB2E
:10081000070C870E920E47EA811742EA8312A7FB64
:100820000201B6EB0B0164EB00042B0D43EA0C3321
:100830005E1844EB1C50DA465146E7FB0201C5F353
:1008400013044FEA0B3343EA14534FEA0432019C7A
:1008500043EA0603A4F10C040294009CCDE900B421
:1008600000F0E7F803B0BDE8F08F00200146F9E79B
:100870002DE9F04D81EA030404F0004B21F000451E
:1008800014464FF0000A23F0004150EA050220D040
:1008900054EA01021DD0C5F30A570246C5F31303FB
:1008A000C1F31300C1F30A5640F4801543F48013DA
:1008B000A7EB0608101BD64608F2FD3873EB0500BF
:1008C00002D308F1010801E092185B41B8F1000F72
:1008D00003DA00200146BDE8F08D00204FF48011BE
:1008E000064684460EE0171B73EB050705D3121B63
:1008F00063EB050306434CEA010C49084FEA30005C
:1009000092185B4150EA0107EDD152EA030012D080
:1009100082EA040083EA0501084305D0101BAB41BD
:1009200006D20122002306E000224FF0004302E03D
:100930006FF0010253101AEB06004CEB085110EB5C
:100940000A0041EB0B01BDE8F04D00F063B8C1F3C4
:100950000A52C1F3130140F2FF3341F480119A426D
:1009600002DA00200146704740F233439A42A2F275
:10097000334202DC5242FFF703BEFFF7F2BD000034
:1009800030B5041E71F1000404DB4FF00044404216
:1009900064EB0101141E73F1000405DB1C464FF0EB
:1009A0000043524263EB0403994208BF904230BDBA
:1009B000064C074D06E0E06840F0010394E80700AC
:1009C00098471034AC42F6D3FFF7E2FBF01B030864
:1009D000101C0308202A06DBCB17203A41FA02F04C
:1009E00043EAE07306E041FA02F3D040C2F120028C
:1009F00091400843194670473A2800D2303820F019
:100A00002002412A01D3A2F13700884201D34FF0DE
:100A1000FF30704710B5141E73F1000408DA401C53
:100A200041F1000192185B411A4301D120F001000D
:100A300010BD2DE9F04D92469B4611B1B1FA81F2FD
:100A400002E0B0FA80F220329046FFF78AFD0446B9
:100A50000F4640EA0A0041EA0B0153465A46084352
:100A600013D0114653EA010019D0C8F14002504694
:100A7000FFF786FD05460E46504659464246FFF7AB
:100A800070FD084305D0012004E020463946BDE84A
:100A9000F08D0020054346EAE0762C4337430A9860
:100AA0006305E40AA0EB08000022FD0A44EA47546B
:100AB0000A3002D500200146E9E701051019694115
:100AC000DDE9084500196941BDE8F04DA2E770B5C0
:100AD0008C1810F8015B15F0070301D110F8013BE9
:100AE0002A1106D110F8012B03E010F8016B01F870
:100AF000016B5B1EF9D12B0705D40023521E0DD4C8
:100B000001F8013BFAE710F8013BCB1A921C03E015
:100B100013F8015B01F8015B521EF9D5A142D8D34D
:100B2000002070BD7047704770477047704770472E
:100B30007047704700BFFEE77047000070B502F0D5
:100B400095FC00241548456905F0010070B10120AD
:100B50001249486112480068006800F0004028B956
:100B600010480068703018F078FB044305F040002E
:100B700068B10A48C06920F040000849C8610120F6
:100B8000084909684867084818F067FB04434FF4B0
:100B900080300249486102F07BFC70BD0090024049
:100BA000B4010020B00100206001002030B50346F0
:100BB0001479557944EA0520084C0C442064D47813
:100BC0002406957844EA0544557844EA05241578C6
:100BD00044EA0500014C0C44606430BD00800240D2
:100BE00070B5AEB004460E46002526B14FF4006144
:100BF000E160C900A1600020119012901390149040
:100C000015901690E06918B94FF48060179001E0D4
:100C1000002017904FF400701890002019901A903F
:100C20001B901C901D9040201E9000201F90209033
:100C30002190229023902490259026908020279028
:100C40000020289029902A902B902C902D9020689D
:100C5000056871480540DDE911010843139908430F
:100C600014990843A1680843159908431699084345
:100C7000E1680843179908431899084319990843EC
:100C80001A9908431B9908430543206805602068AA
:100C90000568012000F0DCF820680560DDE91C0132
:100CA00008431E9908431F99084320990843219936
:100CB0000843229908432399084321684860206823
:100CC0004568012000F0C4F8206845602498216838
:100CD000886025982168C860206885694FF6417052
:100CE0000540DDE9261040EA01402899084329998A
:100CF00008432A9908432B990843054320688561D6
:100D000020688569012000F0A3F820688561DDE98D
:100D10002C0108432168C8612068C569012000F0E2
:100D200097F82068C561002001904FF00070029094
:100D3000002003904FF400100490002005900690CE
:100D40000790089004200990C0050A9040120B906B
:100D500080010C9040120D9080200E9000200F908A
:100D60001090206800F5805085692C480540DDE929
:100D7000010108430399084304990843059908436E
:100D800006990843079908430899084309990843B5
:100D90000543206800F580508561206800F580508B
:100DA0008569012000F054F8206800F580508561C5
:100DB000DDE90A0108430C9908430D9908430E998F
:100DC00008430F9940EA81001099084340F400015C
:100DD000206800F580500160206800F580500568AB
:100DE000012000F035F8206800F580500560A0690A
:100DF000012809D1206800F58050C06908490843DE
:100E0000216801F58051C861002120466269FFF721
:100E1000CDFE2EB070BD00000F8120FF233FDEF815
:100E2000400001007047014691F83500022803D0C8
:100E30008020486501207047052081F8350008684A
:100E4000006820F001000A6810600020F3E700004D
:100E500070B5044600F0A4FB06462546681C10B198
:100E600004480078054400BF00F09AFB801BA842AC
:100E7000FAD370BD5C0000202DE9FC41044600253A
:100E8000002001909D4E0027804614B90120BDE846
:100E9000FC8194F8440028B9002084F845002046DD
:100EA00000F03AF900BF002000909548006840F437
:100EB0008040934908600846006800F48040009034
:100EC00000BF00BF8F48006820F400008D49086013
:100ED00008460068216A08438A490860206800F5CE
:100EE0008050006840F00101206800F580500160EA
:100EF00000F056FB07460FE000F052FBC01BB0F5B8
:100F0000FA7F09D9032084F8440000BF002084F848
:100F1000450000BF0320BAE7206800F58050006854
:100F200000F001000028E7D12068056925F01C05C4
:100F300000F0A4FD06467448864205D373488642F5
:100F400002D245F008051AE07048864205D36B4886
:100F5000864202D245F00C0511E06848864203D370
:100F60006B48864200D20AE06948864205D3694848
:100F7000864202D245F0040501E045F010052068E4
:100F800005614FF400420021204600F0B0F948B15D
:100F90004FF0010841462046FFF722FE012084F869
:100FA000440074E7FF20FFF753FF6068002871D00A
:100FB00000F0F6FA074600BF01AA0121204600F022
:100FC0004DF900F0EDFAC01B41F2883188420FD98B
:100FD0004FF0010841462046FFF702FE012084F849
:100FE000440000BF002084F8450000BF03204EE706
:100FF000019800F004000428DED18202002120467E
:1010000000F075F948B14FF0010841462046FFF75E
:10101000E7FD012084F8440039E700F0C1FA0746F3
:1010200000BF01AA0121204600F018F900F0B8FA2B
:10103000C01B41F2883188420FD94FF00108414668
:101040002046FFF7CDFD012084F8440000BF0020BA
:1010500084F8450000BF032019E7019800F0200044
:101060002028DED101AA1F21204600F0F7F848B160
:101070004FF0010841462046FFF7B2FD012084F8F9
:10108000440004E7019800F0100020B14FF4006123
:10109000E16002E00DE00021E160019800F0040051
:1010A000042802D10021A1601EE04FF48041A1601C
:1010B0001AE0E068C0F3CF00A168C1F34F0140EA35
:1010C00001020021204600F012F948B14FF001085A
:1010D00041462046FFF784FD012084F84400D6E60F
:1010E00040F6FF70FFF7B4FE41462046FFF778FD5B
:1010F000012084F844000020C9E600000087930323
:101100004438024004380140002D3101C00E16025F
:1011100000E1F50580D1F00810B586B00446142131
:1011200001A8FFF724F94849206888427ED100BF12
:1011300000BF002000904548006840F0007043491F
:1011400008600846006800F00070009000BF00BF13
:1011500000BF002000900846006840F080600860F2
:101160000846006800F08060009000BF00BF00BF2C
:10117000002000900846006840F0006008600846C3
:10118000006800F00060009000BF00BF00BF00BF1B
:10119000002000900846006840F0040008600846FF
:1011A000006800F00400009000BF00BF00BF0020F6
:1011B00000900846006840F001000860084600689A
:1011C00000F00100009000BF00BF00BF00200090B1
:1011D0000846006840F0400008600846006800F0DB
:1011E0004000009000BF00BF32200190022002901A
:1011F00000200390032004900B20059001A91448BF
:1012000000F0BEF88620019002200290002003909A
:10121000032004900B20059001A90E4800F0B0F8BF
:101220004FF4D04001900220029000E009E000203D
:101230000390032004900B20059001A9064800F0BC
:101240009FF806B010BD0000008002403038024018
:101250000008024000000240001802402DE9F04161
:1012600004460E4617460025A84694F844008228F6
:1012700002D10220BDE8F081822084F84400206879
:10128000056905F01C05208A4FF4784101EAC02069
:101290000543481100EA8610054325F0020545F094
:1012A00001052068056100F07BF9804612E000F03E
:1012B00077F9A0EB0800B0F5803F09D3012084F84E
:1012C000440000BF002084F8450000BF0320D1E7A0
:1012D0002068056905F001000028E8D12068406910
:1012E00080B23860012084F844000020C2E72DE974
:1012F000F04104460E4617460025A84694F84400DF
:10130000422802D10220BDE8F081422084F8440046
:101310002068056905F01C05208A4FF4784101EA30
:10132000C0200543481100EA8610054345F0020538
:1013300045F00105B8B2216848612068056100F0F8
:101340002FF9804612E000F02BF9A0EB0800B0F571
:10135000803F09D3012084F8440000BF002084F8B6
:10136000450000BF0320CEE72068056905F00100B5
:101370000028E8D1012084F844000020C3E70000E1
:10138000F8B502460B460025002400200021DCE0D1
:10139000012606FA01F51E6806EA0504AC4273D17F
:1013A0005E68012E08D05E68022E05D05E68112EA0
:1013B00002D05E68122E13D190684F000326BE4003
:1013C000B0434F00DE68BE40304390605068012655
:1013D0008E40B0431E79C6F300168E4030435060F5
:1013E000D0684F000326BE40B0434F009E68BE4009
:1013F0003043D0605E68022E02D05E68122E13D198
:10140000CF0802F1200656F827004E07F70E0F26E8
:10141000BE40B0434F07FF0E1E69BE403043CF08A9
:1014200002F1200646F8270010684F000326BE4050
:10143000B0431E7906F003064F00BE4030431060F3
:101440005E6806F08056B6F1805F7DD100BF002651
:101450000096404E366846F480463E4F3E603E461B
:10146000366806F48046009600BF00BF3A4E8F08EB
:1014700056F827008E07370F0F26BE40B043374E71
:10148000B24202D1002624E05EE0354EB24201D1E4
:1014900001261EE0334EB24201D1022619E0324E3F
:1014A000B24201D1032614E0304EB24201D10426EB
:1014B0000FE02F4EB24201D105260AE02D4EB24276
:1014C00001D1062605E02C4EB24201D1072600E0EC
:1014D00008268F073F0FBE4030431F4E8F0846F847
:1014E0002700264E3068A0435E6806F48036B6F5C5
:1014F000803F00D12043214E3060361D3068A0432C
:101500005E6806F40036B6F5003F00D120431B4E5E
:10151000361D3060361D3068A0435E6806F48016C4
:10152000B6F5801F00D12043144E08363060361DBA
:101530003068A0435E6806F40016B6F5001F00D1BF
:1015400020430E4E0C363060491C1029FFF420AFAA
:10155000F8BD000044380240083801400000024055
:101560000004024000080240000C0240001002404B
:101570000014024000180240001C0240003C0140E0
:1015800042690A408A4202D10A04826100E0816114
:1015900070470AB1816101E00B048361704700006C
:1015A00001480068704700005400002003480068AC
:1015B0000349097808440149086070475400002035
:1015C0005C00002010B50D48006840F400700B4925
:1015D00008600846006840F48060086008460068BB
:1015E00040F480700860032000F0A2F8002000F0B2
:1015F00007F800F02BF8002010BD0000003C02406E
:1016000070B504460E4800784FF47A71B1FBF0F0E3
:101610000C490968B1FBF0F5284601F02BF908B137
:10162000012070BD102C07D200222146501E00F070
:1016300041F80548046001E00120F2E70020F0E7EE
:101640005C000020600000205800002008B500BFAA
:10165000002000900E48006840F480400C4908606B
:101660000846006800F48040009000BF00BF00BF43
:1016700000200090081F006840F08050091F08609B
:101680000846006800F08050009000BF00BF08BD11
:101690004438024001460846002809DB00F01F03D9
:1016A00001229A4043099B0003F1E023C3F8002183
:1016B00000BF70472DE9F05F80460D4616460027B3
:1016C00004F0FAFA074639462A46334601F0070085
:1016D000C0F1070ABAF1040F02D94FF0040A01E081
:1016E000C0F1070AD14600F1040ABAF1070F02D28D
:1016F0004FF0000A01E0A0F1030AD4464FF0010ABE
:101700000AFA09FAAAF1010A0AEA020A0AFA0CFA22
:101710004FF0010B0BFA0CFBABF1010B0BEA030BC7
:101720004AEA0B042146404604F0CEFABDE8F09F99
:1017300000BF00F00702064B19684FF6FF0319407F
:10174000044B0B4343EA0221014B196000BF704771
:101750000CED00E00000FA05F8B50446002500266F
:10176000207800F0010020B9207800F0040004285F
:101770002FD100205B498866FFF712FF054606E07F
:10178000FFF70EFF401B022801D90320F8BD564881
:101790000068C0F3C0600028F2D160688101207A3F
:1017A00041EA007050498431086001204D49886643
:1017B000FFF7F6FE054606E0FFF7F2FE401B0228A3
:1017C00001D90320E2E748480068C0F3C060002860
:1017D000F2D0207800F0020002287DD100BF002066
:1017E000009041484030006840F080503E49403110
:1017F00008600846006800F08050009000BF00BFFD
:101800003A48006840F4807038490860FFF7C8FE25
:10181000054606E0FFF7C4FE401B022801D903205D
:10182000B4E73248006800F480700028F2D02E48F7
:101830007030006800F440764EB3A08900F4407028
:10184000B04224D028487030006820F4407601204F
:10185000274908600020086023487030066000684F
:1018600000F0010098B1FFF79BFE054608E0FFF786
:1018700097FE401B41F28831884201D9032085E759
:10188000194870300068C0F340000028EFD000BF56
:10189000A08900F44070B0F5407F0CD112480830A8
:1018A000006820F4F810134AE168114008430E491B
:1018B0000831086007E00C480830006820F4F81090
:1018C000094908310860084870300068A189C1F3EF
:1018D0000B010843044900E002E07031086000BFDA
:1018E000002053E7000047420038024000700040EB
:1018F000400E4742FFFCFF0F70B504460D460CB981
:10190000012070BD5848006800F00F00A84209D2BD
:1019100055490D700846006800F00F00A84201D03C
:101920000120EEE7207800F0020002281DD1207887
:1019300000F00400042805D14C48006840F4E05051
:101940004A490860207800F00800082805D1474877
:10195000006840F46040454908604448006820F051
:10196000F000A168084341490860207800F00100B8
:10197000A8B36068012807D13C4808380068C0F364
:101980004040B8B90120BCE76068022802D0606816
:10199000032807D1354808380068C0F3406048B9CB
:1019A0000120AEE7314808380068C0F3400008B9AC
:1019B0000120A6E72D48006820F003006168084375
:1019C0002A490860FFF7ECFD064609E0FFF7E8FD4D
:1019D000801B41F28831884202D9032091E707E059
:1019E0002248006800F00C006168B0EB810FEDD177
:1019F0001D48006800F00F00A84209D91A490D706F
:101A00000846006800F00F00A84201D0012078E7E6
:101A1000207800F00400042807D11448006820F45E
:101A2000E050E168084311490860207800F00800A0
:101A3000082808D10D48006820F46040216940EA78
:101A4000C1000A49086000F03FF808490968C1F37D
:101A50000311074A515CC8400649086006480068FF
:101A6000FFF7CEFD00204CE7003C02400838024062
:101A7000DCE60208600000205800002001480068F1
:101A8000704700006000002000B5FFF7F7FF044931
:101A90000968C1F38221034A515CC84000BD0000BF
:101AA00008380240ECE6020800B5FFF7E7FF0449FA
:101AB0000968C1F34231034A515CC84000BD0000CF
:101AC00008380240ECE602082DE9F0470024002522
:101AD0000026A1462548006800F00C0020B104282B
:101AE00005D008283AD105E0DFF8849039E0DFF826
:101AF000849036E01D48001F006800F03F041B483A
:101B0000001F006800F4800078B11A481749091FC7
:101B10000968C1F38811A0FB017001462246002329
:101B20003846FEF7BBFB05460EE011480F49091F7A
:101B30000968C1F38811A0FB017001462246002309
:101B40003846FEF7ABFB05460848001F0068C0F3A7
:101B50000140401C4600B5FBF6F902E0DFF81090AA
:101B600000BF00BF4846BDE8F087000008380240CB
:101B70000024F40040787D01F8B504460CB901203A
:101B8000F8BD207800F00100002874D0F948006802
:101B900000F00C0004280DD0F648006800F00C009E
:101BA000082813D1F348001F006800F48000B0F546
:101BB000800F0BD1EF4808380068C0F34040002880
:101BC00059D06068002856D10120D9E700BF60686D
:101BD000B0F5803F08D1E7480838006840F480300D
:101BE000E449083908601EE06068B0F5A02F0DD107
:101BF000E0480838006840F48020DE490839086071
:101C00000846006840F4803008600CE0D948083885
:101C1000006820F48030D749083908600846006819
:101C200020F48020086000BF606890B1FFF7B8FC26
:101C3000054606E0FFF7B4FC401B642801D90320E9
:101C40009EE7CC4808380068C0F340400028F1D037
:101C500011E0FFF7A5FC054606E0FFF7A1FC401BDD
:101C6000642801D903208BE7C24808380068C0F314
:101C700040400028F1D1207800F0020002285FD116
:101C8000BC48006800F00C0058B1BA48006800F089
:101C90000C0008281CD1B748001F006800F4800021
:101CA000B0B9B44808380068C0F3400020B1E0681B
:101CB000012801D0012063E7AE480838006820F011
:101CC000F800216940EAC100AA490839086037E0F4
:101CD000E06800B30120A8490860FFF761FC0546F1
:101CE00006E0FFF75DFC401B022801D9032047E70F
:101CF000A04808380068C0F340000028F1D09D4893
:101D00000838006820F0F800216940EAC1009949CC
:101D10000839086014E0002097490860FFF740FC8C
:101D2000054606E0FFF73CFC401B022801D90320D2
:101D300026E7904808380068C0F340000028F1D139
:101D4000207800F0080008282CD16069A8B1012093
:101D50008A490860FFF724FC054606E0FFF720FCEF
:101D6000401B022801D903200AE782486C30006832
:101D7000C0F340000028F1D014E000207F49086043
:101D8000FFF70EFC054606E0FFF70AFC401B0228A1
:101D900001D90320F4E677486C300068C0F34000B6
:101DA0000028F1D1207800F00400042870D1002729
:101DB00070483830006800F0805090B900BF0020B3
:101DC00000906C483830006840F0805069493831E4
:101DD00008600846006800F08050009000BF00BF17
:101DE00001276748006800F48070B0B96448006853
:101DF00040F4807062490860FFF7D2FB054606E0B8
:101E0000FFF7CEFB401B022801D90320B8E65C484F
:101E1000006800F480700028F2D000BFA06801289C
:101E200008D154486830006840F0010051496831D9
:101E300008601DE0A06805280DD14E486830006894
:101E400040F004004B49683108600846006840F0E3
:101E5000010008600CE047486830006820F001008D
:101E60004449683108600846006820F004000860B2
:101E700000BFA068A8B1FFF793FB054609E0FFF794
:101E80008FFB401B41F28831884202D9032077E65C
:101E900026E0384868300068C0F340000028EED0E3
:101EA00013E0FFF77DFB054608E0FFF779FB401BD9
:101EB00041F28831884201D9032061E62D4868301B
:101EC0000068C0F340000028EFD1012F07D1294856
:101ED0003830006820F0805026493831086000BF53
:101EE000A069002845D02348006800F00C000828AD
:101EF0005DD0A069022845D100201F490866FFF780
:101F00004FFB054606E0FFF74BFB401B022801D9BB
:101F1000032035E6174808380068C0F34060002801
:101F2000F1D1D4E907010843616A40EA8111012235
:101F3000A06AC2EB500041EA00412C20005D41EA5A
:101F400000600C49091F086001200B490866FFF773
:101F500027FB054606E0FFF723FB401B022801D9BB
:101F600003200DE6034808380068C0F340600028ED
:101F7000F1D03FE00838024000004742800E47425F
:101F80000070004000201C490866FFF709FB054669
:101F900006E0FFF705FB401B022801D90320EFE50F
:101FA00016480068C0F340600028F2D122E0A06922
:101FB000012800D1E4E511480830066806F48001E4
:101FC000E069814214D106F03F01206A81420FD1BD
:101FD00047F6C0703040616A884209D106F440314A
:101FE000A06A814204D106F07061E06A814201D0AA
:101FF0000120C5E50020C3E500004742003802404B
:102000002DE9F04104460E46002700BF2079012843
:1020100002D10220BDE8F0810120207100BF60796B
:10202000012822D102206071FFF7BAFA05460EE0BE
:10203000FFF7B6FA401B022809D90120607102207F
:10204000A06000BF0020207100BF0120E2E72068EF
:10205000406800F001000028EAD020688068E06055
:10206000E06830600120607102E00420A060012778
:1020700000BF0020207100BF3846CBE710B50446F2
:1020800004F10C012046FFF7BBFF08B9E06810BD62
:102090000020FCE710B504460CB9012010BD6079A2
:1020A00020B900202071204600F00EF80220607157
:1020B0002068006840F00400216808600120607119
:1020C0000020A06000BFE9E708B50A4A0168914214
:1020D0000FD100BF002100910749096841F040017C
:1020E000054A11601146096801F04001009100BFE6
:1020F00000BF08BD000806503438024010B5044641
:102100000CB9012010BD607F20B900202077204647
:1021100000F060F80220607700BFCA2021684862A2
:1021200053202168486200BF204603F03DF840B1CB
:1021300000BFFF202168486200BF042060770120B3
:10214000E0E72068806822490840216888602169AA
:102150006068084361690843216889680843216809
:1021600088602168E068086120680169208941EA87
:102170000040216808612068C06820F08000216864
:10218000C8602068806800F0200060B9204600F038
:102190002DF840B100BFFF202168486200BF042035
:1021A00060770120AEE72068006C20F48020216871
:1021B00008642068006CA16908432168086400BFB6
:1021C000FF202168486200BF01206077002099E766
:1021D000BFFF8FFF034A0168914202D10121024AE9
:1021E00011607047002800403C0E474270B504461D
:1021F00000252068C06820F0A0002168C860FFF7B3
:10220000CFF9054607E0FFF7CBF9401BB0F57A7F21
:1022100001D9032070BD2068C06800F020000028AC
:10222000F1D00020F6E7014691F85100704710B553
:1022300004460CB9012010BD606A00B900BF00213E
:10224000A16294F8510028B9002084F8500020467B
:1022500000F034F8022084F851002068006820F073
:10226000400021680860D4E901010843E16808439F
:102270002169084361690843218B01F40071084317
:10228000E1690843216A0843A16A0843216808609C
:102290000421A06901EA1040616A0843216848608E
:1022A0002068C06920F400602168C8610020606572
:1022B000012084F851000020BDE7000010B586B071
:1022C0000446142101A8FEF752F81B4920688842F1
:1022D0002FD100BF002000901848006840F48050C3
:1022E000164908600846006800F48050009000BF5E
:1022F00000BF00BF0020009010481438006840F074
:1023000002000E49143908600846006800F0020017
:10231000009000BF00BF38200190022002900020F2
:102320000390032004900520059001A90448FFF7BD
:1023300027F806B010BD00000030014044380240CC
:10234000000402402DE9F8430446884616461D461F
:102350004FF000096068B0F5827F0DD1A06858B9D0
:10236000042084F8510033464246414620460095F9
:1023700000F06BF9BDE8F88300BF94F85000012825
:1023800001D10220F6E7012084F8500000BFFFF7DA
:1023900007F9074694F85100012802D04FF00209CE
:1023A00078E0B8F1000F00D016B94FF0010971E0E4
:1023B000042084F8510000206065C4F83880A687A6
:1023C000E6872063A086E08620646064A068B0F59C
:1023D000004F05D12068006820F480402168086023
:1023E0002068006800F04000402805D020680068A0
:1023F00040F0400021680860E068F8B91AE0206801
:10240000806800F0010050B12068007BA16B08706B
:10241000A06B401CA063E08F401EE0870AE0FFF73E
:10242000BFF8C01BA84201D3681C00B915B94FF012
:1024300003092FE0E08F0028E1D11EE01AE02068B8
:10244000806800F0010050B12068C068A16B08806E
:10245000A06B801CA063E08F401EE0870AE0FFF7BE
:102460009FF8C01BA84201D3681C00B915B94FF0F2
:1024700003090FE0E08F0028E1D13A4629462046C3
:1024800002F025FF08B120206065606D08B14FF0B3
:10249000010900BF012084F8510000BF002084F82A
:1024A000500000BF484665E72DE9F84F04468846CE
:1024B00016461D464FF0000A00BF94F85000012850
:1024C00002D10220BDE8F88F012084F8500000BF3F
:1024D000FFF766F80746B14694F85100012802D08C
:1024E0004FF0020AA7E0B8F1000F00D016B94FF084
:1024F000010AA0E0032084F8510000206065C4F8C0
:102500003080A686E686A063A087E08760642064AA
:10251000A068B0F5004F05D12068006840F4804005
:10252000216808602068006800F04000402805D05D
:102530002068006840F0400021680860E068B0F55D
:10254000006F2FD1606810B1B9F1010F09D1206B74
:1025500000882168C860206B801C2063E08E401ECC
:10256000E0861BE02068806800F0020002280AD1A3
:10257000206B00882168C860206B801C2063E08E7F
:10258000401EE0860AE0FFF70BF8C01BA84201D30B
:10259000681C00B915B94FF0030A4CE0E08E002822
:1025A000E0D12EE0606810B1B9F1010F09D1206BC4
:1025B000007821680873206B401C2063E08E401E69
:1025C000E0861BE02068806800F0020002280AD143
:1025D000206B007821680873206B401C2063E08E1C
:1025E000401EE0860AE0FEF7DBFFC01BA84201D3D5
:1025F000681C00B915B94FF0030A1CE0E08E0028F2
:10260000E0D13A462946204602F0ACFE08B120202F
:102610006065A06850B900BF002000902068C068C5
:10262000009020688068009000BF00BF606D08B116
:102630004FF0010A00BF012084F8510000BF0020C4
:1026400084F8500000BF50463CE72DE9FF5F044688
:10265000884691461D460E9E012002900020019062
:1026600000BF94F85000012803D1022004B0BDE857
:10267000F09F012084F8500000BFFEF791FF07464D
:1026800094F851B060680390AA46BBF1010F0BD0DB
:102690000398B0F5827F04D1A06810B9BBF1040F94
:1026A00002D002200190DBE0B8F1000F03D0B9F1B5
:1026B000000F00D015B901200190D1E094F851002D
:1026C000042802D0052084F8510000206065C4F879
:1026D0003890E587A587C4F83080E586A586206414
:1026E00060642068006800F04000402805D0206841
:1026F000006840F0400021680860E068B0F5006FB5
:102700004AD1606810B1BAF1010F09D1206B00887D
:102710002168C860206B801C2063E08E401EE0862C
:1027200033E02068806800F00200022810D1E08EBB
:1027300070B1029801280BD1206B00882168C86015
:10274000206B801C2063E08E401EE08600200290FB
:102750002068806800F0010068B1E08F58B12068FF
:10276000C068A16B0880A06B801CA063E08F401E36
:10277000E08701200290FEF713FFC01BB04204D394
:10278000701C10B1032001906AE0E08E0028C8D1CF
:10279000E08F0028C5D14AE0606810B1BAF1010F9E
:1027A00009D1206B007821680873206B401C2063DE
:1027B000E08E401EE08634E02068806800F0020071
:1027C000022810D1E08E70B1029801280BD1206B45
:1027D000007821680873206B401C2063E08E401E47
:1027E000E086002002902068806800F0010068B157
:1027F000E08F58B12068C068A16B0870A06B401CC6
:10280000A063E08F401EE08701200290FEF7C8FE23
:10281000C01BB04201D3701C00B916B9032001904F
:102820001EE0E08E0028C7D1E08F0028C4D13A46D0
:102830003146204602F096FD20B101200190202073
:1028400060650DE0A06850B900BF002000902068CE
:10285000C068009020688068009000BF00BF00BF83
:10286000012084F8510000BF002084F8500000BF10
:102870000198FBE670B504462546681EB0F1807FDE
:1028800001D301200FE0681E4FF0E02148610F21C5
:102890004FF0FF3003F018FA00204FF0E02188617C
:1028A00007200861002070BD704700002DE9F04747
:1028B0000446206805682068C668206847694FF0AC
:1028C0000008C14605F00F08B8F1000F0AD105F065
:1028D000200038B106F0200020B1204602F088FE2A
:1028E000BDE8F087B8F1000F72D007F0010018B909
:1028F00006F4907000286BD005F0010030B106F4AA
:10290000807018B1E06B40F00100E06305F0040056
:1029100030B107F0010018B1E06B40F00200E06355
:1029200005F0020030B107F0010018B1E06B40F093
:102930000400E06305F0080048B106F0200010B97B
:1029400007F0010018B1E06B40F00800E063E06BB5
:1029500070B305F0200028B106F0200010B1204629
:1029600002F046FE20684069C0F38019E06B00F079
:10297000080010B9B9F1000F23D0204602F018FE6C
:102980002068406900F04000402816D12068406966
:1029900020F0400021684861606B50B11748616BBE
:1029A0000865606BFEF73FFA10B1606B016D8847F8
:1029B0000CE02046FFF778FF08E02046FFF774FFA1
:1029C00004E02046FFF770FF0020E06388E7FFE7A0
:1029D00005F0800030B106F0800018B1204603F009
:1029E0004FF87DE705F0400030B106F0400018B127
:1029F000204602F0EDFD73E700BF71E79D5500082A
:102A000010B504460CB9012010BDA06900B100E06A
:102A100000BF94F8390028B9002084F83800204617
:102A200000F028F8242084F839002068C06820F4D9
:102A300000502168C860204602F02EFE2068006920
:102A400020F49040216808612068406920F02A0045
:102A5000216848612068C06840F400502168C8605F
:102A60000020E063202084F8390084F83A00002038
:102A7000CAE7000010B586B00446142101A8FDF78E
:102A800076FC1F492068884238D100BF00200090A2
:102A90001C48006840F010001A49086008460068A9
:102AA00000F01000009000BF00BF00BF00200090A9
:102AB00014481438006840F00100124914390860C5
:102AC0000846006800F00100009000BF00BF4FF40E
:102AD000C060019002200290012003900320049026
:102AE0000720059001A90848FEF74AFC002211467C
:102AF0002520FEF7DFFD2520FEF7CCFD06B010BD3A
:102B00000010014044380240000002407047704706
:102B100000BFFEE770B504460D46224602A12846D6
:102B200003F0A0F8002070BD2530327800000000CE
:102B30002DE9F04106460D461746002405E005EB59
:102B40004401305DFFF7E6FF641CBC42F7DB002068
:102B500005F81400BDE8F08110B514481449086068
:102B600001204860002112480182406901708021E3
:102B70000F4840694170E1210D4840698170002192
:102B80000B484069C1700A484069017108484069B2
:102B9000417107488161C1614FF400010162FEF794
:102BA0006BF908B1FEF73EF910BD0000008002404D
:102BB000F421002000B587B0142102A8FDF7D7FB4F
:102BC00000BF002001904748006840F020004549C0
:102BD00008600846006800F02000019000BF00BFB8
:102BE00000BF002001900846006840F00400086023
:102BF0000846006800F00400019000BF00BF00BF5D
:102C0000002001900846006840F001000860084676
:102C1000006800F00100019000BF00BF00BF00206D
:102C200001900846006840F002000860084600680D
:102C300000F00200019000BF00BF00BF0020019023
:102C40000846006840F0080008600846006800F088
:102C50000800019000BF00BF00BF0020019008469F
:102C6000006840F0400008600846006800F040003E
:102C7000019000BF00BF00224FF4C0611A48FEF768
:102C800088FC00224FF480411848FEF782FC0022A5
:102C900008211748FEF77DFC4FF4C0600290012028
:102CA000039000200490059002A90F48FEF768FBEE
:102CB0004FF4804002900120039000200490059082
:102CC00002A90A48FEF75CFB08200290012003904D
:102CD00000200490059002A90548FEF751FB07B0BB
:102CE00000BD0000303802400014024000040240E1
:102CF000000C024010B50548054908600846FFF77A
:102D0000C9F908B1FEF78EF810BD000000080650A2
:102D10003C22002010B50A480A490860002048609B
:102D20007F2108488160FF21C1600021016141616C
:102D30008161FFF7E3F908B1FEF774F810BD0000F8
:102D4000002800404C22002010B50E480E490860B3
:102D50004FF48270486000210B488160C1600161BE
:102D600041614FF4007181610021C16101624162E2
:102D700081620A21C162FFF75AFA08B1FEF752F8E0
:102D800010BD0000003001406C22002010B50B483F
:102D90000B4908604FF4E130486000210848816029
:102DA000C16001610C21416100218161C161FFF7B6
:102DB00027FE08B1FEF736F810BD000000100140F4
:102DC000C422002000BFFEE7704700002DE9F0415B
:102DD00005460E46144600271148007818B1122007
:102DE0002070BDE8F0812878012808D0022807D09B
:102DF000032802D0042804D100E000BF00BF00BFB8
:102E000002E001202070ECE700BFFDF7EFF9074674
:102E10006E613846FDF7EEF90020207000BFE0E754
:102E2000850000202DE9F05F04460F4691461E46BE
:102E30004FF0000B2078052804D0012030700020CE
:102E4000BDE8F09F09F0800ABAF1000F04D029F024
:102E500080094FF0010801E04FF0000800203070B9
:102E6000FDF7C4F98346B9F1000F2CD0B9F1010F79
:102E70003BD0B9F1020F03D0B9F1030F46D111E0F5
:102E8000A06800EA0705BD4206D1B8F1010F05D1DF
:102E9000A068A843A06001E0702030705846FDF79C
:102EA000A9F93AE0A06800EA070535B1B8F1010FC9
:102EB00005D1A068A843A06001E07020307058469A
:102EC000FDF798F929E0A06827EA0005BD4206D180
:102ED000B8F1010F05D1A0682843A06001E070207F
:102EE00030705846FDF786F917E0A06827EA00051C
:102EF00035B1B8F1010F05D1A0682843A06001E009
:102F0000702030705846FDF775F906E05846FDF719
:102F100071F900256F20307000BF00BF28468FE791
:102F20002DE9F04106460D4600271348007820B1F0
:102F3000102028700020BDE8F081FDF757F9074602
:102F40000E48046884B1006840680C490860052098
:102F50002070A6600020606009A0E0603846FDF7A0
:102F600049F90020287004E03846FDF743F9722043
:102F700028702046DFE70000850000207400002054
:102F80003F0000002DE9F0470446894615464FF002
:102F9000000A3248007820B10F2028702046BDE892
:102FA000F0872078052803D0012028702046F6E716
:102FB000FDF71CF98246606808B1012700E0002790
:102FC000B9F1000F03D0B9F1010F3DD119E08FB96C
:102FD00023A0E0600020207022480068606000208C
:102FE000A060204804605046FDF704F900202870D6
:102FF000002605E05046FDF7FDF8492028702646DA
:1030000029E0D4F8048006E002220021404601F0C5
:103010007FFDD8F80080B8F1000FF5D110A0E06076
:10302000002020700F48006860600020A0600D48FC
:1030300004605046FDF7DEF8012F01D101F018FFC2
:1030400000202870002606E05046FDF7D3F8072040
:103050002870264600BF00BF3046A0E7850000204C
:103060003F000000740000202DE9F04F89B00546B4
:103070000F4691469A46129E002001908C48007897
:1030800028B102203070002009B0BDE8F08F8948D7
:10309000007818B10D2030700020F5E72878052859
:1030A00003D0012030700020EEE709F0800BBBF167
:1030B000000F04D009F07F094FF0010801E04FF044
:1030C0000008FDF793F80190B9F1000F4AD0B9F16B
:1030D000010F68D0B9F1020F03D0B9F1030F76D117
:1030E00020E0A86800EA0704BC420FD1B8F1010F44
:1030F00002D1A868A043A8606F480068C462019824
:10310000FDF778F8002030702046BDE74B463A4680
:1031100003A92846CDF800A001F07CFC0198FDF73A
:1031200069F869E0A86800EA07047CB1B8F1010F0A
:1031300002D1A868A043A8605F480068C4620198F3
:10314000FDF758F80020307020469DE74B463A4680
:1031500003A92846CDF800A001F05CFC0198FDF71A
:1031600049F849E0A86827EA0004BC420FD1B8F149
:10317000010F02D1A8682043A8604F480068C462CC
:103180000198FDF737F80020307020467CE74B4669
:103190003A4603A92846CDF800A001F03BFC01986F
:1031A000FDF728F828E0A86827EA000484B1B8F100
:1031B000010F02D1A8682043A8603F480068C4629C
:1031C0000198FDF717F80020307020465CE70BE00F
:1031D0004B463A4603A92846CDF800A001F01AFC58
:1031E0000198FDF707F807E00198FDF703F80024C0
:1031F0006F203070204647E700BF01F039FEFCF732
:10320000F5FF01902C48006890F8350020B32A485B
:10321000006890F83500029000202749096881F87D
:10322000350003A801F0A4FC00202349096881F8B7
:1032300034000198FCF7DEFF00240298012805D035
:10324000022802D10E20307003E000BF0A20307047
:1032500000BF00BF204617E717480068C46AB8F1EE
:10326000010F1ED1B9F1000F0ED0B9F1010F0CD032
:10327000B9F1020F03D0B9F1030F0AD100E000BF8A
:10328000A868A043A8600BE000BFA8682043A8601E
:1032900006E00198FCF7AEFF6F2030700020F3E6E7
:1032A00000BF0198FCF7A6FF002030702046EBE637
:1032B0008500002086000020980000202DE9FC5F9A
:1032C0000446894692461E46002000902078052834
:1032D00004D0012030700020BDE8FC9FFCF786FF81
:1032E0000090BAF1000F03D0BAF1010F0AD104E047
:1032F000A06820EA0900A0600BE0A06840EA09008D
:10330000A06006E00098FCF775FF71203070002087
:10331000E2E700BF4FF0000B656859E0287D50B32D
:1033200001283BD0022802D0032848D112E0A0682F
:10333000296900EA01072869B8420AD10022394602
:10334000284601F0E5FB8046B8F1010F01D14FF0AE
:10335000010B3BE0A068296900EA010757B1002290
:103360003946284601F0D4FB8046B8F1010F01D15F
:103370004FF0010B2AE02869A16820EA01072869BB
:10338000B8420AD100223946284601F0C1FB8046E6
:10339000B8F1010F01D14FF0010B17E02869A168C6
:1033A00020EA010757B100223946284601F0B0FB58
:1033B0008046B8F1010F01D14FF0010B06E00098F3
:1033C000FCF718FF6F203070002085E700BF2D68E4
:1033D000002DA3D10098FCF70DFFBBF1010F01D127
:1033E00001F046FDFCF702FF0090A06801900098F4
:1033F000FCF700FF0020307001986DE710B500F079
:1034000017F801F0F7FB01F023FC01F043FC01F099
:10341000C1FB01F051FB01F0D7FC01F001FD01F00F
:1034200079FC01F09FFC01F0BBF800F01DF810BD25
:103430000948802102E0491E002204C00029FAD177
:10344000064A074B1A601A46126822F007021A60F1
:103450000022044B1A80704704230020042500201A
:1034600064000020680000207047000006480078D3
:10347000012808D105480078FF2804D203480078C5
:10348000401C02490870704792000020850000200F
:1034900010B500241A480078012830D1FCF7A6FEA8
:1034A00004461848007820B116480078401E154997
:1034B000087014480078F8B913480078E0B901F0B2
:1034C00011FD12481249097850F82100114908608D
:1034D0000F4800781049097888420DD00D480068DF
:1034E000C06B401C0B490968C8630C480068401C4D
:1034F0000A490860FCF79AFE2046FCF77BFE10BDE7
:10350000920000208500002086000020242C00204E
:1035100088000020A0000020870000206C00002010
:103520002DE9F04104460E4600272248007820B1DC
:10353000102030700020BDE8F081FCF757FE0746F0
:10354000FF2C0ED01C4850F8240030B13846FCF750
:1035500051FE282030700020EDE70120164941F887
:1035600024001648056865B9FF2C03D000201249D5
:1035700041F824003846FCF73DFE04203070284610
:10358000D9E70E48006840680C4908603846FCF7E7
:1035900031FE04202870FF2040EA0420288100200A
:1035A000686007A06861284601F026FA00203070A4
:1035B0002846C0E785000020242C00207000002051
:1035C0003F0000002DE9F74F82B005461746002066
:1035D00001902878042804D00120387005B0BDE897
:1035E000F08F8548007810B102203870F6E78348E4
:1035F000007810B10D203870F0E7FCF7F7FD01906E
:1036000028894FEA2029287AFF2822D1288900F426
:103610007F40288128897A49096891F83610084343
:103620002881774800686860B9F1FF0F0BD07448B3
:10363000006890F83600484505DC0198FCF7DAFD93
:103640007820387004E00198FCF7D4FD0020387031
:10365000C4E7B9F1FF0F7CD095F808B06C6894F816
:10366000360048457CDD6648006890F836005845CD
:1036700076DA94F83880634810F8080094F8391026
:103680000840B0B15F4810F8080094F8391088433A
:103690005C4901F80800084610F8080030B994F8B1
:1036A0003A10594800788843574908704FF0010A8A
:1036B00019E0E669AEB194F8388006F10B0010F815
:1036C000080094F83910884306F10B0101F808004E
:1036D000084610F8080020B9B07A94F83A108843E8
:1036E000B0724FF0000A04F8369F2078C010A07026
:1036F000207800F007006070A178012088402071D8
:10370000617801208840E070363CBAF1010F10D199
:103710003834A0783C49097808433B490870207840
:103720003849085C6178084314F83819354A505410
:1037300013E0E6698EB1B07A3834A1780843B072EC
:10374000217806F10B00405C6178084314F83829B1
:1037500000E005E006F10B0188542C4840F82940B0
:103760002748006890F8340040F0100024490968A8
:1037700081F8340000202249096881F83500204989
:10378000039809680863284601F0F8F80198FCF7E7
:1037900031FD01F06DFBFCF729FD01901848006830
:1037A00090F8350020B1012809D0022806D102E0A6
:1037B000002038700BE00E20387008E000BF29466A
:1037C0000F48006801F0A6F80A20387000BF00BF5B
:1037D00000200B49096881F834000949096881F81B
:1037E000350007490968C8610549096808620198F8
:1037F000FCF700FD00BFF1E68500002086000020F8
:10380000980000208A00002089000020242C00203D
:103810002DE9F041044600272E48007810B105201C
:10382000BDE8F0812078042801D00120F8E7FCF7FA
:10383000DDFC074620890512267A27496068096859
:10384000884204D03846FCF7D5FC6420E8E7FF2D19
:103850000ED02148006890F83600A84204D13146C5
:103860001D48006800F03CF801201C4941F8250083
:10387000A07A18B3002310221946204601F002F85E
:103880000646208900F47F40208120893043208132
:10389000124850F826006060FF2D08D0AE4206DCCA
:1038A0003846FCF7A7FC01F0E3FA7820B8E7384681
:1038B000FCF7A0FC01F0DCFA0020B1E7208940F021
:1038C000FF002081002060603846FCF793FC002058
:1038D000A6E700008500002098000020242C00208E
:1038E00030B590F838201B4B9B5C90F83940A343CF
:1038F000184CA35423469B5C33B990F83A40164BBE
:103900001B78A343144C237000F8361F134B197017
:10391000C1F3C203837001F007034370847801236D
:10392000A340037144780123A340C37003790A4C78
:1039300024782343084C23708378064CE35CC478D6
:10394000234384783638034D2B55054B43F821002B
:1039500030BD00008A000020890000208700002080
:10396000242C00202DE9F04106460F464FF00008B8
:103970002048007810B10020BDE8F081FCF736FC4B
:1039800080461D480468006820B11B4800684068F4
:10399000194908604046FCF72DFCFCB1FCF726FCF9
:1039A000804616480568D5B100680068134908606C
:1039B0004046FCF71FFC6E6006EB8700A860EE60D7
:1039C0002E61AF820020E88202202070002020813A
:1039D00065600BA06061204601F00EF808E0064823
:1039E00000686060044804604046FCF703FC002463
:1039F0002046C1E78500002070000020B0000020B4
:103A00003F00000010B500240B480078012811D1B8
:103A1000FCF7ECFB04460948007840B908480078F8
:103A2000FF2804D206480078401C0549087020464B
:103A3000FCF7E0FB10BD0000920000208500002094
:103A40008600002010B5002413480078012821D1F9
:103A5000FCF7CCFB044611480078C0B91048007848
:103A600088B10F480078401E0D490870084600785C
:103A700028B92046FCF7BEFB01F0FAF90AE020461F
:103A8000FCF7B8FB06E02046FCF7B4FB02E020465A
:103A9000FCF7B0FB10BD0000920000208500002064
:103AA0008600002070B5054600261048007808B151
:103AB000002070BDFCF79AFB06460D4804680068BC
:103AC00020B10B4800684068094908603046FCF79F
:103AD00091FB4CB10320207025810020606005A07F
:103AE0006061204600F088FF2046E2E78500002064
:103AF000700000203F0000002DE9F04105460E4611
:103B0000144600272878032803D001202070BDE840
:103B1000F0813248007810B102202070F7E7304879
:103B2000007810B10D202070F1E7FCF75FFB07462D
:103B3000288940B12889401E28813846FCF75AFB65
:103B400000202070E3E72748006890F8340040F038
:103B500001002449096881F83400002021490968DE
:103B600081F835001F4800680663284600F006FF0C
:103B70003846FCF73FFB01F07BF9FCF737FB0746C3
:103B80001848006890F8350020B1012809D00228B3
:103B900006D102E0002020700BE00E20207008E02B
:103BA00000BF29460F48006800F0B4FE0A202070CC
:103BB00000BF00BF00200B49096881F834000949A3
:103BC000096881F8350007490968C861054909682D
:103BD00008623846FCF70EFB00BF98E7850000201E
:103BE000860000209800002070B50446002520784B
:103BF000032801D0012070BDFCF7F8FA0546A07A31
:103C000060B1002301221946204600F03BFE284601
:103C1000FCF7F0FA01F02CF90020ECE720894FF6D0
:103C2000FF71884207D22089401C20812846FCF77A
:103C3000E1FA0020DFE72846FCF7DCFA3320DAE778
:103C400010B50B48007890B901F04CF9094800789C
:103C50000949087009480749097850F821000849BE
:103C600008600846006807490860FCF7C6FA10BDFE
:103C7000920000208800002087000020242C0020D3
:103C8000A00000209800002010B504462046FCF754
:103C900049FF10BD2DE9FE4F06460F4690461C46D3
:103CA0004FF00009FCF7A2FA81461F48007828B1BE
:103CB0004846FCF79FFA3C20BDE8FE8F1B4850F8B1
:103CC000240060BB0120194941F824004846FCF754
:103CD00091FA002342463946304600F0CDF982463B
:103CE0000020009001900346024651460290204673
:103CF00001F00EF9054635B90D48007801280CD1C0
:103D000001F0B6F809E0FCF771FA81460020074996
:103D100041F824004846FCF76DFA2846CCE74846AF
:103D2000FCF768FA2820C7E785000020242C002033
:103D3000920000202DE9F04F85B081468A469346D7
:103D40001C46DDE90F78129D00200390FCF74EFA27
:103D500003902348007830B10398FCF74BFA3C20DD
:103D600005B0BDE8F08F1F4850F8240088BB012043
:103D70001C4941F824000398FCF73CFA2A464146C6
:103D8000384601F0F3F92B465A465146484600F0B2
:103D900073F904901198CDE9008002953A462046C7
:103DA0000E9B049901F0B4F8064636B90E48007827
:103DB00001280CD101F05CF809E0FCF717FA039038
:103DC0000020084941F824000398FCF713FA304614
:103DD000C6E7FFE70398FCF70DFA2820C0E70000CC
:103DE00085000020242C00209200002010B50446FD
:103DF0002046FCF798FE10BD2DE9F041054600274E
:103E00004A48007810B14020BDE8F0813F2D01D133
:103E10003E20F9E7FCF7EAF90746FF2D03D14448B5
:103E2000006890F83650434850F8254024B9384689
:103E3000FCF7E0F94320E7E7012C04D13846FCF712
:103E4000D9F93D20E0E714F8380F3B49085C617868
:103E500088432178384A505414F838091146085CD0
:103E600030B994F83A1035480078884333490870DF
:103E7000E06918B12046E16900F04CFD206A18B1F4
:103E80002046216A00F05DFDA66A16B1304600F0BA
:103E90006FFE0020206384F8340084F83500284841
:103EA0000078FF2804D226480078401C2449087076
:103EB0003846FCF79FF900F0E3FCFCF797F907465A
:103EC0001F48007820B11E480078401E1C49087029
:103ED000204600F041F81B480078401E1949087040
:103EE0000020144941F82500A06930B9002061691B
:103EF000886115496069086005E0D4E905014861F9
:103F0000D4E9051088611148006860610F480460B9
:103F10000FA020653846FCF76DF90E48007801289F
:103F200001D100F0A5FF00206EE700008500002011
:103F300098000020242C00208A0000208900002006
:103F40008600002093000020A40000209C00002098
:103F50003F0000009200002010B504462046FCF708
:103F6000E3FD10BD10B5FCF7E0FD10BD2DE9F041FB
:103F700006460F4614464FF000081548007818B161
:103F800012202070BDE8F081FCF730F98046FF2E4A
:103F900003D11048006890F836600F4850F826505A
:103FA0002DB94046FCF726F943202070EAE7012DA1
:103FB00005D14046FCF71EF943202070E2E72F654B
:103FC0004046FCF717F90020207000BFDAE7000038
:103FD0008500002098000020242C002010B5044605
:103FE0002046FCF7A3FD10BD10B5FCF7A0FD10BDE9
:103FF0002DE9F04707460D464FF0000A00202860E3
:104000006860FCF7F3F88246FF2F03D11848006878
:1040100090F83670174850F827402CB95046FCF7F6
:10402000E9F84320BDE8F087012C04D15046FCF7A5
:10403000E1F84320F6E7207C00F0010020B950466B
:10404000FCF7D8F84520EDE70026D4F80C90D4F81A
:1040500008805046FCF7CEF800E0761C58F8041BA8
:104060000029FAD02E60A9EB060068600020D9E78D
:1040700098000020242C002070B50446101D20F06C
:1040800007004FF08076051F28462E60051F284642
:104090002C60684E051F28462E604FF01236051F13
:1040A00028462E604FF00336051F28462E604FF03D
:1040B0000236051F28462E607610051F28462E6002
:1040C000051F284629604FF01136051F28462E602F
:1040D0004FF01036051F28462E604FF00936051F99
:1040E00028462E604FF00836051F28462E604FF0F8
:1040F0000736051F28462E604FF00636051F284656
:104100002E604FF00536051F28462E604FF004360E
:10411000051F28462E6003F00405002D7ED0F6050D
:10412000051F28462E60444E051F28462E60434E2C
:10413000051F28462E60424E051F28462E60414E20
:10414000051F28462E60404E051F28462E603F4E14
:10415000051F28462E603E4E051F28462E603D4E08
:10416000051F28462E603C4E051F28462E603B4EFC
:10417000051F28462E603A4E051F28462E60394EF0
:10418000051F28462E60384E051F28462E60374EE4
:10419000051F28462E60364E051F28462E604FF01C
:1041A0008346051F28462E60324E051F28462E6086
:1041B000314E051F28462E60304E051F28462E60C2
:1041C0002F4E051F28462E602E4E051F28462E60B6
:1041D0002D4E051F28462E602C4E051F28462E60AA
:1041E0004FF08246051F28462E60294E051F28469F
:1041F0002E60284E051F28462E60274E051F284694
:104200002E604FF08146051F28462E60234E051F65
:1042100028462E603602051F284600E009E02E6081
:104220004FF07E56051F28462E600026051F2846A3
:104230002E6070BD795000080000F8410000F04188
:104240000000E8410000E0410000D8410000D041FA
:104250000000C8410000C0410000B8410000B0416A
:104260000000A8410000A0410000984100009041DA
:104270000000884100007041000060410000504192
:10428000000040410000304100002041000010418A
:104290000000E0400000C0400000A040000040409E
:1042A0002DE9F04105464FF00008FBF79FFF8046DF
:1042B000FF2D05D12048006890F83650012608E00F
:1042C0001D48006890F83600A84201D1012600E0A0
:1042D00000261A4850F825402CB94046FBF78AFFC3
:1042E0004820BDE8F081012C04D14046FBF782FF55
:1042F0004320F6E794F838701148C05D94F83910FF
:1043000088430F49C8550846C05D30B994F83A1043
:104310000C48007888430B49087094F8340040F04A
:10432000080084F834004046FBF764FF012E01D1F9
:1043300000F09EFD0020D4E798000020242C0020EF
:104340008A0000208900002010B50C480068007C1D
:1043500000F0040020B1094909680868FBF730FF44
:1043600007480068007C00F0040020B10449096897
:104370000868FBF732FFFCF7DBFB10BD980000205C
:10438000A000002070B5054600261748007800B14F
:1043900070BD1648007800B1FAE71DB3FBF726FFA1
:1043A00006461348006890F838401248005D1049EE
:1043B000096891F8391088430E4908550846005D90
:1043C00040B90B48006890F83A100B4800788843D1
:1043D000094908700648006805633046FBF70AFF84
:1043E00000F046FD00BFD3E78500002086000020D6
:1043F000980000208A000020890000202DE9F0416B
:1044000005460E4617461C461248007810B1552046
:10441000BDE8F0811048007808B13220F8E74FF489
:104420007A7060434FF47A71B0FBF1F14FF4616040
:104430006843C6EB061200EB8200384400EB4002F2
:10444000C2EBC01001EBC0084046FFF79BFF002005
:10445000DEE70000850000208600002070B5002502
:10446000FBF7C4FE0546034804682846FBF7C2FE76
:10447000204670BDB800002070B5002600F072F82C
:10448000FBF7B4FE064631480068401C2F4908601F
:104490003046FBF7AFFE2E480078012853D12D4857
:1044A000007820B1012804D0022809D103E00125B9
:1044B0000BE0002509E0012501202649087004E0F1
:1044C000012500202349087000BF00BF05B970BD59
:1044D0002148046833E0FBF789FE0646206B50B3A1
:1044E000206B401E2063206B28BB94F8340000F042
:1044F000370040B114F8340F00F0C80020700120DC
:104500006070343C02E0002084F8350094F83400F8
:1045100000F0080078B93834A078104909780843C9
:104520000E49087020780E49085C6178084314F839
:1045300038190B4A505464693046FBF75BFE94F817
:1045400036003F28C7D100BFC1E70000B8000020F7
:1045500092000020A8000020A40000208900002074
:104560008A00002010B5FCF7E4FA07480088401CD8
:104570000549088008460088642803D30020088085
:1045800000F004F810BD00006800002010B50348DA
:104590000068FFF729FB0446204610BDC800002034
:1045A000F8B54FF42071284800F004FC3821274862
:1045B00000F000FC002514E0681C86B205EB8500C5
:1045C000214901EBC00406EB860001EBC007642023
:1045D0002070002084F82500E7601DA02062681C80
:1045E00085B20F2DE8D305EB8500174901EBC00418
:1045F00064202070002084F82500E06014A0206270
:1046000000201449086014490880102013490880CC
:104610000D48134908600120FFF744FA114908606A
:104620000020FFF73FFA104908606A460FA10D48C5
:104630000068FEF7CBFB6A4611A10B480068FEF745
:10464000C5FB00F027F8F8BD94360020143B00208D
:104650003F000000C0000020BE000020BC00002081
:10466000CC000020C4000020C800002075432F4F5C
:10467000532D494920546D724C6F636B000000004C
:1046800075432F4F532D494920546D725369676EFE
:10469000616C000000B587B00320002180220A4B26
:1046A000CDE90132CDE903104FF6FD703D23074AF5
:1046B00000900748FFF73EFB06AA06A13D20FFF742
:1046C00055FC07B000BD000014390020103B00204D
:1046D0005947000875432F4F532D494920546D7297
:1046E00000000000F0B50B46032580F82550012B93
:1046F00005D1174EC5693668354445610CE08569BA
:104700002DB9134EC56936683544456104E0104E35
:10471000856936683544456107264569B5FBF6F776
:1047200006FB17540B4D05EBC4010D682DB908604D
:104730000025C56001258D8006E00A680860C2601A
:1047400010618D886D1C8D8000250561F0BD000015
:10475000C0000020143B002008B500BF00BF6A461F
:1047600000211B480068FFF7C7F9FFF74BF919480C
:104770000068401C17490860084600680721B0FB24
:10478000F1F201FB1208144800EBC8073C681AE07C
:10479000E668104960690968884213D1204600F034
:1047A0001DF894F82400022804D101212046FFF7C7
:1047B00099FF02E0022084F82500656815B12046C3
:1047C000A168A8473446002CE2D1FFF73BF9C6E7C1
:1047D000C8000020C0000020143B0020F0B50726D0
:1047E0004569B5FBF6F706FB17540D4D05EBC40202
:1047F0001568854205D1C168116039B100250D6188
:1048000004E00169C368CB6003B11961012580F838
:1048100025500025C560056195886D1E9580F0BD09
:10482000143B002001464A1E4FF0E0235A61084A1B
:10483000106820F07F4000BF10601A46126942F0F5
:1048400005021A611A46126942F002021A617047A3
:1048500020ED00E070B50446214605A025F092FD4C
:104860004FF47A70B4FBF0F52846FFF7DBFF70BD1C
:104870006370755F667265713A25640D0A00000009
:10488000704700002DE9F04F05460F4690469946C7
:10489000A87A1C490E5C05F10B00805D11F800B090
:1048A0000BEBC60000F0FF0A174850F82A40002022
:1048B0002434E0602760207C20EA0800207484F81B
:1048C0001190207C243C00F0080068B994F83A006C
:1048D0000E49097808430D4908700D48805D94F829
:1048E000391008430A4988552946204600F012F835
:1048F000206A20B12046216A00F023F8E561504685
:10490000BDE8F08FF4E60208242C00208900002086
:104910008A00002010B590F8382001F10B039B5C51
:1049200090F83940A34301F10B04A35423469B5C48
:1049300023B98B7A90F83A40A3438B720023C3616A
:1049400010BDF0B5024612F8384F95785678383ACF
:104950000B4618680FE000F10B073F5DB74300F10D
:104960000B0C0CF8047067463F5D17B9877AAF43AC
:1049700087721B1D18680028EDD1F0BD10B51B4AC9
:104980001268D061194A126892F8383000F10B02AF
:10499000D25C164B1B6893F839301A43134B1B68D3
:1049A00093F8384000F10B031A55827A0F4B1B68BD
:1049B00093F83A301A4382720C4A126892F838100F
:1049C0000B4A525C094B1B6893F839309A43084BE9
:1049D0005A541A46525C42B9044A126892F83A3064
:1049E000044A12789A43034B1A7010BD98000020B5
:1049F0008A00002089000020014600228A720020DF
:104A000005E0002301F10B021354421CD0B2082828
:104A1000F7D37047F0B51446059E244F3F6897F8CA
:104A2000347047F02007DFF884C0DCF800C08CF851
:104A300034700027DFF874C0DCF800C08CF83570E3
:104A40001A4F3F683E63194F3F68B9620C610B759E
:104A5000164F3F688F6047680F6000274F60C8603F
:104A6000456805B169604160104F3F6897F838208C
:104A70000F4FBF5CDFF834C0DCF800C09CF839C0D1
:104A800027EA0C07DFF828C00CF802706746BF5C05
:104A90005FB9064F3F6897F83AC0064F3F7827EA5C
:104AA0000C07DFF810C08CF80070F0BD98000020F3
:104AB0008A000020890000202DE9F0414FF4A07108
:104AC000104800F077F900250DE0681C86B20D480B
:104AD00000EB051400EB06170020207067600AA0A9
:104AE000E060681C85B2132DEFD3064800EB051477
:104AF00000202070606004A0E06002480349086064
:104B0000BDE8F081E42600203F0000007400002092
:104B10002DE9F041064688461746B468002044F85F
:104B2000300F44F8048C207900F0DF0020716771A9
:104B30002079303C88B93834A0780B49097808438B
:104B40000949087020780949085C6178084314F81D
:104B50003819064A5054012500E00025304600F07F
:104B600007F82846BDE8F081890000208A0000206F
:104B700030B501464A6808682AB9CC68606028B137
:104B80000025456002E0106000B142608B6800259E
:104B90009D6230BD70B54FF4F071134800F00AF912
:104BA000002411E0601C85B204EB44000E4901EBC7
:104BB000C00305EB450001EBC006002018705E60E5
:104BC0000AA05861601C84B2132CEBD304EB4400A0
:104BD000054901EBC00300201870586003A058611C
:104BE00008460349086070BD042500203F0000000E
:104BF0007000002000200B4908600B4908700B4929
:104C000008700B4908700B4908700B4908600B4984
:104C100008600B4908600B4908600B4908700B4994
:104C200008707047B8000020850000208600002032
:104C300093000020920000206C00002094000020CF
:104C4000800000207C00002084000020B4000020B0
:104C500000210A4A1170002004E00021084A115482
:104C6000411CC8B20828F8D30021064A1170064A30
:104C70001170064A1160064A1160704789000020D1
:104C80008A0000208700002088000020A00000206B
:104C90009800002070B54FF4F261194800F08AF8CE
:104CA0004FF48071174800F085F8002413E0601C71
:104CB000C5B204EB440000EBC400114901EBC00392
:104CC00005EB450000EBC50001EBC0065E610EA0E0
:104CD0001865601CC4B2152CE9D304EB440000EB4A
:104CE000C400074901EBC0030020586106A0186505
:104CF00000200649086002480549086070BD0000B0
:104D0000242D0020242C00203F000000A4000020BF
:104D10009C00002000B587B00320002180220A4BB0
:104D2000CDE90132CDE903104FF6FF703F23074A6A
:104D300000900748FEF7FEFF06AA06A13F20FFF7F6
:104D400015F907B000BD0000242A0020202C002007
:104D50005150000875432F4F532D49492049646C29
:104D60006500000000B587B00320002180220A4BB7
:104D7000CDE90132CDE903104FF6FE703E23074A1C
:104D800000900748FEF7D6FF06AA06A13E20FFF7CF
:104D9000EDF807B000BD000024280020202A0020E4
:104DA0009150000875432F4F532D4949205374618A
:104DB0007400000004E0002200F8012B4A1E91B2AA
:104DC0000029F8D17047000070B54FF4C071114848
:104DD000FFF7F0FF00240EE004EB44000D4901EB67
:104DE000C005601C00EB400001EBC00068600AA039
:104DF0006861601C84B20F2CEED304EB44000549BB
:104E000001EBC0050020686003A068610846034903
:104E1000086070BDB43400203F000000AC000020EA
:104E20002DE9F04160211048FFF7C4FF00240DE098
:104E3000601C86B204EB44000B4901EBC00506EB95
:104E4000460001EBC0072F60601C84B2032CEFD337
:104E500004EB4400044901EBC0050020286008462B
:104E600002490860BDE8F08134360020B00000201F
:104E700010B50024FBF7BAF9044613480078F8B9D6
:104E800012480078E0B900F02DF81148114909786E
:104E900050F82100104908600E4800780F49097841
:104EA00088420DD00C480068C06B401C0A49096854
:104EB000C8630B480068401C09490860FBF7B1F95A
:104EC0002046FBF797F910BD8500002086000020E2
:104ED000242C002088000020A00000208700002053
:104EE0006C0000200649074A1278885C0649095C74
:104EF000034A515C01EBC001044A11707047000085
:104F0000F4E60208890000208A00002088000020C2
:104F10002DE9F84F05460F4690469946DDE90AAB64
:104F200000200090FBF762F9009042480468002CD2
:104F30007BD01C3454F8080C3E4908600098FBF7FD
:104F400059F944F81C7CA5760020207660766061D3
:104F500044F818BC44F810AC44F8148C0C9824F8AD
:104F60000C0C24F80A9C0020E077E810207705F06C
:104F70000700E076217F01208840A077E17E0120B4
:104F800088406077002020606060E060A060206260
:104F9000A0626062E062206327A060631C3C002680
:104FA00006E0002104F1540040F82610701CC6B23F
:104FB000002EF6D02046FEF767FEFBF717F90090AB
:104FC0001E4840F825400098FBF714F92046FEF7EC
:104FD0000DFFFBF70BF90090194800686061002095
:104FE000A0611748006810B1154800688461144832
:104FF00004603834A07813490978084311490870CF
:1050000020781149085C6178084314F838190E4A71
:1050100050540E480078401C0C4908700098FBF76B
:10502000E9F80020BDE8F88FFFE70098FBF7E2F809
:105030004220F7E79C0000203F000000242C0020C5
:10504000A4000020890000208A0000209300002096
:10505000002400BF00BFFBF7C9F8044605480068FC
:10506000401C044908602046FBF7C4F8FEF77AFFAD
:10507000F1E700009400002010B504480068FEF736
:10508000ADFFFF20FEF7B8FE10BD00009800002025
:1050900000BF00BF02E0C820FFF774F91F48007886
:1050A0000028F8D01E4800686421B0FBF1F01C49CC
:1050B00008600846006828B900201A490870FF20D7
:1050C000FFF7EEF8FBF792F80446154800686421F4
:1050D0004843154908602046FBF78CF800BFFBF7F2
:1050E00085F80446104800681049086000200E4901
:1050F00008602046FBF77EF80C48006808490968FC
:10510000B0FBF1F0C0F1640006490870FEF76CFFD7
:1051100000F00EF86420FFF735F9E0E78400002086
:105120007C000020780000209400002080000020F7
:105130007CB5002514E069462846FEF759FF06466F
:1051400066B9094850F8254044B1012C06D0D4E98D
:10515000020100EB8100A0640198E064681CC5B204
:105160003F2DE8D97CBD0000242C002002F0010373
:1051700043B102F002032BB102E0491E002308C034
:105180000029FAD17047000070B504460D46054865
:10519000FCF774FF291B491CB0FBF1F201FB120064
:1051A000204470BD3C22002070B5044600252068D4
:1051B000C06800F04000A0B9681E2168C860FCF714
:1051C000EFF9054607E0FCF7EBF9401BB0F57A7FF5
:1051D00001D9032070BD2068C06800F0400000289D
:1051E000F1D00020F6E700002DE9F04104460D461D
:1051F000164600BF0D48007808B900F07FFC00BFDC
:10520000EFF311800746202080F3118800BF00BF14
:1052100032462946204600F00BF88046F8B280F36B
:10522000118800BF00BF4046BDE8F0814C3B002024
:105230002DE9F047074688461646C24607EB470168
:105240001B4800EBC109D9F8140020B1012811D086
:10525000022826D11EE0484600F088FC0546B542EB
:1052600001D2002405E0344632465146484600F05B
:10527000C4FC18E0484600F079FC0546B54201D26E
:10528000284600E03046044622465146484600F093
:10529000B4FC08E032465146484600F075FC04462E
:1052A00001E0002400BF00BF2046BDE8F0870000F9
:1052B000643B002070B505460C462046FBF778F8A5
:1052C0000646324621462846FFF78EFF70BDF8B5E8
:1052D00004460E4615466068B0F5827F0DD1A06881
:1052E000B0F5004F03D0A068B0F5806F05D12068FD
:1052F000006820F04000216808606068B0F5827F97
:105300001FD1A068B0F5806F0DD0334600228021F8
:105310002046009500F05CF808B3606D40F0200076
:1053200060650320F8BD3346002201212046009528
:1053300000F04EF898B1606D40F0200060650320E9
:10534000F0E73346002201212046009500F040F8A6
:1053500028B1606D40F0200060650320E2E7002086
:10536000E0E700007CB504460D4616461648006886
:105370001821B0FBF1F01549B0FBF1F04FF47A7150
:10538000484301906068B0F5827F0DD12B46002222
:1053900080212046009600F01BF898B1606D40F027
:1053A0002000606503207CBD00BF019800B908E0C3
:1053B0000198401E019020688068C0F3C01000284A
:1053C000F3D100BF0020EEE76000002040420F0054
:1053D0002DE9F04104460E4617461D46DDF81880BB
:1053E0003EE0681CD8B3FCF7DBF8A0EB0800A8424D
:1053F00000D2A5BB2068406820F0E000216848602A
:105400006068B0F5827F0DD1A068B0F5004F03D081
:10541000A068B0F5806F05D12068006820F04000DA
:1054200021680860A06AB0F5005F0DD100BF206858
:10543000006820F40050216808602068006840F48B
:1054400000502168086000BF012084F8510000BFAF
:10545000002084F8500000BF0320BDE8F081FFE782
:10546000206880683040B04201D1012000E0002077
:10547000B842B6D10020F0E77047000010B5FAF747
:10548000B5FE044607480078401C064908702046CF
:10549000FAF7B0FEFEF7F0FFFDF7FAFFFCF786F82B
:1054A00010BD00008500002000B597B030210BA88A
:1054B000FAF75DFF142106A8FAF759FF00200290C1
:1054C00003900490059000BF01902B48006840F0C5
:1054D0008050294908600846006800F0805001901B
:1054E00000BF00BF00BF002001902448006840F4C6
:1054F0008040224908600846006800F4804001901E
:1055000000BF00BF0A200B9001200E9010200F90CA
:105510000120109002201190002112910821139176
:10552000A821149102211591072116910BA8FCF7CF
:1055300023FB08B1FBF776FC0F20069002200790B2
:10554000002008904FF4A05009904FF480500A902A
:10555000052106A8FCF7D0F908B1FBF763FC02208F
:1055600002900002059002A8FCF7F6F808B1FBF7DC
:1055700059FC17B000BD00004038024000700040E8
:105580000548006840F47000034908604FF000606F
:10559000014980390860704788ED00E070B5054624
:1055A000AC6B0020E085E0842046FDF77DF970BDFE
:1055B0000168C96821F490710268D1600168496985
:1055C00021F0010102685161202180F83A107047F2
:1055D00010B504462068C06820F040002168C8600B
:1055E000202084F839002046FDF791FA002010BDF4
:1055F00070B5044694F83A0022284AD1A068B0F564
:10560000805F13D1A56A206940B920684068C0F363
:1056100008002880A06A801CA06219E02068406809
:10562000C0B22880A06A401CA06211E0206938B98D
:1056300020684068C1B2A26A501CA062117007E0E5
:105640002068406800F07F01A26A501CA0621170BF
:10565000E08D401E80B2E085C8B92068C06820F0A7
:1056600020002168C8602068C06820F4807021682C
:10567000C8602068406920F001002168486120204E
:1056800084F83A002046FDF741FA002070BD002062
:10569000FCE70220FAE700002DE9F84F04462068F5
:1056A000006920F44050E1680843216808612169DD
:1056B000A068084361690843E169084300902068D5
:1056C000C06849F20C618843009908432168C860AA
:1056D0002068406920F44070A1690843216848614E
:1056E000E069B0F5004F75D1E3492068884203D0E6
:1056F000E249206888426FD1FCF7D6F98146022042
:105700006168A0FB01510B461920A9FB00712A46D4
:105710003846FAF7C3FD6421B0FBF1F04FEA001AF6
:1057200002206168A0FB01510B461920A9FB007102
:105730002A463846FAF7B2FD074602206168A0FB08
:1057400001510B461920A9FB00B12A465846FAF729
:10575000A5FD6421B0FBF1F000EBC00101EB0010EE
:10576000A7EB8000322101EBC0006421B0FBF1F017
:1057700000F0F8000AEB400A02206168A0FB01512A
:105780000B461920A9FB00712A463846FAF786FD18
:10579000074602206168A0FB01510B461920A9FBB6
:1057A00000B12A465846FAF779FD6421B0FBF1F0C2
:1057B00000EBC00101EB0010A7EB8000322101EBF0
:1057C000C0006421B0FBF1F000F0070050442168F4
:1057D00088604FE16EE0FFE7FCF756F98146022052
:1057E0006168A0FB01510B461920A9FB00712A46F4
:1057F0003846FAF753FD6421B0FBF1F04FEA001A86
:1058000002206168A0FB01510B461920A9FB007121
:105810002A463846FAF742FD074602206168A0FB97
:1058200001510B461920A9FB00B12A465846FAF748
:1058300035FD6421B0FBF1F000EBC00101EB00107D
:10584000A7EB8000322101EBC0006421B0FBF1F036
:1058500000F0F8000AEB400A02206168A0FB015149
:105860000B461920A9FB00712A463846FAF716FDA7
:10587000074602206168A0FB015003461920A9FBDE
:1058800000B12A465846FAF709FD6421B0FBF1F051
:1058900000EBC00101EB0010A7EB8000322101EB0F
:1058A000C0006421B0FBF1F000F007005044216813
:1058B0008860DFE070492068884203D06F49206823
:1058C00088426BD1FCF7F0F8814604206168A0FBA8
:1058D00001510B461920A9FB00712A463846FAF7F8
:1058E000DDFC824604206168A0FB01510B461920B3
:1058F000A9FB00712A463846FAF7D0FC6421B0FBB8
:10590000F1F000EBC00101EB0010AAEB80003221A6
:1059100001EB00106421B0FBF1F000F0F00A04206C
:105920006168A0FB015003461920A9FB00712A46BB
:105930003846FAF7B3FC6421B0FBF1F00AEB001A29
:1059400004206168A0FB01510B461920A9FB0071DE
:105950002A463846FAF7A2FC074604206168A0FBF5
:10596000015003461920A9FB00B12A465846FAF710
:1059700095FC6421B0FBF1F000EBC00101EB0010DD
:10598000A7EB8000322101EB00106421B0FBF1F0A5
:1059900000F00F005044216888606BE0FCF774F859
:1059A000814604206168A0FB015003461920A9FB31
:1059B00000712A463846FAF771FC82460420616875
:1059C000A0FB015003461920A9FB00712A46384666
:1059D000FAF764FC6421B0FBF1F000EBC00101EBCD
:1059E0000010AAEB8000322101EB00106421B0FB13
:1059F000F1F000F0F00A04206168A0FB01500346BA
:105A00001920A9FB00712A463846FAF747FC6421A1
:105A1000B0FBF1F00AEB001A04206168A0FB0170F2
:105A200003461920A9FB005001463A462846FAF7DA
:105A300035FC074604206168A0FB0150034619208D
:105A4000A9FB00B12A465846FAF728FC6421B0FBAE
:105A5000F1F000EBC00101EB0010A7EB8000322158
:105A600001EB00106421B0FBF1F000F00F00504496
:105A700021688860BDE8F88F0010014000140140E3
:105A8000014691F8390021282CD18868B0F5805F53
:105A90000FD10A6A1088C0F308000B6858600869C3
:105AA00018B9086A801C086209E0086A401C08628C
:105AB00005E00B6A581C086218780B685860C88C9F
:105AC000401E80B2C88458B90868C06820F08000C1
:105AD0000B68D8600868C06840F040000B68D86068
