:020000040800F2
:10000000C82400209D010008BB140008D913000873
:10001000B9140008530800089525000800000000E6
:100020000000000000000000000000006F22000837
:10003000550800080000000037020008712200087F
:10004000B7010008B7010008B7010008B7010008B0
:10005000B7010008B7010008B7010008B7010008A0
:10006000B7010008B7010008B7010008B701000890
:10007000B7010008B7010008B7010008B701000880
:10008000B7010008B7010008B7010008B701000870
:10009000B7010008B7010008B7010008B701000860
:1000A000B7010008B7010008B7010008B701000850
:1000B000B7010008B7010008B7010008B701000840
:1000C000B7010008B7010008B7010008B701000830
:1000D000B701000889250008B7010008B70100082A
:1000E000B7010008B7010008B7010008B701000810
:1000F000B7010008B7010008B7010008B701000800
:10010000B7010008B7010008B7010008B7010008EF
:10011000B7010008B7010008B7010008B7010008DF
:10012000B7010008B7010008B7010008B7010008CF
:10013000B7010008B7010008B7010008B7010008BF
:10014000B7010008B7010008B7010008B7010008AF
:10015000B7010008B7010008B7010008B70100089F
:10016000B7010008B7010008B7010008B70100088F
:10017000B7010008B7010008B7010008000000003F
:10018000B7010008B7010008DFF80CD000F0D8FA7A
:100190000048004759300008C8240020064880471E
:1001A00006480047FEE7FEE7FEE7FEE7FEE7FEE75C
:1001B000FEE7FEE7FEE7FEE71D23000889010008D1
:1001C000EFF3098141B1F1EE101A40F8041D20ED62
:1001D000200A29490A6810607047B0EC200A02C85A
:1001E000E1EE101A25490A6810607047EFF310809D
:1001F00072B6704780F31088704721484FF6FF7140
:100200000170002080F309881E48016881F3088886
:100210001D48012101701D484FF08051016062B6F8
:10022000FEE71A484FF080510160704717484FF0C1
:1002300080510160704772B6EFF3098028B1203811
:1002400080E8F00F0C490968086000B51048804745
:100250005DF804EB0F4810490A7802700648074918
:100260000A680260106890E8F00F203080F3098877
:100270004EF0F40E62B67047340000203C000020BF
:1002800022ED00E0100000201B00002004ED00E043
:10029000C51B000818000020190000202DE9F05FA0
:1002A0000546002092469B468846064681464024E5
:1002B0001BE0284641464746224600F079F853465F
:1002C0005A46C01A914110D311461846224600F0F2
:1002D00060F82D1A67EB01084F46224601200021E5
:1002E00000F057F817EB00094E41201EA4F101045D
:1002F000DFDC484631462A464346BDE8F09F40EAE7
:1003000001039B0703D009E008C9121F08C0042A93
:10031000FAD203E011F8013B00F8013B521EF9D27A
:100320007047D2B201E000F8012B491EFBD27047A2
:100330000022F6E710B513460A4604461946FFF7B1
:10034000F0FF204610BD421C10F8011B0029FBD114
:10035000801A7047034611F8012B00F8012B002A80
:10036000F9D11846704730B50B46014600202022CF
:10037000012409E021FA02F59D4205D303FA02F5B2
:10038000491B04FA02F52844151EA2F10102F1DC12
:1003900030BD202A04DB203A00FA02F10020704729
:1003A0009140C2F1200320FA03F3194390407047B3
:1003B000202A04DB203A21FA02F00021704721FABA
:1003C00002F3D040C2F12002914008431946704721
:1003D0002DE9FE4F804681EA0300C00F0C460090D5
:1003E00021F0004123F00045B8EB0200A94105D2FD
:1003F0004046214690461C460B46024623F00040EC
:10040000104347D0270DC7F30A00C3F30A510290E7
:10041000401A019040286BDAC3F3130040F4801BAC
:100420000098924620B10023D2EB030A63EB0B0B3A
:1004300001985946C0F140025046FFF7AAFF064610
:100440000D4650465946019A00F08CF910EB080011
:100450006141002487EA115284EAE7731A4340D0CD
:10046000009A62B3019A012A4FEA075215DC001B79
:1004700061EB02014FF0004202EA0752CDE900426F
:10048000001C41F5801132462B4600F08CF903B078
:10049000BDE8F08F40462146F9E7001B61EB020101
:1004A000001C41F5801300185B412018A2F50017CD
:1004B00047EB030140EAD570B6196D4111E06D08B4
:1004C0004FEA360645EAC0754FEA0752001B61EB5A
:1004D0000201001C41F5801149084FEA3000001963
:1004E000514132462B4603B0BDE8F04F00F04CB905
:1004F0000098012240000023D0EB020263EBE0737E
:10050000009821464FEAE074B8EB000061EB04016B
:10051000E9E783F000435BE781F0004158E72DE90C
:10052000FE4F81EA030404F0004421F000410094EE
:100530004FF0000B23F0004350EA01045ED052EA72
:1005400003045BD0C3F30A54C1F30A552C44A4F24C
:10055000F3340194A0FB0254C1F3130141F4801160
:10056000C3F3130343F4801301FB024400FB034E67
:10057000840A970A44EA815447EA8357A4FB076830
:1005800002958D0A05FB07854FEA932C04FB0C545A
:100590002705029D4FEA065847EA1637B5EB0805CE
:1005A0006EEB070C870E920E47EA811742EA831220
:1005B000A7FB0201B6EB0B0164EB00042B0D43EA31
:1005C0000C335E1844EB1C50DA465146E7FB02013F
:1005D000C5F313044FEA0B3343EA14534FEA0432D2
:1005E000019C43EA0603A4F10C040294009CCDE9AB
:1005F00000B400F0D8F803B0BDE8F08F0020014649
:10060000F9E72DE9F04D81EA030404F0004B21F0F5
:10061000004514464FF0000A23F0004150EA05025D
:1006200020D054EA01021DD0C5F30A570246C5F393
:100630001303C1F31300C1F30A5640F4801543F4C9
:100640008013A7EB0608101BD64608F2FD3873EBA3
:10065000050002D308F1010801E092185B41B8F1EE
:10066000000F03DA00200146BDE8F08D00204FF4B2
:100670008011064684460EE0171B73EB050705D371
:10068000121B63EB050306434CEA010C49084FEAD1
:10069000300092185B4150EA0107EDD152EA0300A5
:1006A00012D082EA040083EA0501084305D0101B3A
:1006B000AB4106D20122002306E000224FF00043A6
:1006C00002E06FF0010253101AEB06004CEB0851E8
:1006D00010EB0A0041EB0B01BDE8F04D00F054B8FF
:1006E000C1F30A52C1F3130140F2FF3341F4801108
:1006F0009A4202DA00200146704740F233439A42A0
:10070000A2F2334202DC5242FFF752BEFFF741BE73
:1007100030B5041E71F1000404DB4FF00044404288
:1007200064EB0101141E73F1000405DB1C464FF05D
:100730000043524263EB0403994208BF904230BD2C
:10074000064C074D06E0E06840F0010394E807001E
:1007500098471034AC42F6D3FFF71AFDD8320008A0
:10076000F8320008202A06DBCB17203A41FA02F0C3
:1007700043EAE07306E041FA02F3D040C2F12002FE
:10078000914008431946704710B5141E73F10004D8
:1007900008DA401C41F1000192185B411A4301D173
:1007A00020F0010010BD2DE9F04D92469B4611B19D
:1007B000B1FA81F202E0B0FA80F220329046FFF7FF
:1007C000E8FD04460F4640EA0A0041EA0B015346A1
:1007D0005A46084313D0114653EA010019D0C8F114
:1007E00040025046FFF7E4FD05460E465046594686
:1007F0004246FFF7CEFD084305D0012004E0204625
:100800003946BDE8F08D0020054346EAE0762C43EA
:1008100037430A986305E40AA0EB08000022FD0AAA
:1008200044EA47540A3002D500200146E9E70105B1
:1008300010196941DDE9084500196941BDE8F04D2D
:10084000A2E770477047704770477047704770471E
:100850007047FEE77047704790F83510022903D0C3
:100860008021416501207047052180F8351000681E
:10087000016821F001010160002070472DE9F84F67
:1008800000224FF0010803254FF00F0E0B6808FA05
:1008900002F42340A3426ED14E68012E05D0022EF1
:1008A00003D0112E01D0122E12D186684FEA420CCD
:1008B00005FA0CF7BE43CF6807FA0CF73743876099
:1008C0004668A6430C79C4F3001494403443446052
:1008D000C668570005FA07FC8C6826EA0C06BC407F
:1008E0003443C4604C68022C01D0122C13D1D408BC
:1008F00000EB8404A346D4F8209054074FEAD46A4E
:100900000EFA0AF629EA06090E6906FA0AF646EA16
:100910000906CBF8206006680C7926EA0C0604F07C
:100920000304BC40344304604C68E40065D5364C95
:10093000266846F480462660246822F0030604F404
:1009400080440094314C3444A446D4F808489607B7
:10095000370F0EFA07F6B4432D4EB04201D10026F0
:1009600024E02C4EB04201D101261FE02A4EB042B5
:1009700002D102261AE040E0284EB04201D10326FF
:1009800014E0274EB04201D104260FE0254EB042BC
:1009900001D105260AE0244EB04201D1062605E029
:1009A000224EB04201D1072600E00826BE40264371
:1009B000CCF808681E4E34684F689C43FF0300D58E
:1009C0001C4334601A4C241D26684F689E43BF03A5
:1009D00000D51E432660164E083634684F689C4387
:1009E000FF0200D51C433460114E0C3634684F684A
:1009F0009C43BF0200D51C433460521C102AFFF4F4
:100A000045AFBDE8F88F0000443802400030014097
:100A1000000002400004024000080240000C0240B6
:100A2000001002400014024000180240001C024066
:100A3000003C0140426931EA020200D109048161AF
:100A400070470AB1816170470904FBE7014880687B
:100A500070470000000000200248816802781144BD
:100A600081607047000000200B4810B5016841F418
:100A700000710160016841F480610160016841F426
:100A800080710160032000F06FF8002000F006F88C
:100A900000F024F8002010BD003C024070B50D4D60
:100AA00004464FF47A712878B1FBF0F00A490968DE
:100AB000B1FBF0F000F07EFB48B9102C07D2002209
:100AC0002146501E00F030F800206C6070BD0120FF
:100AD00070BD0000000000200C0000200A4808B58E
:100AE000016841F480410160006800F4804000909A
:100AF0000548001F016841F080510160006800F066
:100B00008050009008BD000044380240002809DBF6
:100B100000F01F02012191404009800000F1E02017
:100B2000C0F8001170470000F0B40E4B1B680C4673
:100B3000C3F30223C3F10705042D00D90425191DB1
:100B4000072901D2002300E0DB1E012606FA05F189
:100B5000491E214099409E40761E16403143F0BC0C
:100B600001F0BEBD0CED00E0064900F00702086888
:100B70004FF6FF03184040EA0220034A1043086082
:100B8000704700000CED00E00000FA052DE9F04789
:100B90000E46050065D0DFF81481D8F80000F7B2E2
:100BA00000F00F00B04207D288F80070D8F80000BB
:100BB00000F00F00B04254D128683D4C810712D597
:100BC000400703D5206840F4E050206028780007F3
:100BD00003D5206840F4604020602068A96820F0B8
:100BE000F000084320602878C0072DD0304968689D
:100BF0000839012812D0022813D0032811D009681F
:100C0000890700292DDA216821F0030101432160C1
:100C1000FFF71CFF814641F2883A0EE0096889031C
:100C2000EFE709688901ECE7FFF710FFA0EB090186
:100C3000514502D90320BDE8F0872068696800F0BB
:100C40000C00B0EB810FEFD1D8F80010404601F056
:100C50000F01B14207D90770006800F00F00B042E1
:100C600001D00120E7E72878400705D52068E9682A
:100C700020F4E050084320602878000706D520685B
:100C8000296920F4604040EAC100206000F03EF88D
:100C90002168084AC1F30311515CC8400649086045
:100CA00006480068FFF7FAFE0020C4E7003C024057
:100CB00008380240C03100080C0000200400002069
:100CC00001480068704700000C00002004480549F6
:100CD00000680968044AC1F38221515CC84070472A
:100CE0000C00002008380240D031000804480549B3
:100CF00000680968044AC1F34231515CC84070473A
:100D00000C00002008380240D0310008154810B50A
:100D1000006810F00C02144813D01449042A0FD0B4
:100D2000082A0ED10F4C241F2268236802F03F02CC
:100D30005B0207D52068C0F38810A0FB010106E024
:100D4000084610BD2168C1F38811A1FB00010023F2
:100D5000FFF7A4FA2168C1F30141491C4900B0FB27
:100D6000F1F010BD083802400024F40040787D0105
:100D70002DE9F84F040076D02078DFF838A3CE4D67
:100D8000C00749D0DAF800105046C1F381010129AB
:100D900008D00068C0F3810002280AD1281D00682D
:100DA000400206D52868800336D560680028E2D066
:100DB00032E06068B0F5803F10D0B0F5A02F286811
:100DC00010D020F480302860286820F4802028602B
:100DD0006068A0B1FFF73AFE06460CE0286840F4D0
:100DE0008030F4E740F480202860F7E7FFF72EFE1C
:100DF000801B642873D828688003F7D50CE0FFF7C0
:100E000025FE064605E000BFFFF720FE801B642894
:100E1000F0D828688003F7D42078DFF8A082800714
:100E20004FF000093ED5DAF80010504611F00C0FD3
:100E300009D00068C0F3810002280BD19D48001F33
:100E40000068400206D42868800715D5E0680128AC
:100E500009D111E0E068B8B10120C8F80000FFF73F
:100E6000F5FD064605E020E1FFF7F0FD801B0228B6
:100E7000C0D828688007F7D52868216920F0F800D5
:100E800040EAC10028600DE0C8F80090FFF7DEFDE1
:100E9000064604E0FFF7DAFD801B02281FD8286809
:100EA0008007F7D42078000722D5824E84486169F4
:100EB0006C3671B101210160FFF7C8FD074604E0FF
:100EC000FFF7C4FDC01B022809D830688007F7D59A
:100ED0000EE0C0F80090FFF7B9FD074605E082E09C
:100EE000FFF7B4FDC01B02287DD830688007F7D417
:100EF0002078400768D5DFF8BCB100270BF1380B2C
:100F0000DBF80000C0000BD4DBF8001041F080518A
:100F1000CBF80010DBF80000012700F080500090B3
:100F2000684E3068C00510D4306840F4807030607E
:100F3000FFF78CFD009005E0FFF788FD0099401A4F
:100F4000022850D83068C005F6D55A4EA0686836D9
:100F500001280FD00528306810D020F00100306043
:100F6000306820F004003060A068B8B1FFF76EFD73
:100F700000900FE0306840F00100F4E740F004001A
:100F80003060F7E7FFF762FD0099411A41F28830BF
:100F9000814266D830688007F4D50EE0FFF756FD31
:100FA000009007E0FFF752FD0099411A41F28830A6
:100FB000814256D830688007F4D42FB1DBF8001096
:100FC00021F08051CBF80010A069D0B3DAF80020EE
:100FD0005146C2F38102022A4AD00228484607D06D
:100FE000C8F8600000E03CE0FFF730FD04463BE05D
:100FF0004746C8F86000FFF729FD064605E000BF38
:10100000FFF724FD801B02282BD828688001F7D425
:10101000D4E907010843A16A2B4A490802EB0141C0
:10102000626A41EA8211084394F82C1040EA016197
:101030002048001F016001203866FFF707FD0446C5
:1010400005E034E0FFF702FD001B022809D82868FC
:101050008001F7D52BE000BFFFF7F8FC001B02284A
:1010600002D90320BDE8F88F28688001F4D41EE07F
:101070000128F7D00868E26900F48001914214D198
:10108000226A00F03F0191420FD147F6C071626AB7
:101090000140914209D1A26A00F44031914204D149
:1010A000E16A00F07060884201D00120DAE7002098
:1010B000D8E70000083802400038024000004742EC
:1010C000800E4742007000400000FFFF70B5040032
:1010D00005D00025A56294F8510010B106E001206A
:1010E00070BD84F85050204600F030F8022084F89B
:1010F00051002068016821F040010160D4E901013C
:101100000843D4E903121143084361690843218B62
:1011100001F400710843E1690843216A0843A16AA8
:10112000084321680860A069042101EA1040616A4F
:101130000843216848602068C16921F40061C161E9
:101140006565012084F85100002070BD10B586B09F
:10115000044614216846FFF7EBF8134920688842DB
:1011600020D112480021026842F4805202600068D7
:1011700000F4805005900D481438026842F00102D6
:101180000260006800F001000590E020009002205D
:10119000CDE901010320039005200490694604482D
:1011A000FFF76CFB06B010BD003001404438024030
:1011B0000000024010B5401EB0F1807F01D3012035
:1011C00010BD4FF0E02460610F21601701F088FA34
:1011D0000020A06107202061002010BD70470000A2
:1011E00070B5026804461068D168536910F00F0F9B
:1011F00052D003F0010501F490762E435FD0C20770
:1012000005D0CA0503D5E26B42F00102E263420752
:1012100005D5DA0703D0E26B42F00202E2638207EF
:1012200005D5DA0703D0E26B42F00402E26302075D
:1012300007D501F020022A4303D0E26B42F00802F6
:10124000E263E26B002A33D0800604D5880602D51B
:10125000204601F087F820684069E16BC0F38010F8
:10126000090700D428B3204601F06EF820684169D0
:1012700049061AD5416921F040014161606BA0B176
:101280001B490165606BFFF7E7FA002810D0606B1F
:10129000016DBDE870400847830610D58B060ED55A
:1012A0002046BDE8704001F05DB82046FFF796FF8C
:1012B00070BD2046FFF792FF0020E06370BD03067B
:1012C00006D50B0604D52046BDE8704001F02AB9CA
:1012D0004006F3D54806F1D5D168204621F04001FB
:1012E000D160202184F8391000F075F870BD00003D
:1012F0003923000870B5040004D094F839000025A3
:1013000010B106E0012070BD84F83850204600F08E
:1013100023F8242084F839002068C16821F40051A2
:10132000C160204601F06AF82068016921F490410B
:1013300001612068416921F02A0141612068C1688A
:1013400041F40051C160E563202084F8390084F83D
:101350003A00002070BD000010B586B0044614218C
:101360006846FEF7E5FF18492068884229D11748EA
:10137000016841F010010160006800F01000059064
:1013800012481438016841F00101016000686946A3
:1013900000F0010005904FF4C06000900220019021
:1013A0000120029003200390072004900848FFF7D3
:1013B00065FA002211462520FFF7B6FB2520FFF72E
:1013C000A5FB06B010BD00000010014044380240EB
:1013D0000000024070477047FEE7000070B586B01D
:1013E00014216846FEF7A4FF12480024016841F06A
:1013F00020010160016801F020010591016841F0C0
:101400000101016000680C4E00F001004FF4C0655E
:101410000590224629463046FFF713FB0120009530
:10142000CDE90104694630460394FFF727FA06B078
:1014300070BD000030380240001402400F4810B563
:101440000D4901604FF48271416000218160C160EB
:101450004FF400720161C0E90512C161016241628D
:1014600081620A21C162FFF731FE002803D0BDE886
:101470001040FFF7F0B910BD0030014058000020C7
:101480000C4810B50A4901604FF4E1314160002178
:1014900081600C22C160C0E904128161C161FFF763
:1014A00029FF002803D0BDE81040FFF7D4B910BDD4
:1014B00000100140B0000020FEE7704770B586B014
:1014C00000F064F800F0E8FC224800242146847112
:1014D00000F134025454491CC9B20829FAD30471EA
:1014E00044718462046200F0E7FC00F0A9FC00F0A3
:1014F00073FC00F021FD80261748CDE901064FF668
:10150000FF70009003253F23144A00211448CDE9C1
:10151000034500F0DBF805AA12A13F2000F0CAF94C
:101520001448CDE901064FF6FE700B4A00903E23A9
:10153000121F00211048CDE9034500F0C7F805AAA5
:101540000EA13E2000F0B6F906B0BDE8704000F0F4
:101550002FB8000014000020D0060020CC08002086
:10156000D520000875432F4F532D49492049646CFD
:1015700065000000D00400200921000875432F4FAA
:10158000532D49492053746174000000054980209F
:10159000002204C1401EFCD10348044920F007008A
:1015A00008607047F0000020F002002010000020CA
:1015B0007047000070B5144CE079012822D1FEF785
:1015C00015FE0546A07820B1401E10F0FF00A07067
:1015D00013D1E07888B900F0F3FC0C48617950F839
:1015E0002100A0622279914207D0C16B491CC163DE
:1015F000E068401CE060FEF719FE2846BDE8704038
:10160000FEF7F8BD70BD000014000020D0080020D7
:1016100010B5094CE07900280CD100F0D1FC6079BC
:101620000649207151F82000A0622062BDE81040F8
:10163000FEF7E3BD10BD000014000020D00800201C
:10164000FFF7FFB82DE9FE431C4615460F468046BE
:10165000FEF7CCFD1A49097821B1FEF7CBFD3C20FD
:10166000BDE8FE83174E56F8241019B1FEF7C2FDEF
:101670002820F5E7012146F82410FEF7BBFD0023E2
:101680002A463946404600F07DF90025014600957E
:1016900001952B462A462046029500F0A1FC070042
:1016A00007D0FEF7A3FD46F82450FEF7A3FD384609
:1016B000D6E7054800780128F9D100F05DFCF6E78F
:1016C00016000020D00800201B0000202DE9FF4F4D
:1016D00083B01C46DDE91386DDE9119792468B46FF
:1016E000FEF784FD1D49097829B1FEF783FD3C20F2
:1016F00007B0BDE8F08F1A4D55F8241019B1FEF768
:1017000079FD2820F4E7012145F82410FEF772FD49
:1017100032463946484600F047FD33465246594660
:10172000039800F02FF90097CDE9018601464A465B
:101730002046109B00F054FC060008D0FEF756FD32
:10174000002145F82410FEF755FD3046D0E7054846
:1017500000780128F9D100F00FFCF6E71600002010
:10176000D00800201B000020FFF76CB82DE9F047DF
:1017700006464348007810B14020BDE8F0873F2E70
:1017800005D0FEF733FD0746FF2E02D005E03E20D0
:10179000F3E73C48006890F83660DFF8EC9059F8C1
:1017A00026405CB1012C0ED094F83820374994F8CB
:1017B0003930885C984388540AD00FE03846FEF7E9
:1017C00019FD4320D9E73846FEF714FD3D20D4E744
:1017D0002F4894F83A20017891430170E16911B1E2
:1017E000204600F0D2FA216A11B1204600F0DFFA5B
:1017F000A06A08B100F014FB4FF00008C4F8308074
:10180000244D84F8348084F835802878FF2801D26C
:10181000401C28703846FEF7EDFC00F0B5FAFEF7E4
:10182000E5FC0746287808B1401E2870204600F0E5
:101830003DF819490878401E087049F82680A169CA
:10184000404691B160694861D4E90501816113485E
:1018500001686161046012A020653846FEF7CAFC89
:1018600010480078012806D007E0616988610E49B8
:1018700060690860EBE700F07FFB00207DE7000077
:101880001600002034000020D0080020480000206E
:101890001A000020170000201C0000203800002043
:1018A0003F0000001B00002040000020FEF7CBBFDF
:1018B000FEF7CABF70B5054611480E4614460078BB
:1018C00010B11220107070BDFEF790FC0146FF2D84
:1018D00003D10C48006890F836500B4850F82500AA
:1018E000432540B1012806D006650846FEF782FC74
:1018F0000020207070BD0846FEF77CFC257070BD8E
:101900001600002034000020D0080020FEF79DBF04
:10191000FEF79CBF2DE9F0410446002008600D460B
:101920004860FEF763FC0146FF2C03D113480068B2
:1019300090F83640124850F8240058B1012809D0D8
:10194000027CD2070CD0D0E9027600240846FEF7CC
:1019500051FC0BE00846FEF74DFC4320BDE8F0814A
:101960000846FEF747FC4520F8E7641C01CF002835
:10197000FBD0301BC5E900400020EFE73400002019
:10198000D008002010B5121D22F007024FF080741D
:1019900042E902044C4CA2F10C004FF0123240E933
:1019A00001244FF0033240F8082C4FF0023240F887
:1019B0000C2C521040E905124FF0113140F8181C60
:1019C000110140F81C1C4FF0093140F8201CD100D7
:1019D00040F8241C4FF0073140F8281C4FF0063126
:1019E00040F82C1C4FF0053140F8301D910040F8B4
:1019F000041D590767D55106021F1160A0F10801A7
:101A0000324A0A60091F324A0A60091F314A0A60D5
:101A1000091F314A0A60091F304A0A60091F304A0B
:101A20000A60091F2F4A0A60091F2F4A0A60091F0E
:101A30002E4A0A60091F2E4A0A60091F2D4A0A60B1
:101A4000091F2D4A0A60091F2C4A0A60091F2C4AE7
:101A50000A60091F2B4A0A60091F4FF083420A607F
:101A6000091F294A0A60091F284A0A60091F284AD3
:101A70000A60091F274A0A60091F274A0A60091FCE
:101A8000264A0A60091F264A0A60091F4FF082424F
:101A90000A60091F234A0A60091F234A0A60091FB6
:101AA000224A0A60091F4FF081420A60091F204A3A
:101AB0000A60091F12020A60091F4FF07E520A6075
:101AC000002140F8841D10BDF12000080000F841FD
:101AD0000000F0410000E8410000E0410000D84172
:101AE0000000D0410000C8410000C0410000B841E2
:101AF0000000B0410000A8410000A0410000984152
:101B000000009041000088410000704100006041E9
:101B100000005041000040410000304100002041E1
:101B2000000010410000E0400000C0400000A04064
:101B30000000404070B50446FEF758FB03461D48C0
:101B4000FF2C006805D090F83600A04204D1012592
:101B500003E090F83640FAE70025174850F82400D3
:101B600058B101280ED090F83820144C90F8396004
:101B7000A15CB143A1540AD00FE01846FEF73AFB2E
:101B8000482070BD1846FEF735FB432070BD0C4958
:101B900090F83A400A78A2430A7010F8341F41F0D6
:101BA000080101701846FEF725FB0DB100F0E4F9BD
:101BB000002070BD34000020D00800204800002024
:101BC0001A0000200A4810B50068017C490702D5B8
:101BD0000068FEF7F5FA07480068017C490702D55E
:101BE0000068FEF7FAFABDE81040FEF730BE0000CC
:101BF000340000203C00002070B5044613480078F3
:101C0000002821D11248007800281DD1002C1BD0BB
:101C1000FEF7ECFA03460F480F4D016891F83800C3
:101C200091F839602A5CB2432A5405D10B4891F8E7
:101C30003A500278AA43027018460C63FEF7DAFAAB
:101C4000BDE8704000F098B970BD0000160000209B
:101C50001700002034000020480000201A00002057
:101C600010B5114C24780CB1552010BD0F4C2478C0
:101C70000CB1322010BD4FF47A746343B3FBF4F31C
:101C80004FF4616410FB04F0C1EB011100EB810023
:101C9000104400EB4001C1EBC01003EBC000FFF7A4
:101CA000ABFF002010BD0000160000201700002030
:101CB0002DE9F04100F04CF8FEF798FA234D296B1E
:101CC000491C2963FEF796FAE87901283BD1687A26
:101CD0000126002720B1012835D0022802D06F72DA
:101CE000EC6A2CE06E72FBE7FEF780FA216B19B309
:101CF000491E216320D194F8341011F0370F06D01B
:101D000001F0C80184F8341084F8356001E084F8EB
:101D1000357094F8341009070ED494F83A10AA7963
:101D20001143A971094994F83820343194F839C025
:101D30008B5C43EA0C038B546469FEF75BFA94F8FE
:101D400036003F28D0D1BDE8F0810000140000200B
:101D5000FEF77EBD4FF0E021401E48610648026854
:101D600022F07F420260086940F0050008610869BE
:101D700040F002000861704720ED00E04FF47A71F6
:101D8000B0FBF1F0FFF7E6BF704710B590F83820D0
:101D900090F839408B18DA7AA243DA7204D18A7A41
:101DA00090F83A309A438A720021C16110BD70B533
:101DB00010F8383F84784578086809E0C618F27A48
:101DC000AA43F27202D1827AA243827251F8040FBE
:101DD0000028F3D170BD000010B550210D4800F06F
:101DE000A1F800200B4A0346411C02EB00108CB204
:101DF00002EB04140370446007A4C46088B2042892
:101E0000F2D302EB001004A103704360C1600348E9
:101E1000026010BD601100203F0000005000002053
:101E2000D0E9001200232AB1116001B14A60806834
:101E300083627047C26800295160F8D04B60F6E7B2
:101E400010B54FF4F071114800F06CF800200F4904
:101E50000346421C00EB400094B201EBC00004EBCF
:101E6000440401EBC4040370446009A4446190B2CB
:101E70001328EED300EB400001EBC00004A2037076
:101E8000436042610348016110BD0000F002002080
:101E90003F0000001400002006480021016381700B
:101EA000C1700172C171C160C161816141614170E4
:101EB000817270471400002010B54FF4F26115488C
:101EC00000F030F84FF48071134800F02BF8114AFD
:101ED0000020411C00EB400404EBC000CBB203EB3C
:101EE000430402EBC00004EBC30302EBC3034361F2
:101EF0000A4B0365C8B21528EBD300EB400101EB98
:101F0000C00002EBC0000021036541610448426249
:101F1000C16210BDD0090020D0080020901E00082A
:101F200014000020002203E0491E00F8012B89B2B2
:101F30000029F9D17047000010B560210C48FFF767
:101F4000F1FF0B4A0020411C8BB200EB400003EB79
:101F5000430302EBC30342F8303088B20328F2D3C4
:101F600000EB4000002142F830100248026010BD32
:101F7000B01100205400002070B5FEF737F90E4C68
:101F80000546A07898B9E07888B900F019F80B49AF
:101F9000607951F82010A1622279904207D0C86B75
:101FA000401CC863E068401CE060FEF73AF9284630
:101FB000BDE87040FEF71EB914000020D0080020D4
:101FC0000649054A01F134038879105C1B5CD25C38
:101FD00002EBC00048717047D8310008140000209F
:101FE0002DE9F05F9846DDE90ABA91460D460746AD
:101FF000FEF7FCF8344E746A002C60D061691C3422
:102000007162FEF7F7F844F81C5CA7760025257688
:102010006576656144F810BC44E906A90C9824F87B
:102020000C0C24F80A8CE577FA08227707F00701F0
:10203000012000FA02F2E176A277884060772560FD
:102040006560E560A5602562A56265621FA0E56226
:10205000C4E90C5000201C3C04EB8001401C4D6581
:1020600010F0FF00F8D02046FFF7EAFAFEF7BEF8BE
:10207000174941F82740FEF7BDF82046FFF774FBEB
:10208000FEF7B4F80146F06AC4E9050500B18461C1
:10209000F46294F83A00B2791043B0710A4814F827
:1020A000382F34306478835C23438354307A401C67
:1020B00030720846FEF79EF80020BDE8F09FFEF75C
:1020C00099F84220F9E70000140000203F000000CA
:1020D000D0080020054C00BFFEF788F8E169491CD4
:1020E000E161FEF787F8FFF7E3FBF5E71400002056
:1020F000044810B50068FFF709FCBDE81040FF2058
:10210000FFF734BB34000020184C02E0C820FFF772
:1021100073FD60780028F9D0642160690025B0FB68
:10212000F1F0606118B92570FF20FFF703FDFEF79D
:102130005DF8616964225143E161FEF75BF800BF1D
:10214000FEF754F8E169C4E90615FEF753F8D4E93F
:102150000510B0FBF1F0C0F164002070FFF7D8FB70
:1021600000F006F86420FFF747FDE9E714000020BF
:102170007CB50C4D002469462046FFF7CBFB58B9CF
:1021800055F8240040B1012806D0D0E9021201EB35
:10219000820181640199C164641CE4B23F2CEAD9D4
:1021A0007CBD0000D0080020D30707D0920705D5DA
:1021B0000022002902D004C0491EFAE7704700003F
:1021C0002DE9F04107460B4815460E46007808B940
:1021D00000F0E2F9EFF31184202080F311882A4601
:1021E0003146384600F008F8E1B281F31188BDE8C5
:1021F000F08100001014002070B50E46144900EB69
:10220000400001EBC0051446E86A183520B10128EA
:102210000FD0022805D113E0284600F0F1F9A042C2
:1022200001D2002411E022463146284600F020FA6F
:102230000BE0284600F0E4F9A042F4D20446F2E7AD
:102240003146284600F0E7F90446204670BD0000FC
:102250001014002070B505460C460846FEF773F8CA
:10226000024621462846BDE87040FFF7A9BF7047E7
:1022700010B5FDF7BBFF074A1178491C1170FDF737
:10228000B9FFFFF715FDFFF795F9BDE81040FEF720
:10229000E3BB00001600002030B593B03021684643
:1022A000FEF746F814210CA8FEF742F8194800255D
:1022B000016841F080510160006800F08050119089
:1022C0001548016841F4804101600068022400F46F
:1022D00080401190012003901020049000940694F7
:1022E0000820CDE90750A820CDE9090404200B906F
:1022F0006846FEF73DFD0CA90F2081E831004FF440
:10230000A0500F90E002109005210CA8FEF73EFCB3
:1023100013B030BD403802400070004005480168ED
:1023200041F47001016003494FF00060803908609A
:102330007047000088ED00E010B5806B0021C1857A
:10234000C184FEF74BFF10BD0168CA6822F4907289
:10235000CA6001684A6922F001024A61202180F8BE
:102360003A10704710B590F83A10222901D0022097
:1023700010BD8168B1F5805F11D001690029016845
:102380001FD0496801F07F03816A4A1C82620B708A
:10239000C18D491E0904090CC18518D02BE00269C2
:1023A000816A002A0268526805D0D2B20A80816A26
:1023B000491C8162ECE7C2F308020A80816A891C29
:1023C000F7E74A68816A4B1C83620A70E0E701689C
:1023D000CA6822F02002CA600168CA6822F48072CA
:1023E000CA6001684A6922F001024A61202180F82E
:1023F0003A10FEF7EFFF002010BD00002DE9F0417C
:10240000044600680169E26821F44051114301610A
:102410002169A068E26908436169114308432168A2
:10242000CA6849F20C639A430243CA602068416952
:10243000A26921F4407111434161E06919276425C3
:102440003226B0F5004F354A354920684FF0000874
:1024500006D0884201D0904236D1FEF747FC35E0E5
:10246000884201D0904202D1FEF740FC01E0FEF725
:102470002DFC61684A18A0FB070148EB0803FDF733
:102480000DFF0146B0FBF5F00201B1FBF5F06FF076
:102490001803584301EB800006EBC000B0FBF5F0D9
:1024A00000F0F80002EB4002B1FBF5F0584301EBFD
:1024B000800006EBC000B0FBF5F000F007002168DB
:1024C00010448860BDE8F081FEF700FC61688B0F66
:1024D0008A00A0FB0701FDF7E1FE0146B0FBF5F025
:1024E0006FF01802504301EB800006EB0010B0FBC8
:1024F000F5F000F0F002B1FBF5F002EB0012B1FBD9
:10250000F5F06FF01803584301EB800006EB001064
:10251000B0FBF5F000F00F00D1E70000001401401F
:102520000010014090F83910212901D00220704795
:102530008168B1F5805F016A0BD04A1C02620268B3
:1025400009785160C18C491E0904090CC1840ED060
:1025500017E009880268C1F3080151600169002988
:10256000016A02D0491C0162ECE7891CFBE70168A3
:10257000CA6822F08002CA600068C16841F0400168
:10258000C1600020704700000148FEF729BE00002E
:10259000B0000020FEE7000010B5124C03202061BF
:1025A000606111A0A06104F1A800E0614FF4006037
:1025B00020620020A06260620BA12166E06204F646
:1025C000A801616610212067C4E91A10606709A19B
:1025D000E01DFDF7BFFE08A12046FDF7BBFE202051
:1025E000A07110BD101400205465726D696E616C8D
:1025F0000000000052545400534547474552000024
:102600000269C1688A4203D88068401A104400E019
:10261000501A401E70472DE9F047C4681746894696
:1026200006464FF000083069A04201D9051B02E0C0
:10263000B168201A0D1AB0686D1E001BA84200D8A0
:102640000546BD4200D33D4670682A4620444946AF
:10265000FDF755FEB0687F1B2C44A844A944A04256
:1026600000D10024F460002FDDD14046BDE8F087A2
:102670002DE9F04104468846D4E90207C51BE1680C
:10268000606816460844B54206D94146FDF737FE54
:10269000B819E060BDE8F0812A464146FDF72FFEFB
:1026A000761B08EB050132466068FDF728FEE66000
:1026B000F0E700007CB5044600201D4616460029C0
:1026C0000BD0491ECDE90041044B6A4629463046ED
:1026D00000F0E8F8009A002111707CBDD32F0008AB
:1026E0000907090E002804DB00F1E02080F800143F
:1026F000704700F00F0000F1E02080F8141D7047D3
:1027000002E008C8121F08C1002AFAD170477047BA
:10271000002001E001C1121F002AFBD17047000018
:102720002DE9FF5F82B00021DDE90430020DDDF804
:1027300040B0034318D044F61050A2F2FF32424397
:102740001514119801281FD0A5EB0B00401C5FEA5F
:10275000000A4FF000064E4FDFF83891B046504661
:1027600015D5CAF1000413E0119801244AA30128E9
:1027700001D16FEA0B010298119AC0E90031C0E95A
:10278000024206B0BDE8F09FCBF10000DFE704464F
:102790000021404A491842EB0450CDE9001012E0F4
:1027A000E00707D032463B4640464946FDF7B7FEB4
:1027B0008046894632463B4610461946FDF7AFFE35
:1027C00006460F466410002CEAD1DDE90401DDE97C
:1027D0000023BAF1000F06DAFDF7A1FE42464B4690
:1027E000FDF79DFE05E0FDF70CFF42464B46FDF769
:1027F00008FF04460E460022284BFDF789FF03D848
:102800004FF0FF30014607E00022254B20463146BD
:10281000FDF7DEFDFDF764FF102409E0002C0ADB64
:102820000A220023FDF73AFD039B30321A55641E3D
:1028300050EA0102F2D1641C039AC4F1110314445A
:10284000119A012A03D0012208430DD10AE008435E
:1028500004D000204FF0110B119072E7A3EB0B0591
:102860006D1E0DE05B4504DD4FF0000205F1010532
:1028700004E003DA4FF00002A5F10105002AECD0D4
:1028800002981199C0E90231C0E9004579E70000DA
:10289000000014400000F03F300000000000F04352
:1028A0000000E03F2DE9FF4F95B09B468946064664
:1028B00000250FE2252877D100242746F84A012178
:1028C000059400E0044316F8013F203B01FA03F0B1
:1028D0001042F7D130782A2811D06FF02F033078CA
:1028E000A0F13002092A16D8059A44F0020402EB3E
:1028F000820203EB42021044761C0590EFE759F880
:10290000042B0592002A03DA504244F40054059047
:1029100044F00204761C30782E2816D116F8010FE8
:1029200044F004042A280DD06FF02F023078A0F173
:102930003003092B09D807EB870302EB4303C718C1
:10294000761CF3E759F8047B761C30786C280FD09E
:1029500006DC4C2817D068280DD06A2814D104E072
:10296000742810D07A280FD10DE044F400140AE046
:1029700044F4801401E044F440147278824202D19D
:1029800004F58014761C761C307866280BD013DC96
:10299000582877D009DC002875D04528F6D046287D
:1029A000F4D047281AD19DE118E0632835D0642877
:1029B00079D0652812D195E1702873D008DC67289A
:1029C000F1D069286FD06E280DD06F2806D1B5E000
:1029D00073282CD0752875D0782874D05A4617994A
:1029E00090476D1C75E1C4F30250022809D00328FA
:1029F0000DD0D9F8001004280DD00D6009F104099C
:102A000067E1D9F80010EA17C1E90052F6E7D9F8F2
:102A100000100D80F2E70D70F0E719F8041B8DF837
:102A2000001000208DF80100EA46012003E059F86B
:102A300004AB4FF0FF3061074FF0000102D40DE00E
:102A400008F101018846B9420FDA8045F8DB1AF82F
:102A500008100029F4D108E008F1010188468142FC
:102A6000FADB1AF808100029F6D105985B46A0EBAE
:102A7000080721463846179A00F094FA284400EBDC
:102A8000080507E04DE029E10DE01AF8010B5A4670
:102A900017999047B8F10108F7D25B4621463846AE
:102AA000179A13E142E00A220092C4F302524FF057
:102AB000000A022A08D059F804CB032A4FEAEC7125
:102AC0000AD00DE029E02AE009F1070121F0070210
:102AD000F2E802C1914609E00FFA8CFC4FEAEC7172
:102AE000042A03D14FFA8CFC4FEAEC71002907DA73
:102AF0000A460021DCF1000C61EB02012D2202E00C
:102B0000220504D52B228DF80420012203E0E207E0
:102B100001D02022F7E7904659E00A2102E0102276
:102B20000DE010214FF0000A00910BE010224FF051
:102B3000000A44F004040827009203E008224FF042
:102B4000000A0092C4F30252022A05D059F804CBBD
:102B50000021032A08D009E009F1070121F007024A
:102B6000F2E802C1914605E01FFA8CFC042A01D16B
:102B70000CF0FF0C4FF00008220728D5702806D073
:102B8000009B83F0100353EA0A0305D00EE04022B5
:102B90008DF80420012208E05CEA010206D0302210
:102BA0008DF804208DF8050002229046009B83F0EA
:102BB000080353EA0A030AD15CEA010201D1620761
:102BC00005D530228DF804204FF001087F1E5828CB
:102BD00004D034A003900EA802900DE036A0F9E7CF
:102BE00053466046009AFDF759FB84460398825C81
:102BF0000298401E029002705CEA0100F0D1029837
:102C000006A9081A00F1200A600702D524F48034CE
:102C100000E00127574502DDA7EB0A0000E0002095
:102C200000EB0A01009005984144401A0590E0032A
:102C300006D45B462146179A059800F0B3F905447F
:102C4000002706E001A85A46C05D179990476D1C01
:102C50007F1C4745F6DBE0030CD55B462146179AFF
:102C6000059800F09FF9054404E030205A46179972
:102C700090476D1C0099481E00900029F5DC08E083
:102C8000029802995A460078491C02911799904778
:102C90006D1CBAF10001AAF1010AF1DC65E1000046
:102CA0000928010030313233343536373839616222
:102CB00063646566000000003031323334353637E6
:102CC00038394142434445460000000000F058F9BD
:102CD0000544761C307800287FF4ECAD19B0284606
:102CE000BDE8F08F620700D4062709F1070222F041
:102CF000070CFCE80223E14603F000485FEA080CF9
:102D000002D00FF2702C0DE05FEA045C02D50FF2E6
:102D1000682C07E05FEAC47C02D00FF2602C01E06F
:102D2000AFF2700C4FF0FF3823F00043CDF850C0E5
:102D300065280CD006DC452809D046281DD0472838
:102D40003DD13DE0662818D067287ED138E00021CB
:102D5000112F01DB112000E0781CCDE9000106A94C
:102D60000EA8FFF7DDFCDDE90F010E9A03910021AB
:102D7000009207F1010A04914DE04FF000400097E6
:102D8000CDE9011006A90EA8FFF7CAFCDDE90F0284
:102D900003920E9B11990022DDF80CA0009304927F
:102DA00011B9791C00EB010AB7EB0A0004D4C0F199
:102DB000FF3007F1010A0490AAEB0700019044E0FC
:102DC000012F00DA01270021112F01DD112000E081
:102DD0003846CDE9000106A90EA8FFF7A1FCDDE900
:102DE0000F010E9A0391002104910092BA46210727
:102DF0000CD40399514500DA8A46BAF1010F05DD7A
:102E0000009AAAF10101515C302908D0B84202DAD7
:102E100010F1040F06DA0121CDE9011015E0AAF145
:102E20000101E9E7002805DC049901440491AAEBBB
:102E3000000102E0411C514500DD8A460499401A18
:102E4000401C01904FF000400290200704D40198EC
:102E5000504501DBCDF8048000208DF84F0002982A
:102E60000DF14F07B0F1004F25D02B200E900298A6
:102E70004FF0020800280CDA404202902D200E90FC
:102E800007E00A210298FDF76EFA3031029007F848
:102E9000011DB8F10001A8F10108F2DC0298002838
:102EA000EFD1791E0E980870307800F0200040F0C5
:102EB000450007F8020D12A8C01B00F1070814987E
:102EC000007800B1012000EB0A01019801EBE071EC
:102ED00005984144401A401E0590E00306D45B4625
:102EE0002146179A059800F05DF80544149800787B
:102EF00018B15A46179990476D1CE00324D55B46DC
:102F00002146179A059800F04DF805441CE00498F6
:102F1000002807DBDDE90301884203DD0098405CFF
:102F2000179901E0179930205A469047049805F107
:102F30000105401C04900198401E019004D12E20F0
:102F40005A46179990476D1CBAF10001AAF1010A7F
:102F5000DDDC05E017F8010B5A46179990476D1C08
:102F6000B8F10001A8F10108F4DC5B462146179A8C
:102F70000598ABE62D0000002B00000020000000AB
:102F80002DE9F041044600251E461746880404D466
:102F900005E039462020B0476D1C641EF9D528464F
:102FA000BDE8F0812DE9F041044600251E4690461B
:102FB000C80301D5302700E02027880404D505E0A8
:102FC00041463846B0476D1C641EF9D52846BDE819
:102FD000F0814A68002A06D00A68531C0B60107002
:102FE0004868401E4860704710B500F08FF808A090
:102FF00000F07AF801230D4A00210D48FEF722FB6C
:103000000223BDE810400B4A00210B48FEF71ABB13
:103010006372656174652075636F7369692061709F
:1030200070207461736B2E0D0A000000C41E002016
:103030003D300008C4200020C5300008054D4FF485
:10304000007421462846FDF7F5FC6420FEF7D4FD08
:10305000F7E7000000140240FDF706FDFFF71CF93A
:10306000FEF7BCF9FEF7EAF9FEF70AFAFDF728FECB
:10307000FEF784FEFEF722FAFFF7B6FFFEF7C8FA66
:10308000FEE73F2309E0A1F120025F2A04D30D29C6
:1030900002D00A2900D00370401C01780029F2D127
:1030A000704770B50446FDF7A1F805462046FFF7C6
:1030B000E8FF21460020FFF7CDF82846BDE8704024
:1030C000FDF798B8074D4FF480644FF4FA76214627
:1030D0002846FDF7AFFC0022334611461046FEF7A6
:1030E000BFFDF4E7001402400FB440F2FF1110B529
:1030F00003AB0548029AFFF7DDFA0348FFF7D1FF5B
:1031000010BC5DF814FB00001012002008B509A0E7
:10311000FFF7EAFF0AA0FFF7E7FF13A000900B23D9
:103120005C22022113A0FFF7DFFFBDE808401BA0CF
:10313000FFF7DABF0A205C207C20202F0A00000065
:103140002D2055434F53202D202020202055636FE4
:10315000736969204F7065726174696E6720537975
:103160007374656D0A0000004A756E20313220329A
:1031700030323000202F207C20205C202020202096
:1031800056657273696F6E3A5625642E25642E2536
:1031900064206275696C642025730A002069202D03
:1031A000206E20436F70797269676874206279209D
:1031B0004D69637269756D2052544F532E0A000099
:1031C00000000000000000000102030406070809D7
:1031D00000000000010203040000010002000100E1
:1031E00003000100020001000400010002000100D0
:1031F00003000100020001000500010002000100BF
:1032000003000100020001000400010002000100AF
:10321000030001000200010006000100020001009D
:10322000030001000200010004000100020001008F
:10323000030001000200010005000100020001007E
:10324000030001000200010004000100020001006F
:10325000030001000200010007000100020001005C
:10326000030001000200010004000100020001004F
:10327000030001000200010005000100020001003E
:10328000030001000200010004000100020001002F
:10329000030001000200010006000100020001001D
:1032A000030001000200010004000100020001000F
:1032B00003000100020001000500010002000100FE
:1032C00003000100020001000400010002000100EF
:1032D0000300010002000100F83200080000002095
:1032E0005800000000270008503300085800002054
:1032F00070240000102700080100000010000000EA
:10330000000000000024F4000000000000000000A5
:1033100000000000000000000000000000000000AD
:10332000000000000000000000000000000000009D
:10333000000000000000000000000000000000008D
:10334000000000000000000000000000000000007D
:040000050800018965
:00000001FF
