:020000040800F2
:1000000048EC01209D010008A528000815260008DD
:10001000A1280008350B0008E54F0008000000008B
:100020000000000000000000000000006749000818
:10003000390B000800000000370200086949000879
:10004000B7010008B7010008B7010008B7010008B0
:10005000B7010008B7010008B7010008B7010008A0
:10006000B7010008B7010008B7010008B701000890
:10007000B7010008B7010008B7010008B701000880
:10008000B7010008B7010008B7010008B701000870
:10009000B7010008B7010008B7010008B701000860
:1000A000B7010008B7010008B7010008B701000850
:1000B000B7010008B7010008B7010008B701000840
:1000C000B7010008B7010008B7010008B701000830
:1000D000B7010008D54F0008B7010008B7010008B4
:1000E000B7010008B7010008B7010008B701000810
:1000F000B7010008B7010008B7010008B701000800
:10010000B7010008B7010008B7010008B7010008EF
:10011000B7010008B7010008B7010008B7010008DF
:10012000B7010008B7010008B7010008B7010008CF
:10013000B70100083D0B0008B7010008B70100082F
:10014000B7010008B7010008B7010008B7010008AF
:10015000B7010008B7010008B7010008B70100089F
:10016000B7010008B7010008B7010008B70100088F
:10017000B7010008B7010008B7010008000000003F
:10018000B7010008B7010008DFF80CD000F010FC40
:10019000004800472D13010848EC0120064880471D
:1001A00006480047FEE7FEE7FEE7FEE7FEE7FEE75C
:1001B000FEE7FEE7FEE7FEE76D4A0008890100085A
:1001C000EFF3098141B1F1EE101A40F8041D20ED62
:1001D000200A29490A6810607047B0EC200A02C85A
:1001E000E1EE101A25490A6810607047EFF310809D
:1001F00072B6704780F31088704721484FF6FF7140
:100200000170002080F309881E48016881F3088886
:100210001D48012101701D484FF08051016062B6F8
:10022000FEE71A484FF080510160704717484FF0C1
:1002300080510160704772B6EFF3098028B1203811
:1002400080E8F00F0C490968086000B51048804745
:100250005DF804EB0F4810490A7802700648074918
:100260000A680260106890E8F00F203080F3098877
:100270004EF0F40E62B67047500000205800002087
:1002800022ED00E01C0000204A00002004ED00E008
:10029000E13900083F000020400000202DE9F05F18
:1002A0000546002092469B468846064681464024E5
:1002B0001BE0284641464746224600F061F9534676
:1002C0005A46C01A914110D311461846224600F0F2
:1002D00048F92D1A67EB01084F46224601200021FC
:1002E00000F03FF917EB00094E41201EA4F1010474
:1002F000DFDC484631462A464346BDE8F09F000011
:1003000000487047B4E40208A0F16101192900D83F
:1003100020387047A0F14101192900D820307047DA
:1003200010B5431A934209D28318881803E010F8D5
:10033000011D03F8011D521EF9D210BD40EA010350
:100340009B0703D009E008C9121F08C0042AFAD28B
:1003500003E011F8013B00F8013B521EF9D210BD39
:10036000D2B201E000F8012B491EFBD270470022F7
:10037000F6E710B513460A4604461946FFF7F0FFA4
:10038000204610BD10B5044604E00B7800F8013B90
:1003900003B1491C521EF8D2204610BDCAB2401EFD
:1003A00010F8011F8A4202D00029F9D100207047BD
:1003B000421C10F8011B0029FBD1801A704710B5B0
:1003C000002200E0521C835C8C5CA34201D1002B14
:1003D000F8D1D8B2E1B2401A10BD30B504460020C1
:1003E000034600E05B1C934203D2E05CCD5C401B03
:1003F000F8D030BD034611F8012B00F8012B002A7C
:10040000F9D11846704730B505460020034600E094
:100410005B1C934205D2EC5CC85C201A01D1002C15
:10042000F6D130BD70B500B91068002512E00B465A
:1004300002E0A64203D05B1C1C78002CF9D1E3B289
:100440002B4305D02CB125B1002100F8011B04E09D
:100450000546401C0678002EE9D11060284670BD84
:10046000004ADFE77C0100202DE9F0410E460546F9
:10047000002400E0641C285DFFF74CFF0746305D58
:10048000FFF748FF381A02D1295D0029F2D1BDE8F3
:10049000F0812DE9F0410546002090460E460446C5
:1004A00000E0641C44450BD2285DFFF733FF07468C
:1004B000305DFFF72FFF381A02D1295D0029F0D1F6
:1004C000BDE8F0812DE9F05F93460F468046044673
:1004D000002604F083FED0F80090824614F8015BF9
:1004E0002DB1FFF70DFF0068405DC007F6D12B2D41
:1004F00002D02D2D1AD0641E0021CAF800105A46D1
:100500003946204600F04CF8014627B13868A04231
:1005100001D1C7F80080DAF80000022809D0CAF833
:100520000090700505D54842BDE8F09F46F480660E
:10053000E2E70846F8E730B50B46014600202022E6
:10054000012409E021FA02F59D4205D303FA02F5E0
:10055000491B04FA02F52844151EA2F10102F1DC40
:1005600030BD202A04DB203A00FA02F10020704757
:100570009140C2F1200320FA03F3194390407047E1
:10058000202A04DB203A21FA02F00021704721FAE8
:1005900002F3D040C2F1200291400843194670474F
:1005A0002DE9F05F82460078002715468B460AF158
:1005B0000104B946302801D09DB113E014F8010BB5
:1005C0000127782803D0582801D045B10AE00DB1A1
:1005D000102D07D10027102514F8010B02E0082583
:1005E00000E00A250026B0460EE005FB080005FBEA
:1005F00006F1012701EB10461FFA80F8B6F5803F9F
:1006000000D3B94614F8010B294600F0F5F900288B
:10061000EBDABBF1000F05D00FB1641E00E05446C9
:10062000CBF80040B9F1000F06D004F0D7FD02214D
:100630000160C81EBDE8F09F48EA0640FAE72DE9D0
:10064000FE4F804681EA0300C00F0C46009021F067
:10065000004123F00045B8EB0200A94105D2404615
:10066000214690461C460B46024623F000401043AC
:1006700047D0270DC7F30A00C3F30A510290401A6E
:10068000019040286BDAC3F3130040F4801B0098FC
:10069000924620B10023D2EB030A63EB0B0B0198C7
:1006A0005946C0F140025046FFF75BFF06460D4633
:1006B00050465946019A00F08DF910EB080061414F
:1006C000002487EA115284EAE7731A4340D0009A63
:1006D00062B3019A012A4FEA075215DC001B61EB55
:1006E00002014FF0004202EA0752CDE90042001C2D
:1006F00041F5801132462B4600F09BF903B0BDE86E
:10070000F08F40462146F9E7001B61EB0201001C17
:1007100041F5801300185B412018A2F5001747EB44
:10072000030140EAD570B6196D4111E06D084FEA3A
:10073000360645EAC0754FEA0752001B61EB02011D
:10074000001C41F5801149084FEA30000019514161
:1007500032462B4603B0BDE8F04F00F05BB900987D
:10076000012240000023D0EB020263EBE07300980B
:1007700021464FEAE074B8EB000061EB0401E9E7C1
:1007800083F000435BE781F0004158E72DE9FE4F1D
:1007900081EA030404F0004421F0004100944FF08A
:1007A000000B23F0004350EA01045ED052EA030438
:1007B0005BD0C3F30A54C1F30A552C44A4F2F334BA
:1007C0000194A0FB0254C1F3130141F48011C3F35F
:1007D000130343F4801301FB024400FB034E840A1D
:1007E000970A44EA815447EA8357A4FB07680295B5
:1007F0008D0A05FB07854FEA932C04FB0C54270553
:10080000029D4FEA065847EA1637B5EB08056EEB2E
:10081000070C870E920E47EA811742EA8312A7FB64
:100820000201B6EB0B0164EB00042B0D43EA0C3321
:100830005E1844EB1C50DA465146E7FB0201C5F353
:1008400013044FEA0B3343EA14534FEA0432019C7A
:1008500043EA0603A4F10C040294009CCDE900B421
:1008600000F0E7F803B0BDE8F08F00200146F9E79B
:100870002DE9F04D81EA030404F0004B21F000451E
:1008800014464FF0000A23F0004150EA050220D040
:1008900054EA01021DD0C5F30A570246C5F31303FB
:1008A000C1F31300C1F30A5640F4801543F48013DA
:1008B000A7EB0608101BD64608F2FD3873EB0500BF
:1008C00002D308F1010801E092185B41B8F1000F72
:1008D00003DA00200146BDE8F08D00204FF48011BE
:1008E000064684460EE0171B73EB050705D3121B63
:1008F00063EB050306434CEA010C49084FEA30005C
:1009000092185B4150EA0107EDD152EA030012D080
:1009100082EA040083EA0501084305D0101BAB41BD
:1009200006D20122002306E000224FF0004302E03D
:100930006FF0010253101AEB06004CEB085110EB5C
:100940000A0041EB0B01BDE8F04D00F063B8C1F3C4
:100950000A52C1F3130140F2FF3341F480119A426D
:1009600002DA00200146704740F233439A42A2F275
:10097000334202DC5242FFF703BEFFF7F2BD000034
:1009800030B5041E71F1000404DB4FF00044404216
:1009900064EB0101141E73F1000405DB1C464FF0EB
:1009A0000043524263EB0403994208BF904230BDBA
:1009B000064C074D06E0E06840F0010394E80700AC
:1009C00098471034AC42F6D3FFF7E2FB98E90208EF
:1009D000B8E90208202A06DBCB17203A41FA02F0D8
:1009E00043EAE07306E041FA02F3D040C2F120028C
:1009F00091400843194670473A2800D2303820F019
:100A00002002412A01D3A2F13700884201D34FF0DE
:100A1000FF30704710B5141E73F1000408DA401C53
:100A200041F1000192185B411A4301D120F001000D
:100A300010BD2DE9F04D92469B4611B1B1FA81F2FD
:100A400002E0B0FA80F220329046FFF78AFD0446B9
:100A50000F4640EA0A0041EA0B0153465A46084352
:100A600013D0114653EA010019D0C8F14002504694
:100A7000FFF786FD05460E46504659464246FFF7AB
:100A800070FD084305D0012004E020463946BDE84A
:100A9000F08D0020054346EAE0762C4337430A9860
:100AA0006305E40AA0EB08000022FD0A44EA47546B
:100AB0000A3002D500200146E9E701051019694115
:100AC000DDE9084500196941BDE8F04DA2E770B5C0
:100AD0008C1810F8015B15F0070301D110F8013BE9
:100AE0002A1106D110F8012B03E010F8016B01F870
:100AF000016B5B1EF9D12B0705D40023521E0DD4C8
:100B000001F8013BFAE710F8013BCB1A921C03E015
:100B100013F8015B01F8015B521EF9D5A142D8D34D
:100B2000002070BD7047704770477047704770472E
:100B30007047704700BFFEE77047000070B502F0D5
:100B400003FA00241548456905F0010070B1012041
:100B50001249486112480068006800F0004028B956
:100B600010480068703017F0E8F9044305F04000C1
:100B700068B10A48C06920F040000849C8610120F6
:100B8000084909684867084817F0D7F904434FF443
:100B900080300249486102F0E9F970BD00900240DE
:100BA0006C010020680100201801002030B50346C8
:100BB0001479557944EA0520084C0C442064D47813
:100BC0002406957844EA0544557844EA05241578C6
:100BD00044EA0500014C0C44606430BD00800240D2
:100BE00070B5AEB004460E46002526B14FF4006144
:100BF000E160C900A1600020119012901390149040
:100C000015901690E06918B94FF48060179001E0D4
:100C1000002017904FF400701890002019901A903F
:100C20001B901C901D9040201E9000201F90209033
:100C30002190229023902490259026908020279028
:100C40000020289029902A902B902C902D9020689D
:100C5000056871480540DDE911010843139908430F
:100C600014990843A1680843159908431699084345
:100C7000E1680843179908431899084319990843EC
:100C80001A9908431B9908430543206805602068AA
:100C90000568012000F0DCF820680560DDE91C0132
:100CA00008431E9908431F99084320990843219936
:100CB0000843229908432399084321684860206823
:100CC0004568012000F0C4F8206845602498216838
:100CD000886025982168C860206885694FF6417052
:100CE0000540DDE9261040EA01402899084329998A
:100CF00008432A9908432B990843054320688561D6
:100D000020688569012000F0A3F820688561DDE98D
:100D10002C0108432168C8612068C569012000F0E2
:100D200097F82068C561002001904FF00070029094
:100D3000002003904FF400100490002005900690CE
:100D40000790089004200990C0050A9040120B906B
:100D500080010C9040120D9080200E9000200F908A
:100D60001090206800F5805085692C480540DDE929
:100D7000010108430399084304990843059908436E
:100D800006990843079908430899084309990843B5
:100D90000543206800F580508561206800F580508B
:100DA0008569012000F054F8206800F580508561C5
:100DB000DDE90A0108430C9908430D9908430E998F
:100DC00008430F9940EA81001099084340F400015C
:100DD000206800F580500160206800F580500568AB
:100DE000012000F035F8206800F580500560A0690A
:100DF000012809D1206800F58050C06908490843DE
:100E0000216801F58051C861002120466269FFF721
:100E1000CDFE2EB070BD00000F8120FF233FDEF815
:100E2000400001007047014691F83500022803D0C8
:100E30008020486501207047052081F8350008684A
:100E4000006820F001000A6810600020F3E700004D
:100E500070B5044600F0A4FB06462546681C10B198
:100E600004480078054400BF00F09AFB801BA842AC
:100E7000FAD370BD140000202DE9FC410446002582
:100E8000002001909D4E0027804614B90120BDE846
:100E9000FC8194F8440028B9002084F845002046DD
:100EA00000F03AF900BF002000909548006840F437
:100EB0008040934908600846006800F48040009034
:100EC00000BF00BF8F48006820F400008D49086013
:100ED00008460068216A08438A490860206800F5CE
:100EE0008050006840F00101206800F580500160EA
:100EF00000F056FB07460FE000F052FBC01BB0F5B8
:100F0000FA7F09D9032084F8440000BF002084F848
:100F1000450000BF0320BAE7206800F58050006854
:100F200000F001000028E7D12068056925F01C05C4
:100F300000F0A4FD06467448864205D373488642F5
:100F400002D245F008051AE07048864205D36B4886
:100F5000864202D245F00C0511E06848864203D370
:100F60006B48864200D20AE06948864205D3694848
:100F7000864202D245F0040501E045F010052068E4
:100F800005614FF400420021204600F0B0F948B15D
:100F90004FF0010841462046FFF722FE012084F869
:100FA000440074E7FF20FFF753FF6068002871D00A
:100FB00000F0F6FA074600BF01AA0121204600F022
:100FC0004DF900F0EDFAC01B41F2883188420FD98B
:100FD0004FF0010841462046FFF702FE012084F849
:100FE000440000BF002084F8450000BF03204EE706
:100FF000019800F004000428DED18202002120467E
:1010000000F075F948B14FF0010841462046FFF75E
:10101000E7FD012084F8440039E700F0C1FA0746F3
:1010200000BF01AA0121204600F018F900F0B8FA2B
:10103000C01B41F2883188420FD94FF00108414668
:101040002046FFF7CDFD012084F8440000BF0020BA
:1010500084F8450000BF032019E7019800F0200044
:101060002028DED101AA1F21204600F0F7F848B160
:101070004FF0010841462046FFF7B2FD012084F8F9
:10108000440004E7019800F0100020B14FF4006123
:10109000E16002E00DE00021E160019800F0040051
:1010A000042802D10021A1601EE04FF48041A1601C
:1010B0001AE0E068C0F3CF00A168C1F34F0140EA35
:1010C00001020021204600F012F948B14FF001085A
:1010D00041462046FFF784FD012084F84400D6E60F
:1010E00040F6FF70FFF7B4FE41462046FFF778FD5B
:1010F000012084F844000020C9E600000087930323
:101100004438024004380140002D3101C00E16025F
:1011100000E1F50580D1F00810B586B00446142131
:1011200001A8FFF724F94849206888427ED100BF12
:1011300000BF002000904548006840F0007043491F
:1011400008600846006800F00070009000BF00BF13
:1011500000BF002000900846006840F080600860F2
:101160000846006800F08060009000BF00BF00BF2C
:10117000002000900846006840F0006008600846C3
:10118000006800F00060009000BF00BF00BF00BF1B
:10119000002000900846006840F0040008600846FF
:1011A000006800F00400009000BF00BF00BF0020F6
:1011B00000900846006840F001000860084600689A
:1011C00000F00100009000BF00BF00BF00200090B1
:1011D0000846006840F0400008600846006800F0DB
:1011E0004000009000BF00BF32200190022002901A
:1011F00000200390032004900B20059001A91448BF
:1012000000F0BEF88620019002200290002003909A
:10121000032004900B20059001A90E4800F0B0F8BF
:101220004FF4D04001900220029000E009E000203D
:101230000390032004900B20059001A9064800F0BC
:101240009FF806B010BD0000008002403038024018
:101250000008024000000240001802402DE9F04161
:1012600004460E4617460025A84694F844008228F6
:1012700002D10220BDE8F081822084F84400206879
:10128000056905F01C05208A4FF4784101EAC02069
:101290000543481100EA8610054325F0020545F094
:1012A00001052068056100F07BF9804612E000F03E
:1012B00077F9A0EB0800B0F5803F09D3012084F84E
:1012C000440000BF002084F8450000BF0320D1E7A0
:1012D0002068056905F001000028E8D12068406910
:1012E00080B23860012084F844000020C2E72DE974
:1012F000F04104460E4617460025A84694F84400DF
:10130000422802D10220BDE8F081422084F8440046
:101310002068056905F01C05208A4FF4784101EA30
:10132000C0200543481100EA8610054345F0020538
:1013300045F00105B8B2216848612068056100F0F8
:101340002FF9804612E000F02BF9A0EB0800B0F571
:10135000803F09D3012084F8440000BF002084F8B6
:10136000450000BF0320CEE72068056905F00100B5
:101370000028E8D1012084F844000020C3E70000E1
:10138000F8B502460B460025002400200021DCE0D1
:10139000012606FA01F51E6806EA0504AC4273D17F
:1013A0005E68012E08D05E68022E05D05E68112EA0
:1013B00002D05E68122E13D190684F000326BE4003
:1013C000B0434F00DE68BE40304390605068012655
:1013D0008E40B0431E79C6F300168E4030435060F5
:1013E000D0684F000326BE40B0434F009E68BE4009
:1013F0003043D0605E68022E02D05E68122E13D198
:10140000CF0802F1200656F827004E07F70E0F26E8
:10141000BE40B0434F07FF0E1E69BE403043CF08A9
:1014200002F1200646F8270010684F000326BE4050
:10143000B0431E7906F003064F00BE4030431060F3
:101440005E6806F08056B6F1805F7DD100BF002651
:101450000096404E366846F480463E4F3E603E461B
:10146000366806F48046009600BF00BF3A4E8F08EB
:1014700056F827008E07370F0F26BE40B043374E71
:10148000B24202D1002624E05EE0354EB24201D1E4
:1014900001261EE0334EB24201D1022619E0324E3F
:1014A000B24201D1032614E0304EB24201D10426EB
:1014B0000FE02F4EB24201D105260AE02D4EB24276
:1014C00001D1062605E02C4EB24201D1072600E0EC
:1014D00008268F073F0FBE4030431F4E8F0846F847
:1014E0002700264E3068A0435E6806F48036B6F5C5
:1014F000803F00D12043214E3060361D3068A0432C
:101500005E6806F40036B6F5003F00D120431B4E5E
:10151000361D3060361D3068A0435E6806F48016C4
:10152000B6F5801F00D12043144E08363060361DBA
:101530003068A0435E6806F40016B6F5001F00D1BF
:1015400020430E4E0C363060491C1029FFF420AFAA
:10155000F8BD000044380240083801400000024055
:101560000004024000080240000C0240001002404B
:101570000014024000180240001C0240003C0140E0
:1015800042690A408A4202D10A04826100E0816114
:1015900070470AB1816101E00B048361704700006C
:1015A00001480068704700000C00002003480068F4
:1015B0000349097808440149086070470C0000207D
:1015C0001400002010B50D48006840F400700B496D
:1015D00008600846006840F48060086008460068BB
:1015E00040F480700860032000F0A2F8002000F0B2
:1015F00007F800F02BF8002010BD0000003C02406E
:1016000070B504460E4800784FF47A71B1FBF0F0E3
:101610000C490968B1FBF0F5284600F0ADFE08B1B1
:10162000012070BD102C07D200222146501E00F070
:1016300041F80548046001E00120F2E70020F0E7EE
:1016400014000020180000201000002008B500BF82
:10165000002000900E48006840F480400C4908606B
:101660000846006800F48040009000BF00BF00BF43
:1016700000200090081F006840F08050091F08609B
:101680000846006800F08050009000BF00BF08BD11
:101690004438024001460846002809DB00F01F03D9
:1016A00001229A4043099B0003F1E023C3F8002183
:1016B00000BF70472DE9F05F80460D4616460027B3
:1016C00003F070FD074639462A46334601F007000D
:1016D000C0F1070ABAF1040F02D94FF0040A01E081
:1016E000C0F1070AD14600F1040ABAF1070F02D28D
:1016F0004FF0000A01E0A0F1030AD4464FF0010ABE
:101700000AFA09FAAAF1010A0AEA020A0AFA0CFA22
:101710004FF0010B0BFA0CFBABF1010B0BEA030BC7
:101720004AEA0B042146404603F044FDBDE8F09F21
:1017300000BF00F00702064B19684FF6FF0319407F
:10174000044B0B4343EA0221014B196000BF704771
:101750000CED00E00000FA05F8B50446002500266F
:10176000207800F0010020B9207800F0040004285F
:101770002FD100205B498866FFF712FF054606E07F
:10178000FFF70EFF401B022801D90320F8BD564881
:101790000068C0F3C0600028F2D160688101207A3F
:1017A00041EA007050498431086001204D49886643
:1017B000FFF7F6FE054606E0FFF7F2FE401B0228A3
:1017C00001D90320E2E748480068C0F3C060002860
:1017D000F2D0207800F0020002287DD100BF002066
:1017E000009041484030006840F080503E49403110
:1017F00008600846006800F08050009000BF00BFFD
:101800003A48006840F4807038490860FFF7C8FE25
:10181000054606E0FFF7C4FE401B022801D903205D
:10182000B4E73248006800F480700028F2D02E48F7
:101830007030006800F440764EB3A08900F4407028
:10184000B04224D028487030006820F4407601204F
:10185000274908600020086023487030066000684F
:1018600000F0010098B1FFF79BFE054608E0FFF786
:1018700097FE401B41F28831884201D9032085E759
:10188000194870300068C0F340000028EFD000BF56
:10189000A08900F44070B0F5407F0CD112480830A8
:1018A000006820F4F810134AE168114008430E491B
:1018B0000831086007E00C480830006820F4F81090
:1018C000094908310860084870300068A189C1F3EF
:1018D0000B010843044900E002E07031086000BFDA
:1018E000002053E7000047420038024000700040EB
:1018F000400E4742FFFCFF0F70B504460D460CB981
:10190000012070BD5848006800F00F00A84209D2BD
:1019100055490D700846006800F00F00A84201D03C
:101920000120EEE7207800F0020002281DD1207887
:1019300000F00400042805D14C48006840F4E05051
:101940004A490860207800F00800082805D1474877
:10195000006840F46040454908604448006820F051
:10196000F000A168084341490860207800F00100B8
:10197000A8B36068012807D13C4808380068C0F364
:101980004040B8B90120BCE76068022802D0606816
:10199000032807D1354808380068C0F3406048B9CB
:1019A0000120AEE7314808380068C0F3400008B9AC
:1019B0000120A6E72D48006820F003006168084375
:1019C0002A490860FFF7ECFD064609E0FFF7E8FD4D
:1019D000801B41F28831884202D9032091E707E059
:1019E0002248006800F00C006168B0EB810FEDD177
:1019F0001D48006800F00F00A84209D91A490D706F
:101A00000846006800F00F00A84201D0012078E7E6
:101A1000207800F00400042807D11448006820F45E
:101A2000E050E168084311490860207800F00800A0
:101A3000082808D10D48006820F46040216940EA78
:101A4000C1000A49086000F03FF808490968C1F37D
:101A50000311074A515CC8400649086006480068FF
:101A6000FFF7CEFD00204CE7003C02400838024062
:101A7000F8BD02081800002010000020014800688E
:101A8000704700001800002000B5FFF7F7FF044979
:101A90000968C1F38221034A515CC84000BD0000BF
:101AA0000838024008BE020800B5FFF7E7FF044906
:101AB0000968C1F34231034A515CC84000BD0000CF
:101AC0000838024008BE02082DE9F047002400252E
:101AD0000026A1462548006800F00C0020B104282B
:101AE00005D008283AD105E0DFF8849039E0DFF826
:101AF000849036E01D48001F006800F03F041B483A
:101B0000001F006800F4800078B11A481749091FC7
:101B10000968C1F38811A0FB017001462246002329
:101B20003846FEF7BBFB05460EE011480F49091F7A
:101B30000968C1F38811A0FB017001462246002309
:101B40003846FEF7ABFB05460848001F0068C0F3A7
:101B50000140401C4600B5FBF6F902E0DFF81090AA
:101B600000BF00BF4846BDE8F087000008380240CB
:101B70000024F40040787D01F8B504460CB901203A
:101B8000F8BD207800F00100002874D0F948006802
:101B900000F00C0004280DD0F648006800F00C009E
:101BA000082813D1F348001F006800F48000B0F546
:101BB000800F0BD1EF4808380068C0F34040002880
:101BC00059D06068002856D10120D9E700BF60686D
:101BD000B0F5803F08D1E7480838006840F480300D
:101BE000E449083908601EE06068B0F5A02F0DD107
:101BF000E0480838006840F48020DE490839086071
:101C00000846006840F4803008600CE0D948083885
:101C1000006820F48030D749083908600846006819
:101C200020F48020086000BF606890B1FFF7B8FC26
:101C3000054606E0FFF7B4FC401B642801D90320E9
:101C40009EE7CC4808380068C0F340400028F1D037
:101C500011E0FFF7A5FC054606E0FFF7A1FC401BDD
:101C6000642801D903208BE7C24808380068C0F314
:101C700040400028F1D1207800F0020002285FD116
:101C8000BC48006800F00C0058B1BA48006800F089
:101C90000C0008281CD1B748001F006800F4800021
:101CA000B0B9B44808380068C0F3400020B1E0681B
:101CB000012801D0012063E7AE480838006820F011
:101CC000F800216940EAC100AA490839086037E0F4
:101CD000E06800B30120A8490860FFF761FC0546F1
:101CE00006E0FFF75DFC401B022801D9032047E70F
:101CF000A04808380068C0F340000028F1D09D4893
:101D00000838006820F0F800216940EAC1009949CC
:101D10000839086014E0002097490860FFF740FC8C
:101D2000054606E0FFF73CFC401B022801D90320D2
:101D300026E7904808380068C0F340000028F1D139
:101D4000207800F0080008282CD16069A8B1012093
:101D50008A490860FFF724FC054606E0FFF720FCEF
:101D6000401B022801D903200AE782486C30006832
:101D7000C0F340000028F1D014E000207F49086043
:101D8000FFF70EFC054606E0FFF70AFC401B0228A1
:101D900001D90320F4E677486C300068C0F34000B6
:101DA0000028F1D1207800F00400042870D1002729
:101DB00070483830006800F0805090B900BF0020B3
:101DC00000906C483830006840F0805069493831E4
:101DD00008600846006800F08050009000BF00BF17
:101DE00001276748006800F48070B0B96448006853
:101DF00040F4807062490860FFF7D2FB054606E0B8
:101E0000FFF7CEFB401B022801D90320B8E65C484F
:101E1000006800F480700028F2D000BFA06801289C
:101E200008D154486830006840F0010051496831D9
:101E300008601DE0A06805280DD14E486830006894
:101E400040F004004B49683108600846006840F0E3
:101E5000010008600CE047486830006820F001008D
:101E60004449683108600846006820F004000860B2
:101E700000BFA068A8B1FFF793FB054609E0FFF794
:101E80008FFB401B41F28831884202D9032077E65C
:101E900026E0384868300068C0F340000028EED0E3
:101EA00013E0FFF77DFB054608E0FFF779FB401BD9
:101EB00041F28831884201D9032061E62D4868301B
:101EC0000068C0F340000028EFD1012F07D1294856
:101ED0003830006820F0805026493831086000BF53
:101EE000A069002845D02348006800F00C000828AD
:101EF0005DD0A069022845D100201F490866FFF780
:101F00004FFB054606E0FFF74BFB401B022801D9BB
:101F1000032035E6174808380068C0F34060002801
:101F2000F1D1D4E907010843616A40EA8111012235
:101F3000A06AC2EB500041EA00412C20005D41EA5A
:101F400000600C49091F086001200B490866FFF773
:101F500027FB054606E0FFF723FB401B022801D9BB
:101F600003200DE6034808380068C0F340600028ED
:101F7000F1D03FE00838024000004742800E47425F
:101F80000070004000201C490866FFF709FB054669
:101F900006E0FFF705FB401B022801D90320EFE50F
:101FA00016480068C0F340600028F2D122E0A06922
:101FB000012800D1E4E511480830066806F48001E4
:101FC000E069814214D106F03F01206A81420FD1BD
:101FD00047F6C0703040616A884209D106F440314A
:101FE000A06A814204D106F07061E06A814201D0AA
:101FF0000120C5E50020C3E500004742003802404B
:102000002DE9F04104460E46002700BF2079012843
:1020100002D10220BDE8F0810120207100BF60796B
:10202000012822D102206071FFF7BAFA05460EE0BE
:10203000FFF7B6FA401B022809D90120607102207F
:10204000A06000BF0020207100BF0120E2E72068EF
:10205000406800F001000028EAD020688068E06055
:10206000E06830600120607102E00420A060012778
:1020700000BF0020207100BF3846CBE710B50446F2
:1020800004F10C012046FFF7BBFF08B9E06810BD62
:102090000020FCE710B504460CB9012010BD6079A2
:1020A00020B900202071204600F00EF80220607157
:1020B0002068006840F00400216808600120607119
:1020C0000020A06000BFE9E708B50A4A0168914214
:1020D0000FD100BF002100910749096841F040017C
:1020E000054A11601146096801F04001009100BFE6
:1020F00000BF08BD000806503438024010B5044641
:102100000CB9012010BD607F20B900202077204647
:1021100000F060F80220607700BFCA2021684862A2
:1021200053202168486200BF204602F089FB40B17D
:1021300000BFFF202168486200BF042060770120B3
:10214000E0E72068806822490840216888602169AA
:102150006068084361690843216889680843216809
:1021600088602168E068086120680169208941EA87
:102170000040216808612068C06820F08000216864
:10218000C8602068806800F0200060B9204600F038
:102190002DF840B100BFFF202168486200BF042035
:1021A00060770120AEE72068006C20F48020216871
:1021B00008642068006CA16908432168086400BFB6
:1021C000FF202168486200BF01206077002099E766
:1021D000BFFF8FFF034A0168914202D10121024AE9
:1021E00011607047002800403C0E474270B504461D
:1021F00000252068C06820F0A0002168C860FFF7B3
:10220000CFF9054607E0FFF7CBF9401BB0F57A7F21
:1022100001D9032070BD2068C06800F020000028AC
:10222000F1D00020F6E710B504460CB9012010BD2E
:10223000606A00B900BF0021A16294F8510028B97A
:10224000002084F85000204600F034F8022084F882
:1022500051002068006820F0400021680860D4E93F
:1022600001010843E16808432169084361690843A3
:10227000218B01F400710843E1690843216A084396
:10228000A16A0843216808600421A06901EA10409E
:10229000616A0843216848602068C06920F40060D2
:1022A0002168C86100206065012084F85100002089
:1022B000BDE7000010B586B00446142101A8FEF762
:1022C00056F82949206888424CD100BF0020009070
:1022D0002648006840F48050244908600846006899
:1022E00000F48050009000BF00BF00BF00200090AD
:1022F0001E481438006840F001001C491439086079
:102300000846006800F00100009000BF00BF00BF59
:10231000002000900846006840F00200086008466F
:10232000006800F00200009000BF00BF6020019034
:1023300002200290002003900320049005200590C5
:1023400001A90B48FFF71CF8202001900220029001
:1023500000200390032004900520059001A9054862
:10236000FFF70EF806B010BD0030014044380240BF
:10237000000002400004024070B504462546681E75
:10238000B0F1807F01D301200FE0681E4FF0E02103
:1023900048610F214FF0FF3002F00CFF00204FF09A
:1023A000E021886107200861002070BD70470000AF
:1023B0002DE9F0470446206805682068C668206853
:1023C00047694FF00008C14605F00F08B8F1000F4B
:1023D0000AD105F0200038B106F0200020B12046D7
:1023E00002F07CFBBDE8F087B8F1000F72D007F077
:1023F000010018B906F4907000286BD005F00100B8
:1024000030B106F4807018B1E06B40F00100E06379
:1024100005F0040030B107F0010018B1E06B40F0A6
:102420000200E06305F0020030B107F0010018B1CE
:10243000E06B40F00400E06305F0080048B106F0EE
:10244000200010B907F0010018B1E06B40F008005F
:10245000E063E06B70B305F0200028B106F02000C7
:1024600010B1204602F03AFB20684069C0F38019A1
:10247000E06B00F0080010B9B9F1000F23D020463E
:1024800002F00CFB2068406900F04000402816D1A3
:102490002068406920F0400021684861606B50B1BD
:1024A0001748616B0865606BFEF7BDFC10B1606B8F
:1024B000016D88470CE02046FFF778FF08E02046D2
:1024C000FFF774FF04E02046FFF770FF0020E06391
:1024D00088E7FFE705F0800030B106F0800018B112
:1024E000204602F043FD7DE705F0400030B106F0E4
:1024F000400018B1204602F0E1FA73E700BF71E72F
:10250000894A000810B504460CB9012010BDA06925
:1025100000B100E000BF94F8390028B9002084F829
:102520003800204600F028F8242084F8390020687C
:10253000C06820F400502168C860204602F022FBE9
:102540002068006920F49040216808612068406993
:1025500020F02A00216848612068C06840F40050DB
:102560002168C8600020E063202084F8390084F8E6
:102570003A000020CAE7000010B586B004461421D6
:1025800001A8FDF7F4FE1F492068884238D100BF3A
:10259000002000901C48006840F010001A490860B4
:1025A0000846006800F01000009000BF00BF00BFA8
:1025B0000020009014481438006840F001001249CF
:1025C000143908600846006800F00100009000BF60
:1025D00000BF4FF4C06001900220029001200390E0
:1025E000032004900720059001A90848FEF7C8FEC3
:1025F000002211462520FFF75DF82520FFF74AF855
:1026000006B010BD001001404438024000000240F6
:102610007047704700BFFEE770B504460D4622467E
:1026200002A1284602F094FD002070BD25303278CA
:10263000000000002DE9F04106460D461746002433
:1026400005E005EB4401305DFFF7E6FF641CBC428A
:10265000F7DB002005F81400BDE8F08110B5144840
:102660001449086001204860002112480182406935
:10267000017080210F4840694170E1210D48406997
:10268000817000210B484069C1700A48406901719E
:1026900008484069417107488161C1614FF40001F8
:1026A0000162FEF7E9FB08B1FEF7BCFB10BD0000BC
:1026B00000800240BC2F002000B587B0142102A882
:1026C000FDF755FE00BF002001903E48006840F035
:1026D00020003C4908600846006800F02000019096
:1026E00000BF00BF00BF002001900846006840F016
:1026F000040008600846006800F00400019000BF74
:1027000000BF00BF002001900846006840F00100B3
:1027100008600846006800F00100019000BF00BF9B
:1027200000BF002001900846006840F008000860E3
:102730000846006800F00800019000BF00BF00BF1D
:10274000002001900846006840F0400008600846FC
:10275000006800F04000019000BF00BF00BF0020F3
:1027600001900846006840F00200086008460068D2
:1027700000F00200019000BF00BF00224FF4C061D2
:102780001148FEF706FF002208211048FEF701FF5E
:102790004FF4C06002900120039000200490059047
:1027A00002A90948FEF7ECFD0820029001200390E1
:1027B00000200490059002A90448FEF7E1FD07B04F
:1027C00000BD00003038024000140240000C0240FE
:1027D00010B50548054908600846FFF75BFC08B1DD
:1027E000FEF720FB10BD000000080650043000205A
:1027F00010B50A480A490860002048607F2108484F
:102800008160FF21C1600021016141618161FFF7A9
:1028100075FC08B1FEF706FB10BD00000028004063
:102820001430002010B50E480E4908604FF4827035
:10283000486000210B488160C160016141614FF433
:10284000007181610021C1610162416281620A21DE
:10285000C162FFF7E8FC08B1FEF7E4FA10BD000022
:10286000003001403430002010B50B480B4908609F
:102870004FF4E1304860002108488160C160016187
:102880000C21416100218161C161FFF73BFE08B16C
:10289000FEF7C8FA10BD0000001001408C30002087
:1028A00000BFFEE7704700002DE9F04105460E46E7
:1028B000144600271148007818B112202070BDE896
:1028C000F0812878012808D0022807D0032802D0F8
:1028D000042804D100E000BF00BF00BF02E00120D7
:1028E0002070ECE700BFFDF781FC07466E613846BB
:1028F000FDF780FC0020207000BFE0E73D000020D5
:102900002DE9F05F04460F4691461E464FF0000B3E
:102910002078052804D0012030700020BDE8F09F09
:1029200009F0800ABAF1000F04D029F080094FF0B5
:10293000010801E04FF0000800203070FDF756FC60
:102940008346B9F1000F2CD0B9F1010F3BD0B9F19A
:10295000020F03D0B9F1030F46D111E0A06800EADD
:102960000705BD4206D1B8F1010F05D1A068A84303
:10297000A06001E0702030705846FDF73BFC3AE063
:10298000A06800EA070535B1B8F1010F05D1A068CC
:10299000A843A06001E0702030705846FDF72AFC83
:1029A00029E0A06827EA0005BD4206D1B8F1010F71
:1029B00005D1A0682843A06001E07020307058461F
:1029C000FDF718FC17E0A06827EA000535B1B8F15B
:1029D000010F05D1A0682843A06001E0702030708D
:1029E0005846FDF707FC06E05846FDF703FC0025B6
:1029F0006F20307000BF00BF28468FE72DE9F041FF
:102A000006460D4600271348007820B11020287094
:102A10000020BDE8F081FDF7E9FB07460E48046899
:102A200084B1006840680C49086005202070A660E9
:102A30000020606009A0E0603846FDF7DBFB002065
:102A4000287004E03846FDF7D5FB72202870204638
:102A5000DFE700003D0000202C0000203F000000C8
:102A60002DE9F0470446894615464FF0000A3248E2
:102A7000007820B10F2028702046BDE8F08720782C
:102A8000052803D0012028702046F6E7FDF7AEFBAD
:102A90008246606808B1012700E00027B9F1000F05
:102AA00003D0B9F1010F3DD119E08FB923A0E06047
:102AB000002020702248006860600020A06020484C
:102AC00004605046FDF796FB00202870002605E0C4
:102AD0005046FDF78FFB49202870264629E0D4F8A0
:102AE000048006E002220021404601F05DFBD8F898
:102AF0000080B8F1000FF5D110A0E0600020207038
:102B00000F48006860600020A0600D4804605046D7
:102B1000FDF770FB012F01D101F0F6FC00202870B9
:102B2000002606E05046FDF765FB07202870264684
:102B300000BF00BF3046A0E73D0000203F0000007E
:102B40002C0000202DE9F04F89B005460F46914634
:102B50009A46129E002001908C48007828B10220ED
:102B60003070002009B0BDE8F08F8948007818B1B6
:102B70000D2030700020F5E72878052803D00120CB
:102B800030700020EEE709F0800BBBF1000F04D09D
:102B900009F07F094FF0010801E04FF00008FDF750
:102BA00025FB0190B9F1000F4AD0B9F1010F68D0AF
:102BB000B9F1020F03D0B9F1030F76D120E0A86874
:102BC00000EA0704BC420FD1B8F1010F02D1A86896
:102BD000A043A8606F480068C4620198FDF70AFB33
:102BE000002030702046BDE74B463A4603A92846F0
:102BF000CDF800A001F05AFA0198FDF7FBFA69E060
:102C0000A86800EA07047CB1B8F1010F02D1A868F6
:102C1000A043A8605F480068C4620198FDF7EAFA23
:102C20000020307020469DE74B463A4603A92846CF
:102C3000CDF800A001F03AFA0198FDF7DBFA49E07F
:102C4000A86827EA0004BC420FD1B8F1010F02D1F5
:102C5000A8682043A8604F480068C4620198FDF747
:102C6000C9FA0020307020467CE74B463A4603A95B
:102C70002846CDF800A001F019FA0198FDF7BAFA3C
:102C800028E0A86827EA000484B1B8F1010F02D156
:102C9000A8682043A8603F480068C4620198FDF717
:102CA000A9FA0020307020465CE70BE04B463A461C
:102CB00003A92846CDF800A001F0F8F90198FDF726
:102CC00099FA07E00198FDF795FA00246F2030701B
:102CD000204647E700BF01F017FCFDF787FA019097
:102CE0002C48006890F8350020B32A48006890F816
:102CF0003500029000202749096881F8350003A8B3
:102D000001F082FA00202349096881F83400019813
:102D1000FDF770FA00240298012805D0022802D19C
:102D20000E20307003E000BF0A20307000BF00BFEB
:102D3000204617E717480068C46AB8F1010F1ED192
:102D4000B9F1000F0ED0B9F1010F0CD0B9F1020F9B
:102D500003D0B9F1030F0AD100E000BFA868A04377
:102D6000A8600BE000BFA8682043A86006E00198B7
:102D7000FDF740FA6F2030700020F3E600BF0198A5
:102D8000FDF738FA002030702046EBE63D000020C9
:102D90003E000020500000202DE9FC5F04468946DB
:102DA00092461E46002000902078052804D001207D
:102DB00030700020BDE8FC9FFDF718FA0090BAF1D2
:102DC000000F03D0BAF1010F0AD104E0A06820EA95
:102DD0000900A0600BE0A06840EA0900A06006E0DE
:102DE0000098FDF707FA712030700020E2E700BF7D
:102DF0004FF0000B656859E0287D50B301283BD0A7
:102E0000022802D0032848D112E0A068296900EA0C
:102E100001072869B8420AD100223946284601F044
:102E2000C3F98046B8F1010F01D14FF0010B3BE02F
:102E3000A068296900EA010757B1002239462846EF
:102E400001F0B2F98046B8F1010F01D14FF0010B4A
:102E50002AE02869A16820EA01072869B8420AD156
:102E600000223946284601F09FF98046B8F1010F4B
:102E700001D14FF0010B17E02869A16820EA010792
:102E800057B100223946284601F08EF98046B8F144
:102E9000010F01D14FF0010B06E00098FDF7AAF9F0
:102EA0006F203070002085E700BF2D68002DA3D172
:102EB0000098FDF79FF9BBF1010F01D101F024FB50
:102EC000FDF794F90090A06801900098FDF792F941
:102ED0000020307001986DE710B500F017F801F090
:102EE000D5F901F001FA01F021FA01F09FF901F0A2
:102EF0002FF901F0B5FA01F0DFFA01F057FA01F00D
:102F00007DFA00F099FE00F01DF810BD09488021FF
:102F100002E0491E002204C00029FAD1064A074BEC
:102F20001A601A46126822F007021A600022044B47
:102F30001A807047CC300020CC3200201C000020CA
:102F4000200000207047000006480078012808D1C2
:102F500005480078FF2804D203480078401C024945
:102F6000087070474A0000203D00002010B5002482
:102F70001A480078012830D1FDF738F9044618487E
:102F8000007820B116480078401E15490870144892
:102F90000078F8B913480078E0B901F0EFFA124868
:102FA0001249097850F82100114908600F4800784B
:102FB0001049097888420DD00D480068C06B401C4C
:102FC0000B490968C8630C480068401C0A4908603E
:102FD000FDF72CF92046FDF70DF910BD4A00002041
:102FE0003D0000203E000020EC3900204000002081
:102FF000580000203F000020240000202DE9F0416F
:1030000006460F464FF000082048007810B1002017
:10301000BDE8F081FDF7EAF880461D4804680068C5
:1030200020B11B4800684068194908604046FDF718
:10303000E1F8FCB1FDF7DAF8804616480568D5B12D
:1030400000680068134908604046FDF7D3F86E60D9
:1030500006EB8700A860EE602E61AF820020E88258
:10306000022020700020208165600BA06061204656
:1030700001F00EF808E0064800686060044804604B
:103080004046FDF7B7F800242046C1E73D00002088
:1030900028000020680000203F00000010B5002438
:1030A0000B480078012811D1FDF7A0F80446094823
:1030B000007840B908480078FF2804D20648007814
:1030C000401C054908702046FDF794F810BD00002B
:1030D0004A0000203D0000203E00002010B50024E2
:1030E00013480078012821D1FDF780F804461148E3
:1030F0000078C0B91048007888B10F480078401EA9
:103100000D4908700846007828B92046FDF772F886
:1031100001F0FAF90AE02046FDF76CF806E02046D7
:10312000FDF768F802E02046FDF764F810BD0000E6
:103130004A0000203D0000203E00002070B50546FA
:1031400000261048007808B1002070BDFDF74EF849
:1031500006460D480468006820B10B4800684068C6
:10316000094908603046FDF745F84CB1032020704E
:1031700025810020606005A06061204600F088FF86
:103180002046E2E73D000020280000203F0000002C
:103190002DE9F04105460E461446002728780328FD
:1031A00003D001202070BDE8F0813248007810B1D2
:1031B00002202070F7E73048007810B10D20207011
:1031C000F1E7FDF713F80746288940B12889401E2A
:1031D00028813846FDF70EF800202070E3E72748E5
:1031E000006890F8340040F001002449096881F833
:1031F000340000202149096881F835001F48006823
:103200000663284600F006FF3846FCF7F3FF01F09E
:103210007BF9FCF7EBFF07461848006890F835008B
:1032200020B1012809D0022806D102E00020207038
:103230000BE00E20207008E000BF29460F48006810
:1032400000F0B4FE0A20207000BF00BF00200B4930
:10325000096881F834000949096881F8350007498F
:103260000968C8610549096808623846FCF7C2FF69
:1032700000BF98E73D0000203E00002050000020E5
:1032800070B5044600252078032801D0012070BDC8
:10329000FCF7ACFF0546A07A60B100230122194675
:1032A000204600F03BFE2846FCF7A4FF01F02CF975
:1032B0000020ECE720894FF6FF71884207D2208971
:1032C000401C20812846FCF795FF0020DFE72846B8
:1032D000FCF790FF3320DAE710B50B48007890B97F
:1032E00001F04CF909480078094908700948074974
:1032F000097850F821000849086008460068074925
:103300000860FCF77AFF10BD4A0000204000002052
:103310003F000020EC390020580000205000002021
:1033200010B504462046FDF7FDFB10BD2DE9FE4F0C
:1033300006460F4690461C464FF00009FCF756FF24
:1033400081461F48007828B14846FCF753FF3C20CF
:10335000BDE8FE8F1B4850F8240060BB01201949CE
:1033600041F824004846FCF745FF00234246394611
:10337000304600F0CDF982460020009001900346CF
:10338000024651460290204601F00EF9054635B935
:103390000D48007801280CD101F0B6F809E0FCF7DF
:1033A00025FF81460020074941F824004846FCF7E4
:1033B00021FF2846CCE74846FCF71CFF2820C7E73A
:1033C0003D000020EC3900204A0000202DE9F04F9C
:1033D00085B081468A4693461C46DDE90F78129DEA
:1033E00000200390FCF702FF03902348007830B1DF
:1033F0000398FCF7FFFE3C2005B0BDE8F08F1F48A6
:1034000050F8240088BB01201C4941F8240003988F
:10341000FCF7F0FE2A464146384601F0F3F92B4608
:103420005A465146484600F073F904901198CDE988
:10343000008002953A4620460E9B049901F0B4F8AC
:10344000064636B90E48007801280CD101F05CF828
:1034500009E0FCF7CBFE03900020084941F8240066
:103460000398FCF7C7FE3046C6E7FFE70398FCF772
:10347000C1FE2820C0E700003D000020EC390020FC
:103480004A00002010B504462046FDF74CFB10BD55
:103490002DE9F041054600274A48007810B1402048
:1034A000BDE8F0813F2D01D13E20F9E7FCF79EFEFB
:1034B0000746FF2D03D14448006890F83650434832
:1034C00050F8254024B93846FCF794FE4320E7E73E
:1034D000012C04D13846FCF78DFE3D20E0E714F8BE
:1034E000380F3B49085C617888432178384A50544A
:1034F00014F838091146085C30B994F83A10354888
:103500000078884333490870E06918B12046E169C2
:1035100000F04CFD206A18B12046216A00F05DFDE4
:10352000A66A16B1304600F06FFE0020206384F8D2
:10353000340084F8350028480078FF2804D2264853
:103540000078401C244908703846FCF753FE00F010
:10355000E3FCFCF74BFE07461F48007820B11E48ED
:103560000078401E1C490870204600F041F81B48B6
:103570000078401E194908700020144941F82500C0
:10358000A06930B9002061698861154960690860E7
:1035900005E0D4E905014861D4E9051088611148C6
:1035A000006860610F4804600FA020653846FCF792
:1035B00021FE0E480078012801D100F0A5FF00206F
:1035C0006EE700003D00002050000020EC39002094
:1035D00042000020410000203E0000204B0000205F
:1035E0005C000020540000203F0000004A00002042
:1035F00010B504462046FDF797FA10BD10B5FDF74B
:1036000094FA10BD2DE9F04106460F4614464FF0DE
:1036100000081548007818B112202070BDE8F0812C
:10362000FCF7E4FD8046FF2E03D11048006890F8B7
:1036300036600F4850F826502DB94046FCF7DAFDA9
:1036400043202070EAE7012D05D14046FCF7D2FD6A
:1036500043202070E2E72F654046FCF7CBFD0020B9
:10366000207000BFDAE700003D000020500000207D
:10367000EC39002010B504462046FDF757FA10BD7E
:1036800010B5FDF754FA10BD2DE9F04707460D4679
:103690004FF0000A002028606860FCF7A7FD824612
:1036A000FF2F03D11848006890F83670174850F87B
:1036B00027402CB95046FCF79DFD4320BDE8F0871C
:1036C000012C04D15046FCF795FD4320F6E7207C01
:1036D00000F0010020B95046FCF78CFD4520EDE7D5
:1036E0000026D4F80C90D4F808805046FCF782FDF0
:1036F00000E0761C58F8041B0029FAD02E60A9EBD4
:10370000060068600020D9E750000020EC39002056
:1037100070B50446101D20F007004FF08076051F9D
:1037200028462E60051F28462C60684E051F284637
:103730002E604FF01236051F28462E604FF00336DC
:10374000051F28462E604FF00236051F28462E60C2
:103750007610051F28462E60051F284629604FF069
:103760001136051F28462E604FF01036051F2846DB
:103770002E604FF00936051F28462E604FF00836A0
:10378000051F28462E604FF00736051F28462E607D
:103790004FF00636051F28462E604FF00536051FF0
:1037A00028462E604FF00436051F28462E6003F091
:1037B0000405002D7ED0F605051F28462E60444ED8
:1037C000051F28462E60434E051F28462E60424E98
:1037D000051F28462E60414E051F28462E60404E8C
:1037E000051F28462E603F4E051F28462E603E4E80
:1037F000051F28462E603D4E051F28462E603C4E74
:10380000051F28462E603B4E051F28462E603A4E67
:10381000051F28462E60394E051F28462E60384E5B
:10382000051F28462E60374E051F28462E60364E4F
:10383000051F28462E604FF08346051F28462E6040
:10384000324E051F28462E60314E051F28462E6039
:10385000304E051F28462E602F4E051F28462E602D
:103860002E4E051F28462E602D4E051F28462E6021
:103870002C4E051F28462E604FF08246051F284615
:103880002E60294E051F28462E60284E051F28460B
:103890002E60274E051F28462E604FF08146051FDB
:1038A00028462E60234E051F28462E603602051F2F
:1038B000284600E009E02E604FF07E56051F28469E
:1038C0002E600026051F28462E6070BD1147000897
:1038D0000000F8410000F0410000E8410000E04134
:1038E0000000D8410000D0410000C8410000C041A4
:1038F0000000B8410000B0410000A8410000A04114
:103900000000984100009041000088410000704193
:103910000000604100005041000040410000304183
:1039200000002041000010410000E0400000C040C5
:103930000000A040000040402DE9F04105464FF056
:103940000008FCF753FC8046FF2D05D12048006895
:1039500090F83650012608E01D48006890F83600BF
:10396000A84201D1012600E000261A4850F825405F
:103970002CB94046FCF73EFC4820BDE8F081012C04
:1039800004D14046FCF736FC4320F6E794F8387043
:103990001148C05D94F8391088430F49C85508464E
:1039A000C05D30B994F83A100C48007888430B4950
:1039B000087094F8340040F0080084F83400404661
:1039C000FCF718FC012E01D100F09EFD0020D4E789
:1039D00050000020EC39002042000020410000206F
:1039E00010B50C480068007C00F0040020B10949C3
:1039F00009680868FCF7E4FB07480068007C00F0F1
:103A0000040020B1044909680868FCF7E6FBFDF7EB
:103A10008FF810BD500000205800002070B50546FA
:103A200000261748007800B170BD1648007800B134
:103A3000FAE71DB3FCF7DAFB06461348006890F876
:103A400038401248005D1049096891F839108843E0
:103A50000E4908550846005D40B90B48006890F8CB
:103A60003A100B48007888430949087006480068F6
:103A700005633046FCF7BEFB00F046FD00BFD3E710
:103A80003D0000203E0000205000002042000020A9
:103A9000410000202DE9F04105460E4617461C4620
:103AA0001248007810B15520BDE8F0811048007828
:103AB00008B13220F8E74FF47A7060434FF47A711E
:103AC000B0FBF1F14FF461606843C6EB061200EB06
:103AD0008200384400EB4002C2EBC01001EBC0088A
:103AE0004046FFF79BFF0020DEE700003D0000207E
:103AF0003E00002070B50025FCF778FB0546034822
:103B000004682846FCF776FB204670BD7000002054
:103B100070B5002600F072F8FCF768FB06463148E5
:103B20000068401C2F4908603046FCF763FB2E48B4
:103B30000078012853D12D48007820B1012804D005
:103B4000022809D103E001250BE0002509E0012549
:103B500001202649087004E001250020234908704F
:103B600000BF00BF05B970BD2148046833E0FCF711
:103B70003DFB0646206B50B3206B401E2063206B3C
:103B800028BB94F8340000F0370040B114F8340F2B
:103B900000F0C800207001206070343C02E000207A
:103BA00084F8350094F8340000F0080078B938340F
:103BB000A0781049097808430E49087020780E490A
:103BC000085C6178084314F838190B4A505464694A
:103BD0003046FCF70FFB94F836003F28C7D100BFF2
:103BE000C1E70000700000204A00002060000020B3
:103BF0005C000020410000204200002010B5FCF7CE
:103C000098FF07480088401C05490880084600883E
:103C1000642803D30020088000F004F810BD0000E1
:103C20002000002010B503480068FFF729FB044678
:103C3000204610BD80000020F8B54FF420712848C0
:103C400000F004FC3821274800F000FC002514E0B7
:103C5000681C86B205EB8500214901EBC00406EB28
:103C6000860001EBC00764202070002084F8250046
:103C7000E7601DA02062681C85B20F2DE8D305EB1C
:103C80008500174901EBC00464202070002084F8EF
:103C90002500E06014A02062002014490860144947
:103CA00008801020134908800D481349086001203E
:103CB000FFF744FA114908600020FFF73FFA104966
:103CC00008606A460FA10D480068FEF7EDFD6A46E0
:103CD00011A10B480068FEF7E7FD00F027F8F8BDDA
:103CE0005C440020DC4800203F00000078000020F9
:103CF0007600002074000020840000207C0000205A
:103D00008000002075432F4F532D494920546D7278
:103D10004C6F636B0000000075432F4F532D4949D2
:103D200020546D725369676E616C000000B587B0F6
:103D30000320002180220A4BCDE90132CDE9031096
:103D40004FF6FD703D23074A00900748FFF73EFB02
:103D500006AA06A13D20FFF755FC07B000BD0000F4
:103D6000DC460020D8480020F13D000875432F4F65
:103D7000532D494920546D7200000000F0B50B46E8
:103D8000032580F82550012B05D1174EC5693668EB
:103D9000354445610CE085692DB9134EC569366817
:103DA0003544456104E0104E856936683544456107
:103DB00007264569B5FBF6F706FB17540B4D05EBD7
:103DC000C4010D682DB908600025C56001258D80EE
:103DD00006E00A680860C26010618D886D1C8D80E5
:103DE00000250561F0BD000078000020DC480020BF
:103DF00008B500BF00BF6A4600211B480068FFF7F6
:103E0000C7F9FFF74BF919480068401C17490860CB
:103E1000084600680721B0FBF1F201FB12081448C4
:103E200000EBC8073C681AE0E66810496069096859
:103E3000884213D1204600F01DF894F8240002288F
:103E400004D101212046FFF799FF02E0022084F807
:103E50002500656815B12046A168A8473446002CA6
:103E6000E2D1FFF73BF9C6E7800000207800002090
:103E7000DC480020F0B507264569B5FBF6F706FBE0
:103E800017540D4D05EBC4021568854205D1C16874
:103E9000116039B100250D6104E00169C368CB6090
:103EA00003B11961012580F825500025C560056121
:103EB00095886D1E9580F0BDDC48002001464A1EA5
:103EC0004FF0E0235A61084A106820F07F4000BF9D
:103ED00010601A46126942F005021A611A46126908
:103EE00042F002021A61704720ED00E070B504460E
:103EF000214605A023F04EFE4FF47A70B4FBF0F596
:103F00002846FFF7DBFF70BD6370755F66726571F1
:103F10003A25640D0A000000704700002DE9F04FBB
:103F200005460F4690469946A87A1C490E5C05F155
:103F30000B00805D11F800B00BEBC60000F0FF0A2B
:103F4000174850F82A4000202434E0602760207C85
:103F500020EA0800207484F81190207C243C00F0B2
:103F6000080068B994F83A000E49097808430D49E9
:103F700008700D48805D94F8391008430A49885547
:103F80002946204600F012F8206A20B12046216A16
:103F900000F023F8E5615046BDE8F08F10BE02083E
:103FA000EC390020410000204200002010B590F8BC
:103FB000382001F10B039B5C90F83940A34301F1D9
:103FC0000B04A35423469B5C23B98B7A90F83A40A8
:103FD000A3438B720023C36110BDF0B5024612F8F3
:103FE000384F95785678383A0B4618680FE000F14C
:103FF0000B073F5DB74300F10B0C0CF804706746EC
:104000003F5D17B9877AAF4387721B1D1868002878
:10401000EDD1F0BD10B51B4A1268D061194A126883
:1040200092F8383000F10B02D25C164B1B6893F803
:1040300039301A43134B1B6893F8384000F10B03D7
:104040001A55827A0F4B1B6893F83A301A438272E2
:104050000C4A126892F838100B4A525C094B1B68E4
:1040600093F839309A43084B5A541A46525C42B975
:10407000044A126892F83A30044A12789A43034B81
:104080001A7010BD500000204200002041000020A6
:10409000014600228A72002005E0002301F10B0294
:1040A0001354421CD0B20828F7D37047F0B5144619
:1040B000059E244F3F6897F8347047F02007DFF8DB
:1040C00084C0DCF800C08CF834700027DFF874C0BE
:1040D000DCF800C08CF835701A4F3F683E63194F0A
:1040E0003F68B9620C610B75164F3F688F60476877
:1040F0000F6000274F60C860456805B16960416086
:10410000104F3F6897F838200F4FBF5CDFF834C07E
:10411000DCF800C09CF839C027EA0C07DFF828C09B
:104120000CF802706746BF5C5FB9064F3F6897F8AE
:104130003AC0064F3F7827EA0C07DFF810C08CF82A
:104140000070F0BD5000002042000020410000201F
:104150002DE9F0414FF4A071104800F077F90025E7
:104160000DE0681C86B20D4800EB051400EB061745
:104170000020207067600AA0E060681C85B2132DE3
:10418000EFD3064800EB051400202070606004A007
:10419000E060024803490860BDE8F081AC340020CB
:1041A0003F0000002C0000202DE9F0410646884623
:1041B0001746B468002044F8300F44F8048C207986
:1041C00000F0DF00207167712079303C88B9383405
:1041D000A0780B49097808430949087020780949F3
:1041E000085C6178084314F83819064A50540125D0
:1041F00000E00025304600F007F82846BDE8F081D1
:10420000410000204200002030B501464A6808689D
:104210002AB9CC68606028B10025456002E01060D2
:1042200000B142608B6800259D6230BD70B54FF4CF
:10423000F071134800F00AF9002411E0601C85B207
:1042400004EB44000E4901EBC00305EB450001EB14
:10425000C006002018705E600AA05861601C84B21D
:10426000132CEBD304EB4400054901EBC003002001
:104270001870586003A0586108460349086070BD73
:10428000CC3200203F0000002800002000200B4915
:1042900008600B4908700B4908700B4908700B49FE
:1042A00008700B4908600B4908600B4908600B490E
:1042B00008600B4908700B490870704770000020B7
:1042C0003D0000203E0000204B0000204A0000205E
:1042D000240000204C000020380000203400002082
:1042E0003C0000206C00002000210A4A11700020D0
:1042F00004E00021084A1154411CC8B20828F8D330
:104300000021064A1170064A1170064A1160064AD9
:104310001160704741000020420000203F00002053
:1043200040000020580000205000002070B54FF4DD
:10433000F261194800F08AF84FF48071174800F0D4
:1043400085F8002413E0601CC5B204EB440000EBC8
:10435000C400114901EBC00305EB450000EBC500AB
:1043600001EBC0065E610EA01865601CC4B2152C7E
:10437000E9D304EB440000EBC400074901EBC003A0
:104380000020586106A01865002006490860024810
:104390000549086070BD0000EC3A0020EC390020AF
:1043A0003F0000005C0000205400002000B587B0F2
:1043B0000320002180220A4BCDE90132CDE9031010
:1043C0004FF6FF703F23074A00900748FEF7FEFFB5
:1043D00006AA06A13F20FFF715F907B000BD0000AF
:1043E000EC370020E8390020E946000875432F4FDC
:1043F000532D49492049646C6500000000B587B021
:104400000320002180220A4BCDE90132CDE90310BF
:104410004FF6FE703E23074A00900748FEF7D6FF8E
:1044200006AA06A13E20FFF7EDF807B000BD000088
:10443000EC350020E83700202947000875432F4F4E
:10444000532D4949205374617400000004E0002298
:1044500000F8012B4A1E91B20029F8D170470000E4
:1044600070B54FF4C0711148FFF7F0FF00240EE063
:1044700004EB44000D4901EBC005601C00EB40005B
:1044800001EBC00068600AA06861601C84B20F2C58
:10449000EED304EB4400054901EBC0050020686041
:1044A00003A0686108460349086070BD7C42002093
:1044B0003F000000640000202DE9F0416021104819
:1044C000FFF7C4FF00240DE0601C86B204EB44003B
:1044D0000B4901EBC00506EB460001EBC0072F605E
:1044E000601C84B2032CEFD304EB4400044901EBBD
:1044F000C00500202860084602490860BDE8F08138
:10450000FC4300206800002010B50024FBF76EFE7D
:10451000044613480078F8B912480078E0B900F072
:104520002DF811481149097850F821001049086008
:104530000E4800780F49097888420DD00C48006871
:10454000C06B401C0A490968C8630B480068401CDE
:1045500009490860FBF765FE2046FBF74BFE10BDDE
:104560003D0000203E000020EC39002040000020EB
:10457000580000203F000020240000200649074A80
:104580001278885C0649095C034A515C01EBC00162
:10459000044A11707047000010BE0208410000205C
:1045A00042000020400000202DE9F84F05460F464C
:1045B00090469946DDE90AAB00200090FBF716FE15
:1045C000009042480468002C7BD01C3454F8080C3E
:1045D0003E4908600098FBF70DFE44F81C7CA57668
:1045E000002020766076606144F818BC44F810AC76
:1045F00044F8148C0C9824F80C0C24F80A9C002025
:10460000E077E810207705F00700E076217F0120B1
:104610008840A077E17E01208840607700202060FC
:104620006060E060A0602062A0626062E06220637F
:1046300027A060631C3C002606E0002104F1540022
:1046400040F82610701CC6B2002EF6D02046FEF7A9
:1046500067FEFBF7CBFD00901E4840F82540009810
:10466000FBF7C8FD2046FEF70DFFFBF7BFFD0090EE
:104670001948006860610020A0611748006810B107
:10468000154800688461144804603834A0781349E0
:10469000097808431149087020781149085C61784D
:1046A000084314F838190E4A50540E480078401C3C
:1046B0000C4908700098FBF79DFD0020BDE8F88FBD
:1046C000FFE70098FBF796FD4220F7E75400002033
:1046D0003F000000EC3900205C0000204100002079
:1046E000420000204B000020002400BF00BFFBF769
:1046F0007DFD044605480068401C044908602046CA
:10470000FBF778FDFEF77AFFF1E700004C00002090
:1047100010B504480068FEF7ADFFFF20FEF7B8FEB5
:1047200010BD00005000002000BF00BF02E0C82004
:10473000FFF774F91F4800780028F8D01E48006879
:104740006421B0FBF1F01C4908600846006828B9F4
:1047500000201A490870FF20FFF7EEF8FBF746FD2E
:1047600004461548006864214843154908602046FE
:10477000FBF740FD00BFFBF739FD04461048006819
:104780001049086000200E4908602046FBF732FD02
:104790000C48006808490968B0FBF1F0C0F16400FA
:1047A00006490870FEF76CFF00F00EF86420FFF772
:1047B00035F9E0E73C000020340000203000002004
:1047C0004C000020380000207CB5002514E069462C
:1047D0002846FEF759FF064666B9094850F82540B5
:1047E00044B1012C06D0D4E9020100EB8100A064A1
:1047F0000198E064681CC5B23F2DE8D97CBD00007B
:10480000EC39002002F0010343B102F002032BB1A6
:1048100002E0491E002308C00029FAD170470000B9
:1048200070B504460D460548FDF728FC291B491CB8
:10483000B0FBF1F201FB1200204470BD04300020F7
:1048400070B5044600252068C06800F04000A0B99B
:10485000681E2168C860FCF7A3FE054607E0FCF768
:104860009FFE401BB0F57A7F01D9032070BD206800
:10487000C06800F040000028F1D00020F6E70000FA
:104880002DE9F04104460D46164600BF0D4800785C
:1048900008B900F0A9FB00BFEFF311800746202004
:1048A00080F3118800BF00BF32462946204600F041
:1048B0000BF88046F8B280F3118800BF00BF404675
:1048C000BDE8F081144900202DE9F04707468846ED
:1048D0001646C24607EB47011B4800EBC109D9F851
:1048E000140020B1012811D0022826D11EE048462C
:1048F00000F0B2FB0546B54201D2002405E0344683
:1049000032465146484600F0EEFB18E0484600F0BB
:10491000A3FB0546B54201D2284600E030460446D6
:1049200022465146484600F0DEFB08E0324651463A
:10493000484600F09FFB044601E0002400BF00BF92
:104940002046BDE8F08700002C49002070B50546E0
:104950000C462046FBF72CFD0646324621462846EB
:10496000FFF78EFF70BD704710B5FBF73FFC0446A4
:1049700007480078401C064908702046FBF73AFCBF
:10498000FFF7C6F8FEF7F2FAFCF710FE10BD0000C4
:104990003D00002000B597B030210BA8FBF7E7FCE5
:1049A000142106A8FBF7E3FC00200290039004907A
:1049B000059000BF01902B48006840F080502949C5
:1049C00008600846006800F08050019000BF00BFFA
:1049D00000BF002001902448006840F48040224934
:1049E00008600846006800F48040019000BF00BFE6
:1049F0000A200B9001200E9010200F9001201090A3
:104A0000022011900021129108211391A8211491E4
:104A100002211591072116910BA8FDF7ADF808B1F9
:104A2000FCF700FA0F200690022007900020089063
:104A30004FF4A05009904FF480500A90052106A829
:104A4000FCF75AFF08B1FCF7EDF9022002900002D2
:104A5000059002A8FCF780FE08B1FCF7E3F917B057
:104A600000BD00004038024000700040054800686A
:104A700040F47000034908604FF00060014980393C
:104A80000860704788ED00E070B50546AC6B00200B
:104A9000E085E0842046FDF789FC70BD0168C968A7
:104AA00021F490710268D1600168496921F0010127
:104AB00002685161202180F83A10704710B5044611
:104AC0002068C06820F040002168C860202084F879
:104AD00039002046FDF79DFD002010BD70B504464D
:104AE00094F83A0022284AD1A068B0F5805F13D12B
:104AF000A56A206940B920684068C0F30800288092
:104B0000A06A801CA06219E020684068C0B22880BA
:104B1000A06A401CA06211E0206938B92068406892
:104B2000C1B2A26A501CA062117007E02068406800
:104B300000F07F01A26A501CA0621170E08D401E3F
:104B400080B2E085C8B92068C06820F020002168E4
:104B5000C8602068C06820F480702168C860206840
:104B6000406920F0010021684861202084F83A0063
:104B70002046FDF74DFD002070BD0020FCE702201F
:104B8000FAE700002DE9F84F04462068006920F498
:104B90004050E1680843216808612169A068084322
:104BA00061690843E169084300902068C06849F2E0
:104BB0000C618843009908432168C86020684069F7
:104BC00020F44070A169084321684861E069B0F5AC
:104BD000004F75D1E3492068884203D0E24920683C
:104BE00088426FD1FCF760FF814602206168A0FB1C
:104BF00001510B461920A9FB00712A463846FBF7E4
:104C00004DFB6421B0FBF1F04FEA001A022061680D
:104C1000A0FB01510B461920A9FB00712A4638461A
:104C2000FBF73CFB074602206168A0FB01510B46E5
:104C30001920A9FB00B12A465846FBF72FFB642137
:104C4000B0FBF1F000EBC00101EB0010A7EB80001E
:104C5000322101EBC0006421B0FBF1F000F0F8005C
:104C60000AEB400A02206168A0FB01510B461920A3
:104C7000A9FB00712A463846FBF710FB07460220C5
:104C80006168A0FB01510B461920A9FB00B12A461F
:104C90005846FBF703FB6421B0FBF1F000EBC001C9
:104CA00001EB0010A7EB8000322101EBC000642172
:104CB000B0FBF1F000F007005044216888604FE13C
:104CC0006EE0FFE7FCF7E0FE814602206168A0FB92
:104CD00001510B461920A9FB00712A463846FBF703
:104CE000DDFA6421B0FBF1F04FEA001A022061689E
:104CF000A0FB01510B461920A9FB00712A4638463A
:104D0000FBF7CCFA074602206168A0FB01510B4675
:104D10001920A9FB00B12A465846FBF7BFFA6421C7
:104D2000B0FBF1F000EBC00101EB0010A7EB80003D
:104D3000322101EBC0006421B0FBF1F000F0F8007B
:104D40000AEB400A02206168A0FB01510B461920C2
:104D5000A9FB00712A463846FBF7A0FA0746022055
:104D60006168A0FB015003461920A9FB00B12A4647
:104D70005846FBF793FA6421B0FBF1F000EBC00159
:104D800001EB0010A7EB8000322101EBC000642191
:104D9000B0FBF1F000F00700504421688860DFE0CC
:104DA00070492068884203D06F49206888426BD1DF
:104DB000FCF77AFE814604206168A0FB01510B4696
:104DC0001920A9FB00712A463846FBF767FA82468C
:104DD00004206168A0FB01510B461920A9FB00715A
:104DE0002A463846FBF75AFA6421B0FBF1F000EB93
:104DF000C00101EB0010AAEB8000322101EB001092
:104E00006421B0FBF1F000F0F00A04206168A0FB1F
:104E1000015003461920A9FB00712A463846FBF7CA
:104E20003DFA6421B0FBF1F00AEB001A042061683E
:104E3000A0FB01510B461920A9FB00712A463846F8
:104E4000FBF72CFA074604206168A0FB01500346DB
:104E50001920A9FB00B12A465846FBF71FFA642126
:104E6000B0FBF1F000EBC00101EB0010A7EB8000FC
:104E7000322101EB00106421B0FBF1F000F00F00D3
:104E80005044216888606BE0FCF7FEFD81460420F9
:104E90006168A0FB015003461920A9FB00712A4656
:104EA0003846FBF7FBF9824604206168A0FB0150FD
:104EB00003461920A9FB00712A463846FBF7EEF994
:104EC0006421B0FBF1F000EBC00101EB0010AAEB94
:104ED0008000322101EB00106421B0FBF1F000F002
:104EE000F00A04206168A0FB015003461920A9FBC9
:104EF00000712A463846FBF7D1F96421B0FBF1F086
:104F00000AEB001A04206168A0FB01700346192017
:104F1000A9FB005001463A462846FBF7BFF9074671
:104F200004206168A0FB015003461920A9FB00B1D1
:104F30002A465846FBF7B2F96421B0FBF1F000EBCA
:104F4000C00101EB0010A7EB8000322101EB001043
:104F50006421B0FBF1F000F00F005044216888603C
:104F6000BDE8F88F0010014000140140014691F89F
:104F7000390021282CD18868B0F5805F0FD10A6AEA
:104F80001088C0F308000B685860086918B9086AEF
:104F9000801C086209E0086A401C086205E00B6A90
:104FA000581C086218780B685860C88C401E80B284
:104FB000C88458B90868C06820F080000B68D860C1
:104FC0000868C06840F040000B68D8600020704757
:104FD0000220FCE710B50248FDF7EAF910BD000019
:104FE0008C30002000BFFEE710B5124C032020617A
:104FF000606111A0A0611349E1614FF40061216279
:105000000021A1626162E1620BA020660E49616627
:105010001021A16600212167E16661670BA1E01DF7
:10502000FBF7E8F90AA12046FBF7E4F92020A0717C
:1050300010BD0000144900205465726D696E616CEA
:1050400000000000BC490020BC5100205254540014
:10505000534547474552000010B501460A69CB68E1
:105060009A4204D88C68641EE41AA01801E0D41A8D
:10507000601E10BD2DE9F0470446894617464FF0E3
:10508000000AE56800BFD4F81080A84503D9A8EB52
:105090000500461E04E0A5EB0800401CA1680E1A9E
:1050A000A068401BB04201D9304601E0A068401B17
:1050B0000646BE4201D2304600E0384606466168E8
:1050C000481932464946FBF72BF9B244B144BF1B9D
:1050D0003544A068A84200D10025E560002FD2D158
:1050E0005046BDE8F0872DE9F0470446894615464D
:1050F000E668A068871BAF4208D9616888192A460C
:105100004946FBF70DF97019E06010E0B846616898
:10511000881942464946FBF703F9A5EB070809EB56
:10512000070142466068FBF7FBF8C4F80C80BDE855
:10513000F08700000FB4024610B504A9034B039892
:1051400000F022F910BC5DF814FB0000C1C9000892
:105150000FB4084B10B504A902AA039800F014F983
:10516000044602A9002000F0B1FC204610BC5DF806
:1051700014FB0000CD5A00087CB5044600201D46F3
:10518000164600290BD0491ECDE90041044B6A4662
:105190002946304600F0F8F8009A002111707CBDD5
:1051A000B75A000802480068C0F3022070470000A8
:1051B0000CED00E010B5002804DB0A07130E054AC9
:1051C000135406E00A07140E034A00F00F031B1FD6
:1051D000D45410BD00E400E018ED00E00048704732
:1051E0008801002002E008C8121F08C1002AFAD175
:1051F00070477047002001E001C1121F002AFBD157
:10520000704700002DE9FF5F82B00021DDE9043026
:10521000020DDDF840B0034318D044F61050A2F25E
:10522000FF3242431514119801281FD0A5EB0B0043
:10523000401C5FEA000A4FF000064E4FDFF838913D
:10524000B046504615D5CAF1000413E01198012468
:105250004AA3012801D16FEA0B010298119AC0E913
:105260000031C0E9024206B0BDE8F09FCBF100007A
:10527000DFE704460021404A491842EB0450CDE9DB
:10528000001012E0E00707D032463B464046494650
:10529000FBF77CFA8046894632463B461046194663
:1052A000FBF774FA06460F466410002CEAD1DDE9DC
:1052B0000401DDE90023BAF1000F06DAFBF766FA14
:1052C00042464B46FBF762FA05E0FBF7D1FA42464D
:1052D0004B46FBF7CDFA04460E460022284BFBF75F
:1052E0004FFB03D84FF0FF30014607E00022254B6B
:1052F00020463146FBF7A3F9FBF729FB102409E010
:10530000002C0ADB0A220023FAF7C8FF039B303285
:105310001A55641E50EA0102F2D1641C039AC4F1CA
:1053200011031444119A012A03D0012208430DD11C
:105330000AE0084304D000204FF0110B119072E7EF
:10534000A3EB0B056D1E0DE05B4504DD4FF0000285
:1053500005F1010504E003DA4FF00002A5F10105B3
:10536000002AECD002981199C0E90231C0E9004549
:1053700079E70000000014400000F03F300000001A
:105380000000F0430000E03F2DE9FF4F95B09B4641
:105390008946064600250FE2252877D100242746B6
:1053A000F84A0121059400E0044316F8013F203B30
:1053B00001FA03F01042F7D130782A2811D06FF0AB
:1053C0002F033078A0F13002092A16D8059A44F04C
:1053D000020402EB820203EB42021044761C0590A9
:1053E000EFE759F8042B0592002A03DA504244F4FF
:1053F0000054059044F00204761C30782E2816D113
:1054000016F8010F44F004042A280DD06FF02F0283
:105410003078A0F13003092B09D807EB870302EBA2
:105420004303C718761CF3E759F8047B761C3078E1
:105430006C280FD006DC4C2817D068280DD06A28BD
:1054400014D104E0742810D07A280FD10DE044F470
:1054500000140AE044F4801401E044F4401472782B
:10546000824202D104F58014761C761C30786628BE
:105470000BD013DC582877D009DC002875D04528DC
:10548000F6D04628F4D047281AD19DE118E06328C9
:1054900035D0642879D0652812D195E1702873D071
:1054A00008DC6728F1D069286FD06E280DD06F28EE
:1054B00006D1B5E073282CD0752875D0782874D023
:1054C0005A46179990476D1C75E1C4F302500228A3
:1054D00009D003280DD0D9F8001004280DD00D6094
:1054E00009F1040967E1D9F80010EA17C1E900528F
:1054F000F6E7D9F800100D80F2E70D70F0E719F823
:10550000041B8DF8001000208DF80100EA460120F0
:1055100003E059F804AB4FF0FF3061074FF0000192
:1055200002D40DE008F101018846B9420FDA804546
:10553000F8DB1AF808100029F4D108E008F101019D
:1055400088468142FADB1AF808100029F6D105983E
:105550005B46A0EB080721463846179A00F094FAFC
:10556000284400EB080507E04DE029E10DE01AF8BA
:10557000010B5A4617999047B8F10108F7D25B46DC
:1055800021463846179A13E142E00A220092C4F3FA
:1055900002524FF0000A022A08D059F804CB032A1D
:1055A0004FEAEC710AD00DE029E02AE009F1070189
:1055B00021F00702F2E802C1914609E00FFA8CFCE3
:1055C0004FEAEC71042A03D14FFA8CFC4FEAEC71DC
:1055D000002907DA0A460021DCF1000C61EB020128
:1055E0002D2202E0220504D52B228DF80420012271
:1055F00003E0E20701D02022F7E7904659E00A21B4
:1056000002E010220DE010214FF0000A00910BE0A3
:1056100010224FF0000A44F004040827009203E02F
:1056200008224FF0000A0092C4F30252022A05D069
:1056300059F804CB0021032A08D009E009F1070139
:1056400021F00702F2E802C1914605E01FFA8CFC46
:10565000042A01D10CF0FF0C4FF00008220728D5D6
:10566000702806D0009B83F0100353EA0A0305D08C
:105670000EE040228DF80420012208E05CEA0102DD
:1056800006D030228DF804208DF8050002229046C5
:10569000009B83F0080353EA0A030AD15CEA010283
:1056A00001D1620705D530228DF804204FF00108A2
:1056B0007F1E582804D034A003900EA802900DE05D
:1056C00036A0F9E753466046009AFAF7E7FD8446AC
:1056D0000398825C0298401E029002705CEA01000E
:1056E000F0D1029806A9081A00F1200A600702D535
:1056F00024F4803400E00127574502DDA7EB0A00BF
:1057000000E0002000EB0A01009005984144401A97
:105710000590E00306D45B462146179A059800F0F1
:10572000B3F90544002706E001A85A46C05D179961
:1057300090476D1C7F1C4745F6DBE0030CD55B46AC
:105740002146179A059800F09FF9054404E030209F
:105750005A46179990476D1C0099481E00900029E1
:10576000F5DC08E0029802995A460078491C02913B
:10577000179990476D1CBAF10001AAF1010AF1DCFA
:1057800065E1000009280100303132333435363705
:10579000383961626364656600000000303132337D
:1057A000343536373839414243444546000000001D
:1057B00000F058F90544761C307800287FF4ECADF1
:1057C00019B02846BDE8F08F620700D4062709F11A
:1057D000070222F0070CFCE80223E14603F0004830
:1057E0005FEA080C02D00FF2702C0DE05FEA045C57
:1057F00002D50FF2682C07E05FEAC47C02D00FF2FA
:10580000602C01E0AFF2700C4FF0FF3823F0004342
:10581000CDF850C065280CD006DC452809D04628B4
:105820001DD047283DD13DE0662818D067287ED19D
:1058300038E00021112F01DB112000E0781CCDE9B8
:10584000000106A90EA8FFF7DDFCDDE90F010E9AA5
:1058500003910021009207F1010A04914DE04FF0FD
:1058600000400097CDE9011006A90EA8FFF7CAFC79
:10587000DDE90F0203920E9B11990022DDF80CA0C6
:105880000093049211B9791C00EB010AB7EB0A00EE
:1058900004D4C0F1FF3007F1010A0490AAEB07001D
:1058A000019044E0012F00DA01270021112F01DDD2
:1058B000112000E03846CDE9000106A90EA8FFF747
:1058C000A1FCDDE90F010E9A0391002104910092E1
:1058D000BA4621070CD40399514500DA8A46BAF139
:1058E000010F05DD009AAAF10101515C302908D0B1
:1058F000B84202DA10F1040F06DA0121CDE90110F5
:1059000015E0AAF10101E9E7002805DC049901444A
:105910000491AAEB000102E0411C514500DD8A46DA
:105920000499401A401C01904FF00040029020075B
:1059300004D40198504501DBCDF8048000208DF897
:105940004F0002980DF14F07B0F1004F25D02B20EA
:105950000E9002984FF0020800280CDA40420290A4
:105960002D200E9007E00A210298FAF7E4FD30316D
:10597000029007F8011DB8F10001A8F10108F2DC5E
:1059800002980028EFD1791E0E980870307800F048
:10599000200040F0450007F8020D12A8C01B00F1DE
:1059A00007081498007800B1012000EB0A01019863
:1059B00001EBE07105984144401A401E0590E00358
:1059C00006D45B462146179A059800F05DF8054419
:1059D0001498007818B15A46179990476D1CE00347
:1059E00024D55B462146179A059800F04DF80544EA
:1059F0001CE00498002807DBDDE90301884203DD91
:105A00000098405C179901E0179930205A4690475A
:105A1000049805F10105401C04900198401E019076
:105A200004D12E205A46179990476D1CBAF10001F7
:105A3000AAF1010ADDDC05E017F8010B5A461799B7
:105A400090476D1CB8F10001A8F10108F4DC5B4639
:105A50002146179A0598ABE62D0000002B000000A8
:105A6000200000002DE9F041044600251E4617469F
:105A7000880404D405E039462020B0476D1C641E1C
:105A8000F9D52846BDE8F0812DE9F041044600250E
:105A90001E469046C80301D5302700E02027880421
:105AA00004D505E041463846B0476D1C641EF9D563
:105AB0002846BDE8F0814A68002A06D00A68531CCF
:105AC0000B6010704868401E486070470A68531C9D
:105AD0000B601070704700002DE9F84F034691F8F5
