:020000040800F2
:10000000E06701209D0100087F2100084D1F0008C6
:100010007D210008350B0008A93D00080000000004
:100020000000000000000000000000006B3A000823
:10003000370B000800000000370200086D3A000886
:10004000B7010008B7010008B7010008B7010008B0
:10005000B7010008B7010008B7010008B7010008A0
:10006000B7010008B7010008B7010008B701000890
:10007000B7010008B7010008B7010008B701000880
:10008000B7010008B7010008B7010008B701000870
:10009000B7010008B7010008B7010008B701000860
:1000A000B7010008B7010008B7010008B701000850
:1000B000B7010008B7010008B7010008B701000840
:1000C000B7010008B7010008B7010008B701000830
:1000D000B70100089D3D0008B7010008B7010008FE
:1000E000B7010008B7010008B7010008B701000810
:1000F000B7010008B7010008B7010008B701000800
:10010000B7010008B7010008B7010008B7010008EF
:10011000B7010008B7010008B7010008B7010008DF
:10012000B7010008B7010008B7010008B7010008CF
:10013000B7010008390B0008B7010008B701000833
:10014000B7010008B7010008B7010008B7010008AF
:10015000B7010008B7010008B7010008B70100089F
:10016000B7010008B7010008B7010008B70100088F
:10017000B7010008B7010008B7010008000000003F
:10018000B7010008B7010008DFF80CD000F010FC40
:100190000048004789DA0008E067012006488047E8
:1001A00006480047FEE7FEE7FEE7FEE7FEE7FEE75C
:1001B000FEE7FEE7FEE7FEE7313B000889010008A5
:1001C000EFF3098141B1F1EE101A40F8041D20ED62
:1001D000200A29490A6810607047B0EC200A02C85A
:1001E000E1EE101A25490A6810607047EFF310809D
:1001F00072B6704780F31088704721484FF6FF7140
:100200000170002080F309881E48016881F3088886
:100210001D48012101701D484FF08051016062B6F8
:10022000FEE71A484FF080510160704717484FF0C1
:1002300080510160704772B6EFF3098028B1203811
:1002400080E8F00F0C490968086000B51048804745
:100250005DF804EB0F4810490A7802700648074918
:100260000A680260106890E8F00F203080F3098877
:100270004EF0F40E62B670474000002048000020A7
:1002800022ED00E01C0000202700002004ED00E02B
:10029000112F000824000020250000202DE9F05F28
:1002A0000546002092469B468846064681464024E5
:1002B0001BE0284641464746224600F061F9534676
:1002C0005A46C01A914110D311461846224600F0F2
:1002D00048F92D1A67EB01084F46224601200021FC
:1002E00000F03FF917EB00094E41201EA4F1010474
:1002F000DFDC484631462A464346BDE8F09F000011
:100300000048704784600208A0F16101192900D8F3
:1003100020387047A0F14101192900D820307047DA
:1003200010B5431A934209D28318881803E010F8D5
:10033000011D03F8011D521EF9D210BD40EA010350
:100340009B0703D009E008C9121F08C0042AFAD28B
:1003500003E011F8013B00F8013B521EF9D210BD39
:10036000D2B201E000F8012B491EFBD270470022F7
:10037000F6E710B513460A4604461946FFF7F0FFA4
:10038000204610BD10B5044604E00B7800F8013B90
:1003900003B1491C521EF8D2204610BDCAB2401EFD
:1003A00010F8011F8A4202D00029F9D100207047BD
:1003B000421C10F8011B0029FBD1801A704710B5B0
:1003C000002200E0521C835C8C5CA34201D1002B14
:1003D000F8D1D8B2E1B2401A10BD30B504460020C1
:1003E000034600E05B1C934203D2E05CCD5C401B03
:1003F000F8D030BD034611F8012B00F8012B002A7C
:10040000F9D11846704730B505460020034600E094
:100410005B1C934205D2EC5CC85C201A01D1002C15
:10042000F6D130BD70B500B91068002512E00B465A
:1004300002E0A64203D05B1C1C78002CF9D1E3B289
:100440002B4305D02CB125B1002100F8011B04E09D
:100450000546401C0678002EE9D11060284670BD84
:10046000004ADFE76C0100202DE9F0410E46054609
:10047000002400E0641C285DFFF74CFF0746305D58
:10048000FFF748FF381A02D1295D0029F2D1BDE8F3
:10049000F0812DE9F0410546002090460E460446C5
:1004A00000E0641C44450BD2285DFFF733FF07468C
:1004B000305DFFF72FFF381A02D1295D0029F0D1F6
:1004C000BDE8F0812DE9F05F93460F468046044673
:1004D000002603F041FDD0F80090824614F8015B3D
:1004E0002DB1FFF70DFF0068405DC007F6D12B2D41
:1004F00002D02D2D1AD0641E0021CAF800105A46D1
:100500003946204600F04CF8014627B13868A04231
:1005100001D1C7F80080DAF80000022809D0CAF833
:100520000090700505D54842BDE8F09F46F480660E
:10053000E2E70846F8E730B50B46014600202022E6
:10054000012409E021FA02F59D4205D303FA02F5E0
:10055000491B04FA02F52844151EA2F10102F1DC40
:1005600030BD202A04DB203A00FA02F10020704757
:100570009140C2F1200320FA03F3194390407047E1
:10058000202A04DB203A21FA02F00021704721FAE8
:1005900002F3D040C2F1200291400843194670474F
:1005A0002DE9F05F82460078002715468B460AF158
:1005B0000104B946302801D09DB113E014F8010BB5
:1005C0000127782803D0582801D045B10AE00DB1A1
:1005D000102D07D10027102514F8010B02E0082583
:1005E00000E00A250026B0460EE005FB080005FBEA
:1005F00006F1012701EB10461FFA80F8B6F5803F9F
:1006000000D3B94614F8010B294600F0F5F900288B
:10061000EBDABBF1000F05D00FB1641E00E05446C9
:10062000CBF80040B9F1000F06D003F095FC022191
:100630000160C81EBDE8F09F48EA0640FAE72DE9D0
:10064000FE4F804681EA0300C00F0C46009021F067
:10065000004123F00045B8EB0200A94105D2404615
:10066000214690461C460B46024623F000401043AC
:1006700047D0270DC7F30A00C3F30A510290401A6E
:10068000019040286BDAC3F3130040F4801B0098FC
:10069000924620B10023D2EB030A63EB0B0B0198C7
:1006A0005946C0F140025046FFF75BFF06460D4633
:1006B00050465946019A00F08DF910EB080061414F
:1006C000002487EA115284EAE7731A4340D0009A63
:1006D00062B3019A012A4FEA075215DC001B61EB55
:1006E00002014FF0004202EA0752CDE90042001C2D
:1006F00041F5801132462B4600F09BF903B0BDE86E
:10070000F08F40462146F9E7001B61EB0201001C17
:1007100041F5801300185B412018A2F5001747EB44
:10072000030140EAD570B6196D4111E06D084FEA3A
:10073000360645EAC0754FEA0752001B61EB02011D
:10074000001C41F5801149084FEA30000019514161
:1007500032462B4603B0BDE8F04F00F05BB900987D
:10076000012240000023D0EB020263EBE07300980B
:1007700021464FEAE074B8EB000061EB0401E9E7C1
:1007800083F000435BE781F0004158E72DE9FE4F1D
:1007900081EA030404F0004421F0004100944FF08A
:1007A000000B23F0004350EA01045ED052EA030438
:1007B0005BD0C3F30A54C1F30A552C44A4F2F334BA
:1007C0000194A0FB0254C1F3130141F48011C3F35F
:1007D000130343F4801301FB024400FB034E840A1D
:1007E000970A44EA815447EA8357A4FB07680295B5
:1007F0008D0A05FB07854FEA932C04FB0C54270553
:10080000029D4FEA065847EA1637B5EB08056EEB2E
:10081000070C870E920E47EA811742EA8312A7FB64
:100820000201B6EB0B0164EB00042B0D43EA0C3321
:100830005E1844EB1C50DA465146E7FB0201C5F353
:1008400013044FEA0B3343EA14534FEA0432019C7A
:1008500043EA0603A4F10C040294009CCDE900B421
:1008600000F0E7F803B0BDE8F08F00200146F9E79B
:100870002DE9F04D81EA030404F0004B21F000451E
:1008800014464FF0000A23F0004150EA050220D040
:1008900054EA01021DD0C5F30A570246C5F31303FB
:1008A000C1F31300C1F30A5640F4801543F48013DA
:1008B000A7EB0608101BD64608F2FD3873EB0500BF
:1008C00002D308F1010801E092185B41B8F1000F72
:1008D00003DA00200146BDE8F08D00204FF48011BE
:1008E000064684460EE0171B73EB050705D3121B63
:1008F00063EB050306434CEA010C49084FEA30005C
:1009000092185B4150EA0107EDD152EA030012D080
:1009100082EA040083EA0501084305D0101BAB41BD
:1009200006D20122002306E000224FF0004302E03D
:100930006FF0010253101AEB06004CEB085110EB5C
:100940000A0041EB0B01BDE8F04D00F063B8C1F3C4
:100950000A52C1F3130140F2FF3341F480119A426D
:1009600002DA00200146704740F233439A42A2F275
:10097000334202DC5242FFF703BEFFF7F2BD000034
:1009800030B5041E71F1000404DB4FF00044404216
:1009900064EB0101141E73F1000405DB1C464FF0EB
:1009A0000043524263EB0403994208BF904230BDBA
:1009B000064C074D06E0E06840F0010394E80700AC
:1009C00098471034AC42F6D3FFF7E2FB68650208A3
:1009D00088650208202A06DBCB17203A41FA02F08C
:1009E00043EAE07306E041FA02F3D040C2F120028C
:1009F00091400843194670473A2800D2303820F019
:100A00002002412A01D3A2F13700884201D34FF0DE
:100A1000FF30704710B5141E73F1000408DA401C53
:100A200041F1000192185B411A4301D120F001000D
:100A300010BD2DE9F04D92469B4611B1B1FA81F2FD
:100A400002E0B0FA80F220329046FFF78AFD0446B9
:100A50000F4640EA0A0041EA0B0153465A46084352
:100A600013D0114653EA010019D0C8F14002504694
:100A7000FFF786FD05460E46504659464246FFF7AB
:100A800070FD084305D0012004E020463946BDE84A
:100A9000F08D0020054346EAE0762C4337430A9860
:100AA0006305E40AA0EB08000022FD0A44EA47546B
:100AB0000A3002D500200146E9E701051019694115
:100AC000DDE9084500196941BDE8F04DA2E770B5C0
:100AD0008C1810F8015B15F0070301D110F8013BE9
:100AE0002A1106D110F8012B03E010F8016B01F870
:100AF000016B5B1EF9D12B0705D40023521E0DD4C8
:100B000001F8013BFAE710F8013BCB1A921C03E015
:100B100013F8015B01F8015B521EF9D5A142D8D34D
:100B2000002070BD7047704770477047704770472E
:100B300070477047FEE770472DE9F04101F0B2FDC4
:100B4000104C6669104DF0074FF0010708D067613F
:100B500068680068002803DB2868703012F01EFD0A
:100B6000700608D5E06920F04000E061286847671A
:100B7000064812F013FD4FF480306061BDE8F0418B
:100B800001F09CBD0090024058010020100100209F
:100B90002DE9F041044621B14FF40060E060C0004F
:100BA000A060E0690025002861D02846236840261F
:100BB00019683A4A1140D4E902273A43024342F401
:100BC00000700843186020680768012000F086F86C
:100BD000206807602068466020684668012000F0B1
:100BE0007DF820684660206885602068C5602168BF
:100BF00088694FF64172104040F08000886120689B
:100C00008669012000F06AF8206886612068C56165
:100C10002068C569012000F061F82068C56122687C
:100C200002F5805290691E4908401E4901439161B6
:100C3000206800F580508569012000F04FF8206899
:100C400000F5805085612068174900F580500160EB
:100C5000206800F580500568012000F03FF820680A
:100C600000F580500560A069012803D009E04FF429
:100C700080609BE7206800F58050C1690B4A1143F2
:100C8000C16160690A4982880A640278D0F801006B
:100C900042EA00204864BDE8F08100000F8120FF97
:100CA000233FDEF8040020028020C1024000010042
:100CB00000800240704790F83510022903D080214F
:100CC000416501207047052180F8351000680168F2
:100CD00021F00101016000207047000070B504465A
:100CE00000F0D6FA0546601C02D00448007804449F
:100CF00000F0CEFA401BA042FAD370BD08000020DD
:100D00002DE9FC474FF000060400B146009603D0E1
:100D100094F8440018B107E00120BDE8FC8784F88E
:100D20004560204600F0E2F86648016841F48041E1
:100D30000160006800F4804001906348016821F47C
:100D4000000101600168226A11430160206800F51A
:100D50008050016841F00101016000F099FA0546F8
:100D60004FF4FA7709E000BF00F092FA401BB84256
:100D700003D9032004F8440F67E0206800F5805091
:100D80000068C007F0D12068006920F01C0500F061
:100D900057FC4E494E4A0144914202D245F00805A3
:100DA00016E04C494C4A0144914202D245F00C05F0
:100DB0000EE04A494A4A0144914209D3494908444C
:100DC0004949884202D245F0040501E045F010058A
:100DD000206805614FF400420021204600F034F9FC
:100DE0000125A8BBFF20FFF779FF606888B300F0FA
:100DF0004FFA804641F288376A460121204600F0CA
:100E0000E1F800F045FAA0EB0800B84217D80098C6
:100E10004007F1D54FF480520021204600F014F92C
:100E2000B0B900F035FA80466A460121204600F04C
:100E3000C9F800F02DFAA0EB0800B8420AD9012148
:100E40002046FFF7A5FE04F8445F0320667064E7C0
:100E500024E018E000988006E6D56A461F21204667
:100E600000F0B0F8D0B90098C10603D54FF4006186
:100E7000E16000E0E660400701D5A66019E04FF4AC
:100E80008040A06015E0E068A168C00840EA510019
:100E900082B20021204600F0D7F830B1012120466F
:100EA000FFF776FE84F8445036E740F6FF70FFF710
:100EB00015FF49462046FFF76BFE84F8445000209A
:100EC0002BE70000443802400438014000D3CEFE36
:100ED000C0E1E40040F1E9FD40787D0100796CFC5F
:100EE000005A6202001F0AFA80F0FA02F0B587B0D9
:100EF000044614216846FFF73AFA2D4920688842D3
:100F000053D12C480024016841F000710160016850
:100F100001F000710591016841F080610160016894
:100F200001F080610591016841F000610160016894
:100F300001F000610591016841F004010160016860
:100F400001F004010591016841F0010101600168AF
:100F500001F001010591016841F040010160006864
:100F6000022500F0400005903220CDE9000502AADC
:100F700003260B2782E8D00069460F4800F0A0F84E
:100F80008620CDE9000502AA694682E8D0000B4818
:100F900000F096F84FF4D040CDE9000502AA69466A
:100FA00082E8D000064800F08BF807B0F0BD0000E2
:100FB0000080024030380240000802400000024039
:100FC000001802402DE9F047044690F8440091468D
:100FD00082281DD0822084F84400226810694FF6D0
:100FE000FF7500F01C03208A05EAC02018434FF467
:100FF000F86303EA8111014321F0020040F001058A
:10100000156100F045F9064601274FF4803810E0DD
:101010000220BDE8F08700BF00F03AF9801B404590
:1010200005D304F8447F002060700320F1E72068B6
:101030000569E807F0D12068406981B2C9F800105D
:1010400084F844700020E4E72DE9F041044690F86C
:10105000440042281ED0422084F8440023681869C6
:101060004FF6FF7600F01C05208A06EAC0202843D0
:101070004FF4F86505EA8111014390B241F0030590
:1010800058612068056100F003F9064601274FF416
:10109000803810E00220BDE8F08100BF00F0F8F8D1
:1010A000801B404505D304F8447F00206070032076
:1010B000F1E720680569E807F0D184F84470EAE7B1
:1010C0002DE9F84F00224FF0010803254FF00F0ED5
:1010D0000B6808FA02F42340A3426ED14E68012E39
:1010E00005D0022E03D0112E01D0122E12D1866807
:1010F0004FEA420C05FA0CF7BE43CF6807FA0CF72B
:10110000374387604668A6430C79C4F300149440C3
:1011100034434460C668570005FA07FC8C6826EA29
:101120000C06BC403443C4604C68022C01D0122C25
:1011300013D1D40800EB8404A346D4F820905407BC
:101140004FEAD46A0EFA0AF629EA06090E6906FA87
:101150000AF646EA0906CBF8206006680C7926EA0A
:101160000C0604F00304BC40344304604C68E40003
:1011700065D5364C266846F480462660246822F001
:10118000030604F480440094314C3444A446D4F85B
:1011900008489607370F0EFA07F6B4432D4EB042B3
:1011A00001D1002624E02C4EB04201D101261FE0DF
:1011B0002A4EB04202D102261AE040E0284EB04248
:1011C00001D1032614E0274EB04201D104260FE0DE
:1011D000254EB04201D105260AE0244EB04201D18D
:1011E000062605E0224EB04201D1072600E008267F
:1011F000BE402643CCF808681E4E34684F689C43B6
:10120000FF0300D51C4334601A4C241D26684F6828
:101210009E43BF0300D51E432660164E0836346831
:101220004F689C43FF0200D51C433460114E0C36BE
:1012300034684F689C43BF0200D51C433460521C85
:10124000102AFFF445AFBDE8F88F00004438024093
:10125000003001400000024000040240000802404B
:10126000000C02400010024000140240001802402E
:10127000001C0240003C0140426931EA020200D1F8
:101280000904816170470AB1816170470904FBE775
:10129000014880687047000008000020024881680B
:1012A0000278114481607047080000200B4810B597
:1012B000016841F400710160016841F480610160DE
:1012C000016841F480710160032000F06FF8002094
:1012D00000F006F800F024F8002010BD003C0240A9
:1012E00070B50D4D04464FF47A712878B1FBF0F0DB
:1012F0000A490968B1FBF0F000F016FD48B9102C5E
:1013000007D200222146501E00F030F800206C6009
:1013100070BD012070BD00000800002014000020F6
:101320000A4808B5016841F480410160006800F492
:10133000804000900548001F016841F08051016025
:10134000006800F08050009008BD00004438024062
:10135000002809DB00F01F020121914040098000B4
:1013600000F1E020C0F8001170470000F0B40E4B0F
:101370001B680C46C3F30223C3F10705042D00D9F3
:101380000425191D072901D2002300E0DB1E0126D8
:1013900006FA05F1491E214099409E40761E1640EE
:1013A0003143F0BC02F0C8BD0CED00E0064900F08E
:1013B000070208684FF6FF03184040EA0220034A7C
:1013C00010430860704700000CED00E00000FA05D3
:1013D0002DE9F843054600684FF00109C1074FF0B9
:1013E000000601D1400727D5DFF80C81C8F86860F6
:1013F000FFF74EFF0746414C05E000BFFFF748FFEF
:10140000C01B022857D820680001F7D46868810102
:10141000287A41EA0070394984310860C8F8689038
:10142000FFF736FF074604E0FFF732FFC01B022834
:1014300041D820680001F7D52878800752D52F4879
:101440004030016841F08051016000682C4C00F090
:1014500080500090206840F480702060FFF718FFF3
:10146000074604E0FFF714FFC01B022823D82068BA
:10147000C005F7D5214C7034206810F4407020D09E
:10148000A98901F4407181421BD020681D4920F4D4
:101490004070C1F800900E6020602068C00710D036
:1014A000FFF7F6FE064641F2883707E0FFF7F0FE49
:1014B000801BB84202D90320BDE8F883206880076A
:1014C000F4D5E9680D48C1F301220830032A0BD096
:1014D000016821F4F81101602068A989C1F30B01AA
:1014E000084320600020E7E70268074B22F4F81267
:1014F00019400A430260EFE700004742003802400B
:1015000000700040400E4742FFFCFF0F2DE9F047FE
:101510000E46050065D0DFF81481D8F80000F7B258
:1015200000F00F00B04207D288F80070D8F8000031
:1015300000F00F00B04254D128683D4C810712D50D
:10154000400703D5206840F4E05020602878000769
:1015500003D5206840F4604020602068A96820F02E
:10156000F000084320602878C0072DD03049686813
:101570000839012812D0022813D0032811D0096895
:10158000890700292DDA216821F003010143216038
:10159000FFF77EFE814641F2883A0EE00968890332
:1015A000EFE709688901ECE7FFF772FEA0EB09019C
:1015B000514502D90320BDE8F0872068696800F032
:1015C0000C00B0EB810FEFD1D8F80010404601F0CD
:1015D0000F01B14207D90770006800F00F00B04258
:1015E00001D00120E7E72878400705D52068E968A1
:1015F00020F4E050084320602878000706D52068D2
:10160000296920F4604040EAC100206000F03EF803
:101610002168084AC1F30311515CC84006490860BB
:1016200006480068FFF75CFE0020C4E7003C02406B
:1016300008380240643C0208140000200C0000201E
:101640000148006870470000140000200448054964
:1016500000680968044AC1F38221515CC8407047A0
:101660001400002008380240743C02080448054970
:1016700000680968044AC1F34231515CC8407047B0
:101680001400002008380240743C0208154810B5C8
:10169000006810F00C02144813D01449042A0FD02B
:1016A000082A0ED10F4C241F2268236802F03F0243
:1016B0005B0207D52068C0F38810A0FB010106E09B
:1016C000084610BD2168C1F38811A1FB0001002369
:1016D000FEF7E4FD2168C1F30141491C4900B0FB5C
:1016E000F1F010BD083802400024F40040787D017C
:1016F0002DE9F84F040076D02078DFF838A3CE4DDE
:10170000C00749D0DAF800105046C1F38101012921
:1017100008D00068C0F3810002280AD1281D0068A3
:10172000400206D52868800336D560680028E2D0DC
:1017300032E06068B0F5803F10D0B0F5A02F286887
:1017400010D020F480302860286820F480202860A1
:101750006068A0B1FFF79CFD06460CE0286840F4E5
:101760008030F4E740F480202860F7E7FFF790FD31
:10177000801B642873D828688003F7D50CE0FFF736
:1017800087FD064605E000BFFFF782FD801B642849
:10179000F0D828688003F7D42078DFF8A08280078B
:1017A0004FF000093ED5DAF80010504611F00C0F4A
:1017B00009D00068C0F3810002280BD19D48001FAA
:1017C0000068400206D42868800715D5E068012823
:1017D00009D111E0E068B8B10120C8F80000FFF7B6
:1017E00057FD064605E020E1FFF752FD801B022869
:1017F000C0D828688007F7D52868216920F0F8004C
:1018000040EAC10028600DE0C8F80090FFF740FDF5
:10181000064604E0FFF73CFD801B02281FD828681D
:101820008007F7D42078000722D5824E844861696A
:101830006C3671B101210160FFF72AFD074604E013
:10184000FFF726FDC01B022809D830688007F7D5AE
:101850000EE0C0F80090FFF71BFD074605E082E0B0
:10186000FFF716FDC01B02287DD830688007F7D42B
:101870002078400768D5DFF8BCB100270BF1380BA2
:10188000DBF80000C0000BD4DBF8001041F0805101
:10189000CBF80010DBF80000012700F0805000902A
:1018A000684E3068C00510D4306840F480703060F5
:1018B000FFF7EEFC009005E0FFF7EAFC0099401A04
:1018C000022850D83068C005F6D55A4EA068683650
:1018D00001280FD00528306810D020F001003060BA
:1018E000306820F004003060A068B8B1FFF7D0FC89
:1018F00000900FE0306840F00100F4E740F0040091
:101900003060F7E7FFF7C4FC0099411A41F28830D4
:10191000814266D830688007F4D50EE0FFF7B8FC46
:10192000009007E0FFF7B4FC0099411A41F28830BB
:10193000814256D830688007F4D42FB1DBF800100C
:1019400021F08051CBF80010A069D0B3DAF8002064
:101950005146C2F38102022A4AD00228484607D0E3
:10196000C8F8600000E03CE0FFF792FC04463BE072
:101970004746C8F86000FFF78BFC064605E000BF4D
:10198000FFF786FC801B02282BD828688001F7D43B
:10199000D4E907010843A16A2B4A490802EB014137
:1019A000626A41EA8211084394F82C1040EA01610E
:1019B0002048001F016001203866FFF769FC0446DB
:1019C00005E034E0FFF764FC001B022809D8286812
:1019D0008001F7D52BE000BFFFF75AFC001B02285F
:1019E00002D90320BDE8F88F28688001F4D41EE0F6
:1019F0000128F7D00868E26900F48001914214D10F
:101A0000226A00F03F0191420FD147F6C071626A2D
:101A10000140914209D1A26A00F44031914204D1BF
:101A2000E16A00F07060884201D00120DAE700200E
:101A3000D8E7000008380240003802400000474262
:101A4000800E4742007000400000FFFF2DE9F04784
:101A50000446007900278A4601280ED00125257109
:101A600060794FF00009012809D00420A060012707
:101A700084F804903846BDE8F0870220FBE74FF079
:101A8000020884F80580FFF703FC06460CE000BF5F
:101A9000FFF7FEFB801B022806D96571C4F8088099
:101AA00084F804900120E6E720684068C043C0073E
:101AB000EED120688068E060CAF800006571D7E761
:101AC00070B5040003D06079002510B105E0012055
:101AD00070BD2571204600F00DF80220607120686D
:101AE000016841F00401016001206071A5600020DF
:101AF00070BD000008B500680649884208D1064854
:101B0000016841F040010160006800F04000009071
:101B100008BD0000000806503438024070B50400CB
:101B200002D0607F10B106E0012070BD0020207758
:101B3000204600F049F8022060772168CA204862F8
:101B4000216853204862204601F01AFFFF25042631
:101B500018BB206881681B4A114081602168886831
:101B600062681043D4E904231A4310438860216853
:101B7000E068086120680169228941EA0241016147
:101B80002068C16821F08001C160206880688006FB
:101B900007D4204600F024F818B120684562667723
:101BA000C2E72068016C21F4802101642068016C87
:101BB000A26911430164206845620120607700201A
:101BC00070BD0000BFFF8FFF00680349884202D14B
:101BD0000249012008607047002800403C0E47423F
:101BE00070B504460068C16821F0A001C160FFF72C
:101BF0004FFB05464FF47A7607E000BFFFF748FB3E
:101C0000401BB04201D9032070BD2068C068800627
:101C1000F4D5002070BD70B5040005D00025A56284
:101C200094F8510010B106E0012070BD84F85050C6
:101C3000204600F031F8022084F851002068016845
:101C400021F040010160D4E901010843D4E9031205
:101C50001143084361690843218B01F40071084373
:101C6000E1690843216A0843A16A084321680860C2
:101C7000A069042101EA1040616A084321684860B4
:101C80002068C16921F40061C1616565012084F8A3
:101C90005100002070BD0000F0B587B0044614214B
:101CA0006846FEF764FB1C492068884232D11B4815
:101CB0000024016841F480510160006800F4805004
:101CC000059016481438016841F00101016001686F
:101CD00001F001010591016841F002010160006815
:101CE000022500F0020005906020CDE9000502AA5F
:101CF0000326052782E8D00069460948FFF7E0F986
:101D00002020CDE9000502AA694682E8D0000548F6
:101D1000FFF7D6F907B0F0BD00300140443802406B
:101D2000000002400004024010B5401EB0F1807F68
:101D300001D3012010BD4FF0E02460610F21601736
:101D400002F0FAF80020A06107202061002010BDF9
:101D50007047000070B5026804461068D168536986
:101D600010F00F0F52D003F0010501F490762E43CE
:101D70005FD0C20705D0CA0503D5E26B42F001026D
:101D8000E263420705D5DA0703D0E26B42F00202B4
:101D9000E263820705D5DA0703D0E26B42F0040262
:101DA000E263020707D501F020022A4303D0E26B69
:101DB00042F00802E263E26B002A33D0800604D5C9
:101DC000880602D5204601F0D7FE20684069E16B05
:101DD000C0F38010090700D428B3204601F0BEFEEE
:101DE0002068416949061AD5416921F040014161E5
:101DF000606BA0B11B490165606BFEF75CFF0028BA
:101E000010D0606B016DBDE870400847830610D5A7
:101E10008B060ED52046BDE8704001F0ADBE2046D1
:101E2000FFF796FF70BD2046FFF792FF0020E063AA
:101E300070BD030606D50B0604D52046BDE87040EC
:101E400001F07ABF4006F3D54806F1D5D1682046A7
:101E500021F04001D160202184F8391000F075F89C
:101E600070BD00004D3B000870B5040004D094F82C
:101E70003900002510B106E0012070BD84F838500B
:101E8000204600F023F8242084F839002068C16837
:101E900021F40051C160204601F0BAFE20680169BA
:101EA00021F4904101612068416921F02A014161DA
:101EB0002068C16841F40051C160E563202084F8C6
:101EC000390084F83A00002070BD000010B586B0DB
:101ED000044614216846FEF74AFA184920688842E9
:101EE00029D11748016841F010010160006800F035
:101EF0001000059012481438016841F0010101609A
:101F00000068694600F0010005904FF4C060009041
:101F100002200190012002900320039007200490EA
:101F20000848FFF7CDF8002211462520FFF71EFADA
:101F30002520FFF70DFA06B010BD0000001001408B
:101F4000443802400000024070477047FEE700003E
:101F500010B50B46024603A1184601F0C3FF00204E
:101F600010BD000025303278000000002DE9F0415E
:101F700016460D460746002406E000BF05EB440167
:101F8000385DFFF7E5FF641CB442F7DB002005F87D
:101F90001400BDE8F0810000124810B5104901603E
:101FA0000121416000210182426911704369802250
:101FB0005A704369E1229A704269D1704269117185
:101FC000426951718161C1614FF400010162FEF704
:101FD00097FE002803D0BDE81040FEF76BBE10BD91
:101FE00000800240582F0020F0B587B014216846C9
:101FF000FEF7BDF929480024016841F02001016085
:10200000016801F020010591016841F004010160BF
:10201000016801F004010591016841F001010160CE
:10202000016801F001010591016841F008010160BA
:10203000016801F008010591016841F0400101606B
:10204000016801F040010591016841F00201016061
:102050000068134E00F002004FF4C06505900022A6
:1020600029463046FFF70FF90E4F00220821384667
:10207000FFF709F900950125CDE90154694630467D
:102080000394FFF71DF808200090CDE9015469463C
:1020900038460394FFF714F807B0F0BD303802401B
:1020A00000140240000C0240074910B505480860C2
:1020B0000846FFF705FD002803D0BDE81040FEF7F5
:1020C000F9BD10BD00080650A02F00200B4810B528
:1020D0000949016000217F22C0E90112FF22C0E905
:1020E000032141618161FFF719FD002803D0BDE89C
:1020F0001040FEF7DFBD10BD00280040B02F0020CB
:102100000F4810B50D4901604FF482714160002104
:102110008160C1604FF400720161C0E90512C161C4
:102120000162416281620A21C162FFF774FD0028E9
:1021300003D0BDE81040FEF7BDBD10BD003001402A
:10214000D02F00200C4810B50A4901604FF4E1314E
:102150004160002181600C22C160C0E904128161EC
:10216000C161FFF781FE002803D0BDE81040FEF7F3
:10217000A1BD10BD0010014028300020FEE77047CF
:1021800070B505460D480E461446807808B11220F9
:1021900009E02878012808D0022806D0032804D0B6
:1021A000042802D00120107070BDFEF71FF86E6188
:1021B000FEF720F80020207070BD000020000020F5
:1021C0002DE9F041064600780D461F4614460528C5
:1021D00004D0012018700020BDE8F08114F08000C8
:1021E00002D022F080040120804600203870FDF7E4
:1021F000FDFF0246702104B3012C24D0022C08D02C
:10220000032C12D0FDF7F6FF00246F203870204613
:10221000E2E7B06800EA0504AC420AD01DE0A04342
:1022200019E01046FDF7E6FFF1E7B06810EA050493
:1022300013D0B8F1000FF4D0F1E7B06825EA00043C
:10224000AC4204D009E0B06835EA000405D0B8F12A
:10225000000FE6D02043B060E3E73970E1E700000B
:1022600070B506460F480D46007818B1102008706A
:10227000002070BDFDF7BAFF0B490C6864B16268BD
:102280000A6005212170A660002608A16660E16051
:10229000FDF7B0FF2E7003E0FDF7ACFF7220287051
:1022A000204670BD220000205C0000203F0000009E
:1022B0002DE9F05F04462B4888461546007808B1A2
:1022C0000F2003E02078052802D0012010701AE0CA
:1022D000FDF78CFF666881460EB1012700E00027FC
:1022E000DFF884A04FF0000BB8F1000F06D0B8F172
:1022F000010F20D0FDF77EFF072003E037B1FDF787
:1023000079FF492028702046BDE8F09F17A0E060C3
:1023100084F800B0DAF80010C4E9011B5E464846B4
:10232000CAF80040FDF766FF18E00222002130469F
:1023300001F008F93668002EF7D10CA0E06084F8AF
:1023400000B0DAF80010C4E9011B5E464846CAF83E
:102350000040FDF74FFF0FB101F0EEF92E700020A5
:10236000D2E70000220000205C0000203F000000B7
:102370002DE9F04F044658488BB09A460078149DDA
:1023800091460F4608B1022095E05448007808B104
:102390000D2090E02078052801D001208BE019F075
:1023A000800F03D009F07F09012600E00026FDF729
:1023B0001DFF02905FEA09004FF0000B23D00128B7
:1023C00037D0022808D0B9F1030F10D00298FDF7DA
:1023D00011FF00206F215CE0A06800EA0708B84503
:1023E0000BD02CE03E490968C1F82C8018E0A068A9
:1023F00000EA07015FEA010821D0002EF2D020EAAE
:102400000800A060EEE7A16827EA0108B84516D1E8
:1024100016B141EA0801A16031480068C0F82C807B
:102420000298FDF7E7FE85F800B040460BB0BDE826
:10243000F08FA16827EA01005FEA0008E8D14B4667
:102440003A4603A92046CDF800A001F023F80298EF
:10245000FDF7D0FE01F070F9FDF7C8FE204F82466F
:10246000386890F83580B8F1000F14D080F835B096
:102470005C4603A801F08EF8386880F83440504676
:10248000FDF7B8FE0020B8F1020F01D00A2100E0EC
:102490000E212970CAE7C76AB6B15FEA090010D0F9
:1024A00001280ED0022809D0B9F1030F06D05046FA
:1024B000FDF7A0FE6F2028700020B7E7A068B843A2
:1024C00001E0A0683843A0605046FDF793FE85F810
:1024D00000B03846AAE700002200002023000020B8
:1024E000400000202DE9F0410446007816460D46D4
:1024F0001F46052802D0012018701FE0FDF776FE68
:1025000080462EB1012E06D0FDF774FE712014E036
:10251000A068A84301E0A0682843A0600026656881
:102520002CE0287DB8B101281CD0022809D003284E
:102530000DD04046FDF75EFE6F2038700020BDE8EC
:10254000F081A1682869014088420FD015E0A16898
:102550002869014009E02869A16820EA0101884250
:1025600004D00AE02969A068814331B100222846DD
:1025700000F0E8FF012800D101262D68002DD0D100
:102580004046FDF737FE012E01D101F0D5F8FDF7E9
:102590002DFEA468FDF72EFE002038702046CEE701
:1025A00070B586B000F068F801F030F824480024D7
:1025B0002146847100F134025454491CC9B20829DF
:1025C000FAD3047144718462046201F02FF800F0C0
:1025D000F1FF00F091FF01F069F801F08DF880261D
:1025E0001848CDE901064FF6FF70009003253F2300
:1025F000154A00211548CDE9034500F00DFA05AA5A
:1026000013A13F2000F0FCFA1548CDE901064FF672
:10261000FE700C4A00903E23121F00211148CDE9A4
:10262000034500F0F9F905AA0FA13E2000F0E8FAF1
:1026300000F05AFD06B0BDE8704000F031B800006F
:10264000200000204836002044380020953800083B
:1026500075432F4F532D49492049646C6500000094
:1026600048340020C938000875432F4F532D49497D
:10267000205374617400000006498020002204C1C8
:10268000401EFCD10448054920F0070048600A803C
:1026900070470000683000206832002018000020D9
:1026A000704700000449C879012804D18878FF28C0
:1026B00001D2401C887070472000002070B5144C77
:1026C000E079012822D1FDF791FD0546A07820B1DF
:1026D000401E10F0FF00A07013D1E07888B901F01F
:1026E0004FF80C48617950F82100A062227991429C
:1026F00007D0C16B491CC163E068401CE060FDF776
:1027000095FD2846BDE87040FDF774BD70BD000022
:1027100020000020483800202DE9F04107461B48E2
:102720008846007810B10020BDE8F081FDF75EFD1D
:10273000174E34680CB161683160FDF75BFD14B36E
:10274000FDF754FD13490D68BDB12A680A60FDF715
:1027500051FD07EB8800C5E90170EF602F61A5F816
:1027600014800020E8820221217020810AA0656087
:102770006061204600F084FE05E0316861603460ED
:10278000FDF738FD00242046CEE70000220000209F
:1027900030000020640000203F00000010B5094C0C
:1027A000E07901280CD1FDF721FDA17821B9E1786C
:1027B000FF2901D2491CE170BDE81040FDF71ABDA8
:1027C00010BD00002000002010B50D4CE07901285C
:1027D00014D1FDF70BFDA17831B9E17821B1491E83
:1027E00011F0FF01E17003D0BDE81040FDF702BD1C
:1027F000FDF700FDBDE8104000F09EBF10BD0000D9
:102800002000002070B505460D48007808B1002072
:1028100070BDFDF7EBFC0B490C680CB162680A60F7
:10282000FDF7E8FC4CB1032020702581002060609A
:1028300005A06061204600F023FE204670BD000028
:1028400022000020300000203F0000002DE9F0476A
:102850000646007889461546032801D0012008E085
:102860002648007808B1022003E02548007818B116
:102870000D201070BDE8F087FDF7B8FC07463089E1
:10288000002430B1401E30813846FDF7B3FC2C7077
:10289000F0E7DFF87080D8F8000010F8341F41F03E
:1028A00001010170447040F8049C304600F0C4FD02
:1028B0003846FDF79FFC00F03FFFFDF797FC074609
:1028C000D8F8000090F8351031B1022906D0314611
:1028D00000F08CFD0A2002E02C7001E00E20287030
:1028E000D8F8000080F8344080F8354040F81C4F9C
:1028F00044603846BDE8F047FDF77CBC220000206C
:10290000230000204000002070B504460078032812
:1029100001D0012070BDFDF769FC0546A07A58B1D1
:10292000002301221946204600F028FD2846FDF725
:1029300061FC00F001FF09E020894FF6FF71884239
:1029400006D2401C20812846FDF754FC002070BDB3
:102950002846FDF74FFC332070BD000010B5094C30
:10296000E07900280CD100F00BFF60790649207156
:1029700051F82000A0622062BDE81040FDF73DBC88
:1029800010BD00002000002048380020FEF7CAB823
:102990002DE9FE431C4615460F468046FDF726FCF2
:1029A0001A49097821B1FDF725FC3C20BDE8FE83DA
:1029B000174E56F8241019B1FDF71CFC2820F5E736
:1029C000012146F82410FDF715FC00232A4639465C
:1029D000404600F07DF900250146009501952B4603
:1029E0002A462046029500F0DBFE070007D0FDF7DF
:1029F000FDFB46F82450FDF7FDFB3846D6E70548B9
:102A000000780128F9D100F097FEF6E722000020B7
:102A100048380020270000202DE9FF4F83B01C46D6
:102A2000DDE91386DDE9119792468B46FDF7DEFB63
:102A30001D49097829B1FDF7DDFB3C2007B0BDE851
:102A4000F08F1A4D55F8241019B1FDF7D3FB28204B
:102A5000F4E7012145F82410FDF7CCFB3246394656
:102A6000484600F081FF334652465946039800F02D
:102A70002FF90097CDE9018601464A462046109B72
:102A800000F08EFE060008D0FDF7B0FB002145F8EF
:102A90002410FDF7AFFB3046D0E705480078012849
:102AA000F9D100F049FEF6E7220000204838002066
:102AB00027000020FEF737B82DE9F04706464348C7
:102AC000007810B14020BDE8F0873F2E05D0FDF71B
:102AD0008DFB0746FF2E02D005E03E20F3E73C4881
:102AE000006890F83660DFF8EC9059F826405CB149
:102AF000012C0ED094F83820374994F83930885C8E
:102B0000984388540AD00FE03846FDF773FB432002
:102B1000D9E73846FDF76EFB3D20D4E72F4894F8FF
:102B20003A20017891430170E16911B1204600F02B
:102B30005DFC216A11B1204600F06AFCA06A08B170
:102B400000F028FD4FF00008C4F83080244D84F8D0
:102B5000348084F835802878FF2801D2401C287002
:102B60003846FDF747FB00F007FCFDF73FFB074643
:102B7000287808B1401E2870204600F03DF8194919
:102B80000878401E087049F82680A169404691B136
:102B900060694861D4E90501816113480168616198
:102BA000046012A020653846FDF724FB1048007829
:102BB000012806D007E0616988610E4960690860F4
:102BC000EBE700F0B9FD00207DE7000022000020C7
:102BD000400000204838002054000020260000203B
:102BE0002300002028000020440000203F000000B7
:102BF000270000204C000020FDF796BFFDF795BF91
:102C000070B5054611480E461446007810B11220E2
:102C1000107070BDFDF7EAFA0146FF2D03D10C4894
:102C2000006890F836500B4850F82500432540B115
:102C3000012806D006650846FDF7DCFA0020207062
:102C400070BD0846FDF7D6FA257070BD2200002041
:102C50004000002048380020FDF768BFFDF767BF3F
:102C60002DE9F0410446002008600D464860FDF75C
:102C7000BDFA0146FF2C03D11348006890F8364096
:102C8000124850F8240058B1012809D0027CD2071C
:102C90000CD0D0E9027600240846FDF7ABFA0BE031
:102CA0000846FDF7A7FA4320BDE8F0810846FDF786
:102CB000A1FA4520F8E7641C01CF0028FBD0301BA7
:102CC000C5E900400020EFE7400000204838002020
:102CD00010B5121D22F007024FF0807442E9020481
:102CE0004C4CA2F10C004FF0123240E901244FF09D
:102CF000033240F8082C4FF0023240F80C2C5210EE
:102D000040E905124FF0113140F8181C110140F84C
:102D10001C1C4FF0093140F8201CD10040F8241C45
:102D20004FF0073140F8281C4FF0063140F82C1CBA
:102D30004FF0053140F8301D910040F8041D59074F
:102D400067D55106021F1160A0F10801324A0A60DE
:102D5000091F324A0A60091F314A0A60091F314AB5
:102D60000A60091F304A0A60091F304A0A60091FB9
:102D70002F4A0A60091F2F4A0A60091F2E4A0A605B
:102D8000091F2E4A0A60091F2D4A0A60091F2D4A91
:102D90000A60091F2C4A0A60091F2C4A0A60091F91
:102DA0002B4A0A60091F4FF083420A60091F294A13
:102DB0000A60091F284A0A60091F284A0A60091F79
:102DC000274A0A60091F274A0A60091F264A0A6023
:102DD000091F264A0A60091F4FF082420A60091F34
:102DE000234A0A60091F234A0A60091F224A0A600F
:102DF000091F4FF081420A60091F204A0A60091F1B
:102E000012020A60091F4FF07E520A60002140F84A
:102E1000841D10BDB13800080000F8410000F041E9
:102E20000000E8410000E0410000D8410000D0412E
:102E30000000C8410000C0410000B8410000B0419E
:102E40000000A8410000A04100009841000090410E
:102E500000008841000070410000604100005041C6
:102E600000004041000030410000204100001041BE
:102E70000000E0400000C0400000A04000004040D2
:102E800070B50446FDF7B2F903461D48FF2C0068F3
:102E900005D090F83600A04204D1012503E090F857
:102EA0003640FAE70025174850F8240058B10128A9
:102EB0000ED090F83820144C90F83960A15CB143E2
:102EC000A1540AD00FE01846FDF794F9482070BDD0
:102ED0001846FDF78FF9432070BD0C4990F83A4031
:102EE0000A78A2430A7010F8341F41F008010170FB
:102EF0001846FDF77FF90DB100F01EFC002070BDF3
:102F00004000002048380020540000202600002007
:102F10000A4810B50068017C490702D50068FDF732
:102F20004FF907480068017C490702D50068FDF7A2
:102F300054F9BDE81040FDF7FBBD00004000002043
:102F40004800002070B5044613480078002821D1BD
:102F50001248007800281DD1002C1BD0FDF746F93F
:102F600003460F480F4D016891F8380091F8396019
:102F70002A5CB2432A5405D10B4891F83A500278A2
:102F8000AA43027018460C63FDF734F9BDE870409F
:102F900000F0D2BB70BD0000220000202300002002
:102FA00040000020540000202600002010B5114CE5
:102FB00024780CB1552010BD0F4C24780CB1322070
:102FC00010BD4FF47A746343B3FBF4F34FF46164C0
:102FD00010FB04F0C1EB011100EB8100104400EB89
:102FE0004001C1EBC01003EBC000FFF7ABFF0020B6
:102FF00010BD0000220000202300002010B5FDF7C6
:10300000F5F803490C68FDF7F5F8204610BD0000FF
:10301000500000202DE9F04100F04CF8FDF7E6F8F3
:10302000234D296B491C2963FDF7E4F8E879012851
:103030003BD1687A0126002720B1012835D002282B
:1030400002D06F72EC6A2CE06E72FBE7FDF7CEF8EF
:10305000216B19B3491E216320D194F8341011F06B
:10306000370F06D001F0C80184F8341084F83560B9
:1030700001E084F8357094F8341009070ED494F800
:103080003A10AA791143A971094994F838203431CA
:1030900094F839C08B5C43EA0C038B546469FDF7E8
:1030A000A9F894F836003F28D0D1BDE8F08100009F
:1030B0002000002010B5FDF73CFD07480188491CA1
:1030C00089B20180642905D300210180BDE8104048
:1030D00000F004B810BD000018000020014800688E
:1030E000FFF712BC7400002070B588B04FF4207157
:1030F0002E4800F0D1FA38212D4800F0CDFA0020FA
:103100002A4904466423421C00EB8000154601EB6B
:10311000C00092B202EB8202037001EBC20280F89F
:103120002540C26023A20262A8B20F28EBD300EBB5
:10313000800001EBC0001FA2037080F82540C4602E
:1031400002621D481E4A04601C4804801020108042
:103150001C4801600120FFF755FB1B4D2860002033
:10316000FFF750FB194E05AA19A130602868FFF738
:1031700007F805AA1BA13068FFF702F88021029129
:103180000320CDE903401C4A4FF6FD70CDE9000253
:103190003D2302F5FE7200211848FFF73DFC06AA08
:1031A00017A13D20FFF72CFD08B070BDF8430020AB
:1031B000784800203F0000006C0000206A000020DA
:1031C00068000020780000207000002074000020BB
:1031D00075432F4F532D494920546D724C6F636BCB
:1031E0000000000075432F4F532D494920546D7244
:1031F0005369676E616C00007846002061320008F8
:1032000075432F4F532D494920546D720000000023
:10321000032280F82520104A0129126816D08169FE
:10322000A1B111440722B1FBF2F3416102FB13117A
:103230000A4A002302EBC1010A68086042B1C26079
:1032400010618A88521C8A8003617047C169E8E76F
:103250000122C360F7E700006C00002078480020DE
:1032600008B5DFF87080DFF870A01C4D4FF007093B
:103270006A460021D8F80000FFF7E8FAFFF78EFA57
:103280002868401CB0FBF9F2286009FB12000227F5
:103290005AF8304013E060692968E66888420DD129
:1032A000204600F01DF894F8240002280CD084F881
:1032B0002570626812B12046A16890473446002C00
:1032C000E9D1FFF781FAD3E701212046FFF7A0FFFC
:1032D000EFE7000074000020784800206C00002018
:1032E00010B541690722B1FBF2F302FB13110C4A3E
:1032F000002302EBC102C1681468844203D111604B
:1033000029B10B6103E00469E16001B10C610121A5
:1033100080F82510C36003619088401E908010BD26
:10332000784800204FF0E021401E486106480268BE
:1033300022F07F420260086940F0050008610869D8
:1033400040F002000861704720ED00E010B504462F
:10335000014605A01DF0CEF84FF47A70B4FBF0F0F2
:10336000BDE81040FFF7DEBF6370755F6672657180
:103370003A25640D0A00000070470000F0B50546CC
:10338000807A174C0027205C2E18F67AA45D04EB97
:10339000C004E6B2134C54F826402763616294F8E7
:1033A0003410914384F8341084F8353009070BD475
:1033B0000D4994F83A208B791A438A71343194F884
:1033C00039300A5C1A430A542946204600F00EF8A8
:1033D000216A19B1204600F01BF8E5613046F0BDC6
:1033E0007C3C0208483800202000002010B590F8EE
:1033F000382090F839408B18DA7AA243DA7204D177
:103400008A7A90F83A309A438A720021C16110BDDD
:1034100070B510F8383F84784578086809E0C61818
:10342000F27AAA43F27202D1827AA243827251F8EE
:10343000040F0028F3D170BD30B5104900F10B0224
:103440000B6A43F81C0F1C7F5B7FA55C1D43A554D2
:103450000A6A837A92F83A402343837292F83800DA
:1034600001F1340492F83950235CAB43235404D166
:1034700092F83A2088799043887130BD200000206E
:103480000022827211464318491CC9B2DA72082917
:10349000F9D37047F0B5154D059F2C6894F834604A
:1034A00046F0200684F83460002684F835602763EF
:1034B000A1620A610B758C604268C860C1E9002690
:1034C000426802B1516041602868094B90F8382089
:1034D00090F83940995CA143995405D190F83A206D
:1034E0000448017891430170F0BD000040000020C5
:1034F000540000202600002010B54FF4A0710E48A3
:1035000000F0CAF800200C4A0346411C02EB0010F0
:103510008CB202EB04140370446008A4C46088B247
:103520001328F2D302EB001004A103704360C160C2
:103530000348026010BD0000D84000203F0000009A
:103540005C00002010B5034680680024C0E90B141D
:1035500090F8341011F0DF0180F8341080F8352035
:1035600004D0184600F016F8204610BD074990F820
:103570003A200C7822430A7010F8382F044940781A
:103580008C5C04438C540124EBE7000026000020EF
:1035900054000020D0E9001200232AB1116001B1CB
:1035A0004A60806883627047C26800295160F8D021
:1035B0004B60F6E710B54FF4F071114800F06CF86D
:1035C00000200F490346421C00EB400094B201EB7F
:1035D000C00004EB440401EBC4040370446009A47C
:1035E000446190B21328EED300EB400001EBC00021
:1035F00004A20370436042610348016110BD0000F2
:10360000683200203F000000200000200648002112
:1036100001638170C1700172C171C160C16181615A
:1036200041614170817270472000002010B54FF455
:10363000F261154800F030F84FF48071134800F043
:103640002BF8114A0020411C00EB400404EBC000A1
:10365000CBB203EB430402EBC00004EBC30302EB69
:10366000C30343610A4B0365C8B21528EBD300EBD3
:10367000400101EBC00002EBC00000210365416185
:1036800004484262C16210BD483900204838002019
:103690000436000820000020002203E0491E00F844
:1036A000012B89B20029F9D17047000010B54FF401
:1036B000C0710E48FFF7F0FF0C49002000EB4002FC
:1036C00001EBC20202F118035360401C08A380B250
:1036D00053610F28F2D300EB400001EBC000002241
:1036E000426003A242610348016010BD18420020FD
:1036F0003F0000006000002010B560210C48FFF77B
:10370000CBFF0B4A0020411C8BB200EB400003EBC7
:10371000430302EBC30342F8303088B20328F2D3EC
:1037200000EB4000002142F830100248026010BD5A
:10373000984300206400002070B5FCF757FD0E4C44
:103740000546A07898B9E07888B900F019F80B49D7
:10375000607951F82010A1622279904207D0C86B9D
:10376000401CC863E068401CE060FCF75AFD284636
:10377000BDE87040FCF73EBD200000204838002026
:103780000649054A01F134038879105C1B5CD25C60
:1037900002EBC000487170477C3C0208200000200A
:1037A0002DE9F05F9846DDE90ABA91460D460746D5
:1037B000FCF71CFD344E746A002C60D061691C3427
:1037C0007162FCF717FD44F81C5CA776002525768E
:1037D0006576656144F810BC44E906A90C9824F8A4
:1037E0000C0C24F80A8CE577FA08227707F0070119
:1037F000012000FA02F2E176A27788406077256026
:103800006560E560A5602562A56265621FA0E5624E
:10381000C4E90C5000201C3C04EB8001401C4D65A9
:1038200010F0FF00F8D02046FFF7B0F8FCF7DEFC00
:10383000174941F82740FCF7DDFC2046FFF73AF92D
:10384000FCF7D4FC0146F06AC4E9050500B18461C7
:10385000F46294F83A00B2791043B0710A4814F84F
:10386000382F34306478835C23438354307A401C8F
:1038700030720846FCF7BEFC0020BDE8F09FFCF764
:10388000B9FC4220F9E70000200000203F000000C2
:1038900048380020054C00BFFCF7A8FCE169491C32
:1038A000E161FCF7A7FCFFF7A9F9F5E7200000208C
:1038B000044810B50068FFF7CFF9BDE81040FF20BD
:1038C000FFF7FAB840000020184C02E0C820FFF7CC
:1038D00039FB60780028F9D0642160690025B0FBCD
:1038E000F1F0606118B92570FF20FFF7C9FAFCF705
:1038F0007DFC616964225143E161FCF77BFC00BF00
:10390000FCF774FCE169C4E90615FCF773FCD4E923
:103910000510B0FBF1F0C0F164002070FFF79EF9D4
:1039200000F006F86420FFF70DFBE9E72000002017
:103930007CB50C4D002469462046FFF791F958B933
:1039400055F8240040B1012806D0D0E9021201EB5D
:10395000820181640199C164641CE4B23F2CEAD9FC
:103960007CBD000048380020D30707D0920705D55A
:103970000022002902D004C0491EFAE77047000067
:1039800070B504460068C168490614D44FF0FF3191
:10399000C160FDF77DFC05464FF47A7607E000BF75
:1039A000FDF776FC401BB04201D9032070BD2068B2
:1039B000C0684006F4D5002070BD00002DE9F0413C
:1039C00007460B4815460E46007808B900F0EEF998
:1039D000EFF31184202080F311882A4631463846BF
:1039E00000F008F8E1B281F31188BDE8F081000031
:1039F000B048002070B50E46144900EB400001EBC2
:103A0000C0051446E86A183520B101280FD00228F5
:103A100005D113E0284600F0FDF9A04201D20024B0
:103A200011E022463146284600F02CFA0BE02846E9
:103A300000F0F0F9A042F4D20446F2E731462846FD
:103A400000F0F3F90446204670BD0000B0480020A5
:103A500070B505460C460846FCF7AAFC024621460E
:103A60002846BDE87040FFF7A9BF704710B5FCF7C6
:103A7000BDFB074A1178491C1170FCF7BBFBFFF72F
:103A8000C9FAFEF71BFEBDE81040FDF707BC0000B9
:103A90002200002030B597B030216846FCF767FC63
:103AA00014210CA8FCF763FC00251F481195129502
:103AB00013951495016841F080510160006800F091
:103AC000805015901948016841F4804101600068F8
:103AD000102100F4804015900A2000900120CDE9CB
:103AE000030105A9022481E8310008200890A820DC
:103AF000CDE9090407200B906846FDF7F9FD0CA9F4
:103B00000F2081E831004FF4A0500F90E002109098
:103B100005210CA8FDF7FAFC20021490119411A8BD
:103B2000FDF756FC17B030BD403802400070004031
:103B30000548016841F47001016003494FF00060DD
:103B4000803908607047000088ED00E010B5806B98
:103B50000021C185C184FEF7FBF810BD0168CA6869
:103B600022F49072CA6001684A6922F001024A6137
:103B7000202180F83A10704710B590F83A102229A9
:103B800001D0022010BD8168B1F5805F11D00169BC
:103B9000002901681FD0496801F07F03816A4A1C2F
:103BA00082620B70C18D491E0904090CC18518D0B1
:103BB0002BE00269816A002A0268526805D0D2B2FD
:103BC0000A80816A491C8162ECE7C2F308020A801C
:103BD000816A891CF7E74A68816A4B1C83620A7014
:103BE000E0E70168CA6822F02002CA600168CA687A
:103BF00022F48072CA6001684A6922F001024A61B7
:103C0000202180F83A10FEF79FF9002010BD000037
:103C10002DE9F041044600680169E26821F4405151
:103C2000114301612169A068E26908436169114398
:103C300008432168CA6849F20C639A430243CA6088
:103C400020684169A26921F4407111434161E06932
:103C5000192764253226B0F5004F354A35492068CA
:103C60004FF0000806D0884201D0904236D1FDF7CF
:103C7000FDFC35E0884201D0904202D1FDF7F6FC10
:103C800001E0FDF7E3FC61684A18A0FB070148EB7F
:103C90000803FCF703FB0146B0FBF5F00201B1FBA2
:103CA000F5F06FF01803584301EB800006EBC000FD
:103CB000B0FBF5F000F0F80002EB4002B1FBF5F0CC
:103CC000584301EB800006EBC000B0FBF5F000F0BC
:103CD0000700216810448860BDE8F081FDF7B6FC5C
:103CE00061688B0F8A00A0FB0701FCF7D7FA014639
:103CF000B0FBF5F06FF01802504301EB800006EBCB
:103D00000010B0FBF5F000F0F002B1FBF5F002EBB3
:103D10000012B1FBF5F06FF01803584301EB80007F
:103D200006EB0010B0FBF5F000F00F00D1E700004B
:103D3000001401400010014090F83910212901D0F1
:103D4000022070478168B1F5805F016A0BD04A1C80
:103D50000262026809785160C18C491E0904090C8D
:103D6000C1840ED017E009880268C1F308015160D0
:103D700001690029016A02D0491C0162ECE7891C33
:103D8000FBE70168CA6822F08002CA600068C16867
:103D900041F04001C1600020704700000148FDF77C
:103DA000D9BF000028300020FEE7000010B5124CFB
:103DB00003202061606111A0A06104F1A800E0610E
:103DC0004FF4006020620020A06260620BA12166B7
:103DD000E06204F6A801616610212067C4E91A10A8
:103DE000606709A1E01DFCF705FB08A12046FCF770
:103DF00001FB2020A07110BDB04800205465726DF9
:103E0000696E616C000000005254540053454747EE
:103E1000455200000269C1688A4203D88068401A8E
:103E2000104400E0501A401E70472DE9F047C46866
:103E30001746894606464FF000083069A04201D96E
:103E4000051B02E0B168201A0D1AB0686D1E001B38
:103E5000A84200D80546BD4200D33D4670682A46B8
:103E600020444946FCF75CFAB0687F1B2C44A84408
:103E7000A944A04200D10024F460002FDDD14046C7
:103E8000BDE8F0872DE9F04104468846D4E90207F1
:103E9000C51BE168606816460844B54206D941462C
:103EA000FCF73EFAB819E060BDE8F0812A464146C9
:103EB000FCF736FA761B08EB050132466068FCF722
:103EC0002FFAE660F0E700000FB4024610B504A92F
:103ED000034B039800F016F910BC5DF814FB0000CA
:103EE000D99F00080FB4084B10B504A902AA039883
:103EF00000F008F9044602A9002000F0A5FC2046C5
:103F000010BC5DF814FB0000494800087CB504466D
:103F100000201D46164600290BD0491ECDE9004160
:103F2000044B6A462946304600F0ECF8009A00211E
:103F300011707CBD334800080907090E002804DB16
:103F400000F1E02080F80014704700F00F0000F14D
:103F5000E02080F8141D7047004870477801002069
:103F600002E008C8121F08C1002AFAD17047704742
:103F7000002001E001C1121F002AFBD170470000A0
:103F80002DE9FF5F82B00021DDE90430020DDDF88C
:103F900040B0034318D044F61050A2F2FF3242431F
:103FA0001514119801281FD0A5EB0B00401C5FEAE7
:103FB000000A4FF000064E4FDFF83891B0465046E9
:103FC00015D5CAF1000413E0119801244AA3012871
:103FD00001D16FEA0B010298119AC0E90031C0E9E2
:103FE000024206B0BDE8F09FCBF10000DFE70446D7
:103FF0000021404A491842EB0450CDE9001012E07C
:10400000E00707D032463B4640464946FCF7BEFB38
:104010008046894632463B4610461946FCF7B6FBB9
:1040200006460F466410002CEAD1DDE90401DDE903
:104030000023BAF1000F06DAFCF7A8FB42464B4614
:10404000FCF7A4FB05E0FCF713FC42464B46FCF7EB
:104050000FFC04460E460022284BFCF791FC03D8C7
:104060004FF0FF30014607E00022254B2046314645
:10407000FCF7E5FAFCF76BFC102409E0002C0ADBE6
:104080000A220023FCF70AF9039B30321A55641EFA
:1040900050EA0102F2D1641C039AC4F111031444E2
:1040A000119A012A03D0012208430DD10AE00843E6
:1040B00004D000204FF0110B119072E7A3EB0B0519
:1040C0006D1E0DE05B4504DD4FF0000205F10105BA
:1040D00004E003DA4FF00002A5F10105002AECD05C
:1040E00002981199C0E90231C0E9004579E7000062
:1040F000000014400000F03F300000000000F043DA
:104100000000E03F2DE9FF4F95B09B4689460646EB
:1041100000250FE2252877D100242746F84A0121FF
:10412000059400E0044316F8013F203B01FA03F038
:104130001042F7D130782A2811D06FF02F03307851
:10414000A0F13002092A16D8059A44F0020402EBC5
:10415000820203EB42021044761C0590EFE759F807
:10416000042B0592002A03DA504244F400540590CF
:1041700044F00204761C30782E2816D116F8010F70
:1041800044F004042A280DD06FF02F023078A0F1FB
:104190003003092B09D807EB870302EB4303C71849
:1041A000761CF3E759F8047B761C30786C280FD026
:1041B00006DC4C2817D068280DD06A2814D104E0FA
:1041C000742810D07A280FD10DE044F400140AE0CE
:1041D00044F4801401E044F440147278824202D125
:1041E00004F58014761C761C307866280BD013DC1E
:1041F000582877D009DC002875D04528F6D0462805
:10420000F4D047281AD19DE118E0632835D06428FE
:1042100079D0652812D195E1702873D008DC672821
:10422000F1D069286FD06E280DD06F2806D1B5E087
:1042300073282CD0752875D0782874D05A461799D1
:1042400090476D1C75E1C4F30250022809D0032881
:104250000DD0D9F8001004280DD00D6009F1040923
:1042600067E1D9F80010EA17C1E90052F6E7D9F87A
:1042700000100D80F2E70D70F0E719F8041B8DF8BF
:10428000001000208DF80100EA46012003E059F8F3
:1042900004AB4FF0FF3061074FF0000102D40DE096
:1042A00008F101018846B9420FDA8045F8DB1AF8B7
:1042B00008100029F4D108E008F101018846814284
:1042C000FADB1AF808100029F6D105985B46A0EB36
:1042D000080721463846179A00F094FA284400EB64
:1042E000080507E04DE029E10DE01AF8010B5A46F8
:1042F00017999047B8F10108F7D25B462146384636
:10430000179A13E142E00A220092C4F302524FF0DE
:10431000000A022A08D059F804CB032A4FEAEC71AC
:104320000AD00DE029E02AE009F1070121F0070297
:10433000F2E802C1914609E00FFA8CFC4FEAEC71F9
:10434000042A03D14FFA8CFC4FEAEC71002907DAFA
:104350000A460021DCF1000C61EB02012D2202E093
:10436000220504D52B228DF80420012203E0E20768
:1043700001D02022F7E7904659E00A2102E01022FE
:104380000DE010214FF0000A00910BE010224FF0D9
:10439000000A44F004040827009203E008224FF0CA
:1043A000000A0092C4F30252022A05D059F804CB45
:1043B0000021032A08D009E009F1070121F00702D2
:1043C000F2E802C1914605E01FFA8CFC042A01D1F3
:1043D0000CF0FF0C4FF00008220728D5702806D0FB
:1043E000009B83F0100353EA0A0305D00EE040223D
:1043F0008DF80420012208E05CEA010206D0302298
:104400008DF804208DF8050002229046009B83F071
:10441000080353EA0A030AD15CEA010201D16207E8
:1044200005D530228DF804204FF001087F1E582852
:1044300004D034A003900EA802900DE036A0F9E756
:1044400053466046009AFBF729FF84460398825C36
:104450000298401E029002705CEA0100F0D10298BE
:1044600006A9081A00F1200A600702D524F4803456
:1044700000E00127574502DDA7EB0A0000E000201D
:1044800000EB0A01009005984144401A0590E003B2
:1044900006D45B462146179A059800F0B3F9054407
:1044A000002706E001A85A46C05D179990476D1C89
:1044B0007F1C4745F6DBE0030CD55B462146179A87
:1044C000059800F09FF9054404E030205A461799FA
:1044D00090476D1C0099481E00900029F5DC08E00B
:1044E000029802995A460078491C02911799904700
:1044F0006D1CBAF10001AAF1010AF1DC65E10000CE
:1045000009280100303132333435363738396162A9
:10451000636465660000000030313233343536376D
:1045200038394142434445460000000000F058F944
:104530000544761C307800287FF4ECAD19B028468D
:10454000BDE8F08F620700D4062709F1070222F0C8
:10455000070CFCE80223E14603F000485FEA080C80
:1045600002D00FF2702C0DE05FEA045C02D50FF26E
:10457000682C07E05FEAC47C02D00FF2602C01E0F7
:10458000AFF2700C4FF0FF3823F00043CDF850C06D
:1045900065280CD006DC452809D046281DD04728C0
:1045A0003DD13DE0662818D067287ED138E0002153
:1045B000112F01DB112000E0781CCDE9000106A9D4
:1045C0000EA8FFF7DDFCDDE90F010E9A0391002133
:1045D000009207F1010A04914DE04FF0004000976E
:1045E000CDE9011006A90EA8FFF7CAFCDDE90F020C
:1045F00003920E9B11990022DDF80CA00093049207
:1046000011B9791C00EB010AB7EB0A0004D4C0F120
:10461000FF3007F1010A0490AAEB0700019044E083
:10462000012F00DA01270021112F01DD112000E008
:104630003846CDE9000106A90EA8FFF7A1FCDDE987
:104640000F010E9A0391002104910092BA462107AE
:104650000CD40399514500DA8A46BAF1010F05DD01
:10466000009AAAF10101515C302908D0B84202DA5F
:1046700010F1040F06DA0121CDE9011015E0AAF1CD
:104680000101E9E7002805DC049901440491AAEB43
:10469000000102E0411C514500DD8A460499401AA0
:1046A000401C01904FF000400290200704D4019874
:1046B000504501DBCDF8048000208DF84F000298B2
:1046C0000DF14F07B0F1004F25D02B200E9002982E
:1046D0004FF0020800280CDA404202902D200E9084
:1046E00007E00A210298FBF726FF3031029007F815
:1046F000011DB8F10001A8F10108F2DC02980028C0
:10470000EFD1791E0E980870307800F0200040F04C
:10471000450007F8020D12A8C01B00F10708149805
:10472000007800B1012000EB0A01019801EBE07173
:1047300005984144401A401E0590E00306D45B46AC
:104740002146179A059800F05DF805441498007802
:1047500018B15A46179990476D1CE00324D55B4663
:104760002146179A059800F04DF805441CE004987E
:10477000002807DBDDE90301884203DD0098405C87
:10478000179901E0179930205A469047049805F18F
:104790000105401C04900198401E019004D12E2078
:1047A0005A46179990476D1CBAF10001AAF1010A07
:1047B000DDDC05E017F8010B5A46179990476D1C90
:1047C000B8F10001A8F10108F4DC5B462146179A14
:1047D0000598ABE62D0000002B0000002000000033
:1047E0002DE9F041044600251E461746880404D4EE
:1047F00005E039462020B0476D1C641EF9D52846D7
:10480000BDE8F0812DE9F041044600251E469046A2
:10481000C80301D5302700E02027880404D505E02F
:1048200041463846B0476D1C641EF9D52846BDE8A0
:10483000F0814A68002A06D00A68531C0B60107089
:104840004868401E486070470A68531C0B6010702F
:10485000704700002DE9F04FCB780C684D6863F38A
:104860001F64CB798E6863F31F65CB7A076863F3A7
:104870001F66CB7BC96800EB071C63F31F61DCF884
:10488000F4306340DCF8F8406C40DCF8FC507540D4
:10489000DCF800614E407F1E67D0724903F0FF0CC8
:1048A000C6F3072851F82CC051F828808CEA386CE0
:1048B000C5F3074851F828808CEA384C4FEA146851
:1048C00051F828808CEA382B04F0FF0C51F82C802A
:1048D000C3F3072C51F82CC088EA3C68C6F3074C98
:1048E00051F82CC088EA3C484FEA156C51F82CC0AE
:1048F00088EA3C2A05F0FF0CC5F3072551F82C8007
:10490000C4F3072C51F8255051F82CC0C4F30744C8
:1049100088EA3C68C3F3074C1B0E51F82CC051F8D1
:10492000244088EA3C484FEA166CF6B251F82CC095
:1049300051F8266051F8233086EA356588EA3C2C28
:1049400085EA344400EB071684EA332856F8F43F2E
:104950007F1E7468B568F66883EA0B0384EA0A046C
:1049600085EA0C0586EA080698D13F4951FA83F793
:10497000C6F3072C3F7811F80CC047EA0C27C5F3A3
:10498000074C11F80CC047EA0C4701EB146C9CF87B
:1049900000C047EA0C6951FA84F7C3F3072C3F784B
:1049A00011F80CC047EA0C27C6F3074C11F80CC0ED
:1049B00047EA0C4701EB156C9CF800C047EA0C670E
:1049C00051FA85FCC4F307289CF800C011F8088050
:1049D0004CEA082CC3F3074811F808804CEA084C4D
:1049E00001EB166898F800804CEA086C51FA86F6DC
:1049F000C5F30725C4F307444D5D0C5D367801EB24
:104A0000136146EA0525097845EA044444EA01644D
:104A100050F8F41F43688568C06881EA0901604066
:104A200011700C0A54700C0C9470090E7B40D170FC
:104A30001371190A5171190C9171190E85EA0C053F
:104A4000D1711572290A5172290C9172290ED172F5
:104A50001073010A5173010C9173000ED073BDE8FD
:104A6000F08F000020510208204C02082DE9F04F81
:104A7000CB780C684D6863F31F64CB798E6863F361
:104A80001F65CB7AD0F8009063F31F66CB7BC968B3
:104A900063F31F614368634084686C40C568754078
:104AA00006694E40012764E0714903F0FF0CC4F32E
:104AB000072851F82CC051F828808CEA386CC5F3CF
:104AC000074851F828808CEA384C4FEA166851F8AC
:104AD00028808CEA382B04F0FF0C51F82C80C5F3A9
:104AE000072C51F82CC088EA3C68C6F3074C51F8F3
:104AF0002CC088EA3C484FEA136C51F82CC088EA75
:104B00003C2A05F0FF0C51F82C80C6F3072CF6B2B6
:104B100051F82CC051F8266088EA3C68C3F3074C72
:104B2000C3F3072351F82CC051F8233088EA3C48DE
:104B30004FEA146CC4F3074486EA336351F8244007
:104B400051F82CC083EA34432C0E00EB071651F8C1
:104B50002410B46883EA31217368F568366988EAFD
:104B60003C2C4E4083EA0B0384EA0A0485EA0C05D8
:104B70007F1CB94598D83F4951FA83F7C4F3072CF5
:104B80003F7811F80CC047EA0C27C5F3074C11F821
:104B90000CC047EA0C4701EB166C9CF800C047EAD2
:104BA0000C6A51FA84F7C5F3072C3F7811F80CC052
:104BB00047EA0C27C6F3074C11F80CC047EA0C472C
:104BC00001EB136C9CF800C047EA0C6751FA85FCB6
:104BD000C6F307289CF800C011F808804CEA082C9E
:104BE000C3F3074811F808804CEA084C01EB14683D
:104BF00098F800804CEA086C51FA86F6C3F3072354
:104C0000C4F30744CB5C0C5D367801EB156146EAD2
:104C1000032343EA044300EB09140978606843EA7C
:104C20000163A168E568246980EA0A005C401070AD
:104C3000030A5370030C9370000E7940D070117109
:104C4000080A5071080C9071080E85EA0C05D071A5
:104C50001572280A5072280C9072280ED0721473A4
:104C6000200A5073200C9073200ED073BDE8F08F93
:104C7000204D0208204B0208F0B540B139B1102A8E
:104C800007D0182A07D0202A07D0E720F0BD02203D
:104C9000F0BD0A2302E00C2300E00E239508002259
:104CA000036009E001EB8203DC781B6864F31F6397
:104CB00000EB8204521C6360AA42F3D301682C46C5
:104CC0008A004C4B121D1BE0B4FBF5F650F8241083
:104CD00005FB1646D6B1062D05D9B4FBF5F605FB46
:104CE0001646042E35D000EB84067160671B00EB7E
:104CF000840100EB87074E687F687E40641C4E602D
:104D00009442E1D30021002A43D871E0C1F3072681
:104D1000C1F3074C9F5D00EB8406776013F80CC06D
:104D200047EA0C2703EB116C77609CF800C047EA58
:104D30000C4753FA81F177600978DFF8BCC047EA85
:104D40000161B4FBF5F771605CF827704F40776044
:104D5000CCE753FA81F600EB84073678C1F3072CD1
:104D60007E6013F80CC046EA0C26C1F3074C7E6047
:104D700013F80CC003EB116146EA0C467E6009781B
:104D800046EA01617960B1E7042902D3141FA14208
:104D900005D300EB81046568C4F8F45025E000EB0E
:104DA0008104656853FA85F63778144EC5F3072CED
:104DB00056F8277044F8F47F13F80CC056F82CC04E
:104DC00087EA3C67C5F3074C44F87C7913F80CC0BC
:104DD00003EB156556F82CC087EA3C47E7672D784A
:104DE00056F8255087EA3525E567491C9142CBD313
:104DF0000020F0BD204B0208205502082051020877
:104E000070B506460EF0ABFB014606F55074002067
:104E100000EB400206EB021595F8402305F55075AE
:104E20009AB12A6923698A1ACB1A9A4200D92C4668
:104E3000401C0828ECD32146304600F077F830219A
:104E40002046FBF794FA204670BD30212846FBF738
:104E50008EFA284670BD2DE9F84306461F460C46DB
:104E6000904610460DF09CFD05462146304600F068
:104E700031F804002AD02078012802D0E020BDE8D3
:104E8000F883E06A02280BD3E0690DF07FFD04F19E
:104E90000800D0E90710C4E90710E06A401EE0628C
:104EA000064628460DF090FC04EBC606F06158B1AA
:104EB00000234246194600950DF006FD3762E06A70
:104EC000401CE0620020DAE76420D8E740F20D10D1
:104ED000D5E7000010B503465FF0000202EB420088
:104EE00003EB001090F8404300F5507014B1446893
:104EF0008C4203D0521C082AF0D3002010BD0000C1
:104F00002DE9F041002406464FEA040704EB440073
:104F100006EB001505F550752946304600F006F8F9
:104F2000641C2F70082CF1D3BDE8F08170B50878AF
:104F30000D4601280BD1002406E000BF05EBC4009C
:104F4000C0690DF023FD641CE86AA042F6D8002079
:104F5000E86270BD10B54FF4C07100F55070FBF7FA
:104F600006FA002010BD2DE9F0410C4606461C2A29
:104F700025D32088B0F5807F21D1608808281ED1F4
:104F8000207906281BD16079042818D106F5CA7546
:104F90002879002813D02968D4F80E20914210D126
:104FA000012701280AD030460EF086F900F18C0165
:104FB000062204F10800FBF710FA10B1AF60BDE85B
:104FC000F0812868A1698842F9D1E08811F0C6FE15
:104FD000012807D00228F2D121463046BDE8F04131
:104FE00000F006B821463046BDE8F04100F062B856
:104FF0002DE9F0470D46D1F80E10804600293ED02D
:1050000006F0AFFB00283AD1A87BC0F303100E28AE
:1050100035D005F10800062224498146FBF7DDF969
:1050200000282CD0062222494846FBF7D6F9002852
:1050300025D0287AC00722D1A969404606F0E5FBB1
:1050400000281CD1D5F80E104046FFF743FF04009E
:1050500015D0207802274EF66026012811D00228AC
:1050600018D005280BD1D5F80E006060A868A060A4
:10507000A889A0810EF073FAC4E904062770BDE880
:10508000F087A868A060A889A0812146404600F06A
:10509000CFF8EFE7062204F108014846FBF79DF937
:1050A0000028ECD003202070E9E70000E33D02086F
:1050B000E93D02082DE9F0410C468046D1F80E107A
:1050C00006F04FFB00282AD1D4F80E00C0F30311DC
:1050D0000E2924D008F5CA750127297904F108069C
:1050E000012911D12968A26991420DD1002758B92F
:1050F00040460EF0E1F800F18C0106223046FBF745
:105100006CF908B10120A860002F08D0D4F80E2057
:10511000A16933464046BDE8F04100F0B0B8BDE8B3
:10512000F08100002DE9F04117460D468046FFF75B
:10513000D1FE040040F2032616D02078012806D0C4
:105140000328A0683860A089B88003D00AE0304600
:10515000BDE8F0810EF003FA206141F28830606111
:10516000042020700020F3E74046FFF749FE0400CA
:1051700011D00020A0616560E0622946074A4046E0
:1051800000F0C2F80EF0EBF920614FF47A70606124
:1051900001202070DBE76520DAE70000E93D020826
:1051A0002DE9FC410F4680460EF086F8064601A91F
:1051B0001C2004F0F9FC050033D001990DF035FBFB
:1051C0000446012011F0CAFD20804FF4006011F068
:1051D000C5FD60800620207104206071012011F05F
:1051E000BDFDE08056F88C0FA060B088A081002043
:1051F000C4F80E000C482A460168C4F812108088D2
:10520000E082A76140F60600009008494046019BF5
:1052100004F01AFE044628460DF0B8FB2046BDE80F
:10522000FC816420FBE70000E33D0208E93D020841
:10523000F8B5074608780C4601281DD1002618E06D
:1052400004EBC605E8690DF0ABFB296A421A384643
:10525000616806F088FE4FF400600090D5E90723EE
:1052600004F10801384604F0EFFDE8690DF08EFB0B
:10527000761CE06AB042E3D80020E062F8BD2DE978
:10528000FC471F469046894682460EF015F80646B2
:1052900001A91C2004F088FC050032D001990DF012
:1052A000C4FA0446012011F059FD20804FF400603B
:1052B00011F054FD608006202071042060710220EE
:1052C00011F04CFDE08056F88C0FA060B088A081F2
:1052D000C4F80E903868C4F81200B888E082C4F8A8
:1052E000188040F6060000902A4639465046019B39
:1052F00004F0AAFD044628460DF048FB2046BDE810
:10530000FC876420FBE700002DE9F74183B090465D
:105310000F4603980DF0D0FF064602AA394603A8AF
:1053200006F0ECFC002837D101A91C2004F03CFC5D
:10533000050034D001990DF078FA0446012011F0EF
:105340000DFD20804FF4006011F008FD6080062004
:10535000207104206071012011F000FDE08056F8FA
:105360008C0FA060B088A0810298C4F80E000D4890
:105370002A460168C4F812108088E082A76140F6CE
:10538000060000904146019B039804F05DFD044631
:1053900028460DF0FBFA204606B0BDE8F0816420F7
:1053A000FAE70000E33D02082DE9F04707460EF05A
:1053B000D6F8002605464EF66029B04606EB4600B4
:1053C00007EB001494F8400304F55074012806D04C
:1053D00002281DD0042825D0052833D047E0D4E981
:1053E00004100844281A42D4A069401CA061032874
:1053F00009D2214A38466168FFF786FF4FF47A7078
:10540000C4E9045033E021463846FFF78FFD2CE015
:10541000D4E904010844281A29D40EF0A0F8206128
:1054200003200DE0D4E904010844281A1FD404F134
:10543000080238466168FFF767FFC4E90459052090
:10544000207014E0D4E904010844281A0FD4A0699C
:10545000401CA061022808D204F1080238466168A5
:10546000FFF752FFC4E9045901E084F80080761C7C
:10547000082EA3D3BDE8F087E93D020870B51546B4
:105480000E46002204460623114600F00CF80028C0
:1054900008D1D4E903102B4632460DF0C2FF002894
:1054A00000D0D62070BD10B504688C4201D0F62023
:1054B00010BD4168914201D0F12010BD8068984232
:1054C00001D0EF2010BD002010BD0020704730B586
:1054D0001D46144600F051F800280CD1002202238A
:1054E00011462046FFF7DFFF002804D1E068401E88
:1054F000042801D3EE2030BD2069007840F3C010AD
:105500002860002007E02968090229602269125CEE
:105510001143401C2960E1688142F4D8002030BD6D
:1055200010B5144600F029F8002807D104232046BE
:105530000022BDE810401146FFF7B5BF10BD10B501
:10554000144600F01AF8002807D10623204600224E
:10555000BDE810401146FFF7A6BF10BD10B51446B8
:1055600000F00BF8002807D1204610230022BDE8E8
:1055700010400121FFF797BF10BD70B539B3037814
:10558000002503F0C00353600378C3F34013136096
:10559000037803F01F031F2B09D293600123994264
:1055A00031D0C45C802C13D25B1CD46025E0012375
:1055B0009560994227D0C45C966866F3DF149460C6
:1055C000C45C03F101032406E9D5052BF1D91AE0E7
:1055D000A4F181067E2E16D204F07F04042C12D88A
:1055E000CE1AA6420FD35B1CD56034B1C65C5B1CDF
:1055F00046EA0525D560641EF8D118441061D068CC
:10560000C91A814201D2EE2070BD184450610020B9
:1056100070BD00002DE9F0410746806898461446A9
:105620001F2801D2002513E0802801D201250FE0B8
:10563000B0F5804F01D202250AE0B0F5001F01D27B
:10564000032505E0B0F1805F01D2042500E00525C7
:10565000FA68802A01D200260EE0FF2A01D801262E
:105660000AE0B2F5803F01D2022605E0B2F1807F68
:1056700001D2032600E00426ECB30029396909D0E1
:1056800021B11AB1A41A2046FAF74AFEA819241A21
:10569000A41E06E029B122B160193044801CFAF73B
:1056A0003FFE38792070396811B140F02000207039
:1056B000C0B225B140F01F002070002011E0397AFF
:1056C000084320700FE000BFB968C0EBC002D140B2
:1056D0002A1A01F07F01A15410B141F08001A154B8
:1056E000401CA842F0D33EB1611946F080004870DA
:1056F0000020A9190DE00EE0387B611900F07F0051
:10570000487008E0FA68C300DA400B1A2344401CD2
:105710005A70B042F6D3F8684119B01C0844786159
:10572000B8F1000F09D0A819801CC8F80000396929
:1057300019B1F9680144C8F800100020BDE8F081F3
:105740002DE9F04799465FEA000A00D159B9B9F14D
:10575000000F08D00020064603460446054684464E
:10576000DFF8988014E00220BDE8F0871AF80C708A
:105770000D2F0BD00A2F09D03D2F0ED0802F04D231
:1057800018F80770402F00D24DB1EA200CF1010C3F
:105790008C4514D20028E9D027E06D1CF6E7761C72
:1057A00047EA8414042EF1D12AB1260CD654270AD4
:1057B000D6187770B47000263446DB1CE6E7A0B933
:1057C00055EA060111D0012D02D0022D0AD00BE0BE
:1057D000032E09D122B1A10AD1541A44A108517053
:1057E0009B1C02E0022E03D0EB20C9F80030BBE77F
:1057F0000AB12109D1545B1CF7E70000A04A020856
:105800002DE9F0470324B1FBF4F404EB440C0CF154
:1058100001070026354D4FF03D094FF0040A8F4235
:1058200015D1A8B3A2B310F80C108F088907890E00
:10583000EF5D02F824706F5C02EB84014F7081F819
:10584000029081F8039022E00AEB840128E00CF139
:1058500002078F421FD1D8B1D2B110F80C70844426
:10586000B9089CF801C0BF07BF0E47EA1C17695C66
:1058700002F824104FEA0C7C02EB84014FEA9C6C86
:10588000EF5D4F7015F80C708F7081F803900E71FA
:10589000002BD9D105E00AB102F824600BB1A100B8
:1058A0001960002800D0EAB9BDE8F08704EB440392
:1058B000C65C0344B108B607B70E5E789B7847EA2A
:1058C0001617695C360702F82410B60E02EB840145
:1058D00046EA9316EF5D4F7003F03F03AE5D8E70A6
:1058E000EB5CCB70641EE1D2DEE70000604A020888
:1058F0002DE9FF479846DDE90C56174689460446D0
:105900001BE041466846FAF70BFD236A2A464146EA
:1059100048469847002004E0295C3A5C51402954ED
:10592000401CE1688142F7D80A4669463846FAF7D2
:10593000F7FCE06880440544361AE268B242E0D9D8
:105940001EB1EB2004B0BDE8F0870020FAE72DE996
:10595000F0471F46DDE9085690468946044618E0A0
:10596000002005E0395C18F8002051402954401C03
:10597000E1688142F6D82A46E369114648469847CD
:1059800029464046E268FAF7CBFCE0680744054444
:10599000361AE068B042E3D916B1EB20BDE8F087D3
:1059A0000020FBE72DE9F047CAB0DDE95648DDE904
:1059B0005265DDE954A9589F102F03D0EB204AB05F
:1059C000BDE8F087CDE900230B460246142120A84C
:1059D00000F058F90028F2D1202342AA002120A883
:1059E00000F010F900222023114620A800F00AF947
:1059F00042A902A80EF024FC2A46314602A80EF065
:105A0000B2FD28070CD005F00F00C0F1100631469A
:105A100042A8FAF7ACFC324642A902A80EF0A3FD58
:105A20002246514602A80EF09EFD20070CD004F03D
:105A30000F00C0F11006314642A8FAF798FC324632
:105A400042A902A80EF08FFD8DF80851280A8DF8A2
:105A500009010026280C8DF80A018DF80C61280E2A
:105A60008DF80D618DF80B018DF80E618DF80F61C9
:105A7000082242A902A80EF076FD8DF80841200AFE
:105A80008DF80901200C8DF80A018DF80C61200EAB
:105A90008DF80D618DF80B018DF80E618DF80F6199
:105AA000082242A902A80EF05EFD42A902A80EF04B
:105AB00005FB23464A46514620A800F0A3F80021E2
:105AC000084642AB18F800401A5C401C6240114383
:105AD000B842F7D309B1012071E700206FE72DE943
