:020000040800F2
:10000000A0EA01209D010008693E0008293B000884
:10001000653E0008090C0008DD7C000800000000B7
:100020000000000000000000000000005D760008F5
:10003000370D000800000000370200086176000854
:10004000B7010008B7010008B7010008B7010008B0
:10005000B7010008B7010008B7010008B7010008A0
:10006000B7010008B7010008B7010008B701000890
:10007000B7010008B7010008B7010008B701000880
:10008000B7010008B7010008B7010008B701000870
:10009000B7010008B7010008B7010008B701000860
:1000A000B7010008B7010008B7010008B701000850
:1000B000B7010008B7010008B7010008B701000840
:1000C000B7010008B7010008B7010008B701000830
:1000D000B7010008CD7C0008B7010008B70100088F
:1000E000B7010008B7010008B7010008B701000810
:1000F000B7010008B7010008B7010008B701000800
:10010000B7010008D1620008B7010008B701000874
:10011000B7010008B7010008B7010008B7010008DF
:10012000B7010008B7010008B70100080D0C00086E
:10013000B7010008390D0008B7010008B701000831
:10014000B7010008B7010008B7010008B7010008AF
:10015000B70100081D0C0008B7010008B70100082E
:10016000B7010008B7010008B7010008B70100088F
:10017000B7010008B7010008B7010008000000003F
:10018000B7010008B7010008DFF80CD000F010FC40
:100190000048004791690108A0EA0120064880470D
:1001A00006480047FEE7FEE7FEE7FEE7FEE7FEE75C
:1001B000FEE7FEE7FEE7FEE7657700088901000835
:1001C000EFF3098141B1F1EE101A40F8041D20ED62
:1001D000200A29490A6810607047B0EC200A02C85A
:1001E000E1EE101A25490A6810607047EFF310809D
:1001F00072B6704780F31088704721484FF6FF7140
:100200000170002080F309881E48016881F3088886
:100210001D48012101701D484FF08051016062B6F8
:10022000FEE71A484FF080510160704717484FF0C1
:1002300080510160704772B6EFF3098028B1203811
:1002400080E8F00F0C490968086000B51048804745
:100250005DF804EB0F4810490A7802700648074918
:100260000A680260106890E8F00F203080F3098877
:100270004EF0F40E62B67047AC000020B4000020CF
:1002800022ED00E078000020A600002004ED00E050
:10029000E95300089B0000209C0000202DE9F05F3E
:1002A0000546002092469B468846064681464024E5
:1002B0001BE0284641464746224600F061F9534676
:1002C0005A46C01A914110D311461846224600F0F2
:1002D00048F92D1A67EB01084F46224601200021FC
:1002E00000F03FF917EB00094E41201EA4F1010474
:1002F000DFDC484631462A464346BDE8F09F000011
:100300000048704784770308A0F16101192900D8DB
:1003100020387047A0F14101192900D820307047DA
:1003200010B5431A934209D28318881803E010F8D5
:10033000011D03F8011D521EF9D210BD40EA010350
:100340009B0703D009E008C9121F08C0042AFAD28B
:1003500003E011F8013B00F8013B521EF9D210BD39
:10036000D2B201E000F8012B491EFBD270470022F7
:10037000F6E710B513460A4604461946FFF7F0FFA4
:10038000204610BD10B5044604E00B7800F8013B90
:1003900003B1491C521EF8D2204610BDCAB2401EFD
:1003A00010F8011F8A4202D00029F9D100207047BD
:1003B000421C10F8011B0029FBD1801A704710B5B0
:1003C000002200E0521C835C8C5CA34201D1002B14
:1003D000F8D1D8B2E1B2401A10BD30B504460020C1
:1003E000034600E05B1C934203D2E05CCD5C401B03
:1003F000F8D030BD034611F8012B00F8012B002A7C
:10040000F9D11846704730B505460020034600E094
:100410005B1C934205D2EC5CC85C201A01D1002C15
:10042000F6D130BD70B500B91068002512E00B465A
:1004300002E0A64203D05B1C1C78002CF9D1E3B289
:100440002B4305D02CB125B1002100F8011B04E09D
:100450000546401C0678002EE9D11060284670BD84
:10046000004ADFE7740200202DE9F0410E46054600
:10047000002400E0641C285DFFF74CFF0746305D58
:10048000FFF748FF381A02D1295D0029F2D1BDE8F3
:10049000F0812DE9F0410546002090460E460446C5
:1004A00000E0641C44450BD2285DFFF733FF07468C
:1004B000305DFFF72FFF381A02D1295D0029F0D1F6
:1004C000BDE8F0812DE9F05F93460F468046044673
:1004D000002607F0FFFCD0F80090824614F8015B7C
:1004E0002DB1FFF70DFF0068405DC007F6D12B2D41
:1004F00002D02D2D1AD0641E0021CAF800105A46D1
:100500003946204600F04CF8014627B13868A04231
:1005100001D1C7F80080DAF80000022809D0CAF833
:100520000090700505D54842BDE8F09F46F480660E
:10053000E2E70846F8E730B50B46014600202022E6
:10054000012409E021FA02F59D4205D303FA02F5E0
:10055000491B04FA02F52844151EA2F10102F1DC40
:1005600030BD202A04DB203A00FA02F10020704757
:100570009140C2F1200320FA03F3194390407047E1
:10058000202A04DB203A21FA02F00021704721FAE8
:1005900002F3D040C2F1200291400843194670474F
:1005A0002DE9F05F82460078002715468B460AF158
:1005B0000104B946302801D09DB113E014F8010BB5
:1005C0000127782803D0582801D045B10AE00DB1A1
:1005D000102D07D10027102514F8010B02E0082583
:1005E00000E00A250026B0460EE005FB080005FBEA
:1005F00006F1012701EB10461FFA80F8B6F5803F9F
:1006000000D3B94614F8010B294600F0F5F900288B
:10061000EBDABBF1000F05D00FB1641E00E05446C9
:10062000CBF80040B9F1000F06D007F053FC0221CF
:100630000160C81EBDE8F09F48EA0640FAE72DE9D0
:10064000FE4F804681EA0300C00F0C46009021F067
:10065000004123F00045B8EB0200A94105D2404615
:10066000214690461C460B46024623F000401043AC
:1006700047D0270DC7F30A00C3F30A510290401A6E
:10068000019040286BDAC3F3130040F4801B0098FC
:10069000924620B10023D2EB030A63EB0B0B0198C7
:1006A0005946C0F140025046FFF75BFF06460D4633
:1006B00050465946019A00F08DF910EB080061414F
:1006C000002487EA115284EAE7731A4340D0009A63
:1006D00062B3019A012A4FEA075215DC001B61EB55
:1006E00002014FF0004202EA0752CDE90042001C2D
:1006F00041F5801132462B4600F09BF903B0BDE86E
:10070000F08F40462146F9E7001B61EB0201001C17
:1007100041F5801300185B412018A2F5001747EB44
:10072000030140EAD570B6196D4111E06D084FEA3A
:10073000360645EAC0754FEA0752001B61EB02011D
:10074000001C41F5801149084FEA30000019514161
:1007500032462B4603B0BDE8F04F00F05BB900987D
:10076000012240000023D0EB020263EBE07300980B
:1007700021464FEAE074B8EB000061EB0401E9E7C1
:1007800083F000435BE781F0004158E72DE9FE4F1D
:1007900081EA030404F0004421F0004100944FF08A
:1007A000000B23F0004350EA01045ED052EA030438
:1007B0005BD0C3F30A54C1F30A552C44A4F2F334BA
:1007C0000194A0FB0254C1F3130141F48011C3F35F
:1007D000130343F4801301FB024400FB034E840A1D
:1007E000970A44EA815447EA8357A4FB07680295B5
:1007F0008D0A05FB07854FEA932C04FB0C54270553
:10080000029D4FEA065847EA1637B5EB08056EEB2E
:10081000070C870E920E47EA811742EA8312A7FB64
:100820000201B6EB0B0164EB00042B0D43EA0C3321
:100830005E1844EB1C50DA465146E7FB0201C5F353
:1008400013044FEA0B3343EA14534FEA0432019C7A
:1008500043EA0603A4F10C040294009CCDE900B421
:1008600000F0E7F803B0BDE8F08F00200146F9E79B
:100870002DE9F04D81EA030404F0004B21F000451E
:1008800014464FF0000A23F0004150EA050220D040
:1008900054EA01021DD0C5F30A570246C5F31303FB
:1008A000C1F31300C1F30A5640F4801543F48013DA
:1008B000A7EB0608101BD64608F2FD3873EB0500BF
:1008C00002D308F1010801E092185B41B8F1000F72
:1008D00003DA00200146BDE8F08D00204FF48011BE
:1008E000064684460EE0171B73EB050705D3121B63
:1008F00063EB050306434CEA010C49084FEA30005C
:1009000092185B4150EA0107EDD152EA030012D080
:1009100082EA040083EA0501084305D0101BAB41BD
:1009200006D20122002306E000224FF0004302E03D
:100930006FF0010253101AEB06004CEB085110EB5C
:100940000A0041EB0B01BDE8F04D00F063B8C1F3C4
:100950000A52C1F3130140F2FF3341F480119A426D
:1009600002DA00200146704740F233439A42A2F275
:10097000334202DC5242FFF703BEFFF7F2BD000034
:1009800030B5041E71F1000404DB4FF00044404216
:1009900064EB0101141E73F1000405DB1C464FF0EB
:1009A0000043524263EB0403994208BF904230BDBA
:1009B000064C074D06E0E06840F0010394E80700AC
:1009C00098471034AC42F6D3FFF7E2FB908303085C
:1009D000B0830308202A06DBCB17203A41FA02F045
:1009E00043EAE07306E041FA02F3D040C2F120028C
:1009F00091400843194670473A2800D2303820F019
:100A00002002412A01D3A2F13700884201D34FF0DE
:100A1000FF30704710B5141E73F1000408DA401C53
:100A200041F1000192185B411A4301D120F001000D
:100A300010BD2DE9F04D92469B4611B1B1FA81F2FD
:100A400002E0B0FA80F220329046FFF78AFD0446B9
:100A50000F4640EA0A0041EA0B0153465A46084352
:100A600013D0114653EA010019D0C8F14002504694
:100A7000FFF786FD05460E46504659464246FFF7AB
:100A800070FD084305D0012004E020463946BDE84A
:100A9000F08D0020054346EAE0762C4337430A9860
:100AA0006305E40AA0EB08000022FD0A44EA47546B
:100AB0000A3002D500200146E9E701051019694115
:100AC000DDE9084500196941BDE8F04DA2E770B5C0
:100AD0008C1810F8015B15F0070301D110F8013BE9
:100AE0002A1106D110F8012B03E010F8016B01F870
:100AF000016B5B1EF9D12B0705D40023521E0DD4C8
:100B000001F8013BFAE710F8013BCB1A921C03E015
:100B100013F8015B01F8015B521EF9D5A142D8D34D
:100B2000002070BD7047704770477047704770472E
:100B3000704770477047000010B5044621460248D0
:100B400001F0C4FF10BD0000A42C002010B5044823
:100B500001F0CFFF042801D0012010BD0020FCE7E8
:100B6000A42C002010B5002400F014F8012801D0B6
:100B7000012010BD064802F0DDF8044634B94FF4F8
:100B80000061034801F068FE00B101242046F0E74F
:100B9000A42C002008B5012000909DF8000008BD9D
:100BA0002DE9F04104460D461646002733462A46F5
:100BB0002146044802F0E4F900B101273846BDE8B7
:100BC000F0810000A42C002001200149086070473A
:100BD0005C0000202DE9F04104460D461646002732
:100BE00033462A462146044802F07EFA00B1012726
:100BF0003846BDE8F0810000A42C00200120014906
:100C0000086070475800002000BFFEE710B502489A
:100C100000F052FA10BD0000282D002010B5024847
:100C200000F04AFA10BD0000882D00200146087827
:100C300010381823B0FBF3F20848805CC865032A1B
:100C400005D908686FF30900001D886503E008688E
:100C50006FF309008865886D70470000C04703087E
:100C6000014600208A6A8B69CBB932B1012A0DD0C6
:100C7000022A03D0032A10D10EE000BFCB6A03F092
:100C80008073B3F1807F00D1012007E0CB6AB3F11C
:100C9000C07F00D1012001E000E000BF34E08B699B
:100CA000B3F5005F1AD132B1012A07D0022A03D06E
:100CB000032A11D10AE000BF01200EE0CB6A03F045
:100CC0008073B3F1807F00D1012006E0CB6AB3F1DD
:100CD000C07F00D1012000E000BF15E032B1012A41
:100CE00005D0022A04D0032A0CD103E000BF00BFC4
:100CF000012008E0CB6A03F08073B3F1807F00D15C
:100D0000012000E000BF00BF704730B504682468D0
:100D100024F4802405682C60046863608468402C97
:100D200004D10468A2600468E16003E00468A16083
:100D30000468E26030BD704770B503F0E7FB002443
:100D40001548456905F0010070B10120124948615C
:100D500012480068006800F0004028B91048006898
:100D600070301DF02AF8044305F0400068B10A48CD
:100D7000C06920F040000849C8610120084909689D
:100D8000486708481DF019F804434FF480300249C1
:100D9000486103F0CDFB70BD00900240C801002007
:100DA000C40100207401002030B503461479557940
:100DB00044EA0520084C0C442064D4782406957835
:100DC00044EA0544557844EA0524157844EA0500C8
:100DD000014C0C44606430BD0080024070B5AEB080
:100DE00004460E46002526B14FF40061E160C900BB
:100DF000A1600020119012901390149015901690FD
:100E0000E06918B94FF48060179001E00020179056
:100E10004FF400701890002019901A901B901C90AD
:100E20001D9040201E9000201F9020902190229025
:100E300023902490259026908020279000202890B1
:100E400029902A902B902C902D902068056871484D
:100E50000540DDE91101084313990843149908433B
:100E6000A16808431599084316990843E1680843A7
:100E70001799084318990843199908431A99084380
:100E80001B99084305432068056020680568012018
:100E900000F0F2FA20680560DDE91C0108431E99A4
:100EA00008431F9908432099084321990843229930
:100EB0000843239908432168486020684568012059
:100EC00000F0DAFA20684560249821688860259847
:100ED0002168C860206885694FF641700540DDE9EA
:100EE000261040EA014028990843299908432A9985
:100EF00008432B990843054320688561206885696C
:100F0000012000F0B9FA20688561DDE92C01084371
:100F10002168C8612068C569012000F0ADFA206829
:100F2000C561002001904FF00070029000200390F6
:100F30004FF4001004900020059006900790089050
:100F400004200990C0050A9040120B9080010C907B
:100F500040120D9080200E9000200F90109020687D
:100F600000F5805085692C480540DDE90101084302
:100F700003990843049908430599084306990843CF
:100F800007990843089908430999084305432068CD
:100F900000F580508561206800F58050856901204A
:100FA00000F06AFA206800F580508561DDE90A01E9
:100FB00008430C9908430D9908430E9908430F996B
:100FC00040EA81001099084340F40001206800F5D0
:100FD00080500160206800F580500568012000F015
:100FE0004BFA206800F580500560A069012809D1FE
:100FF000206800F58050C06908490843216801F560
:101000008051C861002120466269FFF7CDFE2EB0F5
:1010100070BD00000F8120FF233FDEF8400001007B
:10102000704730B504460D4600222946204600F0A0
:1010300001F830BDF0B50346012500241148407A7F
:1010400001281CDA00200F4E767A0E4FB85538462C
:10105000467A001D40F82630001F467A0830825537
:101060003E46707A461C7E72044604F130000870D9
:101070003A2048702F2088700020C870002528462C
:10108000F0BD000094E60020014691F835000228EA
:1010900003D08020486501207047052081F8350085
:1010A0000868006820F001000A6810600020F3E77B
:1010B0000146486D70470000F8B5044600200090D6
:1010C0008C4800684FF41651B0FBF1F7A56D2E68FF
:1010D00094F85C1008208840304098B1206800687F
:1010E00000F0040070B12068006820F0040021685E
:1010F000086094F85C1008208840A860606D40F09B
:101100000100606594F85C1001208840304068B1AF
:101110002068406900F0800040B194F85C10012024
:101120008840A860606D40F00200606594F85C1033
:1011300004208840304068B12068006800F0020058
:1011400040B194F85C1004208840A860606D40F0C5
:101150000400606594F85C1010208840304078B33B
:101160002068006800F0080050B394F85C1010206C
:101170008840A8602068006800F4802080B1206862
:10118000006800F4002028B9206CC8B12046216C0A
:10119000884715E0A06C98B12046A16C88470FE005
:1011A0002068006800F4807028B92068006820F08A
:1011B000080021680860206C10B12046216C884727
:1011C00094F85C10202088403040002865D02068CA
:1011D000006800F0100000285FD094F85C10202018
:1011E0008840A86094F83500052828D12068006858
:1011F00020F01600216808602068406920F0800017
:1012000021684861206C08B9A06C28B1206800688A
:1012100020F008002168086094F85C103F208840A6
:10122000A86000BF002084F8340000BF012084F8CB
:101230003500206D10B12046216D8847F8BD20682B
:10124000006800F4802080B12068006800F400206D
:1012500028B9606C10B12046616C88471DE0E06BD6
:10126000D8B12046E16B884717E02068006800F499
:10127000807068B92068006820F01000216808605C
:1012800000BF002084F8340000BF012084F835003E
:10129000E06B10B12046E16B8847606D38B3606D3C
:1012A00000F00100F0B1052084F8350020680068E6
:1012B00020F001002168086000BF0098401C0090E9
:1012C000B84200D905E02068006800F0010000285D
:1012D000F3D100BF00BF002084F8340000BF01201C
:1012E00084F83500E06C10B12046E16C884700BFFF
:1012F000A4E70000740000202DE9F0410446002519
:1013000000F062FC074614B90120BDE8F081606A74
:1013100000B100BF00BF002084F8340000BF0220ED
:1013200084F835002068006820F00100216808601A
:101330000AE000F049FCC01B052805D920206065A3
:10134000032084F83500E0E72068006800F0010021
:101350000028EED12068056821480540D4E9010144
:101360000843E16808432169084361690843A169AA
:101370000843E1690843216A08430543606A042879
:1013800003D1D4E90B0108430543206805602068B8
:10139000456925F00705606A0543606A04280DD198
:1013A000A06A0543E06A48B12046FFF759FC28B11E
:1013B00040206065012084F83500A6E7206845617B
:1013C0002046FFF733FC064694F85C103F20884027
:1013D000B06000206065012084F83500002094E7AB
:1013E0003F8010F02DE9F04704460D4616461F4693
:1013F0004FF00008D4F8589000BF94F8340001284A
:1014000002D10220BDE8F087012084F8340000BF3B
:1014100094F83500012825D1022084F835000020F9
:1014200060653B46324629462046FFF76EFC94F83D
:101430005C103F208840C9F808002068006840F030
:10144000160021680860206C28B12068006840F010
:101450000800216808602068006840F001002168E9
:10146000086006E000BF002084F8340000BF4FF0A1
:1014700002084046C6E7000070B5044600F0A4FB31
:1014800006462546681C10B104480078054400BF94
:1014900000F09AFB801BA842FAD370BD70000020B8
:1014A0002DE9FC4104460025002001909D4E0027B7
:1014B000804614B90120BDE8FC8194F8440028B9A5
:1014C000002084F84500204600F03AF900BF0020D3
:1014D00000909548006840F48040934908600846B1
:1014E000006800F48040009000BF00BF8F48006893
:1014F00020F400008D49086008460068216A08430E
:101500008A490860206800F58050006840F00101B9
:10151000206800F58050016000F056FB07460FE0A0
:1015200000F052FBC01BB0F5FA7F09D9032084F804
:10153000440000BF002084F8450000BF0320BAE744
:10154000206800F58050006800F001000028E7D115
:101550002068056925F01C0500F0A4FD06467448C6
:10156000864205D37348864202D245F008051AE048
:101570007048864205D36B48864202D245F00C057E
:1015800011E06848864203D36B48864200D20AE0E5
:101590006948864205D36948864202D245F004056F
:1015A00001E045F01005206805614FF4004200217C
:1015B000204600F0B0F948B14FF0010841462046FE
:1015C000FFF70CFC012084F8440074E7FF20FFF7CC
:1015D00053FF6068002871D000F0F6FA074600BF9C
:1015E00001AA0121204600F04DF900F0EDFAC01BE0
:1015F00041F2883188420FD94FF001084146204618
:10160000FFF7ECFB012084F8440000BF002084F8C1
:10161000450000BF03204EE7019800F004000428B5
:10162000DED182020021204600F075F948B14FF06A
:10163000010841462046FFF7D1FB012084F8440011
:1016400039E700F0C1FA074600BF01AA0121204690
:1016500000F018F900F0B8FAC01B41F28831884256
:101660000FD94FF0010841462046FFF7B7FB012094
:1016700084F8440000BF002084F8450000BF032028
:1016800019E7019800F020002028DED101AA1F21CF
:10169000204600F0F7F848B14FF0010841462046D7
:1016A000FFF79CFB012084F8440004E7019800F058
:1016B000100020B14FF40061E16002E00DE0002174
:1016C000E160019800F00400042802D10021A1602B
:1016D0001EE04FF48041A1601AE0E068C0F3CF0043
:1016E000A168C1F34F0140EA01020021204600F049
:1016F00012F948B14FF0010841462046FFF76EFB52
:10170000012084F84400D6E640F6FF70FFF7B4FEEF
:1017100041462046FFF762FB012084F84400002088
:10172000C9E60000008793034438024004380140B2
:10173000002D3101C00E160200E1F50580D1F00840
:1017400010B586B00446142101A8FEF710FE4849E2
:10175000206888427ED100BF00BF0020009045482D
:10176000006840F00070434908600846006800F0D7
:101770000070009000BF00BF00BF0020009008462E
:10178000006840F0806008600846006800F08060F3
:10179000009000BF00BF00BF002000900846006816
:1017A00040F0006008600846006800F000600090AB
:1017B00000BF00BF00BF00BF0020009008460068C7
:1017C00040F0040008600846006800F00400009043
:1017D00000BF00BF00BF002000900846006840F036
:1017E000010008600846006800F00100009000BF9A
:1017F00000BF00BF002000900846006840F0400095
:1018000008600846006800F04000009000BF00BF7C
:1018100032200190022002900020039003200490C7
:101820000B20059001A9144800F0BEF88620019015
:101830000220029000200390032004900B200590CA
:1018400001A90E4800F0B0F84FF4D04001900220FA
:10185000029000E009E000200390032004900B2098
:10186000059001A9064800F09FF806B010BD0000E1
:101870000080024030380240000802400000024070
:10188000001802402DE9F04104460E461746002597
:10189000A84694F84400822802D10220BDE8F081D5
:1018A000822084F844002068056905F01C05208A20
:1018B0004FF4784101EAC0200543481100EA861040
:1018C000054325F0020545F001052068056100F09B
:1018D0007BF9804612E000F077F9A0EB0800B0F544
:1018E000803F09D3012084F8440000BF002084F821
:1018F000450000BF0320D1E72068056905F001001D
:101900000028E8D12068406980B23860012084F85E
:1019100044000020C2E72DE9F04104460E46174678
:101920000025A84694F84400422802D10220BDE8D0
:10193000F081422084F844002068056905F01C0508
:10194000208A4FF4784101EAC0200543481100EA9B
:101950008610054345F0020545F00105B8B221683F
:1019600048612068056100F02FF9804612E000F020
:101970002BF9A0EB0800B0F5803F09D3012084F8D3
:10198000440000BF002084F8450000BF0320CEE7DC
:101990002068056905F001000028E8D1012084F8DD
:1019A00044000020C3E70000F8B502460B460025BE
:1019B000002400200021DCE0012606FA01F51E6863
:1019C00006EA0504AC4273D15E68012E08D05E6859
:1019D000022E05D05E68112E02D05E68122E13D141
:1019E00090684F000326BE40B0434F00DE68BE4003
:1019F00030439060506801268E40B0431E79C6F394
:101A000000168E4030435060D0684F000326BE4021
:101A1000B0434F009E68BE403043D0605E68022EE7
:101A200002D05E68122E13D1CF0802F1200656F8BC
:101A300027004E07F70E0F26BE40B0434F07FF0E9C
:101A40001E69BE403043CF0802F1200646F8270049
:101A500010684F000326BE40B0431E7906F003060F
:101A60004F00BE40304310605E6806F08056B6F10D
:101A7000805F7DD100BF00260096404E366846F458
:101A800080463E4F3E603E46366806F480460096ED
:101A900000BF00BF3A4E8F0856F827008E07370F59
:101AA0000F26BE40B043374EB24202D1002624E09A
:101AB0005EE0354EB24201D101261EE0334EB24205
:101AC00001D1022619E0324EB24201D1032614E0C0
:101AD000304EB24201D104260FE02F4EB24201D166
:101AE00005260AE02D4EB24201D1062605E02C4E15
:101AF000B24201D1072600E008268F073F0FBE4003
:101B000030431F4E8F0846F82700264E3068A0430A
:101B10005E6806F48036B6F5803F00D12043214E42
:101B20003060361D3068A0435E6806F40036B6F5B6
:101B3000003F00D120431B4E361D3060361D3068FB
:101B4000A0435E6806F48016B6F5801F00D12043DE
:101B5000144E08363060361D3068A0435E6806F4C7
:101B60000016B6F5001F00D120430E4E0C36306033
:101B7000491C1029FFF420AFF8BD00004438024092
:101B80000838014000000240000402400008024002
:101B9000000C0240001002400014024000180240F5
:101BA000001C0240003C014042690A408A4202D1C6
:101BB0000A04826100E0816170470AB1816101E03D
:101BC0000B04836170470000014800687047000003
:101BD0006800002003480068034909780844014967
:101BE00008607047680000207000002010B50D48A4
:101BF000006840F400700B4908600846006840F433
:101C0000806008600846006840F480700860032027
:101C100000F0A2F8002000F007F800F02BF80020F8
:101C200010BD0000003C024070B504460E4800782C
:101C30004FF47A71B1FBF0F00C490968B1FBF0F593
:101C4000284601F023FE08B1012070BD102C07D2F8
:101C500000222146501E00F041F80548046001E0D2
:101C60000120F2E70020F0E770000020740000205F
:101C70006C00002008B500BF002000900E480068EE
:101C800040F480400C4908600846006800F4804039
:101C9000009000BF00BF00BF00200090081F006838
:101CA00040F08050091F08600846006800F080502E
:101CB000009000BF00BF08BD4438024001460846FE
:101CC000002809DB00F01F0301229A4043099B0012
:101CD00003F1E023C3F8002100BF70472DE9F05F56
:101CE00080460D461646002706F0D8F807463946C6
:101CF0002A46334601F00700C0F1070ABAF1040F83
:101D000002D94FF0040A01E0C0F1070AD14600F100
:101D1000040ABAF1070F02D24FF0000A01E0A0F165
:101D2000030AD4464FF0010A0AFA09FAAAF1010A95
:101D30000AEA020A0AFA0CFA4FF0010B0BFA0CFB42
:101D4000ABF1010B0BEA030B4AEA0B0421464046B8
:101D500006F0ACF8BDE8F09F00BF00F00702064BAC
:101D600019684FF6FF031940044B0B4343EA022165
:101D7000014B196000BF70470CED00E00000FA0550
:101D8000F8B5044600250026207800F0010020B9AF
:101D9000207800F0040004282FD100205B498866D9
:101DA000FFF712FF054606E0FFF70EFF401B022873
:101DB00001D90320F8BD56480068C0F3C060002870
:101DC000F2D160688101207A41EA00705049843183
:101DD000086001204D498866FFF7F6FE054606E0DB
:101DE000FFF7F2FE401B022801D90320E2E7484832
:101DF0000068C0F3C0600028F2D0207800F0020034
:101E000002287DD100BF002000904148403000688A
:101E100040F080503E49403108600846006800F0BC
:101E20008050009000BF00BF3A48006840F48070C6
:101E300038490860FFF7C8FE054606E0FFF7C4FE14
:101E4000401B022801D90320B4E73248006800F49F
:101E500080700028F2D02E487030006800F4407680
:101E60004EB3A08900F44070B04224D028487030AE
:101E7000006820F4407601202749086000200860AF
:101E8000234870300660006800F0010098B1FFF749
:101E90009BFE054608E0FFF797FE401B41F28831A4
:101EA000884201D9032085E7194870300068C0F3E3
:101EB00040000028EFD000BFA08900F44070B0F5CA
:101EC000407F0CD112480830006820F4F810134A03
:101ED000E168114008430E490831086007E00C48EA
:101EE0000830006820F4F8100949083108600848F3
:101EF00070300068A189C1F30B010843044900E078
:101F000002E07031086000BF002053E70000474244
:101F10000038024000700040400E4742FFFCFF0FB7
:101F200070B504460D460CB9012070BD58480068D4
:101F300000F00F00A84209D255490D70084600680C
:101F400000F00F00A84201D00120EEE7207800F059
:101F5000020002281DD1207800F00400042805D1D9
:101F60004C48006840F4E0504A490860207800F08E
:101F70000800082805D14748006840F460404549FA
:101F800008604448006820F0F000A1680843414917
:101F90000860207800F00100A8B36068012807D12C
:101FA0003C4808380068C0F34040B8B90120BCE79D
:101FB0006068022802D06068032807D135480838D5
:101FC0000068C0F3406048B90120AEE731480838E6
:101FD0000068C0F3400008B90120A6E72D4800685A
:101FE00020F00300616808432A490860FFF7ECFD10
:101FF000064609E0FFF7E8FD801B41F28831884280
:1020000002D9032091E707E02248006800F00C00A5
:102010006168B0EB810FEDD11D48006800F00F0042
:10202000A84209D91A490D700846006800F00F004F
:10203000A84201D0012078E7207800F004000428AD
:1020400007D11448006820F4E050E16808431149C2
:102050000860207800F00800082808D10D480068C2
:1020600020F46040216940EAC1000A49086000F09C
:102070003FF808490968C1F30311074A515CC84099
:102080000649086006480068FFF7CEFD00204CE7CF
:10209000003C024008380240C84703087400002092
:1020A0006C000020014800687047000074000020A8
:1020B00000B5FFF7F7FF04490968C1F38221034A1D
:1020C000515CC84000BD000008380240D8470308F2
:1020D00000B5FFF7E7FF04490968C1F34231034A3D
:1020E000515CC84000BD000008380240D8470308D2
:1020F0002DE9F047002400250026A1462548006868
:1021000000F00C0020B1042805D008283AD105E0E1
:10211000DFF8849039E0DFF8849036E01D48001F36
:10212000006800F03F041B48001F006800F48000B6
:1021300078B11A481749091F0968C1F38811A0FB33
:1021400001700146224600233846FEF7A7F80546EF
:102150000EE011480F49091F0968C1F38811A0FB5F
:1021600001700146224600233846FEF797F80546DF
:102170000848001F0068C0F30140401C4600B5FB42
:10218000F6F902E0DFF8109000BF00BF4846BDE856
:10219000F0870000083802400024F40040787D01F8
:1021A000F8B504460CB90120F8BD207800F0010014
:1021B000002874D0F948006800F00C0004280DD005
:1021C000F648006800F00C00082813D1F348001FFF
:1021D000006800F48000B0F5800F0BD1EF4808389C
:1021E0000068C0F34040002859D06068002856D1EC
:1021F0000120D9E700BF6068B0F5803F08D1E7480B
:102200000838006840F48030E449083908601EE06E
:102210006068B0F5A02F0DD1E0480838006840F4A0
:102220008020DE49083908600846006840F48030A4
:1022300008600CE0D9480838006820F48030D7499D
:10224000083908600846006820F48020086000BF54
:10225000606890B1FFF7B8FC054606E0FFF7B4FCF4
:10226000401B642801D903209EE7CC480838006849
:10227000C0F340400028F1D011E0FFF7A5FC05466F
:1022800006E0FFF7A1FC401B642801D903208BE77F
:10229000C24808380068C0F340400028F1D12078D7
:1022A00000F0020002285FD1BC48006800F00C007A
:1022B00058B1BA48006800F00C0008281CD1B74893
:1022C000001F006800F48000B0B9B4480838006806
:1022D000C0F3400020B1E068012801D0012063E78D
:1022E000AE480838006820F0F800216940EAC100D3
:1022F000AA490839086037E0E06800B30120A8491E
:102300000860FFF761FC054606E0FFF75DFC401B37
:10231000022801D9032047E7A04808380068C0F325
:1023200040000028F1D09D480838006820F0F800EF
:10233000216940EAC10099490839086014E0002089
:1023400097490860FFF740FC054606E0FFF73CFCB4
:10235000401B022801D9032026E79048083800686E
:10236000C0F340000028F1D1207800F008000828D0
:102370002CD16069A8B101208A490860FFF724FCCC
:10238000054606E0FFF720FC401B022801D9032088
:102390000AE782486C300068C0F340000028F1D0A2
:1023A00014E000207F490860FFF70EFC054606E0B8
:1023B000FFF70AFC401B022801D90320F4E6774806
:1023C0006C300068C0F340000028F1D1207800F0A4
:1023D0000400042870D1002770483830006800F0ED
:1023E000805090B900BF002000906C4838300068E1
:1023F00040F080506949383108600846006800F0B4
:102400008050009000BF00BF01276748006800F4BB
:102410008070B0B96448006840F480706249086018
:10242000FFF7D2FB054606E0FFF7CEFB401B022874
:1024300001D90320B8E65C48006800F480700028E9
:10244000F2D000BFA068012808D154486830006865
:1024500040F001005149683108601DE0A06805287E
:102460000DD14E486830006840F004004B49683197
:1024700008600846006840F0010008600CE047482A
:102480006830006820F0010044496831086008465F
:10249000006820F00400086000BFA068A8B1FFF742
:1024A00093FB054609E0FFF78FFB401B41F28831A3
:1024B000884202D9032077E626E038486830006871
:1024C000C0F340000028EED013E0FFF77DFB054687
:1024D00008E0FFF779FB401B41F28831884201D9BF
:1024E000032061E62D4868300068C0F340000028F2
:1024F000EFD1012F07D129483830006820F08050F3
:1025000026493831086000BFA069002845D023481B
:10251000006800F00C0008285DD0A069022845D1B1
:1025200000201F490866FFF74FFB054606E0FFF74E
:102530004BFB401B022801D9032035E61748083819
:102540000068C0F340600028F1D1D4E907010843D6
:10255000616A40EA81110122A06AC2EB500041EA9F
:1025600000412C20005D41EA00600C49091F086011
:1025700001200B490866FFF727FB054606E0FFF739
:1025800023FB401B022801D903200DE6034808382D
:102590000068C0F340600028F1D03FE008380240F6
:1025A00000004742800E47420070004000201C4956
:1025B0000866FFF709FB054606E0FFF705FB401B31
:1025C000022801D90320EFE516480068C0F34060F7
:1025D0000028F2D122E0A069012800D1E4E51148E9
:1025E0000830066806F48001E069814214D106F0E3
:1025F0003F01206A81420FD147F6C0703040616AC6
:10260000884209D106F44031A06A814204D106F023
:102610007061E06A814201D00120C5E50020C3E578
:1026200000004742003802402DE9F04104460E46C2
:10263000002700BF2079012802D10220BDE8F081E7
:102640000120207100BF6079012822D10220607131
:10265000FFF7BAFA05460EE0FFF7B6FA401B02286C
:1026600009D9012060710220A06000BF0020207104
:1026700000BF0120E2E72068406800F00100002868
:10268000EAD020688068E060E06830600120607116
:1026900002E00420A060012700BF0020207100BFDD
:1026A0003846CBE710B5044604F10C012046FFF78D
:1026B000BBFF08B9E06810BD0020FCE710B5044678
:1026C0000CB9012010BD607920B90020207120468E
:1026D00000F00EF8022060712068006840F00400ED
:1026E00021680860012060710020A06000BFE9E758
:1026F00008B50A4A016891420FD100BF002100913C
:102700000749096841F04001054A1160114609680E
:1027100001F04001009100BF00BF08BD0008065055
:102720003438024010B504460CB9012010BD607F5A
:1027300020B900202077204600F060F80220607762
:1027400000BFCA202168486253202168486200BF48
:10275000204603F079FD40B100BFFF2021684862A8
:1027600000BF042060770120E0E7206880682249EC
:1027700008402168886021696068084361690843EE
:10278000216889680843216888602168E0680861D9
:1027900020680169208941EA0040216808612068B9
:1027A000C06820F080002168C8602068806800F060
:1027B000200060B9204600F02DF840B100BFFF2096
:1027C0002168486200BF042060770120AEE72068DE
:1027D000006C20F48020216808642068006CA169E6
:1027E00008432168086400BFFF202168486200BFD9
:1027F00001206077002099E7BFFF8FFF034A01683F
:10280000914202D10121024A116070470028004024
:102810003C0E474270B5044600252068C06820F091
:10282000A0002168C860FFF7CFF9054607E0FFF771
:10283000CBF9401BB0F57A7F01D9032070BD206829
:10284000C06800F020000028F1D00020F6E710B5A5
:102850000446FEF76FF910BD70B58AB004460D4608
:10286000032084F83400606C032820D0B5F5805F25
:1028700004D1A06B40F08050A0631CE0B5F5006F60
:1028800007D1204604F0F1FB0646A06B3043A0635D
:1028900011E03DB9204604F0B4FB0646A06B30437E
:1028A000A06308E0A06B40F00060A06303E0A06BB1
:1028B00040F08050A063A06B38B110482168886355
:1028C000012084F834000AB070BD60680490A068EC
:1028D0000590E0680690079560690890A0690990E6
:1028E00007A807C88DE80700206804A90EC903F0EF
:1028F000F7FC012084F834000020E4E7FF054000E5
:102900007047000010B50246506E800F0870506E80
:10291000C0F383604870506EC0F301608870506EE1
:10292000000CC870B2F86400000A087192F86400E4
:102930004871906E000DC880906EC0F3034008721D
:102940006820805AC0F3C03048726820805AC0F3B3
:10295000803088726820805AC0F34030C872682086
:10296000805AC0F30030087300204873506C002870
:1029700036D16820805A8005030DD06E43EA9070EE
:102980000861D06EC0F3C2600875D06EC0F30260FB
:102990004875D06EC0F342508875D06EC0F3824047
:1029A000C875D06EC0F3C23008760869401C506507
:1029B0000B7E506D03F007039B1C01249C40604379
:1029C0005065087A00F00F03012098409065D2E925
:1029D00015035B0A5843D0654FF40073136621E07A
:1029E000506C012813D16820805C8006830AD06E69
:1029F00043EA104008610869401C83025365536D27
:102A0000D3654FF400739365936D13660AE02E4807
:102A100013689863906B40F080509063012082F8B7
:102A2000340010BD6C20805AC0F3803001F8190FBB
:102A30006C20805AC0F3C61048706C20805C00F097
:102A40007F008870106FC00FC870106FC0F34170A6
:102A50000871106FC0F382604871106FC0F383502B
:102A60008871106FC0F34050C87100200872106F59
:102A7000C0F3004048727020805AC0F3C0308872A2
:102A80007020805AC0F38030C8727020805AC0F322
:102A9000403008737020805AC0F3003048737020B3
:102AA000805AC0F3812088737020805AC0F30120BF
:102AB000C8737020805CC0F346000874012048741D
:102AC00019390020ADE70000FF0540000246506CB8
:102AD0000860906C4860D06C8860106DC860506D64
:102AE0000861906D4861D06D8861106EC8610020EA
:102AF0007047F8B50446002000906946204604F06F
:102B000068FA054615B1A06B2843A0630098C0F38E
:102B100043263046F8BD000070B50446256B20689A
:102B2000406BC0F3C03030B105F0080018B120464A
:102B300004F02AFAF8E02068406BC0F30020002877
:102B400062D04FF48070216888632068C06B4CF2BB
:102B50003A3188432168C8632068C06A20F00100C8
:102B60002168C86205F0080038B305F0020010B90A
:102B700005F0200050B1206803F072FD06462EB12A
:102B8000A06B3043A0632046FFF7BAFE40F23A50F4
:102B900021688863012084F834000020206305F058
:102BA000010010B905F0020018B1204600F092FAB9
:102BB000BAE0204600F093FAB6E005F08000002865
:102BC000B8D005F0200050B1206803F049FD06465A
:102BD0002EB1A06B3043A0632046FFF791FE05F0B5
:102BE00001000028A6D105F002000028A2D120682B
:102BF000C06A20F008002168C862012084F834000F
:102C0000204600F06CFA8FE02068406BC0F3803003
:102C100030B105F0080018B1204604F05AFA83E0FC
:102C20002068406B40F23A21084008B1012000E0E2
:102C30000020002878D02068406BC0F3400018B115
:102C4000A06B40F00200A0632068406BC0F3C0009E
:102C500018B1A06B40F00800A0632068406BC0F37F
:102C6000401018B1A06B40F02000A0632068406BBA
:102C7000C0F3001018B1A06B40F01000A0632068F2
:102C8000406BC0F3402018B1A06B40F00800A06377
:102C900040F23A70216888632068C06B40F23A3194
:102CA00088432168C863206803F0DAFCA16B0843FD
:102CB000A06305F0080040B1012084F83400002032
:102CC00020632046FFF71CFE2EE005F0800000B3D5
:102CD00005F0100010B905F0200050B11348E16B69
:102CE0000865E06BFEF7D0F998B1E06B03F0A7FF41
:102CF0001AE005F0010010B905F0020050B10C48CF
:102D0000216C0865206CFEF7BFF910B1206C03F050
:102D100069FF09E00020A063012084F8340000204E
:102D200020632046FFF793FD70BD00003F6C000854
:102D3000E56B000810B504460CB9012010BD94F8ED
:102D4000340020B900202077204600F053F80320FB
:102D500084F83400204600F00BF808B10120EDE7BC
:102D60000020A0632063012084F834000020E5E700
:102D700070B58AB004460020049005900690079034
:102D800008907620099007A807C88DE807002068FA
:102D900004A90EC903F0A4FA064616B101200AB030
:102DA00070BD002012490860206803F0B3FA0120CA
:102DB0000F49A039C1F8A000204604F07FF805466D
:102DC0003DB1012084F83400A06B2843A0630120AA
:102DD000E5E7204603F0F1FF05463DB1012084F808
:102DE0003400A06B2843A0630120D8E70020D6E779
:102DF000A080254210B586B00446142101A8FDF735
:102E0000B6FA5849206888427ED100BF0020009061
:102E10005548006840F4006053490860084600685F
:102E200000F40060009000BF00BF00BF00200090D1
:102E30004D481438006840F004004B4914390860CC
:102E40000846006800F00400009000BF00BF00BF0B
:102E5000002000900846006840F00800086008461E
:102E6000006800F00800009000BF00BF4FF4F85069
:102E700001900220029000200390032004900C2077
:102E8000059001A93948FEF78FFD0420019002202A
:102E9000029000200390032004900C20059001A9CB
:102EA0003348FEF781FD3348334908604FF0006036
:102EB00048604021304881600021C1604FF480614A
:102EC000016189004161890081612021C161002186
:102ED000016204214162032181624FF40001C16259
:102EE00089100163FEF708FA08B1FEF799F800BFF0
:102EF0002148E063846300BF1E4848301F490860D2
:102F00004FF00060486000E029E000211B4881602C
:102F1000C1604FF480610161890041618900816174
:102F20002021C161002101620421416203218162EB
:102F30004FF40001C16289100163FEF7DDF908B1A9
:102F4000FEF76EF800BF0D482064846300BF0022C6
:102F500011463120FEF7C2FE3120FEF7AFFE06B06B
:102F600010BD0000002C014044380240000802401F
:102F7000000C024058640240282D0020882D0020BB
:102F80002DE9F04387B004460F4691461E46C846D9
:102F90003FB9A06B40F00060A063012007B0BDE81E
:102FA000F08394F83400012871D10020A06308EB6D
:102FB0000601E06D814205D9A06B40F00070A0636E
:102FC0000120EBE7032084F8340000202168C86268
:102FD0002068C06B40F22A3108432168C863394831
:102FE000216CC8633848216CC8640020216C0865D6
:102FF00072029308226802F180013A46206CFEF7C3
:10300000F1F980B12068C06B20F495702168C86325
:103010002E4821688863A06B40F08040A0630120A7
:1030200084F83400BAE7012029490860606C01285F
:1030300001D04FEA48284FF40071206803F0CCF922
:1030400005464DB1214821688863A06B2843A063E1
:10305000012084F83400A1E74FF0FF3001907002A6
:1030600002909020039002200490002005900120FF
:10307000069001A9206803F006F9012E08D98220E4
:1030800020634146206803F00FFA054607E016E08A
:10309000812020634146206803F022FA054665B18D
:1030A0000A4821688863A06B2843A063012084F844
:1030B000340000202063012070E700206EE702202A
:1030C0006CE700009D6B0008296B0008FF054000BD
:1030D0008C85254210B50446FDF776FD10BD10B570
:1030E0000446FDF78BFD10BD2DE9F04387B0044683
:1030F000884691461E464F46B8F1000F07D1A06B97
:1031000040F00060A063012007B0BDE8F08394F8B0
:103110003400012877D10020A063B919E06D814205
:1031200005D9A06B40F00070A0630120ECE70320FC
:1031300084F8340000202168C8622068C06B40F227
:103140001A2108432168C8633948E16BC8633948CC
:10315000E16BC8640020E16B0865606C012800D059
:103160007F024FF40071206803F036F905464DB137
:10317000314821688863A06B2843A063012084F84C
:103180003400C1E7012E07D9A0202063394620680A
:1031900003F084FA054606E0902020633946206853
:1031A00003F098FA054665B1234821688863A06B4F
:1031B0002843A063012084F834000020206301200C
:1031C000A2E701201D49086071028B08216801F106
:1031D00080024146E06BFEF705F9A8B12068C06B9C
:1031E00040F21A2188432168C86313482168886324
:1031F000A06B40F08040A063012084F834000020E0
:103200002063012080E711E04FF0FF300190700251
:1032100002909020039000200490059001200690D9
:1032200001A9206803F02FF800206DE702206BE76A
:103230002D6C0008296B0008FF0540008C85254295
:10324000014691F85100704710B504460CB90120B1
:1032500010BD606A00B900BF0021A16294F851005E
:1032600028B9002084F85000204600F033F80220EE
:1032700084F851002068006820F040002168086050
:10328000D4E901010843E168084321690843616901
:103290000843218B01F400710843E1690843216A66
:1032A0000843A16A0843216808600421A06901EA73
:1032B0001040616A0843216848602068C06920F4B2
:1032C00000602168C86100206065012084F8510019
:1032D0000020BDE710B586B00446142101A8FDF713
:1032E00046F81B49206888422FD100BF002000907B
:1032F0001848006840F48050164908600846006885
:1033000000F48050009000BF00BF00BF002000907C
:1033100010481438006840F002000E491439086063
:103320000846006800F00200009000BF00BF38208F
:1033300001900220029000200390032004900520B9
:10334000059001A90448FEF72FFB06B010BD000050
:103350000030014044380240000402402DE9F843A7
:103360000446884616461D464FF000096068B0F5D1
:10337000827F0DD1A06858B9042084F851003346EB
:10338000424641462046009500F06BF9BDE8F883BF
:1033900000BF94F85000012801D10220F6E7012077
:1033A00084F8500000BFFEF70FFC074694F8510068
:1033B000012802D04FF0020978E0B8F1000F00D0E8
:1033C00016B94FF0010971E0042084F85100002083
:1033D0006065C4F83880A687E6872063A086E0860B
:1033E00020646064A068B0F5004F05D120680068D3
:1033F00020F48040216808602068006800F04000E8
:10340000402805D02068006840F04000216808602E
:10341000E068F8B91AE02068806800F0010050B157
:103420002068007BA16B0870A06B401CA063E08F3C
:10343000401EE0870AE0FEF7C7FBC01BA84201D38D
:10344000681C00B915B94FF003092FE0E08F002880
:10345000E1D11EE01AE02068806800F0010050B160
:103460002068C068A16B0880A06B801CA063E08FFF
:10347000401EE0870AE0FEF7A7FBC01BA84201D36D
:10348000681C00B915B94FF003090FE0E08F002860
:10349000E1D13A462946204604F00BF808B1202035
:1034A0006065606D08B14FF0010900BF012084F82C
:1034B000510000BF002084F8500000BF484665E777
:1034C0002DE9F84F0446884616461D464FF0000A7F
:1034D00000BF94F85000012802D10220BDE8F88F07
:1034E000012084F8500000BFFEF76EFB0746B1468E
:1034F00094F85100012802D04FF0020AA7E0B8F179
:10350000000F00D016B94FF0010AA0E0032084F8A4
:10351000510000206065C4F83080A686E686A0636E
:10352000A087E08760642064A068B0F5004F05D1F3
:103530002068006840F480402168086020680068C6
:1035400000F04000402805D02068006840F04000AE
:1035500021680860E068B0F5006F2FD1606810B195
:10356000B9F1010F09D1206B00882168C860206B78
:10357000801C2063E08E401EE0861BE0206880688F
:1035800000F0020002280AD1206B00882168C86080
:10359000206B801C2063E08E401EE0860AE0FEF770
:1035A00013FBC01BA84201D3681C00B915B94FF02A
:1035B000030A4CE0E08E0028E0D12EE0606810B1F4
:1035C000B9F1010F09D1206B007821680873206BD5
:1035D000401C2063E08E401EE0861BE0206880686F
:1035E00000F0020002280AD1206B007821680873DD
:1035F000206B401C2063E08E401EE0860AE0FEF750
:10360000E3FAC01BA84201D3681C00B915B94FF0FA
:10361000030A1CE0E08E0028E0D13A462946204605
:1036200003F092FF08B120206065A06850B900BF88
:10363000002000902068C06800902068806800909A
:1036400000BF00BF606D08B14FF0010A00BF01204C
:1036500084F8510000BF002084F8500000BF50469D
:103660003CE72DE9FF5F0446884691461D460E9EC5
:10367000012002900020019000BF94F85000012822
:1036800003D1022004B0BDE8F09F012084F850006F
:1036900000BFFEF799FA074694F851B060680390AE
:1036A000AA46BBF1010F0BD00398B0F5827F04D17D
:1036B000A06810B9BBF1040F02D002200190DBE03A
:1036C000B8F1000F03D0B9F1000F00D015B90120F7
:1036D0000190D1E094F85100042802D0052084F82C
:1036E000510000206065C4F83890E587A587C4F8CC
:1036F0003080E586A586206460642068006800F05C
:103700004000402805D02068006840F04000216853
:103710000860E068B0F5006F4AD1606810B1BAF196
:10372000010F09D1206B00882168C860206B801CC4
:103730002063E08E401EE08633E02068806800F061
:103740000200022810D1E08E70B1029801280BD13E
:10375000206B00882168C860206B801C2063E08E8D
:10376000401EE086002002902068806800F0010082
:1037700068B1E08F58B12068C068A16B0880A06B69
:10378000801CA063E08F401EE08701200290FEF7BE
:103790001BFAC01BB04204D3701C10B1032001906F
:1037A0006AE0E08E0028C8D1E08F0028C5D14AE049
:1037B000606810B1BAF1010F09D1206B007821685F
:1037C0000873206B401C2063E08E401EE08634E0CE
:1037D0002068806800F00200022810D1E08E70B1ED
:1037E000029801280BD1206B007821680873206BA8
:1037F000401C2063E08E401EE0860020029020687E
:10380000806800F0010068B1E08F58B12068C0689E
:10381000A16B0870A06B401CA063E08F401EE08786
:1038200001200290FEF7D0F9C01BB04201D3701CFA
:1038300000B916B9032001901EE0E08E0028C7D120
:10384000E08F0028C4D13A463146204603F07CFE82
:1038500020B101200190202060650DE0A06850B9E2
:1038600000BF002000902068C06800902068806839
:10387000009000BF00BF00BF012084F8510000BFCE
:10388000002084F8500000BF0198FBE670B50446A4
:103890002546681EB0F1807F01D301200FE0681E2D
:1038A0004FF0E02148610F214FF0FF3004F0FEFAA5
:1038B00000204FF0E021886107200861002070BDE2
:1038C000704700002DE9F04704462068056820682D
:1038D000C668206847694FF00008C14605F00F0828
:1038E000B8F1000F0AD105F0200038B106F0200031
:1038F00020B1204603F06EFFBDE8F087B8F1000F5D
:1039000072D007F0010018B906F4907000286BD04F
:1039100005F0010030B106F4807018B1E06B40F0A2
:103920000100E06305F0040030B107F0010018B1B8
:10393000E06B40F00200E06305F0020030B107F0F8
:10394000010018B1E06B40F00400E06305F00800EE
:1039500048B106F0200010B907F0010018B1E06B83
:1039600040F00800E063E06B70B305F0200028B180
:1039700006F0200010B1204603F02CFF20684069BB
:10398000C0F38019E06B00F0080010B9B9F1000F26
:1039900023D0204603F0FEFE2068406900F040007E
:1039A000402816D12068406920F040002168486115
:1039B000606B50B11748616B0865606BFDF764FB85
:1039C00010B1606B016D88470CE02046FFF778FF6F
:1039D00008E02046FFF774FF04E02046FFF770FF81
:1039E0000020E06388E7FFE705F0800030B106F0D3
:1039F000800018B1204604F035F97DE705F040005D
:103A000030B106F0400018B1204603F0D3FE73E752
:103A100000BF71E78177000810B504460CB901209A
:103A200010BDA06900B100E000BF94F8390028B9CA
:103A3000002084F83800204600F028F8242084F87C
:103A400039002068C06820F400502168C860204612
:103A500003F014FF2068006920F490402168086199
:103A60002068406920F02A00216848612068C06809
:103A700040F400502168C8600020E063202084F8F2
:103A8000390084F83A000020CAE7000010B586B07B
:103A90000446142101A8FCF76AFC1F4920688842EB
:103AA00038D100BF002000901C48006840F0100092
:103AB0001A4908600846006800F01000009000BF36
:103AC00000BF00BF0020009014481438006840F088
:103AD00001001249143908600846006800F001002E
:103AE000009000BF00BF4FF4C06001900220029020
:103AF00001200390032004900720059001A90848A5
:103B0000FDF752FF002211462520FEF7E7F8252099
:103B1000FEF7D4F806B010BD001001404438024052
:103B2000000002407047704700BFFEE770B50446D2
:103B30000D46224602A1284604F086F9002070BDF9
:103B400025303278000000002DE9F04106460D4690
:103B50001746002405E005EB4401305DFFF7E6FF62
:103B6000641CBC42F7DB002005F81400BDE8F081BE
:103B700008B500BF002000900E48006840F48000A7
:103B80000C4908600846006800F48000009000BFFF
:103B900000BF002211463B20FEF7A0F83B20FEF7B5
:103BA0008DF8002211464520FEF798F84520FEF7D3
:103BB00085F808BD3038024010B514481449086033
:103BC0000120486000211248018240690170802173
:103BD0000F4840694170E1210D4840698170002122
:103BE0000B484069C1700A48406901710848406942
:103BF000417107488161C1614FF400010162FDF725
:103C00004FFC08B1FDF70CFA10BD00000080024027
:103C10002C2A002010B503490348FDF702FA034996
:103C2000087010BD61000020AC4703086000002050
:103C300000B587B0142102A8FCF799FB00BF002053
:103C400001904748006840F0200045490860084658
:103C5000006800F02000019000BF00BF00BF0020FE
:103C600001900846006840F00400086008460068BB
:103C700000F00400019000BF00BF00BF00200190D1
:103C80000846006840F0010008600846006800F03F
:103C90000100019000BF00BF00BF00200190084656
:103CA000006840F0020008600846006800F002006A
:103CB000019000BF00BF00BF0020019008460068CF
:103CC00040F0080008600846006800F00800019015
:103CD00000BF00BF00BF002001900846006840F010
:103CE000400008600846006800F04000019000BFF6
:103CF00000BF00224FF4C0611A48FDF75EFF0022AA
:103D00004FF480411848FDF758FF0022082117485A
:103D1000FDF753FF4FF4C060029001200390002094
:103D20000490059002A90F48FDF73EFE4FF4804035
:103D300002900120039000200490059002A90A48F7
:103D4000FDF732FE0820029001200390002004902D
:103D5000059002A90548FDF727FE07B000BD000049
:103D6000303802400014024000040240000C0240BF
:103D700010B50548054908600846FEF79FFC08B1E4
:103D8000FDF74EF910BD000000080650742C00200D
:103D900010B50A480A490860002048607F21084899
:103DA0008160FF21C1600021016141618161FEF7F5
:103DB000B9FC08B1FDF734F910BD0000002800403F
:103DC000842C002006480749086000204860002134
:103DD00004488160C16001614161816170470000F8
:103DE000002C0140A42C002010B50E480E4908609C
:103DF0004FF48270486000210B488160C16001610E
:103E000041614FF4007181610021C1610162416231
:103E100081620A21C162FFF717FA08B1FDF700F9C4
:103E200010BD000000300140E82D002010B50B4807
:103E30000B4908604FF4E130486000210848816078
:103E4000C16001610C21416100218161C161FFF705
:103E5000E3FD08B1FDF7E4F810BD000000100140DB
:103E6000402E002000BFFEE7704700002DE9F04122
:103E700005460E46144600271148007818B1122056
:103E80002070BDE8F0812878012808D0022807D0EA
:103E9000032802D0042804D100E000BF00BF00BF07
:103EA00002E001202070ECE700BFFCF79FF9074615
:103EB0006E613846FCF79EF90020207000BFE0E7F5
:103EC000990000202DE9F05F04460F4691461E46FA
:103ED0004FF0000B2078052804D00120307000201E
:103EE000BDE8F09F09F0800ABAF1000F04D029F074
:103EF00080094FF0010801E04FF000080020307009
:103F0000FCF774F98346B9F1000F2CD0B9F1010F19
:103F10003BD0B9F1020F03D0B9F1030F46D111E044
:103F2000A06800EA0705BD4206D1B8F1010F05D12E
:103F3000A068A843A06001E0702030705846FCF7EC
:103F400059F93AE0A06800EA070535B1B8F1010F68
:103F500005D1A068A843A06001E0702030705846E9
:103F6000FCF748F929E0A06827EA0005BD4206D120
:103F7000B8F1010F05D1A0682843A06001E07020CE
:103F800030705846FCF736F917E0A06827EA0005BC
:103F900035B1B8F1010F05D1A0682843A06001E058
:103FA000702030705846FCF725F906E05846FCF7BB
:103FB00021F900256F20307000BF00BF28468FE731
:103FC0002DE9F04106460D4600271348007820B140
:103FD000102028700020BDE8F081FCF707F90746A3
:103FE0000E48046884B1006840680C4908600520E8
:103FF0002070A6600020606009A0E0603846FCF7F1
:10400000F9F80020287004E03846FCF7F3F8722035
:1040100028702046DFE7000099000020880000207B
:104020003F0000002DE9F0470446894615464FF051
:10403000000A3248007820B10F2028702046BDE8E1
:10404000F0872078052803D0012028702046F6E765
:10405000FCF7CCF88246606808B1012700E0002731
:10406000B9F1000F03D0B9F1010F3DD119E08FB9BB
:1040700023A0E060002020702248006860600020DB
:10408000A060204804605046FCF7B4F80020287077
:10409000002605E05046FCF7ADF84920287026467A
:1040A00029E0D4F8048006E002220021404601F015
:1040B0007FFDD8F80080B8F1000FF5D110A0E060C6
:1040C000002020700F48006860600020A0600D484C
:1040D00004605046FCF78EF8012F01D101F018FF63
:1040E00000202870002606E05046FCF783F80720E1
:1040F0002870264600BF00BF3046A0E79900002088
:104100003F000000880000202DE9F04F89B00546EF
:104110000F4691469A46129E002001908C480078E6
:1041200028B102203070002009B0BDE8F08F894826
:10413000007818B10D2030700020F5E728780528A8
:1041400003D0012030700020EEE709F0800BBBF1B6
:10415000000F04D009F07F094FF0010801E04FF093
:104160000008FCF743F80190B9F1000F4AD0B9F10B
:10417000010F68D0B9F1020F03D0B9F1030F76D166
:1041800020E0A86800EA0704BC420FD1B8F1010F93
:1041900002D1A868A043A8606F480068C462019873
:1041A000FCF728F8002030702046BDE74B463A4621
:1041B00003A92846CDF800A001F07CFC0198FCF78B
:1041C00019F869E0A86800EA07047CB1B8F1010FAA
:1041D00002D1A868A043A8605F480068C462019843
:1041E000FCF708F80020307020469DE74B463A4621
:1041F00003A92846CDF800A001F05CFC0198FBF76C
:10420000F9FF49E0A86827EA0004BC420FD1B8F1E1
:10421000010F02D1A8682043A8604F480068C4621B
:104220000198FBF7E7FF0020307020467CE74B4603
:104230003A4603A92846CDF800A001F03BFC0198BE
:10424000FBF7D8FF28E0A86827EA000484B1B8F19A
:10425000010F02D1A8682043A8603F480068C462EB
:104260000198FBF7C7FF0020307020465CE70BE0A9
:104270004B463A4603A92846CDF800A001F01AFCA7
:104280000198FBF7B7FF07E00198FBF7B3FF0024A5
:104290006F203070204647E700BF01F039FEFBF782
:1042A000A5FF01902C48006890F8350020B32A48FB
:1042B000006890F83500029000202749096881F8CD
:1042C000350003A801F0A4FC00202349096881F807
:1042D00034000198FBF78EFF00240298012805D0D6
:1042E000022802D10E20307003E000BF0A20307097
:1042F00000BF00BF204617E717480068C46AB8F13E
:10430000010F1ED1B9F1000F0ED0B9F1010F0CD081
:10431000B9F1020F03D0B9F1030F0AD100E000BFD9
:10432000A868A043A8600BE000BFA8682043A8606D
:1043300006E00198FBF75EFF6F2030700020F3E687
:1043400000BF0198FBF756FF002030702046EBE6D7
:10435000990000209A000020AC0000202DE9FC5FAD
:104360000446894692461E46002000902078052883
:1043700004D0012030700020BDE8FC9FFBF736FF21
:104380000090BAF1000F03D0BAF1010F0AD104E096
:10439000A06820EA0900A0600BE0A06840EA0900DC
:1043A000A06006E00098FBF725FF71203070002028
:1043B000E2E700BF4FF0000B656859E0287D50B37D
:1043C00001283BD0022802D0032848D112E0A0687F
:1043D000296900EA01072869B8420AD10022394652
:1043E000284601F0E5FB8046B8F1010F01D14FF0FE
:1043F000010B3BE0A068296900EA010757B10022E0
:104400003946284601F0D4FB8046B8F1010F01D1AE
:104410004FF0010B2AE02869A16820EA010728690A
:10442000B8420AD100223946284601F0C1FB804635
:10443000B8F1010F01D14FF0010B17E02869A16815
:1044400020EA010757B100223946284601F0B0FBA7
:104450008046B8F1010F01D14FF0010B06E0009842
:10446000FBF7C8FE6F203070002085E700BF2D6885
:10447000002DA3D10098FBF7BDFEBBF1010F01D1C8
:1044800001F046FDFBF7B2FE0090A0680190009895
:10449000FBF7B0FE0020307001986DE710B500F01A
:1044A00017F801F0F7FB01F023FC01F043FC01F0E9
:1044B000C1FB01F051FB01F0D7FC01F001FD01F05F
:1044C00079FC01F09FFC01F0BBF800F01DF810BD75
:1044D0000948802102E0491E002204C00029FAD1C7
:1044E000064A074B1A601A46126822F007021A6041
:1044F0000022044B1A807047802E0020803000205C
:10450000780000207C0000207047000006480078FA
:10451000012808D105480078FF2804D20348007814
:10452000401C024908707047A60000209900002036
:1045300010B500241A480078012830D1FBF756FE48
:1045400004461848007820B116480078401E1549E6
:10455000087014480078F8B913480078E0B901F001
:1045600011FD12481249097850F8210011490860DC
:104570000F4800781049097888420DD00D4800682E
:10458000C06B401C0B490968C8630C480068401C9C
:104590000A490860FBF74AFE2046FBF72BFE10BDD8
:1045A000A6000020990000209A000020A0370020DB
:1045B0009C000020B40000209B0000208000002010
:1045C0002DE9F04104460E4600272248007820B12C
:1045D000102030700020BDE8F081FBF707FE074691
:1045E000FF2C0ED01C4850F8240030B13846FBF7A1
:1045F00001FE282030700020EDE70120164941F827
:1046000024001648056865B9FF2C03D00020124924
:1046100041F824003846FBF7EDFD042030702846B1
:10462000D9E70E48006840680C4908603846FBF737
:10463000E1FD04202870FF2040EA042028810020AA
:10464000686007A06861284601F026FA00203070F3
:104650002846C0E799000020A037002084000020F1
:104660003F0000002DE9F74F82B0054617460020B5
:1046700001902878042804D00120387005B0BDE8E6
:10468000F08F8548007810B102203870F6E7834833
:10469000007810B10D203870F0E7FBF7A7FD01900E
:1046A00028894FEA2029287AFF2822D1288900F476
:1046B0007F40288128897A49096891F83610084393
:1046C0002881774800686860B9F1FF0F0BD0744803
:1046D000006890F83600484505DC0198FBF78AFD34
:1046E0007820387004E00198FBF784FD00203870D2
:1046F000C4E7B9F1FF0F7CD095F808B06C6894F866
:10470000360048457CDD6648006890F8360058451C
:1047100076DA94F83880634810F8080094F8391075
:104720000840B0B15F4810F8080094F83910884389
:104730005C4901F80800084610F8080030B994F800
:104740003A10594800788843574908704FF0010AD9
:1047500019E0E669AEB194F8388006F10B0010F864
:10476000080094F83910884306F10B0101F808009D
:10477000084610F8080020B9B07A94F83A10884337
:10478000B0724FF0000A04F8369F2078C010A07075
:10479000207800F007006070A17801208840207127
:1047A000617801208840E070363CBAF1010F10D1E9
:1047B0003834A0783C49097808433B490870207890
:1047C0003849085C6178084314F83819354A505460
:1047D00013E0E6698EB1B07A3834A1780843B0723C
:1047E000217806F10B00405C6178084314F8382901
:1047F00000E005E006F10B0188542C4840F8294000
:104800002748006890F8340040F0100024490968F7
:1048100081F8340000202249096881F835002049D8
:10482000039809680863284601F0F8F80198FBF737
:10483000E1FC01F06DFBFBF7D9FC01901848006822
:1048400090F8350020B1012809D0022806D102E0F5
:10485000002038700BE00E20387008E000BF2946B9
:104860000F48006801F0A6F80A20387000BF00BFAA
:1048700000200B49096881F834000949096881F86A
:10488000350007490968C861054909680862019847
:10489000FBF7B0FC00BFF1E6990000209A00002071
:1048A000AC0000209E0000209D000020A0370020CA
:1048B0002DE9F041044600272E48007810B105206C
:1048C000BDE8F0812078042801D00120F8E7FBF74B
:1048D0008DFC074620890512267A274960680968F9
:1048E000884204D03846FBF785FC6420E8E7FF2DBA
:1048F0000ED02148006890F83600A84204D1314615
:104900001D48006800F03CF801201C4941F82500D2
:10491000A07A18B3002310221946204601F002F8AD
:104920000646208900F47F40208120893043208181
:10493000124850F826006060FF2D08D0AE4206DC19
:104940003846FBF757FC01F0E3FA7820B8E7384621
:10495000FBF750FC01F0DCFA0020B1E7208940F0C1
:10496000FF002081002060603846FBF743FC0020F8
:10497000A6E7000099000020AC000020A03700202E
:1049800030B590F838201B4B9B5C90F83940A3431E
:10499000184CA35423469B5C33B990F83A40164B0D
:1049A0001B78A343144C237000F8361F134B197067
:1049B000C1F3C203837001F00703437084780123BD
:1049C000A340037144780123A340C37003790A4CC8
:1049D00024782343084C23708378064CE35CC47826
:1049E000234384783638034D2B55054B43F821007B
:1049F00030BD00009E0000209D0000209B00002094
:104A0000A03700202DE9F04106460F464FF0000880
:104A10002048007810B10020BDE8F081FBF7E6FBEC
:104A200080461D480468006820B11B480068406843
:104A3000194908604046FBF7DDFBFCB1FBF7D6FBEC
:104A4000804616480568D5B10068006813490860BB
:104A50004046FBF7CFFB6E6006EB8700A860EE6078
:104A60002E61AF820020E882022020700020208189
:104A700065600BA06061204601F00EF808E0064872
:104A800000686060044804604046FBF7B3FB002404
:104A90002046C1E79900002084000020C4000020C7
:104AA0003F00000010B500240B480078012811D108
:104AB000FBF79CFB04460948007840B90848007899
:104AC000FF2804D206480078401C0549087020469B
:104AD000FBF790FB10BD0000A6000020990000200D
:104AE0009A00002010B5002413480078012821D135
:104AF000FBF77CFB044611480078C0B910480078E9
:104B000088B10F480078401E0D49087008460078AB
:104B100028B92046FBF76EFB01F0FAF90AE02046BF
:104B2000FBF768FB06E02046FBF764FB02E020464B
:104B3000FBF760FB10BD0000A600002099000020DC
:104B40009A00002070B5054600261048007808B18C
:104B5000002070BDFBF74AFB06460D48046800685C
:104B600020B10B4800684068094908603046FBF7EF
:104B700041FB4CB10320207025810020606005A01E
:104B80006061204600F088FF2046E2E7990000209F
:104B9000840000203F0000002DE9F04105460E464C
:104BA000144600272878032803D001202070BDE890
:104BB000F0813248007810B102202070F7E73048C9
:104BC000007810B10D202070F1E7FBF70FFB0746CE
:104BD000288940B12889401E28813846FBF70AFB06
:104BE00000202070E3E72748006890F8340040F088
:104BF00001002449096881F834000020214909682E
:104C000081F835001F4800680663284600F006FF5B
:104C10003846FBF7EFFA01F07BF9FBF7E7FA0746B6
:104C20001848006890F8350020B1012809D0022802
:104C300006D102E0002020700BE00E20207008E07A
:104C400000BF29460F48006800F0B4FE0A2020701B
:104C500000BF00BF00200B49096881F834000949F2
:104C6000096881F8350007490968C861054909687C
:104C700008623846FBF7BEFA00BF98E799000020AB
:104C80009A000020AC00002070B504460025207872
:104C9000032801D0012070BDFBF7A8FA0546A07AD1
:104CA00060B1002301221946204600F03BFE284651
:104CB000FBF7A0FA01F02CF90020ECE720894FF671
:104CC000FF71884207D22089401C20812846FBF7CB
:104CD00091FA0020DFE72846FBF78CFA3320DAE769
:104CE00010B50B48007890B901F04CF909480078EC
:104CF0000949087009480749097850F8210008490E
:104D000008600846006807490860FBF776FA10BD9E
:104D1000A60000209C0000209B000020A03700205F
:104D2000B4000020AC00002010B504462046FBF77C
:104D3000F9FE10BD2DE9FE4F06460F4690461C4673
:104D40004FF00009FBF752FA81461F48007828B15E
:104D50004846FBF74FFA3C20BDE8FE8F1B4850F851
:104D6000240060BB0120194941F824004846FBF7A4
:104D700041FA002342463946304600F0CDF98246DA
:104D800000200090019003460246514602902046C2
:104D900001F00EF9054635B90D48007801280CD10F
:104DA00001F0B6F809E0FBF721FA81460020074937
:104DB00041F824004846FBF71DFA2846CCE7484650
:104DC000FBF718FA2820C7E799000020A037002039
:104DD000A60000202DE9F04F85B081468A46934613
:104DE0001C46DDE90F78129D00200390FBF7FEF9C9
:104DF00003902348007830B10398FBF7FBF93C207F
:104E000005B0BDE8F08F1F4850F8240088BB012092
:104E10001C4941F824000398FBF7ECF92A46414667
:104E2000384601F0F3F92B465A465146484600F001
:104E300073F904901198CDE9008002953A46204616
:104E40000E9B049901F0B4F8064636B90E48007876
:104E500001280CD101F05CF809E0FBF7C7F90390D9
:104E60000020084941F824000398FBF7C3F93046B5
:104E7000C6E7FFE70398FBF7BDF92820C0E700006D
:104E800099000020A0370020A600002010B504469D
:104E90002046FBF748FE10BD2DE9F04105460027EE
:104EA0004A48007810B14020BDE8F0813F2D01D183
:104EB0003E20F9E7FBF79AF90746FF2D03D1444856
:104EC000006890F83650434850F8254024B93846D9
:104ED000FBF790F94320E7E7012C04D13846FBF7B4
:104EE00089F93D20E0E714F8380F3B49085C617808
:104EF00088432178384A505414F838091146085C20
:104F000030B994F83A10354800788843334908702E
:104F1000E06918B12046E16900F04CFD206A18B143
:104F20002046216A00F05DFDA66A16B1304600F009
:104F30006FFE0020206384F8340084F83500284890
:104F40000078FF2804D226480078401C24490870C5
:104F50003846FBF74FF900F0E3FCFBF747F907464B
:104F60001F48007820B11E480078401E1C49087078
:104F7000204600F041F81B480078401E194908708F
:104F80000020144941F82500A06930B9002061696A
:104F9000886115496069086005E0D4E90501486148
:104FA000D4E9051088611148006860610F48046009
:104FB0000FA020653846FBF71DF90E480078012840
:104FC00001D100F0A5FF00206EE70000990000204D
:104FD000AC000020A03700209E0000209D00002093
:104FE0009A000020A7000020B8000020B000002098
:104FF0003F000000A600002010B504462046FBF745
:1050000093FD10BD10B5FBF790FD10BD2DE9F041EB
:1050100006460F4614464FF000081548007818B1B0
:1050200012202070BDE8F081FBF7E0F88046FF2EEB
:1050300003D11048006890F836600F4850F82650A9
:105040002DB94046FBF7D6F843202070EAE7012D42
:1050500005D14046FBF7CEF843202070E2E72F65EC
:105060004046FBF7C7F80020207000BFDAE70000D9
:1050700099000020AC000020A037002010B50446A5
:105080002046FBF753FD10BD10B5FBF750FD10BDDA
:105090002DE9F04707460D464FF0000A0020286032
:1050A0006860FBF7A3F88246FF2F03D11848006819
:1050B00090F83670174850F827402CB95046FBF747
:1050C00099F84320BDE8F087012C04D15046FBF746
:1050D00091F84320F6E7207C00F0010020B950460B
:1050E000FBF788F84520EDE70026D4F80C90D4F8BB
:1050F00008805046FBF77EF800E0761C58F8041B49
:105100000029FAD02E60A9EB060068600020D9E7DC
:10511000AC000020A037002070B50446101D20F020
:1051200007004FF08076051F28462E60051F284691
:105130002C60684E051F28462E604FF01236051F62
:1051400028462E604FF00336051F28462E604FF08C
:105150000236051F28462E607610051F28462E6051
:10516000051F284629604FF01136051F28462E607E
:105170004FF01036051F28462E604FF00936051FE8
:1051800028462E604FF00836051F28462E604FF047
:105190000736051F28462E604FF00636051F2846A5
:1051A0002E604FF00536051F28462E604FF004365E
:1051B000051F28462E6003F00405002D7ED0F6055D
:1051C000051F28462E60444E051F28462E60434E7C
:1051D000051F28462E60424E051F28462E60414E70
:1051E000051F28462E60404E051F28462E603F4E64
:1051F000051F28462E603E4E051F28462E603D4E58
:10520000051F28462E603C4E051F28462E603B4E4B
:10521000051F28462E603A4E051F28462E60394E3F
:10522000051F28462E60384E051F28462E60374E33
:10523000051F28462E60364E051F28462E604FF06B
:105240008346051F28462E60324E051F28462E60D5
:10525000314E051F28462E60304E051F28462E6011
:105260002F4E051F28462E602E4E051F28462E6005
:105270002D4E051F28462E602C4E051F28462E60F9
:105280004FF08246051F28462E60294E051F2846EE
:105290002E60284E051F28462E60274E051F2846E3
:1052A0002E604FF08146051F28462E60234E051FB5
:1052B00028462E603602051F284600E009E02E60D1
:1052C0004FF07E56051F28462E600026051F2846F3
:1052D0002E6070BD196100080000F8410000F04127
:1052E0000000E8410000E0410000D8410000D0414A
:1052F0000000C8410000C0410000B8410000B041BA
:105300000000A8410000A041000098410000904129
:1053100000008841000070410000604100005041E1
:1053200000004041000030410000204100001041D9
:105330000000E0400000C0400000A04000004040ED
:105340002DE9F04105464FF00008FAF74FFF80467F
:10535000FF2D05D12048006890F83650012608E05E
:105360001D48006890F83600A84201D1012600E0EF
:1053700000261A4850F825402CB94046FAF73AFF63
:105380004820BDE8F081012C04D14046FAF732FFF5
:105390004320F6E794F838701148C05D94F839104E
:1053A00088430F49C8550846C05D30B994F83A1093
:1053B0000C48007888430B49087094F8340040F09A
:1053C000080084F834004046FAF714FF012E01D19A
:1053D00000F09EFD0020D4E7AC000020A0370020A4
:1053E0009E0000209D00002010B50C480068007C45
:1053F00000F0040020B1094909680868FAF7E0FEE6
:1054000007480068007C00F0040020B104490968E6
:105410000868FAF7E2FEFBF78BFB10BDAC0000203A
:10542000B400002070B5054600261748007800B18A
:1054300070BD1648007800B1FAE71DB3FAF7D6FE42
:1054400006461348006890F838401248005D10493D
:10545000096891F8391088430E4908550846005DDF
:1054600040B90B48006890F83A100B480078884320
:10547000094908700648006805633046FAF7BAFE25
:1054800000F046FD00BFD3E7990000209A000020FD
:10549000AC0000209E0000209D0000202DE9F0417E
:1054A00005460E4617461C461248007810B1552096
:1054B000BDE8F0811048007808B13220F8E74FF4D9
:1054C0007A7060434FF47A71B0FBF1F14FF4616090
:1054D0006843C6EB061200EB8200384400EB400242
:1054E000C2EBC01001EBC0084046FFF79BFF002055
:1054F000DEE70000990000209A00002070B500252A
:10550000FAF774FE0546034804682846FAF772FE67
:10551000204670BDCC00002070B5002600F072F867
:10552000FAF764FE064631480068401C2F490860BF
:105530003046FAF75FFE2E480078012853D12D48F7
:10554000007820B1012804D0022809D103E0012508
:105550000BE0002509E0012501202649087004E040
:10556000012500202349087000BF00BF05B970BDA8
:105570002148046833E0FAF739FE0646206B50B341
:10558000206B401E2063206B28BB94F8340000F091
:10559000370040B114F8340F00F0C800207001202B
:1055A0006070343C02E0002084F8350094F8340048
:1055B00000F0080078B93834A07810490978084319
:1055C0000E49087020780E49085C6178084314F889
:1055D00038190B4A505464693046FAF70BFE94F8B8
:1055E00036003F28C7D100BFC1E70000CC00002033
:1055F000A6000020BC000020B80000209D00002074
:105600009E00002010B5FBF794FA07480088401C64
:105610000549088008460088642803D300200880D4
:1056200000F004F810BD00007C00002010B5034815
:105630000068FFF729FB0446204610BDDC0000206F
:10564000F8B54FF42071284800F004FC38212748B1
:1056500000F000FC002514E0681C86B205EB850014
:10566000214901EBC00406EB860001EBC007642072
:105670002070002084F82500E7601DA02062681CCF
:1056800085B20F2DE8D305EB8500174901EBC00467
:1056900064202070002084F82500E06014A02062BF
:1056A000002014490860144908801020134908801C
:1056B0000D48134908600120FFF744FA11490860BA
:1056C0000020FFF73FFA104908606A460FA10D4815
:1056D0000068FEF7CBFB6A4611A10B480068FEF795
:1056E000C5FB00F027F8F8BD1042002090460020CE
:1056F0003F000000D4000020D2000020D000002095
:10570000E0000020D8000020DC00002075432F4F6F
:10571000532D494920546D724C6F636B000000009B
:1057200075432F4F532D494920546D725369676E4D
:10573000616C000000B587B00320002180220A4B75
:10574000CDE90132CDE903104FF6FD703D23074A44
:1057500000900748FFF73EFB06AA06A13D20FFF791
:1057600055FC07B000BD0000904400208C4600208E
:10577000F957000875432F4F532D494920546D7236
:1057800000000000F0B50B46032580F82550012BE2
:1057900005D1174EC5693668354445610CE0856909
:1057A0002DB9134EC56936683544456104E0104E85
:1057B000856936683544456107264569B5FBF6F7C6
:1057C00006FB17540B4D05EBC4010D682DB908609D
:1057D0000025C56001258D8006E00A680860C2606A
:1057E00010618D886D1C8D8000250561F0BD000065
:1057F000D40000209046002008B500BF00BF6A46D4
:1058000000211B480068FFF7C7F9FFF74BF919485B
:105810000068401C17490860084600680721B0FB73
:10582000F1F201FB1208144800EBC8073C681AE0CB
:10583000E668104960690968884213D1204600F083
:105840001DF894F82400022804D101212046FFF716
:1058500099FF02E0022084F82500656815B1204612
:10586000A168A8473446002CE2D1FFF73BF9C6E710
:10587000DC000020D400002090460020F0B5072670
:105880004569B5FBF6F706FB17540D4D05EBC40251
:105890001568854205D1C168116039B100250D61D7
:1058A00004E00169C368CB6003B11961012580F888
:1058B00025500025C560056195886D1E9580F0BD59
:1058C0009046002001464A1E4FF0E0235A61084AE4
:1058D000106820F07F4000BF10601A46126942F045
:1058E00005021A611A46126942F002021A617047F3
:1058F00020ED00E070B50446214605A02AF01EFC0C
:105900004FF47A70B4FBF0F52846FFF7DBFF70BD6B
:105910006370755F667265713A25640D0A00000058
:10592000704700002DE9F04F05460F469046994616
:10593000A87A1C490E5C05F10B00805D11F800B0DF
:105940000BEBC60000F0FF0A174850F82A40002071
:105950002434E0602760207C20EA0800207484F86A
:105960001190207C243C00F0080068B994F83A00BB
:105970000E49097808430D4908700D48805D94F878
:10598000391008430A4988552946204600F012F884
:10599000206A20B12046216A00F023F8E5615046D4
:1059A000BDE8F08FE0470308A03700209D000020ED
:1059B0009E00002010B590F8382001F10B039B5C8D
:1059C00090F83940A34301F10B04A35423469B5C98
:1059D00023B98B7A90F83A40A3438B720023C361BA
:1059E00010BDF0B5024612F8384F95785678383A1F
:1059F0000B4618680FE000F10B073F5DB74300F15D
:105A00000B0C0CF8047067463F5D17B9877AAF43FB
:105A100087721B1D18680028EDD1F0BD10B51B4A18
:105A20001268D061194A126892F8383000F10B02FE
:105A3000D25C164B1B6893F839301A43134B1B6822
:105A400093F8384000F10B031A55827A0F4B1B680C
:105A500093F83A301A4382720C4A126892F838105E
:105A60000B4A525C094B1B6893F839309A43084B38
:105A70005A541A46525C42B9044A126892F83A30B3
:105A8000044A12789A43034B1A7010BDAC000020F0
:105A90009E0000209D000020014600228A72002006
:105AA00005E0002301F10B021354421CD0B2082878
:105AB000F7D37047F0B51446059E244F3F6897F81A
:105AC000347047F02007DFF884C0DCF800C08CF8A1
:105AD00034700027DFF874C0DCF800C08CF8357033
