:020000040800F2
:1000000008D900209D0100088F1C0008D91A00089B
:100010008D1C0008F7080008613800080000000087
:100020000000000000000000000000003B35000858
:10003000F908000800000000370200083D350008FC
:10004000B7010008B7010008B7010008B7010008B0
:10005000B7010008B7010008B7010008B7010008A0
:10006000B7010008B7010008B7010008B701000890
:10007000B7010008B7010008B7010008B701000880
:10008000B7010008B7010008B7010008B701000870
:10009000B7010008B7010008B7010008B701000860
:1000A000B7010008B7010008B7010008B701000850
:1000B000B7010008B7010008B7010008B701000840
:1000C000B7010008B7010008B7010008B701000830
:1000D000B701000855380008B7010008B70100084B
:1000E000B7010008B7010008B7010008B701000810
:1000F000B7010008B7010008B7010008B701000800
:10010000B7010008B7010008B7010008B7010008EF
:10011000B7010008B7010008B7010008B7010008DF
:10012000B7010008B7010008B7010008B7010008CF
:10013000B7010008FD080008B7010008B701000872
:10014000B7010008B7010008B7010008B7010008AF
:10015000B7010008B7010008B7010008B70100089F
:10016000B7010008B7010008B7010008B70100088F
:10017000B7010008B7010008B7010008000000003F
:10018000B7010008B7010008DFF80CD000F02AFB27
:10019000004800472D94000808D9002006488047F1
:1001A00006480047FEE7FEE7FEE7FEE7FEE7FEE75C
:1001B000FEE7FEE7FEE7FEE7E935000889010008F3
:1001C000EFF3098141B1F1EE101A40F8041D20ED62
:1001D000200A29490A6810607047B0EC200A02C85A
:1001E000E1EE101A25490A6810607047EFF310809D
:1001F00072B6704780F31088704721484FF6FF7140
:100200000170002080F309881E48016881F3088886
:100210001D48012101701D484FF08051016062B6F8
:10022000FEE71A484FF080510160704717484FF0C1
:1002300080510160704772B6EFF3098028B1203811
:1002400080E8F00F0C490968086000B51048804745
:100250005DF804EB0F4810490A7802700648074918
:100260000A680260106890E8F00F203080F3098877
:100270004EF0F40E62B670473800002040000020B7
:1002800022ED00E0140000201F00002004ED00E03B
:10029000212A00081C0000201D0000202DE9F05F2D
:1002A0000546002092469B468846064681464024E5
:1002B0001BE0284641464746224600F0CAF853460E
:1002C0005A46C01A914110D311461846224600F0F2
:1002D000B1F82D1A67EB01084F4622460120002194
:1002E00000F0A8F817EB00094E41201EA4F101040C
:1002F000DFDC484631462A464346BDE8F09F000011
:1003000000487047ACFE0008A0F16101192900D82F
:1003100020387047A0F14101192900D820307047DA
:1003200010B5431A934209D28318881803E010F8D5
:10033000011D03F8011D521EF9D210BD40EA010350
:100340009B0703D009E008C9121F08C0042AFAD28B
:1003500003E011F8013B00F8013B521EF9D210BD39
:10036000D2B201E000F8012B491EFBD270470022F7
:10037000F6E710B513460A4604461946FFF7F0FFA4
:10038000204610BD10B5044604E00B7800F8013B90
:1003900003B1491C521EF8D2204610BD421C10F871
:1003A000011B0029FBD1801A704730B5044600209C
:1003B000034600E05B1C934203D2E05CCD5C401B33
:1003C000F8D030BD034611F8012B00F8012B002AAC
:1003D000F9D1184670472DE9F041054600209046B6
:1003E0000E46044600E0641C44450BD2285DFFF72E
:1003F00091FF0746305DFFF78DFF381A02D1295D66
:100400000029F0D1BDE8F08130B50B46014600204F
:100410002022012409E021FA02F59D4205D303FAC6
:1004200002F5491B04FA02F52844151EA2F1010247
:10043000F1DC30BD202A04DB203A00FA02F1002072
:1004400070479140C2F1200320FA03F31943904012
:100450007047202A04DB203A21FA02F0002170477D
:1004600021FA02F3D040C2F120029140084319461C
:1004700070472DE9FE4F804681EA0300C00F0C460D
:10048000009021F0004123F00045B8EB0200A941A3
:1004900005D24046214690461C460B46024623F0B4
:1004A0000040104347D0270DC7F30A00C3F30A5199
:1004B0000290401A019040286BDAC3F3130040F415
:1004C000801B0098924620B10023D2EB030A63EB15
:1004D0000B0B01985946C0F140025046FFF7AAFFA6
:1004E00006460D4650465946019A00F08DF910EB2C
:1004F00008006141002487EA115284EAE7731A4335
:1005000040D0009A62B3019A012A4FEA075215DCE3
:10051000001B61EB02014FF0004202EA0752CDE9F5
:100520000042001C41F5801132462B4600F08DF947
:1005300003B0BDE8F08F40462146F9E7001B61EBB0
:100540000201001C41F5801300185B412018A2F540
:10055000001747EB030140EAD570B6196D4111E071
:100560006D084FEA360645EAC0754FEA0752001B90
:1005700061EB0201001C41F5801149084FEA30008F
:100580000019514132462B4603B0BDE8F04F00F050
:100590004DB90098012240000023D0EB020263EB2A
:1005A000E073009821464FEAE074B8EB000061EB7D
:1005B0000401E9E783F000435BE781F0004158E77D
:1005C0002DE9FE4F81EA030404F0004421F00041CC
:1005D00000944FF0000B23F0004350EA01045ED07A
:1005E00052EA03045BD0C3F30A54C1F30A552C4406
:1005F000A4F2F3340194A0FB0254C1F3130141F4BB
:100600008011C3F3130343F4801301FB024400FB86
:10061000034E840A970A44EA815447EA8357A4FBAD
:10062000076802958D0A05FB07854FEA932C04FBAA
:100630000C542705029D4FEA065847EA1637B5EBDA
:1006400008056EEB070C870E920E47EA811742EA07
:100650008312A7FB0201B6EB0B0164EB00042B0D28
:1006600043EA0C335E1844EB1C50DA465146E7FB74
:100670000201C5F313044FEA0B3343EA14534FEA64
:100680000432019C43EA0603A4F10C040294009C8A
:10069000CDE900B400F0D9F803B0BDE8F08F002038
:1006A0000146F9E72DE9F04D81EA030404F0004B1F
:1006B00021F0004514464FF0000A23F0004150EAB3
:1006C000050220D054EA01021DD0C5F30A570246A4
:1006D000C5F31303C1F31300C1F30A5640F48015A8
:1006E00043F48013A7EB0608101BD64608F2FD382A
:1006F00073EB050002D308F1010801E092185B4199
:10070000B8F1000F03DA00200146BDE8F08D0020AB
:100710004FF48011064684460EE0171B73EB050765
:1007200005D3121B63EB050306434CEA010C490891
:100730004FEA300092185B4150EA0107EDD152EACE
:10074000030012D082EA040083EA0501084305D0C1
:10075000101BAB4106D20122002306E000224FF01D
:10076000004302E06FF0010253101AEB06004CEB5D
:10077000085110EB0A0041EB0B01BDE8F04D00F011
:1007800055B8C1F30A52C1F3130140F2FF3341F4EB
:1007900080119A4202DA00200146704740F233434A
:1007A0009A42A2F2334202DC5242FFF752BEFFF7F6
:1007B00041BE000030B5041E71F1000404DB4FF0AF
:1007C0000044404264EB0101141E73F1000405DB98
:1007D0001C464FF00043524263EB0403994208BFAA
:1007E000904230BD064C074D06E0E06840F0010342
:1007F00094E8070098471034AC42F6D3FFF7C8FCE2
:1008000010FF000830FF0008202A06DBCB17203A33
:1008100041FA02F043EAE07306E041FA02F3D04005
:10082000C2F12002914008431946704710B5141ECA
:1008300073F1000408DA401C41F1000192185B4199
:100840001A4301D120F0010010BD2DE9F04D924670
:100850009B4611B1B1FA81F202E0B0FA80F2203287
:100860009046FFF7E7FD04460F4640EA0A0041EADA
:100870000B0153465A46084313D0114653EA010070
:1008800019D0C8F140025046FFF7E3FD05460E4679
:10089000504659464246FFF7CDFD084305D001209A
:1008A00004E020463946BDE8F08D0020054346EAC5
:1008B000E0762C4337430A986305E40AA0EB08006E
:1008C0000022FD0A44EA47540A3002D500200146BE
:1008D000E9E7010510196941DDE908450019694199
:1008E000BDE8F04DA2E7704770477047704770470A
:1008F000704770477047FEE7704700002DE9F041F0
:1009000001F058FC104C6669104DF0074FF00107DC
:1009100008D0676168680068002803DB28687030C9
:100920000BF036FA700608D5E06920F04000E0616F
:100930002868476706480BF02BFA4FF48030606157
:10094000BDE8F04101F042BC00900240F000002000
:10095000CC0000202DE9F041044621B14FF40060A5
:10096000E060C000A060E0690025002861D0284652
:100970002368402619683A4A1140D4E902273A43CD
:10098000024342F4007008431860206807680120A1
:1009900000F086F820680760206846602068466896
:1009A000012000F07DF8206846602068856020689E
:1009B000C560216888694FF64172104040F08000A0
:1009C000886120688669012000F06AF820688661E5
:1009D0002068C5612068C569012000F061F82068C1
:1009E000C561226802F5805290691E4908401E497F
:1009F00001439161206800F580508569012000F075
:100A00004FF8206800F5805085612068174900F58F
:100A100080500160206800F580500568012000F0DA
:100A20003FF8206800F580500560A069012803D0D8
:100A300009E04FF480609BE7206800F58050C169B1
:100A40000B4A1143C16160690A4982880A640278CD
:100A5000D0F8010042EA00204864BDE8F0810000BF
:100A60000F8120FF233FDEF8040020028020C10216
:100A70004000010000800240704790F835100229C4
:100A800003D08021416501207047052180F8351091
:100A90000068016821F0010101600020704700003A
:100AA00070B5044600F0D6FA0546601C02D0044832
:100AB0000078044400F0CEFA401BA042FAD370BD87
:100AC000000000202DE9FC474FF000060400B1466D
:100AD000009603D094F8440018B107E00120BDE867
:100AE000FC8784F84560204600F0E2F8664801681B
:100AF00041F480410160006800F480400190634847
:100B0000016821F4000101600168226A114301605B
:100B1000206800F58050016841F00101016000F09B
:100B200099FA05464FF4FA7709E000BF00F092FA0F
:100B3000401BB84203D9032004F8440F67E0206843
:100B400000F580500068C007F0D12068006920F0EF
:100B50001C0500F0B9FB4E494E4A0144914202D2B5
:100B600045F0080516E04C494C4A0144914202D236
:100B700045F00C050EE04A494A4A0144914209D326
:100B8000494908444949884202D245F0040501E038
:100B900045F01005206805614FF400420021204611
:100BA00000F034F90125A8BBFF20FFF779FF60684A
:100BB00088B300F04FFA804641F288376A46012137
:100BC000204600F0E1F800F045FAA0EB0800B8423A
:100BD00017D800984007F1D54FF4805200212046E5
:100BE00000F014F9B0B900F035FA80466A460121E8
:100BF000204600F0C9F800F02DFAA0EB0800B8423A
:100C00000AD901212046FFF7A5FE04F8445F03201E
:100C1000667064E724E018E000988006E6D56A462E
:100C20001F21204600F0B0F8D0B90098C10603D5C6
:100C30004FF40061E16000E0E660400701D5A66086
:100C400019E04FF48040A06015E0E068A168C0089A
:100C500040EA510082B20021204600F0D7F830B1BE
:100C600001212046FFF776FE84F8445036E740F62F
:100C7000FF70FFF715FF49462046FFF76BFE84F82B
:100C8000445000202BE70000443802400438014063
:100C900000D3CEFEC0E1E40040F1E9FD40787D01E3
:100CA00000796CFC005A6202001F0AFA80F0FA0216
:100CB000F0B587B0044614216846FFF758FB2D496C
:100CC0002068884253D12C480024016841F000710B
:100CD0000160016801F000710591016841F08061D7
:100CE0000160016801F080610591016841F00061D7
:100CF0000160016801F000610591016841F00401A3
:100D00000160016801F004010591016841F00101F1
:100D10000160016801F001010591016841F04001A5
:100D200001600068022500F0400005903220CDE906
:100D3000000502AA03260B2782E8D00069460F4867
:100D400000F0A0F88620CDE9000502AA694682E8F5
:100D5000D0000B4800F096F84FF4D040CDE90005E4
:100D600002AA694682E8D000064800F08BF807B076
:100D7000F0BD000000800240303802400008024010
:100D800000000240001802402DE9F047044690F8A8
:100D90004400914682281DD0822084F844002268B5
:100DA00010694FF6FF7500F01C03208A05EAC02089
:100DB00018434FF4F86303EA8111014321F0020064
:100DC00040F00105156100F045F9064601274FF492
:100DD000803810E00220BDE8F08700BF00F03AF94B
:100DE000801B404505D304F8447F00206070032039
:100DF000F1E720680569E807F0D12068406981B211
:100E0000C9F8001084F844700020E4E72DE9F041AF
:100E1000044690F8440042281ED0422084F8440042
:100E2000236818694FF6FF7600F01C05208A06EA51
:100E3000C02028434FF4F86505EA8111014390B2C0
:100E400041F0030558612068056100F003F906468A
:100E500001274FF4803810E00220BDE8F08100BF88
:100E600000F0F8F8801B404505D304F8447F0020CB
:100E700060700320F1E720680569E807F0D184F885
:100E80004470EAE72DE9F84F00224FF001080325EE
:100E90004FF00F0E0B6808FA02F42340A3426ED104
:100EA0004E68012E05D0022E03D0112E01D0122E35
:100EB00012D186684FEA420C05FA0CF7BE43CF68A0
:100EC00007FA0CF7374387604668A6430C79C4F3EA
:100ED0000014944034434460C668570005FA07FC88
:100EE0008C6826EA0C06BC403443C4604C68022C73
:100EF00001D0122C13D1D40800EB8404A346D4F8FB
:100F0000209054074FEAD46A0EFA0AF629EA060935
:100F10000E6906FA0AF646EA0906CBF8206006686A
:100F20000C7926EA0C0604F00304BC403443046048
:100F30004C68E40065D5364C266846F48046266049
:100F4000246822F0030604F480440094314C3444B5
:100F5000A446D4F808489607370F0EFA07F6B443AC
:100F60002D4EB04201D1002624E02C4EB04201D1DA
:100F700001261FE02A4EB04202D102261AE040E0CC
:100F8000284EB04201D1032614E0274EB04201D1D1
:100F900004260FE0254EB04201D105260AE0244E7A
:100FA000B04201D1062605E0224EB04201D107260B
:100FB00000E00826BE402643CCF808681E4E346880
:100FC0004F689C43FF0300D51C4334601A4C241D1A
:100FD00026684F689E43BF0300D51E432660164E09
:100FE000083634684F689C43FF0200D51C433460C8
:100FF000114E0C3634684F689C43BF0200D51C4329
:101000003460521C102AFFF445AFBDE8F88F000091
:101010004438024000300140000002400004024019
:1010200000080240000C0240001002400014024080
:1010300000180240001C0240003C0140426931EAB5
:10104000020200D10904816170470AB181617047D1
:101050000904FBE701488068704700000000002099
:1010600002488168027811448160704700000020C6
:101070000B4810B5016841F400710160016841F44A
:1010800080610160016841F480710160032000F01B
:101090006FF8002000F006F800F024F8002010BDE2
:1010A000003C024070B50D4D04464FF47A7128782B
:1010B000B1FBF0F00A490968B1FBF0F000F0FAFB6F
:1010C00048B9102C07D200222146501E00F030F8FB
:1010D00000206C6070BD012070BD00000000002089
:1010E0000C0000200A4808B5016841F48041016005
:1010F000006800F4804000900548001F016841F03E
:1011000080510160006800F08050009008BD000030
:1011100044380240002809DB00F01F020121914001
:101120004009800000F1E020C0F800117047000085
:10113000F0B40E4B1B680C46C3F30223C3F1070542
:10114000042D00D90425191D072901D2002300E030
:10115000DB1E012606FA05F1491E214099409E40FA
:10116000761E16403143F0BC02F042BC0CED00E0AC
:10117000064900F0070208684FF6FF03184040EAEE
:101180000220034A10430860704700000CED00E0A5
:101190000000FA052DE9F0470E46050065D0DFF89E
:1011A0001481D8F80000F7B200F00F00B04207D267
:1011B00088F80070D8F8000000F00F00B04254D159
:1011C00028683D4C810712D5400703D5206840F4BC
:1011D000E05020602878000703D5206840F4604084
:1011E00020602068A96820F0F0000843206028787B
:1011F000C0072DD0304968680839012812D002286C
:1012000013D0032811D00968890700292DDA216835
:1012100021F0030101432160FFF71CFF814641F2E9
:10122000883A0EE009688903EFE709688901ECE76D
:10123000FFF710FFA0EB0901514502D90320BDE8DB
:10124000F0872068696800F00C00B0EB810FEFD1E7
:10125000D8F80010404601F00F01B14207D90770DD
:10126000006800F00F00B04201D00120E7E72878C5
:10127000400705D52068E96820F4E0500843206065
:101280002878000706D52068296920F4604040EAE4
:10129000C100206000F03EF82168084AC1F3031144
:1012A000515CC8400649086006480068FFF7FAFE2E
:1012B0000020C4E7003C02400838024082F00008E9
:1012C0000C00002004000020014800687047000066
:1012D0000C0000200448054900680968044AC1F36D
:1012E0008221515CC84070470C0000200838024041
:1012F00092F000080448054900680968044AC1F3EF
:101300004231515CC84070470C0000200838024050
:1013100092F00008154810B5006810F00C0214484F
:1013200013D01449042A0FD0082A0ED10F4C241FC1
:101330002268236802F03F025B0207D52068C0F3F1
:101340008810A0FB010106E0084610BD2168C1F32A
:101350008811A1FB00010023FEF7A0FF2168C1F363
:101360000141491C4900B0FBF1F010BD08380240B2
:101370000024F40040787D012DE9F84F040076D078
:101380002078DFF838A3CE4DC00749D0DAF8001036
:101390005046C1F38101012908D00068C0F38100E3
:1013A00002280AD1281D0068400206D5286880035B
:1013B00036D560680028E2D032E06068B0F5803F42
:1013C00010D0B0F5A02F286810D020F4803028600D
:1013D000286820F4802028606068A0B1FFF73AFEFA
:1013E00006460CE0286840F48030F4E740F48020A2
:1013F0002860F7E7FFF72EFE801B642873D8286863
:101400008003F7D50CE0FFF725FE064605E000BF98
:10141000FFF720FE801B6428F0D828688003F7D4EB
:101420002078DFF8A08280074FF000093ED5DAF877
:101430000010504611F00C0F09D00068C0F3810075
:1014400002280BD19D48001F0068400206D428687E
:10145000800715D5E068012809D111E0E068B8B12E
:101460000120C8F80000FFF7F5FD064605E020E181
:10147000FFF7F0FD801B0228C0D828688007F7D549
:101480002868216920F0F80040EAC10028600DE0DA
:10149000C8F80090FFF7DEFD064604E0FFF7DAFD2E
:1014A000801B02281FD828688007F7D420780007FF
:1014B00022D5824E844861696C3671B10121016088
:1014C000FFF7C8FD074604E0FFF7C4FDC01B022874
:1014D00009D830688007F7D50EE0C0F80090FFF714
:1014E000B9FD074605E082E0FFF7B4FDC01B022806
:1014F0007DD830688007F7D42078400768D5DFF8BA
:10150000BCB100270BF1380BDBF80000C0000BD496
:10151000DBF8001041F08051CBF80010DBF8000040
:10152000012700F080500090684E3068C00510D44C
:10153000306840F480703060FFF78CFD009005E06B
:10154000FFF788FD0099401A022850D83068C0057E
:10155000F6D55A4EA068683601280FD005283068A5
:1015600010D020F001003060306820F004003060BE
:10157000A068B8B1FFF76EFD00900FE0306840F052
:101580000100F4E740F004003060F7E7FFF762FD88
:101590000099411A41F28830814266D8306880074C
:1015A000F4D50EE0FFF756FD009007E0FFF752FD7F
:1015B0000099411A41F28830814256D8306880073C
:1015C000F4D42FB1DBF8001021F08051CBF80010DB
:1015D000A069D0B3DAF800205146C2F38102022A92
:1015E0004AD00228484607D0C8F8600000E03CE036
:1015F000FFF730FD04463BE04746C8F86000FFF7C0
:1016000029FD064605E000BFFFF724FD801B0228E8
:101610002BD828688001F7D4D4E907010843A16AD0
:101620002B4A490802EB0141626A41EA82110843F0
:1016300094F82C1040EA01612048001F016001204D
:101640003866FFF707FD044605E034E0FFF702FDCA
:10165000001B022809D828688001F7D52BE000BFBD
:10166000FFF7F8FC001B022802D90320BDE8F88F21
:1016700028688001F4D41EE00128F7D00868E269E8
:1016800000F48001914214D1226A00F03F0191429E
:101690000FD147F6C071626A0140914209D1A26A36
:1016A00000F44031914204D1E16A00F07060884258
:1016B00001D00120DAE70020D8E700000838024016
:1016C0000038024000004742800E47420070004050
:1016D0000000FFFF2DE9F0470446007900278A4605
:1016E00001280ED00125257160794FF000090128ED
:1016F00009D00420A060012784F804903846BDE892
:10170000F0870220FBE74FF0020884F80580FFF71E
:10171000A1FC06460CE000BFFFF79CFC801B0228E2
:1017200006D96571C4F8088084F804900120E6E7C2
:1017300020684068C043C007EED120688068E06040
:10174000CAF800006571D7E770B5040003D060796E
:10175000002510B105E0012070BD2571204600F084
:101760000DF8022060712068016841F004010160F9
:1017700001206071A560002070BD000008B5006800
:101780000649884208D10648016841F040010160DD
:10179000006800F04000009008BD000000080650FE
:1017A0003438024070B5040005D00025A56294F8D5
:1017B000510010B106E0012070BD84F85050204661
:1017C00000F030F8022084F851002068016821F010
:1017D00040010160D4E901010843D4E90312114337
:1017E000084361690843218B01F400710843E169F2
:1017F0000843216A0843A16A084321680860A06978
:10180000042101EA1040616A0843216848602068A9
:10181000C16921F40061C1616565012084F851004E
:10182000002070BDF0B587B0044614216846FEF76D
:101830009EFD1C492068884232D11B480024016863
:1018400041F480510160006800F480500590164812
:101850001438016841F001010160016801F00101E3
:101860000591016841F0020101600068022500F065
:10187000020005906020CDE9000502AA0326052795
:1018800082E8D00069460948FFF7FCFA2020CDE93C
:10189000000502AA694682E8D0000548FFF7F2FA7F
:1018A00007B0F0BD00300140443802400000024063
:1018B0000004024010B5401EB0F1807F01D301202A
:1018C00010BD4FF0E02460610F21601702F090F826
:1018D0000020A06107202061002010BD704700009B
:1018E00070B5026804461068D168536910F00F0F94
:1018F00052D003F0010501F490762E435FD0C20769
:1019000005D0CA0503D5E26B42F00102E26342074B
:1019100005D5DA0703D0E26B42F00202E2638207E8
:1019200005D5DA0703D0E26B42F00402E263020756
:1019300007D501F020022A4303D0E26B42F00802EF
:10194000E263E26B002A33D0800604D5880602D514
:10195000204601F06DFE20684069E16BC0F3801005
:10196000090700D428B3204601F054FE20684169DD
:1019700049061AD5416921F040014161606BA0B16F
:101980001B490165606BFFF778F8002810D0606B89
:10199000016DBDE870400847830610D58B060ED553
:1019A0002046BDE8704001F043BE2046FFF796FF99
:1019B00070BD2046FFF792FF0020E06370BD030674
:1019C00006D50B0604D52046BDE8704001F010BFD7
:1019D0004006F3D54806F1D5D168204621F04001F4
:1019E000D160202184F8391000F075F870BD000036
:1019F0000536000870B5040004D094F839000025BD
:101A000010B106E0012070BD84F83850204600F087
:101A100023F8242084F839002068C16821F400519B
:101A2000C160204601F050FE2068016921F4904118
:101A300001612068416921F02A0141612068C16883
:101A400041F40051C160E563202084F8390084F836
:101A50003A00002070BD000010B586B00446142185
:101A60006846FEF784FC18492068884229D1174847
:101A7000016841F010010160006800F0100005905D
:101A800012481438016841F001010160006869469C
:101A900000F0010005904FF4C0600090022001901A
:101AA0000120029003200390072004900848FFF7CC
:101AB000E9F9002211462520FFF73AFB2520FFF720
:101AC00029FB06B010BD0000001001404438024060
:101AD0000000024070477047FEE70000124810B552
:101AE00010490160012141600021018242691170A9
:101AF000436980225A704369E1229A704269D17029
:101B000042691171426951718161C1614FF40001F3
:101B10000162FEF7D7FF002803D0BDE81040FEF7B2
:101B2000ABBF10BD008002400C010020F0B587B0B3
:101B300014216846FEF71BFC29480024016841F087
:101B400020010160016801F020010591016841F068
:101B500004010160016801F004010591016841F090
:101B600001010160016801F001010591016841F086
:101B700008010160016801F008010591016841F068
:101B800040010160016801F040010591016841F0E8
:101B9000020101600068134E00F002004FF4C065BE
:101BA0000590002229463046FFF74FFA0E4F0022DB
:101BB00008213846FFF749FA00950125CDE901547F
:101BC000694630460394FFF75DF908200090CDE99F
:101BD0000154694638460394FFF754F907B0F0BD45
:101BE0003038024000140240000C0240074910B592
:101BF000054808600846FFF7A7FD002803D0BDE8A8
:101C00001040FEF739BF10BD0008065054010020F7
:101C10000F4810B50D4901604FF4827141600021F9
:101C20008160C1604FF400720161C0E90512C161B9
:101C30000162416281620A21C162FFF7B3FD00289F
:101C400003D0BDE81040FEF717BF10BD00300140C3
:101C5000640100200C4810B50A4901604FF4E131DD
:101C60004160002181600C22C160C0E904128161E1
:101C7000C161FFF7BFFE002803D0BDE81040FEF7AA
:101C8000FBBE10BD00100140BC010020FEE7704704
:101C900070B505460D480E461446807808B11220EE
:101CA00009E02878012808D0022806D0032804D0AB
:101CB000042802D00120107070BDFEF797FA6E6103
:101CC000FEF798FA0020207070BD00001800002078
:101CD0002DE9F041064600780D461F4614460528BA
:101CE00004D0012018700020BDE8F08114F08000BD
:101CF00002D022F080040120804600203870FEF7D8
:101D000075FA0246702104B3012C24D0022C08D0AD
:101D1000032C12D0FEF76EFA00246F203870204694
:101D2000E2E7B06800EA0504AC420AD01DE0A04337
:101D300019E01046FEF75EFAF1E7B06810EA050414
:101D400013D0B8F1000FF4D0F1E7B06825EA000431
:101D5000AC4204D009E0B06835EA000405D0B8F11F
:101D6000000FE6D02043B060E3E73970E1E7000000
:101D700070B506460F480D46007818B1102008705F
:101D8000002070BDFEF732FA0B490C6864B162683E
:101D90000A6005212170A660002608A16660E16046
:101DA000FEF728FA2E7003E0FEF724FA722028705E
:101DB000204670BD1A000020540000203F000000A3
:101DC0002DE9F05F04462B4888461546007808B197
:101DD0000F2003E02078052802D0012010701AE0BF
:101DE000FEF704FA666881460EB1012700E000277D
:101DF000DFF884A04FF0000BB8F1000F06D0B8F167
:101E0000010F20D0FEF7F6F9072003E037B1FEF707
:101E1000F1F9492028702046BDE8F09F17A0E06046
:101E200084F800B0DAF80010C4E9011B5E464846A9
:101E3000CAF80040FEF7DEF918E002220021304621
:101E400001F006F93668002EF7D10CA0E06084F8A6
:101E500000B0DAF80010C4E9011B5E464846CAF833
:101E60000040FEF7C7F90FB101F0ECF92E70002029
:101E7000D2E700001A000020540000203F000000BC
:101E80002DE9F04F044658488BB09A460078149DCF
:101E900091460F4608B1022095E05448007808B1F9
:101EA0000D2090E02078052801D001208BE019F06A
:101EB000800F03D009F07F09012600E00026FEF71D
:101EC00095F902905FEA09004FF0000B23D001283A
:101ED00037D0022808D0B9F1030F10D00298FEF7CE
:101EE00089F900206F215CE0A06800EA0708B84586
:101EF0000BD02CE03E490968C1F82C8018E0A0689E
:101F000000EA07015FEA010821D0002EF2D020EAA2
:101F10000800A060EEE7A16827EA0108B84516D1DD
:101F200016B141EA0801A16031480068C0F82C8070
:101F30000298FEF75FF985F800B040460BB0BDE8A7
:101F4000F08FA16827EA01005FEA0008E8D14B465C
:101F50003A4603A92046CDF800A001F023F80298E4
:101F6000FEF748F901F06EF9FEF740F9204F82467E
:101F7000386890F83580B8F1000F14D080F835B08B
:101F80005C4603A801F08CF8386880F8344050466D
:101F9000FEF730F90020B8F1020F01D00A2100E06D
:101FA0000E212970CAE7C76AB6B15FEA090010D0EE
:101FB00001280ED0022809D0B9F1030F06D05046EF
:101FC000FEF718F96F2028700020B7E7A068B84323
:101FD00001E0A0683843A0605046FEF70BF985F891
:101FE00000B03846AAE700001A0000201B000020BD
:101FF000380000202DE9F0410446007816460D46D1
:102000001F46052802D0012018701FE0FEF7EEF8E9
:1020100080462EB1012E06D0FEF7ECF8712014E0B8
:10202000A068A84301E0A0682843A0600026656876
:102030002CE0287DB8B101281CD0022809D0032843
:102040000DD04046FEF7D6F86F2038700020BDE86E
:10205000F081A1682869014088420FD015E0A1688D
:102060002869014009E02869A16820EA0101884245
:1020700004D00AE02969A068814331B100222846D2
:1020800000F0E6FF012800D101262D68002DD0D1F7
:102090004046FEF7AFF8012E01D101F0D3F8FEF76C
:1020A000A5F8A468FEF7A6F8002038702046CEE711
:1020B00070B586B000F068F801F02EF824480024CE
:1020C0002146847100F134025454491CC9B20829D4
:1020D000FAD3047144718462046201F02DF800F0B7
:1020E000EFFF00F091FF01F067F801F08BF8802618
:1020F0001848CDE901064FF6FF70009003253F23F5
:10210000154A00211548CDE9034500F00DFA05AA4E
:1021100013A13F2000F0FCFA1548CDE901064FF667
:10212000FE700C4A00903E23121F00211148CDE999
:10213000034500F0F9F905AA0FA13E2000F0E8FAE6
:1021400000F05AFD06B0BDE8704000F031B8000064
:1021500018000020DC070020D8090020A133000867
:1021600075432F4F532D49492049646C6500000089
:10217000DC050020D533000875432F4F532D494906
:10218000205374617400000006498020002204C1BD
:10219000401EFCD10448054920F0070048600A8031
:1021A00070470000FC010020FC030020100000200C
:1021B000704700000449C879012804D18878FF28B5
:1021C00001D2401C887070471800002070B5144C74
:1021D000E079012822D1FEF709F80546A07820B160
:1021E000401E10F0FF00A07013D1E07888B901F014
:1021F0004DF80C48617950F82100A0622279914293
:1022000007D0C16B491CC163E068401CE060FEF769
:102210000DF82846BDE87040FDF7ECBF70BD00002A
:1022200018000020DC0900202DE9F04107461B487A
:102230008846007810B10020BDE8F081FDF7D6FF98
:10224000174E34680CB161683160FDF7D3FF14B3E9
:10225000FDF7CCFF13490D68BDB12A680A60FDF790
:10226000C9FF07EB8800C5E90170EF602F61A5F891
:1022700014800020E8820221217020810AA065607C
:102280006061204600F084FE05E0316861603460E2
:10229000FDF7B0FF00242046CEE700001A00002022
:1022A000280000205C0000203F00000010B5094C11
:1022B000E07901280CD1FDF799FFA17821B9E178E7
:1022C000FF2901D2491CE170BDE81040FDF792BF23
:1022D00010BD00001800002010B50D4CE079012859
:1022E00014D1FDF783FFA17831B9E17821B1491EFE
:1022F00011F0FF01E17003D0BDE81040FDF77ABF97
:10230000FDF778FFBDE8104000F09CBF10BD000055
:102310001800002070B505460D48007808B100206F
:1023200070BDFDF763FF0B490C680CB162680A6071
:10233000FDF760FF4CB10320207025810020606014
:1023400005A06061204600F023FE204670BD00001D
:102350001A000020280000203F0000002DE9F0476F
:102360000646007889461546032801D0012008E07A
:102370002648007808B1022003E02548007818B10B
:102380000D201070BDE8F087FDF730FF074630895B
:10239000002430B1401E30813846FDF72BFF2C70F1
:1023A000F0E7DFF87080D8F8000010F8341F41F033
:1023B00001010170447040F8049C304600F0C4FDF7
:1023C0003846FDF717FF00F03DFFFDF70FFF07460A
:1023D000D8F8000090F8351031B1022906D0314606
:1023E00000F08CFD0A2002E02C7001E00E20287025
:1023F000D8F8000080F8344080F8354040F81C4F91
:1024000044603846BDE8F047FDF7F4BE1A000020EE
:102410001B0000203800002070B504460078032817
:1024200001D0012070BDFDF7E1FE0546A07A58B14C
:10243000002301221946204600F028FD2846FDF71A
:10244000D9FE00F0FFFE09E020894FF6FF718842B7
:1024500006D2401C20812846FDF7CCFE002070BD2E
:102460002846FDF7C7FE332070BD000010B5094CAB
:10247000E07900280CD100F009FF6079064920714D
:1024800051F82000A0622062BDE81040FDF7B5BE03
:1024900010BD000018000020DC090020FEF723BA60
:1024A0002DE9FE431C4615460F468046FDF79EFE6D
:1024B0001A49097821B1FDF79DFE3C20BDE8FE8355
:1024C000174E56F8241019B1FDF794FE2820F5E7B1
:1024D000012146F82410FDF78DFE00232A463946D7
:1024E000404600F07DF900250146009501952B46F8
:1024F0002A462046029500F0D9FE070007D0FDF7D6
:1025000075FE46F82450FDF775FE3846D6E70548B7
:1025100000780128F9D100F095FEF6E71A000020B6
:10252000DC0900201F0000202DE9FF4F83B01C466E
:10253000DDE91386DDE9119792468B46FDF756FEDD
:102540001D49097829B1FDF755FE3C2007B0BDE8CB
:10255000F08F1A4D55F8241019B1FDF74BFE2820C5
:10256000F4E7012145F82410FDF744FE32463946D0
:10257000484600F07FFF334652465946039800F024
:102580002FF90097CDE9018601464A462046109B67
:1025900000F08CFE060008D0FDF728FE002145F86B
:1025A0002410FDF727FE3046D0E7054800780128C3
:1025B000F9D100F047FEF6E71A000020DC09002000
:1025C0001F000020FEF790B92DE9F047064643486A
:1025D000007810B14020BDE8F0873F2E05D0FDF710
:1025E00005FE0746FF2E02D005E03E20F3E73C48FB
:1025F000006890F83660DFF8EC9059F826405CB13E
:10260000012C0ED094F83820374994F83930885C82
:10261000984388540AD00FE03846FDF7EBFD43207D
:10262000D9E73846FDF7E6FD3D20D4E72F4894F87A
:102630003A20017891430170E16911B1204600F020
:102640005DFC216A11B1204600F06AFCA06A08B165
:1026500000F026FD4FF00008C4F83080244D84F8C7
:10266000348084F835802878FF2801D2401C2870F7
:102670003846FDF7BFFD00F007FCFDF7B7FD074644
:10268000287808B1401E2870204600F03DF819490E
:102690000878401E087049F82680A169404691B12B
:1026A00060694861D4E9050181611348016861618D
:1026B000046012A020653846FDF79CFD10480078A4
:1026C000012806D007E0616988610E4960690860E9
:1026D000EBE700F0B7FD00207DE700001A000020C6
:1026E00038000020DC0900204C0000201E000020E3
:1026F0001B000020200000203C0000203F000000C4
:102700001F00002044000020FEF7EFB8FEF7EEB8EF
:1027100070B5054611480E461446007810B11220D7
:10272000107070BDFDF762FD0146FF2D03D10C480E
:10273000006890F836500B4850F82500432540B10A
:10274000012806D006650846FDF754FD00202070DC
:1027500070BD0846FDF74EFD257070BD1A000020C3
:1027600038000020DC090020FEF7C1B8FEF7C0B831
:102770002DE9F0410446002008600D464860FDF751
:1027800035FD0146FF2C03D11348006890F8364010
:10279000124850F8240058B1012809D0027CD20711
:1027A0000CD0D0E9027600240846FDF723FD0BE0AB
:1027B0000846FDF71FFD4320BDE8F0810846FDF700
:1027C00019FD4520F8E7641C01CF0028FBD0301B21
:1027D000C5E900400020EFE738000020DC090020B8
:1027E00010B5121D22F007024FF0807442E9020476
:1027F0004C4CA2F10C004FF0123240E901244FF092
:10280000033240F8082C4FF0023240F80C2C5210E2
:1028100040E905124FF0113140F8181C110140F841
:102820001C1C4FF0093140F8201CD10040F8241C3A
:102830004FF0073140F8281C4FF0063140F82C1CAF
:102840004FF0053140F8301D910040F8041D590744
:1028500067D55106021F1160A0F10801324A0A60D3
:10286000091F324A0A60091F314A0A60091F314AAA
:102870000A60091F304A0A60091F304A0A60091FAE
:102880002F4A0A60091F2F4A0A60091F2E4A0A6050
:10289000091F2E4A0A60091F2D4A0A60091F2D4A86
:1028A0000A60091F2C4A0A60091F2C4A0A60091F86
:1028B0002B4A0A60091F4FF083420A60091F294A08
:1028C0000A60091F284A0A60091F284A0A60091F6E
:1028D000274A0A60091F274A0A60091F264A0A6018
:1028E000091F264A0A60091F4FF082420A60091F29
:1028F000234A0A60091F234A0A60091F224A0A6004
:10290000091F4FF081420A60091F204A0A60091F0F
:1029100012020A60091F4FF07E520A60002140F83F
:10292000841D10BDBD3300080000F8410000F041D7
:102930000000E8410000E0410000D8410000D04123
:102940000000C8410000C0410000B8410000B04193
:102950000000A8410000A041000098410000904103
:1029600000008841000070410000604100005041BB
:1029700000004041000030410000204100001041B3
:102980000000E0400000C0400000A04000004040C7
:1029900070B50446FDF72AFC03461D48FF2C00686D
:1029A00005D090F83600A04204D1012503E090F84C
:1029B0003640FAE70025174850F8240058B101289E
:1029C0000ED090F83820144C90F83960A15CB143D7
:1029D000A1540AD00FE01846FDF70CFC482070BD4A
:1029E0001846FDF707FC432070BD0C4990F83A40AB
:1029F0000A78A2430A7010F8341F41F008010170F0
:102A00001846FDF7F7FB0DB100F01CFC002070BD6F
:102A100038000020DC0900204C0000201E000020AF
:102A20000A4810B50068017C490702D50068FDF727
:102A3000C7FB07480068017C490702D50068FDF71D
:102A4000CCFBBDE81040FDF754BF0000380000206B
:102A50004000002070B5044613480078002821D1BA
:102A60001248007800281DD1002C1BD0FDF7BEFBBA
:102A700003460F480F4D016891F8380091F839600E
:102A80002A5CB2432A5405D10B4891F83A50027897
:102A9000AA43027018460C63FDF7ACFBBDE870401A
:102AA00000F0D0BB70BD00001A0000201B00002009
:102AB000380000204C0000201E00002010B5114CF2
:102AC00024780CB1552010BD0F4C24780CB1322065
:102AD00010BD4FF47A746343B3FBF4F34FF46164B5
:102AE00010FB04F0C1EB011100EB8100104400EB7E
:102AF0004001C1EBC01003EBC000FFF7ABFF0020AB
:102B000010BD00001A0000201B00002010B5FDF7CA
:102B10006DFB03490C68FDF76DFB204610BD0000FE
:102B2000480000202DE9F04100F04CF8FDF75EFB75
:102B3000234D296B491C2963FDF75CFBE8790128CB
:102B40003BD1687A0126002720B1012835D0022820
:102B500002D06F72EC6A2CE06E72FBE7FDF746FB69
:102B6000216B19B3491E216320D194F8341011F060
:102B7000370F06D001F0C80184F8341084F83560AE
:102B800001E084F8357094F8341009070ED494F8F5
:102B90003A10AA791143A971094994F838203431BF
:102BA00094F839C08B5C43EA0C038B546469FDF7DD
:102BB00021FB94F836003F28D0D1BDE8F081000019
:102BC0001800002010B5FDF795FE07480188491C44
:102BD00089B20180642905D300210180BDE810403D
:102BE00000F004B810BD000010000020014800688B
:102BF000FFF712BC6C00002070B588B04FF4207154
:102C00002E4800F0CFFA38212D4800F0CBFA0020F2
:102C10002A4904466423421C00EB8000154601EB60
:102C2000C00092B202EB8202037001EBC20280F894
:102C30002540C26023A20262A8B20F28EBD300EBAA
:102C4000800001EBC0001FA2037080F82540C46023
:102C500002621D481E4A04601C4804801020108037
:102C60001C4801600120FFF755FB1B4D2860002028
:102C7000FFF750FB194E05AA19A130602868FFF72D
:102C800007F805AA1BA13068FFF702F8802102911E
:102C90000320CDE903401C4A4FF6FD70CDE9000248
:102CA0003D2302F5FE7200211848FFF73DFC06AAFD
:102CB00017A13D20FFF72CFD08B070BD9C1400202B
:102CC0001C1900203F00000064000020620000206A
:102CD0006000002070000020680000206C000020D0
:102CE00075432F4F532D494920546D724C6F636BC0
:102CF0000000000075432F4F532D494920546D7239
:102D00005369676E616C00001C170020712D00086C
:102D100075432F4F532D494920546D720000000018
:102D2000032280F82520104A0129126816D08169F3
:102D3000A1B111440722B1FBF2F3416102FB13116F
:102D40000A4A002302EBC1010A68086042B1C2606E
:102D500010618A88521C8A8003617047C169E8E764
:102D60000122C360F7E70000640000201C19002066
:102D700008B5DFF87080DFF870A01C4D4FF0070930
:102D80006A460021D8F80000FFF7E8FAFFF78EFA4C
:102D90002868401CB0FBF9F2286009FB12000227EA
:102DA0005AF8304013E060692968E66888420DD11E
:102DB000204600F01DF894F8240002280CD084F876
:102DC0002570626812B12046A16890473446002CF5
:102DD000E9D1FFF781FAD3E701212046FFF7A0FFF1
:102DE000EFE700006C0000201C19002064000020A8
:102DF00010B541690722B1FBF2F302FB13110C4A33
:102E0000002302EBC102C1681468844203D111603F
:102E100029B10B6103E00469E16001B10C6101219A
:102E200080F82510C36003619088401E908010BD1B
:102E30001C1900204FF0E021401E4861064802683E
:102E400022F07F420260086940F0050008610869CD
:102E500040F002000861704720ED00E010B5044624
:102E6000014605A00BF0E2FD4FF47A70B4FBF0F0E0
:102E7000BDE81040FFF7DEBF6370755F6672657175
:102E80003A25640D0A00000070470000F0B50546C1
:102E9000807A174C0027205C2E18F67AA45D04EB8C
:102EA000C004E6B2134C54F826402763616294F8DC
:102EB0003410914384F8341084F8353009070BD46A
:102EC0000D4994F83A208B791A438A71343194F879
:102ED00039300A5C1A430A542946204600F00EF89D
:102EE000216A19B1204600F01BF8E5613046F0BDBB
:102EF0009AF00008DC0900201800002010B590F8B6
:102F0000382090F839408B18DA7AA243DA7204D16B
:102F10008A7A90F83A309A438A720021C16110BDD2
:102F200070B510F8383F84784578086809E0C6180D
:102F3000F27AAA43F27202D1827AA243827251F8E3
:102F4000040F0028F3D170BD30B5104900F10B0219
:102F50000B6A43F81C0F1C7F5B7FA55C1D43A554C7
:102F60000A6A837A92F83A402343837292F83800CF
:102F700001F1340492F83950235CAB43235404D15B
:102F800092F83A2088799043887130BD180000206B
:102F90000022827211464318491CC9B2DA7208290C
:102FA000F9D37047F0B5154D059F2C6894F834603F
:102FB00046F0200684F83460002684F835602763E4
:102FC000A1620A610B758C604268C860C1E9002685
:102FD000426802B1516041602868094B90F838207E
:102FE00090F83940995CA143995405D190F83A2062
:102FF0000448017891430170F0BD000038000020C2
:103000004C0000201E00002010B550210D4800F09B
:10301000C9F800200B4A0346411C02EB00108CB299
:1030200002EB04140370446007A4C46088B204284F
:10303000F2D302EB001004A103704360C1600348A7
:10304000026010BD6C1200203F0000005400002000
:1030500010B5034680680024C0E90B1490F83410C2
:1030600011F0DF0180F8341080F8352004D01846C4
:1030700000F016F8204610BD074990F83A200C7869
:1030800022430A7010F8382F044940788C5C0443BE
:103090008C540124EBE700001E0000204C000020AF
:1030A000D0E9001200232AB1116001B14A608068A2
:1030B00083627047C26800295160F8D04B60F6E720
:1030C00010B54FF4F071114800F06CF800200F4972
:1030D0000346421C00EB400094B201EBC00004EB3D
:1030E000440401EBC4040370446009A4446190B239
:1030F0001328EED300EB400001EBC00004A20370E4
:10310000436042610348016110BD0000FC030020E0
:103110003F00000018000020064800210163817074
:10312000C1700172C171C160C16181614161417051
:10313000817270471800002010B54FF4F2611548F5
:1031400000F030F84FF48071134800F02BF8114A6A
:103150000020411C00EB400404EBC000CBB203EBA9
:10316000430402EBC00004EBC30302EBC30343615F
:103170000A4B0365C8B21528EBD300EB400101EB05
:10318000C00002EBC00000210365416104484262B7
:10319000C16210BDDC0A0020DC09002010310008EB
:1031A00018000020002203E0491E00F8012B89B21C
:1031B0000029F9D17047000010B54FF4C0710E48D6
:1031C000FFF7F0FF0C49002000EB400201EBC202C8
:1031D00002F118035360401C08A380B253610F280A
:1031E000F2D300EB400001EBC0000022426003A2DA
:1031F00042610348016010BDBC1200203F00000086
:103200005800002010B560210C48FFF7CBFF0B4A97
:103210000020411C8BB200EB400003EB430302EBA8
:10322000C30342F8303088B20328F2D300EB4000E9
:10323000002142F830100248026010BD3C1400200A
:103240005C00002070B5FCF7D1FF0E4C0546A0785D
:1032500098B9E07888B900F019F80B49607951F80D
:103260002010A1622279904207D0C86B401CC8632D
:10327000E068401CE060FCF7D4FF2846BDE87040E1
:10328000FCF7B8BF18000020DC0900200649054AF9
:1032900001F134038879105C1B5CD25C02EBC00046
:1032A000487170479AF00008180000202DE9F05F7F
:1032B0009846DDE90ABA91460D460746FCF796FFA7
:1032C000344E746A002C60D061691C347162FCF762
:1032D00091FF44F81C5CA77600252576657665612C
:1032E00044F810BC44E906A90C9824F80C0C24F806
:1032F0000A8CE577FA08227707F00701012000FA27
:1033000002F2E176A2778840607725606560E5602B
:10331000A5602562A56265621FA0E562C4E90C5044
:1033200000201C3C04EB8001401C4D6510F0FF00A8
:10333000F8D02046FFF7B2F8FCF758FF174941F8DC
:103340002740FCF757FF2046FFF73CF9FCF74EFFFC
:103350000146F06AC4E9050500B18461F46294F89D
:103360003A00B2791043B0710A4814F8382F34305B
:103370006478835C23438354307A401C307208465F
:10338000FCF738FF0020BDE8F09FFCF733FF422038
:10339000F9E70000180000203F000000DC090020D1
:1033A000054C00BFFCF722FFE169491CE161FCF715
:1033B00021FFFFF7ABF9F5E718000020044810B52E
:1033C0000068FFF7D1F9BDE81040FF20FFF7FCB817
:1033D00038000020184C02E0C820FFF73BFB607863
:1033E0000028F9D0642160690025B0FBF1F060612C
:1033F00018B92570FF20FFF7CBFAFCF7F7FE6169DB
:1034000064225143E161FCF7F5FE00BFFCF7EEFEDC
:10341000E169C4E90615FCF7EDFED4E90510B0FB3F
:10342000F1F0C0F164002070FFF7A0F900F006F899
:103430006420FFF70FFBE9E7180000207CB50C4D76
:10344000002469462046FFF793F958B955F824003F
:1034500040B1012806D0D0E9021201EB820181645B
:103460000199C164641CE4B23F2CEAD97CBD000020
:10347000DC090020D30707D0920705D500220029D8
:1034800002D004C0491EFAE7704700002DE9F04160
:1034900007460B4815460E46007808B900F0E2F9D9
:1034A000EFF31184202080F311882A4631463846F4
:1034B00000F008F8E1B281F31188BDE8F081000066
:1034C0005419002070B50E46144900EB400001EB82
:1034D000C0051446E86A183520B101280FD002282B
:1034E00005D113E0284600F0F1F9A04201D20024F2
:1034F00011E022463146284600F020FA0BE028462B
:1035000000F0E4F9A042F4D20446F2E7314628463E
:1035100000F0E7F90446204670BD00005419002071
:1035200070B505460C460846FCF738FF02462146B2
:103530002846BDE87040FFF7A9BF704710B5FCF7FB
:1035400055FE074A1178491C1170FCF753FEFFF72E
:10355000E9FAFEF73BFEBDE81040FDF781BD000033
:103560001A00002030B593B030216846FCF7FFFE0A
:1035700014210CA8FCF7FBFE19480025016841F056
:1035800080510160006800F080501190154801687A
:1035900041F4804101600068022400F480401190F1
:1035A0000120039010200490009406940820CDE997
:1035B0000750A820CDE9090407200B906846FDF7C5
:1035C000DBFE0CA90F2081E831004FF4A0500F90D2
:1035D000E002109005210CA8FDF7DCFD13B030BD12
:1035E00040380240007000400548016841F4700115
:1035F000016003494FF000608039086070470000A7
:1036000088ED00E010B5806B0021C185C184FEF714
:1036100065F910BD0168CA6822F49072CA60016839
:103620004A6922F001024A61202180F83A1070476D
:1036300010B590F83A10222901D0022010BD8168FF
:10364000B1F5805F11D00169002901681FD0496878
:1036500001F07F03816A4A1C82620B70C18D491E92
:103660000904090CC18518D02BE00269816A002A7F
:103670000268526805D0D2B20A80816A491C816210
:10368000ECE7C2F308020A80816A891CF7E74A68FE
:10369000816A4B1C83620A70E0E70168CA6822F005
:1036A0002002CA600168CA6822F48072CA60016898
:1036B0004A6922F001024A61202180F83A10FEF79F
:1036C00009FA002010BD00002DE9F0410446006811
:1036D0000169E26821F44051114301612169A06848
:1036E000E26908436169114308432168CA6849F2E5
:1036F0000C639A430243CA6020684169A26921F4BD
:10370000407111434161E069192764253226B0F503
:10371000004F354A354920684FF0000806D08842EE
:1037200001D0904236D1FDF7E5FD35E0884201D069
:10373000904202D1FDF7DEFD01E0FDF7CBFD6168AF
:103740004A18A0FB070148EB0803FCF7A7FD014658
:10375000B0FBF5F00201B1FBF5F06FF01803584330
:1037600001EB800006EBC000B0FBF5F000F0F800C4
:1037700002EB4002B1FBF5F0584301EB800006EB91
:10378000C000B0FBF5F000F007002168104488602D
:10379000BDE8F081FDF79EFD61688B0F8A00A0FBFC
:1037A0000701FCF77BFD0146B0FBF5F06FF0180256
:1037B000504301EB800006EB0010B0FBF5F000F089
:1037C000F002B1FBF5F002EB0012B1FBF5F06FF087
:1037D0001803584301EB800006EB0010B0FBF5F036
:1037E00000F00F00D1E7000000140140001001407C
:1037F00090F83910212901D0022070478168B1F575
:10380000805F016A0BD04A1C02620268097851602D
:10381000C18C491E0904090CC1840ED017E0098827
:103820000268C1F30801516001690029016A02D0F0
:10383000491C0162ECE7891CFBE70168CA6822F0B9
:103840008002CA600068C16841F04001C160002088
:10385000704700000148FEF743B80000BC0100209B
:10386000FEE7000010B5124C03202061606111A03A
:10387000A06104F1A800E0614FF400602062002024
:10388000A06260620BA12166E06204F6A801616695
:1038900010212067C4E91A10606709A1E01DFCF738
:1038A00091FD08A12046FCF78DFD2020A07110BDE0
:1038B000541900205465726D696E616C000000003F
:1038C0005254540053454747455200000269C168AD
:1038D0008A4203D88068401A104400E0501A401E03
:1038E00070472DE9F047C4681746894606464FF0F1
:1038F00000083069A04201D9051B02E0B168201A16
:103900000D1AB0686D1E001BA84200D80546BD42C6
:1039100000D33D4670682A4620444946FCF700FD26
:10392000B0687F1B2C44A844A944A04200D10024C5
:10393000F460002FDDD14046BDE8F0872DE9F0416D
:1039400004468846D4E90207C51BE168606816464C
:103950000844B54206D94146FCF7E2FCB819E060DC
:10396000BDE8F0812A464146FCF7DAFC761B08EBFD
:10397000050132466068FCF7D3FCE660F0E7000022
:103980000FB4024610B504A9034B039800F012F9D6
:1039900010BC5DF814FB00009D6500080FB4084BD7
:1039A00010B504A902AA039800F004F9044602A97C
:1039B000002000F0A1FC204610BC5DF814FB0000C4
:1039C000F94200087CB5044600201D461646002931
:1039D0000BD0491ECDE90041044B6A4629463046CA
:1039E00000F0E8F8009A002111707CBDE342000865
:1039F0000907090E002804DB00F1E02080F800141C
:103A0000704700F00F0000F1E02080F8141D7047AF
:103A100002E008C8121F08C1002AFAD17047704797
:103A2000002001E001C1121F002AFBD170470000F5
:103A30002DE9FF5F82B00021DDE90430020DDDF8E1
:103A400040B0034318D044F61050A2F2FF32424374
:103A50001514119801281FD0A5EB0B00401C5FEA3C
:103A6000000A4FF000064E4FDFF83891B04650463E
:103A700015D5CAF1000413E0119801244AA30128C6
:103A800001D16FEA0B010298119AC0E90031C0E937
:103A9000024206B0BDE8F09FCBF10000DFE704462C
:103AA0000021404A491842EB0450CDE9001012E0D1
:103AB000E00707D032463B4640464946FCF780FDCA
:103AC0008046894632463B4610461946FCF778FD4B
:103AD00006460F466410002CEAD1DDE90401DDE959
:103AE0000023BAF1000F06DAFCF76AFD42464B46A6
:103AF000FCF766FD05E0FCF7D5FD42464B46FCF7BA
:103B0000D1FD04460E460022284BFCF753FE03D895
:103B10004FF0FF30014607E00022254B204631469A
:103B2000FCF7A7FCFCF72DFE102409E0002C0ADBB3
:103B30000A220023FCF7B2FB039B30321A55641EA5
:103B400050EA0102F2D1641C039AC4F11103144437
:103B5000119A012A03D0012208430DD10AE008433B
:103B600004D000204FF0110B119072E7A3EB0B056E
:103B70006D1E0DE05B4504DD4FF0000205F101050F
:103B800004E003DA4FF00002A5F10105002AECD0B1
:103B900002981199C0E90231C0E9004579E70000B7
:103BA000000014400000F03F300000000000F0432F
:103BB0000000E03F2DE9FF4F95B09B468946064641
:103BC00000250FE2252877D100242746F84A012155
:103BD000059400E0044316F8013F203B01FA03F08E
:103BE0001042F7D130782A2811D06FF02F033078A7
:103BF000A0F13002092A16D8059A44F0020402EB1B
:103C0000820203EB42021044761C0590EFE759F85C
:103C1000042B0592002A03DA504244F40054059024
:103C200044F00204761C30782E2816D116F8010FC5
:103C300044F004042A280DD06FF02F023078A0F150
:103C40003003092B09D807EB870302EB4303C7189E
:103C5000761CF3E759F8047B761C30786C280FD07B
:103C600006DC4C2817D068280DD06A2814D104E04F
:103C7000742810D07A280FD10DE044F400140AE023
:103C800044F4801401E044F440147278824202D17A
:103C900004F58014761C761C307866280BD013DC73
:103CA000582877D009DC002875D04528F6D046285A
:103CB000F4D047281AD19DE118E0632835D0642854
:103CC00079D0652812D195E1702873D008DC672877
:103CD000F1D069286FD06E280DD06F2806D1B5E0DD
:103CE00073282CD0752875D0782874D05A46179927
:103CF00090476D1C75E1C4F30250022809D00328D7
:103D00000DD0D9F8001004280DD00D6009F1040978
:103D100067E1D9F80010EA17C1E90052F6E7D9F8CF
:103D200000100D80F2E70D70F0E719F8041B8DF814
:103D3000001000208DF80100EA46012003E059F848
:103D400004AB4FF0FF3061074FF0000102D40DE0EB
:103D500008F101018846B9420FDA8045F8DB1AF80C
:103D600008100029F4D108E008F1010188468142D9
:103D7000FADB1AF808100029F6D105985B46A0EB8B
:103D8000080721463846179A00F094FA284400EBB9
:103D9000080507E04DE029E10DE01AF8010B5A464D
:103DA00017999047B8F10108F7D25B46214638468B
:103DB000179A13E142E00A220092C4F302524FF034
:103DC000000A022A08D059F804CB032A4FEAEC7102
:103DD0000AD00DE029E02AE009F1070121F00702ED
:103DE000F2E802C1914609E00FFA8CFC4FEAEC714F
:103DF000042A03D14FFA8CFC4FEAEC71002907DA50
:103E00000A460021DCF1000C61EB02012D2202E0E8
:103E1000220504D52B228DF80420012203E0E207BD
:103E200001D02022F7E7904659E00A2102E0102253
:103E30000DE010214FF0000A00910BE010224FF02E
:103E4000000A44F004040827009203E008224FF01F
:103E5000000A0092C4F30252022A05D059F804CB9A
:103E60000021032A08D009E009F1070121F0070227
:103E7000F2E802C1914605E01FFA8CFC042A01D148
:103E80000CF0FF0C4FF00008220728D5702806D050
:103E9000009B83F0100353EA0A0305D00EE0402292
:103EA0008DF80420012208E05CEA010206D03022ED
:103EB0008DF804208DF8050002229046009B83F0C7
:103EC000080353EA0A030AD15CEA010201D162073E
:103ED00005D530228DF804204FF001087F1E5828A8
:103EE00004D034A003900EA802900DE036A0F9E7AC
:103EF00053466046009AFCF7D1F984460398825CE9
:103F00000298401E029002705CEA0100F0D1029813
:103F100006A9081A00F1200A600702D524F48034AB
:103F200000E00127574502DDA7EB0A0000E0002072
:103F300000EB0A01009005984144401A0590E00307
:103F400006D45B462146179A059800F0B3F905445C
:103F5000002706E001A85A46C05D179990476D1CDE
:103F60007F1C4745F6DBE0030CD55B462146179ADC
:103F7000059800F09FF9054404E030205A4617994F
:103F800090476D1C0099481E00900029F5DC08E060
:103F9000029802995A460078491C02911799904755
:103FA0006D1CBAF10001AAF1010AF1DC65E1000023
:103FB00009280100303132333435363738396162FF
:103FC00063646566000000003031323334353637C3
:103FD00038394142434445460000000000F058F99A
:103FE0000544761C307800287FF4ECAD19B02846E3
:103FF000BDE8F08F620700D4062709F1070222F01E
:10400000070CFCE80223E14603F000485FEA080CD5
:1040100002D00FF2702C0DE05FEA045C02D50FF2C3
:10402000682C07E05FEAC47C02D00FF2602C01E04C
:10403000AFF2700C4FF0FF3823F00043CDF850C0C2
:1040400065280CD006DC452809D046281DD0472815
:104050003DD13DE0662818D067287ED138E00021A8
:10406000112F01DB112000E0781CCDE9000106A929
:104070000EA8FFF7DDFCDDE90F010E9A0391002188
:10408000009207F1010A04914DE04FF000400097C3
:10409000CDE9011006A90EA8FFF7CAFCDDE90F0261
:1040A00003920E9B11990022DDF80CA0009304925C
:1040B00011B9791C00EB010AB7EB0A0004D4C0F176
:1040C000FF3007F1010A0490AAEB0700019044E0D9
:1040D000012F00DA01270021112F01DD112000E05E
:1040E0003846CDE9000106A90EA8FFF7A1FCDDE9DD
:1040F0000F010E9A0391002104910092BA46210704
:104100000CD40399514500DA8A46BAF1010F05DD56
:10411000009AAAF10101515C302908D0B84202DAB4
:1041200010F1040F06DA0121CDE9011015E0AAF122
:104130000101E9E7002805DC049901440491AAEB98
:10414000000102E0411C514500DD8A460499401AF5
:10415000401C01904FF000400290200704D40198C9
:10416000504501DBCDF8048000208DF84F00029807
:104170000DF14F07B0F1004F25D02B200E90029883
:104180004FF0020800280CDA404202902D200E90D9
:1041900007E00A210298FCF737F93031029007F85E
:1041A000011DB8F10001A8F10108F2DC0298002815
:1041B000EFD1791E0E980870307800F0200040F0A2
:1041C000450007F8020D12A8C01B00F1070814985B
:1041D000007800B1012000EB0A01019801EBE071C9
:1041E00005984144401A401E0590E00306D45B4602
:1041F0002146179A059800F05DF805441498007858
:1042000018B15A46179990476D1CE00324D55B46B8
:104210002146179A059800F04DF805441CE00498D3
:10422000002807DBDDE90301884203DD0098405CDC
:10423000179901E0179930205A469047049805F1E4
:104240000105401C04900198401E019004D12E20CD
:104250005A46179990476D1CBAF10001AAF1010A5C
:10426000DDDC05E017F8010B5A46179990476D1CE5
:10427000B8F10001A8F10108F4DC5B462146179A69
:104280000598ABE62D0000002B0000002000000088
:104290002DE9F041044600251E461746880404D443
:1042A00005E039462020B0476D1C641EF9D528462C
:1042B000BDE8F0812DE9F041044600251E469046F8
:1042C000C80301D5302700E02027880404D505E085
:1042D00041463846B0476D1C641EF9D52846BDE8F6
:1042E000F0814A68002A06D00A68531C0B601070DF
:1042F0004868401E486070470A68531C0B60107085
:10430000704700002DE9F04FCB780C684D6863F3DF
:104310001F64CB798E6863F31F65CB7AD0F8009069
:1043200063F31F66CB7BC96863F31F614368634017
:1043300084686C40C568754006694E40012764E09A
:10434000714903F0FF0CC4F3072851F82CC051F851
:1043500028808CEA386CC5F3074851F828808CEA2D
:10436000384C4FEA166851F828808CEA382B04F054
:10437000FF0C51F82C80C5F3072C51F82CC088EAAB
:104380003C68C6F3074C51F82CC088EA3C484FEA19
:10439000136C51F82CC088EA3C2A05F0FF0C51F848
:1043A0002C80C6F3072CF6B251F82CC051F82660C9
:1043B00088EA3C68C3F3074CC3F3072351F82CC0C9
:1043C00051F8233088EA3C484FEA146CC4F30744A0
:1043D00086EA336351F8244051F82CC083EA344311
:1043E0002C0E00EB071651F82410B46883EA312133
:1043F0007368F568366988EA3C2C4E4083EA0B0303
:1044000084EA0A0485EA0C057F1CB94598D83F491F
:1044100051FA83F7C4F3072C3F7811F80CC047EA30
:104420000C27C5F3074C11F80CC047EA0C4701EB09
:10443000166C9CF800C047EA0C6A51FA84F7C5F381
:10444000072C3F7811F80CC047EA0C27C6F3074C3D
:1044500011F80CC047EA0C4701EB136C9CF800C044
:1044600047EA0C6751FA85FCC6F307289CF800C0A0
:1044700011F808804CEA082CC3F3074811F80880AB
:104480004CEA084C01EB146898F800804CEA086C80
:1044900051FA86F6C3F30723C4F30744CB5C0C5DE3
:1044A000367801EB156146EA032343EA044300EB47
:1044B00009140978606843EA0163A168E568246922
:1044C00080EA0A005C401070030A5370030C93707A
:1044D000000E7940D0701171080A5071080C90716B
:1044E000080E85EA0C05D0711572280A5072280C46
:1044F0009072280ED0721473200A5073200C90739F
:10450000200ED073BDE8F08FFCF50008FCF3000826
:10451000F0B540B139B1102A07D0182A07D0202AA7
:1045200007D0E720F0BD0220F0BD0A2302E00C23F3
:1045300000E00E2395080022036009E001EB8203EE
:10454000DC781B6864F31F6300EB8204521C636019
:10455000AA42F3D301682C468A004C4B121D1BE083
:10456000B4FBF5F650F8241005FB1646D6B1062D1F
:1045700005D9B4FBF5F605FB1646042E35D000EB45
:1045800084067160671B00EB840100EB87074E68AF
:104590007F687E40641C4E609442E1D30021002A73
:1045A00043D871E0C1F30726C1F3074C9F5D00EBD0
:1045B0008406776013F80CC047EA0C2703EB116CF4
:1045C00077609CF800C047EA0C4753FA81F17760A6
:1045D0000978DFF8BCC047EA0161B4FBF5F7716008
:1045E0005CF827704F407760CCE753FA81F600EB18
:1045F00084073678C1F3072C7E6013F80CC046EAB6
:104600000C26C1F3074C7E6013F80CC003EB11615C
:1046100046EA0C467E60097846EA01617960B1E7B6
:10462000042902D3141FA14205D300EB810465685D
:10463000C4F8F45025E000EB8104656853FA85F670
:104640003778144EC5F3072C56F8277044F8F47FDA
:1046500013F80CC056F82CC087EA3C67C5F3074C2A
:1046600044F87C7913F80CC003EB156556F82CC0A0
:1046700087EA3C47E7672D7856F8255087EA3525C5
:10468000E567491C9142CBD30020F0BDFCF3000844
:10469000FCFD0008FCF9000870B5064607F061FB58
:1046A000014606F55074002000EB400206EB0215AF
:1046B00095F8402305F550759AB12A6923698A1A3D
:1046C000CB1A9A4200D92C46401C0828ECD321462C
:1046D000304600F077F830212046FBF748FE2046B0
:1046E00070BD30212846FBF742FE284670BD2DE9FB
:1046F000F84306461F460C469046104606F080FDDD
:1047000005462146304600F031F804002AD02078D2
:10471000012802D0E020BDE8F883E06A02280BD32C
:10472000E06906F063FD04F10800D0E90710C4E970
:104730000710E06A401EE0620646284606F074FC58
:1047400004EBC606F06158B10023424619460095B5
:1047500006F0EAFC3762E06A401CE0620020DAE71B
:104760006420D8E740F20D10D5E7000010B50346ED
:104770005FF0000202EB420003EB001090F84043B0
:1047800000F5507014B144688C4203D0521C082AC2
:10479000F0D3002010BD00002DE9F04100240646B2
:1047A0004FEA040704EB440006EB001505F55075CD
:1047B0002946304600F006F8641C2F70082CF1D30F
:1047C000BDE8F08170B508780D4601280BD10024B2
:1047D00006E000BF05EBC400C06906F007FD641CDD
:1047E000E86AA042F6D80020E86270BD10B54FF428
:1047F000C07100F55070FBF7BAFD002010BD2DE927
:10480000F0410C4606461C2A25D32088B0F5807F4F
:1048100021D1608808281ED1207906281BD1607913
:10482000042818D106F5CA752879002813D02968FC
:10483000D4F80E20914210D1012701280AD0304629
:1048400007F046F900F18C01062204F10800FBF79D
:10485000ACFD10B1AF60BDE8F0812868A169884265
:10486000F9D1E08808F048FA012807D00228F2D1EF
:1048700021463046BDE8F04100F006B821463046FA
:10488000BDE8F04100F062B82DE9F0470D46D1F8DF
:104890000E10804600293ED002F0FDFC00283AD1DF
:1048A000A87BC0F303100E2835D005F108000622BE
:1048B00024498146FBF779FD00282CD006222249A5
:1048C0004846FBF772FD002825D0287AC00722D180
:1048D000A969404602F033FD00281CD1D5F80E101E
:1048E0004046FFF743FF040015D0207802274EF61C
:1048F0006026012811D0022818D005280BD1D5F840
:104900000E006060A868A060A889A08107F029FA5D
:10491000C4E904062770BDE8F087A868A060A889EC
:10492000A0812146404600F0CFF8EFE7062204F1CF
:1049300008014846FBF739FD0028ECD00320207021
:10494000E9E700001FF2000825F200082DE9F04118
:104950000C468046D1F80E1002F09DFC00282AD1AA
:10496000D4F80E00C0F303110E2924D008F5CA753F
:104970000127297904F10806012911D12968A269C2
:1049800091420DD1002758B9404607F0A1F800F137
:104990008C0106223046FBF708FD08B10120A86013
:1049A000002F08D0D4F80E20A16933464046BDE858
:1049B000F04100F0B0B8BDE8F08100002DE9F04111
:1049C00017460D468046FFF7D1FE040040F203264D
:1049D00016D02078012806D00328A0683860A08966
:1049E000B88003D00AE03046BDE8F08107F0B9F99D
:1049F000206141F288306061042020700020F3E7DC
:104A00004046FFF749FE040011D00020A061656018
:104A1000E0622946074A404600F0C2F807F0A1F9D3
:104A200020614FF47A70606101202070DBE765201F
:104A3000DAE7000025F200082DE9FC410F46804628
:104A400007F046F8064601A91C2001F08FFB05007F
:104A500033D0019906F019FB0446012008F04CF907
:104A600020804FF4006008F047F960800620207134
:104A700004206071012008F03FF9E08056F88C0FA7
:104A8000A060B088A0810020C4F80E000C482A461F
:104A90000168C4F812108088E082A76140F6060021
:104AA000009008494046019B01F0B0FC04462846AE
:104AB00006F09CFB2046BDE8FC816420FBE700007B
:104AC0001FF2000825F20008F8B5074608780C46E2
:104AD00001281DD1002618E004EBC605E86906F0A0
:104AE0008FFB296A421A3846616802F09EFF4FF434
:104AF00000600090D5E9072304F10801384601F071
:104B000085FCE86906F072FB761CE06AB042E3D8E7
:104B10000020E062F8BD2DE9FC471F46904689461B
:104B2000824606F0D5FF064601A91C2001F01EFBB7
:104B3000050032D0019906F0A8FA0446012008F0D9
:104B4000DBF820804FF4006008F0D6F86080062083
:104B5000207104206071022008F0CEF8E08056F841
:104B60008C0FA060B088A081C4F80E903868C4F89B
:104B70001200B888E082C4F8188040F60600009061
:104B80002A4639465046019B01F040FC044628461F
:104B900006F02CFB2046BDE8FC876420FBE7000004
:104BA0002DE9F74183B090460F46039806F090FF39
:104BB000064602AA394603A802F03AFE002837D179
:104BC00001A91C2001F0D2FA050034D0019906F0A9
:104BD0005CFA0446012008F08FF820804FF4006052
:104BE00008F08AF86080062020710420607101209E
:104BF00008F082F8E08056F88C0FA060B088A081A1
:104C00000298C4F80E000D482A460168C4F8121034
:104C10008088E082A76140F6060000904146019B33
:104C2000039801F0F3FB0446284606F0DFFA20461D
:104C300006B0BDE8F0816420FAE700001FF200082A
:104C40002DE9F047074607F08CF8002605464EF69A
:104C50006029B04606EB460007EB001494F84003C9
:104C600004F55074012806D002281DD0042825D050
:104C7000052833D047E0D4E904100844281A42D468
:104C8000A069401CA061032809D2214A3846616806
:104C9000FFF786FF4FF47A70C4E9045033E02146F1
:104CA0003846FFF78FFD2CE0D4E904010844281AA8
:104CB00029D407F056F8206103200DE0D4E904015F
:104CC0000844281A1FD404F1080238466168FFF727
:104CD00067FFC4E904590520207014E0D4E90401F9
:104CE0000844281A0FD4A069401CA061022808D2E9
:104CF00004F1080238466168FFF752FFC4E904591D
:104D000001E084F80080761C082EA3D3BDE8F0876C
:104D100025F2000810B509F09BFE0BA009F086FEF5
:104D20000323104A00211048FDF7BAFB02230F4A63
:104D300000210F48FDF7B4FB0123BDE810400D4AE8
:104D400000210D48FDF7ACBB637265617465207589
:104D5000636F73696920617070207461736B2E0DCD
:104D60000A0000004C2A0020A59000084C2C0020CE
:104D7000D5E900084C4C002091E500082DE9F041F0
:104D8000174606460025741914F8F00FFF2803D0C3
:104D90006078AD1C0544F6E7FF2B0DD821706370D9
:104DA0001A463946A01CFBF7BBFA6078AD1C2844B4
:104DB0003044FF2180F8F010BDE8F0812DE9F0418A
:104DC00017460D46044606F0CCFF0646082D0FD8C0
:104DD00006F0E8FF0021304601F080FB0246114852
:104DE00011A150F825301748FEF7CAFD06F0BEFFA6
:104DF00000206065C4E9126784F84050A06B002869
:104E00000DD01148266806F0AEFFA36B2A46314646
:104E100020469847BDE8F0410B4806F00EBFBDE8BC
:104E2000F08100007C00002025733A204448435064
:104E300020636C69656E74202573207374617465DA
:104E40000D0A000000010020C800002070B50446D3
:104E5000056806F086FF216B002913D0E26A616EB7
:104E60001144401A0ED4606C00280BD1064806F09D
:104E70007AFF226B294620469047034806F0DDFE64
:104E80000120606470BD0000C800002010B5044619
:104E900006F067FF616E401A4FF47A71B0FBF1F0D3
:104EA0004FF6FF71884200D30846BDE8104080B23B
:104EB00007F022BF2DE9F0410446C0C806F5C275CF
:104EC00006F070FF44A14548FEF75AFD06F04EFF7C
:104ED00006F068FF42A14148FEF752FD06F046FF8A
:104EE00006F060FF0021A06E01F0F8FA024642A130
:104EF0003A48FEF745FD06F039FF06F053FF45A19D
:104F00003648E26EFEF73CFD06F030FF06F04AFF41
:104F100046A13248226FFEF733FD06F027FF06F068
:104F200041FF46A12D48626FFEF72AFD06F01EFFE5
:104F300006F038FF07EB870005EB800400212069AD
:104F400002F07CF8024641A12448FEF719FD06F064
:104F50000DFF06F027FF0021E06902F06FF802461E
:104F600040A11E48FEF70CFD06F000FF06F01AFFF8
:104F70000021206A02F062F8024640A11748FEF7BD
:104F8000FFFC06F0F3FE002406F00CFF05EB8400A6
:104F90000021406A02F052F80346621C3EA10F480D
:104FA000FEF7EEFC06F0E2FE641C022CECD306F0E9
:104FB000F9FE3FA10948D6F88421FEF7E1FC06F08E
:104FC000D5FE06F0EFFE04A10448FEF7D9FCBDE8CB
:104FD000F04106F0CBBE00000D0A000000010020E9
:104FE0004448435020636F6E6669677572617469E7
:104FF0006F6E3A0D0A00000020204C656173652039
:1050000053746172742054696D65203D2025730DC1
:105010000A00000020204C656173652054696D65AD
:10502000203D202575730D0A00000000202054311A
:10503000203D202575730D0A000000002020543209
:10504000203D202575730D0A0000000020204950E6
:1050500076342041646472657373203D2025730D9E
:105060000A00000020205375626E6574204D617344
:105070006B203D2025730D0A0000000020204465B0
:105080006661756C742047617465776179203D2095
:1050900025730D0A000000002020444E5320536564
:1050A00072766572202575203D2025730D0A00005B
:1050B00020204D5455203D2025750D0A000000008C
:1050C00010B5044606F0CAF9206000206060207226
:1050D0006062A062E06220636063A06310BD0000B4
:1050E0002DE9F0410E46044606F05CFE1CA1244862
:1050F000FEF746FC06F03AFE7CB176B1356865B144
:1051000078212046FBF733F93C2231462046FBF755
:1051100007F9307A002618B113E00220BDE8F081CB
:1051200005F119008046FBF739F9182800D318203B
:1051300007460246414604F10800FBF723F9E0194F
:10514000067223460F4A4421284609F0E7FC00284E
:10515000E4D1E66384F84060C5F8C844DEE70000A7
:10516000496E697469616C697A696E672044484365
:105170005020636C69656E742E2E2E0D0A0000009F
:10518000000100202155000870B5040025D0D4E9A5
:105190000051E26B00204AB101EB810105EB810176
:1051A000C1F8940181F89801C1F8A00194F8401069
:1051B000032900D3032084F84000606B00280CD042
:1051C000064806F0D0FD636BEA6F294620469847F3
:1051D000BDE87040014806F030BD70BDC800002039
:1051E0002DE9F05F0568044693460E46284606F012
:1051F0006FFC0746284606F06CFC8246D4F8048013
:10520000706807F07BFD216E884275D130690028F7
:1052100072D0062207F18C0106F11C00FBF7C5F8DD
:10522000002869D136225946304600F062FD070059
:1052300062D0787804285FD194F8400001282AD001
:10524000022834D0072832D0042801D0082853D1AE
:1052500033225946304600F04CFD00284CD04178AE
:10526000042949D1D0F80210407909BA21F0FF0190
:105270000143E1663A225946304600F03AFD4FF0CC
:10528000FF3910B1417804291AD0E06E411C20D0BA
:10529000400820671FE0606A00282DD05022594640
:1052A000304600F026FD002826D0407805E0042294
:1052B00004F15801B81CFBF778F800281CD1C7E7A7
:1052C000D0F80210407909BA21F0FF0101432167AB
:1052D00001E0C4F870903B225946304600F009FDC9
:1052E00010B14178042908D0E06E411C0ED0C0EB0B
:1052F000C000C00860670BE08EE0D0F80210407973
:1053000009BA21F0FF010143616701E0C4F874901C
:1053100001225946304600F0ECFC50B14178042996
:1053200007D108EB880105EB8101D0F80200C1F834
:10533000A00103225946304600F0DBFC60B1417801
:105340008A0709D1042907D308EB880105EB8101FD
:10535000D0F80200C1F8A401A06AD0B906225946CB
:10536000304600F0C6FC010013D04878820710D107
:105370008208002009E000BF01EB800C05EB8003F0
:10538000DCF802C0C3F8A8C1401C904201D2022838
:10539000F2D31A225946304600F0ABFC68B141788E
:1053A00002290AD1408840BA442806D3DAF84810C6
:1053B0004968814201D3C5F88401D7F80200A0658D
:1053C0003069E06506F0CDFCA06694F84000022844
:1053D00012D0042810D008EB880005EB800031695A
:1053E000C0F89411022180F898110022062120466D
:1053F000BDE8F05FFFF7E2BC08EB880005EB80003A
:105400003169C0F89411012180F8981100210A46F1
:10541000C0F89C110521EAE7BDE8F09F2DE9F047AF
:105420000568044691460F46284606F051FB804623
:105430006668786807F062FC216E884236D10622E1
:1054400008F18C0107F11C00FAF7AFFF00282DD1FD
:1054500036224946384600F04CFC002826D04178D8
:10546000042923D194F84010022917D0072915D018
:10547000042901D0082919D106EB8601002005EB8B
:1054800081010246C1F8940181F89801C1F8A00198
:1054900001462046BDE8F047FFF790BC042204F126
:1054A0005801801CFAF781FF0028E5D0BDE8F0879D
:1054B0002DE9F041044617460D46006806F008FB4A
:1054C0000646686807F01AFC216E884225D12869D3
:1054D000002822D0062206F18C0105F11C00FAF703
:1054E00064FF002819D194F84000012815D1362214
:1054F0003946284600F0FDFB00280ED041780429EB
:105500000BD1D0F80200A0652869E0652046BDE80F
:10551000F04100220221FFF751BCBDE8F0810000FC
:105520002DE9F0411F46DDE90646184605F068FE04
:10553000051BF02D3CD3B5F5097F39D821463846F7
:1055400005F0A3FD040033D02078022830D1607824
:1055500001282DD1A07806282AD1D4F8EC001549CD
:10556000884225D135222946204600F0C2FB00287A
:105570001ED0417801291BD1807802280AD0052845
:105580000FD0062814D12A4621463046BDE8F04106
:10559000FFF744BF2A4621463046BDE8F041FFF7F9
:1055A00087BF2A4621463046BDE8F041FFF718BEC6
:1055B000BDE8F081638253632DE9F04792B04FF06C
:1055C00004088DF84480D0F800A00546504606F047
:1055D0007FFA81464FF4967705A9384609F092FA8A
:1055E00006004DD0059905F050FD04463946FAF7FE
:1055F000BEFE0121217061700620A070286E07F0A8
:105600007DFB60600027278167814846E76050F88E
:105610008C1FE161808820841A48C4F8EC00FF20C8
:1056200084F8F000012311AA35212046FFF7A6FBDC
:10563000042305F1580236212046FFF79FFB04237F
:1056400005F15C0232212046FFF798FBCDE9078780
:10565000781ECDE90C80059843224021CDE9002633
:10566000CDE902010CAB442207A9504609F0E4FB46
:105670000446304605F0BAFD204612B0BDE8F0877A
:105680006420FAE7638253632DE9F04792B0012763
:1056900005468DF844700068814606F019FA804688
:1056A0004FF4967A05A9504609F02CFA060057D017
:1056B000059905F0EAFC04465146FAF758FE2770B2
:1056C00067700620A070286E07F018FB60602846FF
:1056D000FFF7DCFB20818020608100274046E760E7
:1056E00050F88C1FE161808820841E48C4F8EC00CB
:1056F000FF2084F8F000012311AA35212046FFF78E
:105700003DFB05F108008046FAF748FE030004D08F
:1057100042460C212046FFF731FB686A28B100237E
:105720001A4650212046FFF729FB0420CDE9070740
:105730000C90401F0D90059843224021CDE9002692
:10574000CDE902010CAB442207A9484609F074FBDD
:105750000446304605F04AFD204612B0BDE8F08709
:105760006420FAE7638253632DE9F04792B005465F
:1057700003208DF844002F68384606F0A9F98246C8
:105780004FF4967905A94846D5F8048009F0BAF98E
:10579000060042D0059905F078FC04464946FAF720
:1057A000E6FD0121217061700620A070286E07F0CF
:1057B000A5FA60602846FFF769FB208195F8400054
:1057C0004FF0000907282CD008282AD080206081BB
:1057D000C4F80C905046012350F88C1FE16180887A
:1057E00020843648C4F8EC00FF2084F8F00011AAA9
:1057F00035212046FFF7C2FA05F108008246FAF784
:10580000CDFD030004D052460C212046FFF7B6FA26
:1058100095F8400002280ED018E0642012B0BDE8D0
:10582000F08708EB880007EB8000A4F80A90D0F816
:105830009401E060CEE7042305F1580236212046AA
:10584000FFF79CFA95F84000022802D0C0B2042865
:1058500006D1042305F15C0232212046FFF78EFABF
:105860000723174A37212046FFF788FA95F840109A
:105870000420072917D0CDE907090C90401F0D908F
:10588000059843224021CDE90026CDE902010CAB69
:10589000442207A9384609F0CFFA0446304605F0FD
:1058A000A5FC2046BAE708EB880107EB81010790C9
:1058B000D1F8941108910C90A86DE0E763825363CE
:1058C000B8F1000810B5040020D006F06BFA10A162
:1058D0001648FEF755F806F049FA154806F0ADF9F6
:1058E000D4E9001202EB820201EB82010020C1F830
:1058F000940181F89801C1F8A0010121E16384F8C5
:1059000040000B4806F02FFA002010BD022010BD09
:105910005374617274696E67204448435020636C0D
:1059200069656E742E2E2E0D0A0000000001002005
:10593000C800002010B5044606F013FA216F4A1C77
:1059400014D00B4A914203D24FF47A72514301E0D2
:105950006FF00041A26E1144411A07D460662046E0
:105960000022BDE810400721FFF728BA10BD000053
:105970009BC4200070B504460068E16B002914D078
:10598000C06F002811D04FF4FA61002005F088FDA7
:10599000054606F0E6F96066002060642A46204667
:1059A000BDE870400121FFF709BA70BD70B504462B
:1059B0000068E16B002914D0C06F002811D04FF4AB
:1059C000FA61002005F06CFD054606F0CAF9606634
:1059D000002060642A462046BDE870400421FFF79D
:1059E000EDB970BD2DE9F0410446D4E9006706F039
:1059F000B8F90546D4E912010144681A27D407EB27
:105A0000870006EB8000D0F89C1129B12046FFF7F3
:105A1000D3FD0022114609E0616D61B1022180F8D9
:105A200098112046FFF746FA002206212046BDE8DD
:105A3000F041FFF7C3B9D0F894113046FEF7FCFFF0
:105A40004FF47A70C4E91250606D401C6065BDE887
:105A5000F08100002DE9F041D0E90087044606F00E
:105A600080F90646D4E912010844301A22D41B48B2
:105A7000E56E854203D24FF47A70454301E06FF042
:105A80000045A06E2844301A16D5606D10B905F097
:105A9000E9FC20662046FFF767FEA664A06E104969
:105AA0002844801BE064884201D94008E064606DAE
:105AB000401C6065BDE8F08107EB8702002008EB21
:105AC00082010246C1F8940181F89801C1F8A00151
:105AD00001462046BDE8F041FFF770B99BC42000A5
